:020000040000FA
:10000000580C0020F9170000234A000029180000AE
:1000100029180000291800002918000029180000DC
:100020000000000000000000000000000D160000AD
:100030002918000000000000B51500000949000063
:10004000B9170000B9170000B9170000B917000070
:10005000B9170000B9170000B9170000B917000060
:10006000B9170000B9170000B9170000B917000050
:10007000B9170000B9170000B9170000B917000040
:10008000B9170000B9170000B9170000B917000030
:10009000B9170000B9170000B9170000B917000020
:1000A000B9170000B9170000B9170000B917000010
:1000B000B9170000B9170000B9170000B917000000
:1000C000B9170000B9170000B9170000B9170000F0
:1000D000B9170000B9170000B9170000B9170000E0
:1000E000B9170000B9170000B9170000B9170000D0
:1000F000B9170000B9170000B9170000B9170000C0
:10010000B9170000B9170000B9170000B9170000AF
:10011000B9170000B9170000B9170000B91700009F
:10012000B9170000B9170000B9170000B91700008F
:10013000B9170000B9170000B9170000B91700007F
:10014000B9170000000000000000000000000000DF
:10015000000000000000000000000000000000009F
:10016000000000000000000000000000000000008F
:10017000000000000000000000000000000000007F
:10018000000000000000000000000000000000006F
:10019000000000000000000000000000000000005F
:1001A000000000000000000000000000000000004F
:1001B000000000000000000000000000000000003F
:1001C000000000000000000000000000000000002F
:1001D000000000000000000000000000000000001F
:1001E000000000000000000000000000000000000F
:1001F00000000000000000000000000000000000FF
:10020000DEE61E284CBBCE8F025B00003C000000E7
:10021000008000000100000000000000000000005D
:10022000FFFF02910000000000000000000000003D
:1002300000000000000000000000000053B94AB9AF
:10024000002908BF00281CBF4FF0FF314FF0FF30DE
:1002500000F06CB9ADF1080C6DE904CE00F006F8C1
:10026000DDF804E0DDE9022304B070472DE9F04732
:10027000089D04468846002B7DD18A4217463FD907
:10028000B2FA82F242B1C2F120009140974024FAC2
:1002900000F0944040EA01084FEA174C230C1FFA83
:1002A00087FEB8FBFCF60CFB168106FB0EF043EA5A
:1002B0000143984205D9FB1802D2984200F22481EA
:1002C000013E191AA3B2B1FBFCF00CFB101100FBAC
:1002D0000EFE43EA0144A64505D93C1902D2A645C3
:1002E00000F20F81013840EA0640A4EB0E0400261C
:1002F0001DB1D4400023C5E900433146BDE8F08775
:1003000002B9FFDEB2FA82F2002A50D1CB1B4FEACB
:10031000174E1FFA87F80126210CB3FBFEFC0EFBDB
:100320001C300B4608FB0CF941EA004189450AD90B
:1003300079182CBF01230023894502D9002B00F036
:10034000D9800CF1FF3CA1EB0901A3B2B1FBFEF097
:100350000EFB101108FB00F843EA0144A04505D943
:100360003C1902D2A04500F2C9800138A4EB080470
:1003700040EA0C40BCE78B4209D9002D00F0B18067
:100380000026C5E9000130463146BDE8F087B3FAE2
:1003900083F6002E46D18B42C0F0A680824240F206
:1003A000A3803046002DA8D0C5E90048A5E79740B6
:1003B000C2F1200301FA02F04FEA174ED94024FAA5
:1003C00003F31FFA87F894400343B1FBFEF01E0CC1
:1003D0000EFB101100FB08FC46EA01418C4509D9CF
:1003E00079182CBF012600268C4502D9002E00F07A
:1003F00093800138A1EB0C019BB2B1FBFEF60EFB22
:10040000161106FB08FC43EA01418C4505D9791811
:1004100002D28C4500F28780013EA1EB0C0346EA34
:10042000004679E7C6F1200703FA06F402FA06FC53
:1004300001FA06FEFA4020FA07F8F94000FA06F33E
:10044000224348EA0E044FEA12484FEA144E1FFABC
:1004500082F9B1FBF8FA08FB1A110AFB09F04EEA1F
:10046000014E70450AD912EB0E0E2CBF012100215E
:10047000704501D9002952D00AF1FF3AAEEB000EC7
:10048000A4B2BEFBF8F008FB10EE00FB09F944EA49
:100490000E4EF14505D912EB0E0E01D2F14538D8BA
:1004A000013840EA0A40AEEB090EA0FB0C89CE45AC
:1004B00041464C4602D306D1434504D20138B8EB3D
:1004C0000C0169EB020415B35A1A6EEB040EF240EC
:1004D0000EFA07F72EFA06F300261743C5E9007354
:1004E0000BE72E46284608E7841A61EB030101203A
:1004F000884657E7ACF1020C394424E702383C4403
:1005000034E702383C44EEE6023E3B44D9E62E4650
:10051000F3E602389644C4E7023839446AE7AAF1A0
:10052000020A9644AAE7023E394476E7704700BFC4
:100530002DE9E04F2746A046A146A246A346A44681
:100540002DED108B4FF0000545EC185B45EC195A6A
:1005500045EC1A5A45EC1B5A45EC1C5A45EC1D5A01
:1005600045EC1E5A45EC1F5AF1EE105A4FF66076D4
:10057000C0F6FF763540E1EE105A84F30088254638
:100580002646A447BDEC108BBDE8E08F2DE9F04F67
:1005900087B00F461946109B06461425104698460C
:1005A0009DF844B09DF848A01E4C4FEAE37950EA0C
:1005B00001031AD1142D08BF3023139C18BF013535
:1005C0002C4408BF8DF81430152C1BD0153C002C82
:1005D0001ADC1DF8050039460135B047152DF8D154
:1005E000002C19DC07B0BDE8F08F42464B46FFF700
:1005F00025FE84460B46A25C60460DF80520194690
:10060000013DD4E70024E4E7BBF1000FE1D0394617
:100610005046B047013CDAE739465046B047013C06
:10062000DEE700BFFD5300000B6801330B60014B98
:100630001B681847000000202DE9F04F00260546F2
:100640008B461C464FF0FF38374687B002F1FF3A21
:100650004FF0000907E0B9F1000F0BD1252800F099
:100660000A815946A8471AF8010F0028F3D107B0AC
:10067000BDE8F08F7A280AD8622810D8302851D0E7
:1006800044D8252800F0F5802D2800F0FB8059463D
:100690002520A84759469AF80000A847D8E7A0F1B6
:1006A0006303172BF3D801A252F823F06B08000064
:1006B0006D0700008F0600008F0600008F06000007
:1006C0004F0700006D0700008F0600008F06000036
:1006D0004F0700008F0600008F0600008F06000005
:1006E000E70700008F0600008F06000033080000B7
:1006F0008F0600006D0700008F0600008F060000C7
:10070000150700008F0600004F070000392815D993
:100710005828BCD19AF80030702B6ED1002354F8C1
:10072000042B75E0B8F1000F0BDA002F00F0AC805D
:10073000A0F13008002F08BF022794E7B8F1000F9E
:10074000F6DB0A2303FB0808A8F13008F2E7682863
:1007500003D1682E06D1482685E76C2802D16C2E7D
:1007600000F09480002E92D106467CE77A2E06D1C6
:10077000A14659F8042BD317752823D10FE06C2E0E
:10078000F6D04C2E05D1073424F00709F9E80223EE
:10079000F2E77528226804F1040912D10023F81E3B
:1007A00018BF0120012F0CBF3024202401900A2003
:1007B000CDE90248009059462846FFF7E7FE4C462F
:1007C00046E7D317002A73F10001E8DA59462D20D5
:1007D000CDE90423A847DDE90423524263EB430338
:1007E00008F1FF38DBE759463020A8475946782002
:1007F000A8474FF0080801278CE76C2E8ED04C2EAE
:100800008CD1E31D23F007031C465B6854F8082BCA
:10081000F81E18BF0120012F0CBF30212021CDE987
:10082000021810210190009128465946FFF7AEFEAC
:100830000EE754F8043B99464A4619F8010B78B97B
:10084000032F25D1A2EB0309A8EB0909B9F1000F89
:100850007FF7FEAE59462020A84709F1FF39F5E79A
:1008600059460493A847049BE6E7594654F8040BFD
:1008700013E7594611E74E464F464FF0FF384FF009
:100880000109F0E60327EEE60127ECE64C26EAE64E
:100890008146E8E607B50B46002102460191034870
:1008A00001A9FFF7C9FE03B05DF804FB29060000AB
:1008B0002DE9F74FB0F81890044619F00808934650
:1008C0000ED001290CBF49F0100949F02009A0F809
:1008D00018908BF31188BFF36F8F03B0BDE8F08FD2
:1008E000DFF898A109F00709022907D1204603F093
:1008F000DEFD0028EDD00128238B4DD16769218BC7
:10090000002F15DA256821F00701C4E9008841F0BD
:10091000010121830026218B01F007024A4502D004
:10092000A368002B59D10DB9002E71D0002355E0DA
:1009300001F007035A1F012A1FD821F00701062BD7
:10094000256889B2C4E900880CD1002D2B4638BF38
:1009500000232BB1628B1B6801326283002BF8D11C
:1009600041F002012046218303F0A1FD0028D1D0EF
:10097000238B43F020032383CCE7042B0AD121F0FF
:10098000070189B22046218303F091FD10B141F0A7
:10099000200121830025BDE7032809D1226923F026
:1009A0000703166843F00603002523832F46B2E7AA
:1009B000042806D1226923F00703566843F0040394
:1009C000F2E7052806D1226923F00703966843F071
:1009D0000503E9E700252E46E8E7012341F0080179
:1009E00021838BF31188BFF36F8F03BB002D34D1AC
:1009F00016B151462046B0474FF02003EFF3118B5C
:100A000083F31188BFF36F8F238B23F008032383B5
:100A1000238BDA062AD5012123F010032383B4F8AF
:100A2000189009F0070900297FF45EAF51E7A1682B
:100A30000029DBD00B68002B38BF002399462046E5
:100A40003B46D1F804B00192D847019AB9F1000FA2
:100A5000CCD04946D9F80030EDE729463B46204640
:100A600001922D6803F03FFD019ABFE713F02001CA
:100A70001EBF23F0200302212383D0E7134500008B
:100A80004FF02002EFF3118382F31188BFF36F8FD1
:100A90000121044AC2F8401583F31188BFF36F8F18
:100AA000002070470090035020B1034B800143F0B9
:100AB00001031847704700BF5051000007B501906F
:100AC0004FF02002EFF3118382F31188BFF36F8F91
:100AD00003F01CFF019800F0C5FF034803F0DAFCA7
:100AE00000F018FEFCE700BF0E5400000E4A70B57F
:100AF000841A05460C200E464021A3100B4C5C4383
:100B0000E4B200FB0420084403F06FFE011E05DB85
:100B1000074B03EBC404636898470021284633461B
:100B2000BDE87040184700BF40020020B76DDBB63B
:100B30006C5100002DE9F0410C25104E8046841BBD
:100B4000A3100F4C0F465C43E4B2654305F140002F
:100B50004021304403F062FE011E09DB094A73198B
:100B6000C3E90E27084B53F83430BDE8F04118476D
:100B700040463B46BDE8F041184700BF4002002018
:100B8000B76DDBB67F4800006C51000070B50022E5
:100B900001210446052000F067FD052000F046FD18
:100BA0000F4801F09DFC0F4B984215D104F03AF824
:100BB000E6680D49304603F0CAFC00280BDB01252E
:100BC0003564E468084904F11C0003F0C0FC002807
:100BD00001DB0020E56470BD6FF00400FBE700BF9F
:100BE000290C00000000AD0B7C51000073B50C23F4
:100BF000014600264B430A48C4184033D4E90E523C
:100C00001844A663019203F027FE35B12B46019AE2
:100C1000044802B0BDE87040184702B070BD00BF84
:100C2000400200209000002010B1012804D070473D
:100C3000034B1B6C5B0701D1FFF7D8BF704700BFA8
:100C40004002002008B54FF02003EFF3118183F339
:100C50001188BFF36F8F124A136843F0020013F03C
:100C6000010310600CD04FF05022D2F80C34D2F8AF
:100C70000C2413F0010303D00A4803F0EDFD012317
:100C800081F31188BFF36F8F23B1BDE808400020C6
:100C9000FFF7ACBF0120BDE8084001F031BC00BF48
:100CA0009002002080020020074BD3E8EF2F22F0B3
:100CB0000201C3E8E01F0028F7D1D30702D40120C6
:100CC00001F050BC704700BF9002002000230122B9
:100CD00010B588B0CDE906320193094B04AC01AAE6
:100CE000CDE90444CDE9023403F0F0FD002805DB32
:100CF0004FF480420023204602F044FA08B010BDB1
:100D0000934800002DE9F843012206463949D1E80D
:100D1000EF3FC1E8E02F0028F9D133B93649374811
:100D20004B60CB608A6003F025FC731E012B32D828
:100D3000012E07D14FF05023D3F81C3403F00303E6
:100D4000022B28D004F065F8044618B92C4B1B7808
:100D5000002B47D14FF02003EFF3118583F3118867
:100D6000BFF36F8F0124274FDFF89C80DFF89C9042
:100D70004FF05022D2F81834D2F81824D2030CD5F0
:100D800003F00303022B01D0012E06D124B385F317
:100D90001188BFF36F8FBDE8F883C4B1284600F017
:100DA000C7FC4FF05022D2F81835DBB2012BDFD14F
:100DB00039680029DCD00021396039680221C2F885
:100DC00018152022C8F88021C9F80030D0E700218A
:100DD000212002F091F9E4E74FF050230222C3F8FA
:100DE0000423D8E74FF0502302220546C3F8082316
:100DF000B9E700BF94020020300200205C0200200E
:100E0000520800200451005000E100E0085000505A
:100E1000821C084B22F07F42C3F84025D3F80425FA
:100E2000904200D17047D3F80405821C22F07F4223
:100E3000F2E700BF005001500022074B1A601B6808
:100E4000064A074BD3F840051368C01A20F07F40CC
:100E50000344136002F022BB40510150980200206D
:100E60000050015038B500244FF400120E4D0F4BC6
:100E7000C5F808451C601B680D4B0121C3F8802193
:100E80004FF480332246C5F80433152000F0ECFB04
:100E9000152000F0CBFB0123064A022013602B60D3
:100EA000FFF730FF204638BD00500150405101503F
:100EB00000E100E008500150F8B52D4B2D4CD3F85F
:100EC00004252D4BB0F1FF3F08BF20461968521A88
:100ED00022F07F43120238D4013820EAE070A042A9
:100EE000A8BF204601331844A04294BF0C180C1927
:100EF0004FF4803000261E4A204DC2F80803D2F875
:100F00000415D2F840352E605B1A23F07F432F681A
:100F1000012B21F07F47C2F84075C2F8440304D189
:100F20000F2003F07CFF2E602B684FF40012144B4F
:100F3000C3F880210E4BD3F80405221A22F07F4219
:100F4000012A04D1FFF764FF0BE00020CAE724F078
:100F50007F42C3F84025D3F80405241A023C23023B
:100F6000F0D44FF48032024BC3F80423F8BD00BF25
:100F700000500150FFFF7F009802002040510150B7
:100F800000E100E04FF02002EFF3118382F31188BB
:100F9000BFF36F8F064AD2F80405064A1268801A1A
:100FA00020F07F4083F31188BFF36F8F704700BF3D
:100FB0000050015098020020F7B500281C460D464D
:100FC00014BF4FF400534FF40043204E954232D3E8
:100FD00002FB03F0013A4B4300901D4803F05AFA1C
:100FE0001C4B14F0100F1C491C4808BF194603F095
:100FF00051FA14F0040F14BF72212D21184803F088
:1010000049FA14F0020F14BF77212D21144803F080
:1010100041FA14F0010F0CBF2D217821104803F084
:1010200039FA6C210E4803F035FA0E4803B0BDE8DA
:10103000F04003F02FBA28B105F5E07746F82740D5
:101040000135C3E705F5C077F8E700BF0030005071
:10105000565400004A54000041540000D555000089
:1010600070540000AB57000008B543B2002B0CDBF6
:10107000012200F01F018A405B091049203341F82A
:101080002320BFF34F8FBFF36F8F830003F1A04383
:1010900003F540533128D3F8002806D0002A07DA98
:1010A00002F00302023A012A02D8054AC3F80028D6
:1010B000012103F07EFC002008BD00BF00E100E03C
:1010C0000001008030B54FF440444CF2040585B077
:1010D0004FF440412C4803F0DDF921682B4803F020
:1010E000D9F929682A4803F0D5F910220021684669
:1010F00003F01AFD236868460093029400F074FE22
:10110000012000F0A1FE002000F08AFE002000F087
:10111000AFFE0121002000F0C9FE00F0BDFE2C68EA
:101120001C4803F0B7F90820FFF79EFF24F00104E4
:10113000BFF34F8FBFF36F8F6408640020462146D2
:1011400022462346B7EE000AF7EE000AB7EE001A71
:10115000F7EE001AB7EE002AF7EE002AB7EE003AD3
:10116000F7EE003AB7EE004AF7EE004AB7EE005A43
:10117000F7EE005AB7EE006AF7EE006AB7EE007AB3
:10118000F7EE007AFFF7D4F9735400008A54000098
:101190009F540000BD5400002DE9F8433B4803F084
:1011A00079F9002140F2171308460122FFF704FFE6
:1011B00040F20713202201210020FFF7FDFE3448F2
:1011C00003F068F9334B344AC3F3C431C3F30E035D
:1011D000C3F50043C3F34313C2F80015C2F8043546
:1011E000D2F80015D2F804252C48520103F052F928
:1011F000274803F04FF903F08AFB014610B1284855
:1012000003F048F90024274803F044F940F217138B
:10121000082200210120FFF7CFFE1F4D40F20713E7
:10122000202208210120FFF7C7FE194803F032F9F8
:10123000C5F880441C4803F02DF91C4FC5F8C04484
:10124000DFF87C801A4DDFF87C906E792146002E05
:1012500014BF3B46434648462A6803F01BF966B96B
:101260001448013403F016F91A2C05F10805ECD1E5
:101270000748BDE8F84303F00DB92879FFF7F4FEFD
:1012800008B10D48EDE70D48EBE700BFF35400004F
:10129000AB570000E07F0000003000501755000001
:1012A0005D5500008D550000AF550000E85400006A
:1012B00088510000D8550000DF550000E7550000B8
:1012C0004E540000CB55000010B500284BD0002A2A
:1012D00049D0264B99423CD9541803F61D239C4211
:1012E0003AD803F0F6FB0020BDE810407146724684
:1012F0007346B7EE000AF7EE000AB7EE001AF7EEF3
:10130000001AB7EE002AF7EE002AB7EE003AF7EE21
:10131000003AB7EE004AF7EE004AB7EE005AF7EE91
:10132000005AB7EE006AF7EE006AB7EE007AF7EE01
:10133000007A8EF3008C10B4F1EE10CA4FF6607490
:10134000C0F6FF740CEA040CE1EE10CA10BCF446BF
:101350007447074B994203D9064B54189C42C0D995
:101360004FF0FF30C0E76FF01500BDE70302FF004C
:101370002F01FF003801FF002DE9F04F81460E4696
:1013800085B0002954D04FF00008DFF8B8B0DFF87E
:10139000B8A001AF5BF8045B9AE807004D4487E80A
:1013A00007000C223946284603F06CFB044608B9B6
:1013B000002D40D108F10108B8F1050FEAD16FF016
:1013C0000D04204605B0B7EE000AF7EE000AB7EEAE
:1013D000001AF7EE001AB7EE002AF7EE002AB7EE71
:1013E000003AF7EE003AB7EE004AF7EE004AB7EEE1
:1013F000005AF7EE005AB7EE006AF7EE006AB7EE51
:10140000007ABDE8F04F714672467346F7EE007AF7
:101410008EF3008C10B4F1EE10CA4FF66074C0F673
:10142000FF740CEA040CE1EE10CA10BCF4467447D9
:101430006FF01504C5E73C222946304603F049FB0E
:10144000BFE700BF5852000020510000014802F0E1
:10145000E7BA00BF6C52000008B530B143683BB139
:10146000006801F0C7FA002008BD6FF4E040FBE718
:101470000048F9E7EA8FFFFF10B5044618B90B4B97
:101480000B485B689847616859B111F00201206808
:1014900008D00146074801F00BFA0023236000231F
:1014A000636010BD142203F03FFBF8E74400002006
:1014B000E85600009C02002010B5044618B9144BF1
:1014C00014485B6898476368CBB92368BBB94FF091
:1014D000FF324FF0FF3321460F4801F0B7F908B94A
:1014E00023681BB90A4B0D485B68984714220021FA
:1014F000206803F019FB636843F00203636020680F
:1015000003F0D4FB636843F00103636010BD00BFC8
:1015100044000020E85600009C0200200E57000006
:1015200008B568B1436873B100684FF0FF334FF0FE
:10153000FF3201F0E7F9054B002818BF184608BD37
:101540006FF4E040FBE70248F9E700BFE98FFFFFD7
:10155000EA8FFFFF08B5064940231422054803F02F
:101560008AFBBDE808400449044802F0ABBA00BF5A
:10157000B80200209C020020845200007452000037
:10158000094A0A49936809689867D96708494B6806
:1015900043F080534B60002383F31188BFF36F8FB8
:1015A0009368D86F704700BFF4070020F052000026
:1015B00000ED00E013498A684FF038001044EFF363
:1015C000098C80E8F01F202080F31188BFF36F8F13
:1015D0000D4F4FF000664A6A8A603E60906F0023AC
:1015E000936780F3118802F1380090E8F01F8CF3C4
:1015F000098802F1000004B503F009FABDE80440CF
:1016000070470000F407002004ED00E01EF0040F16
:101610000CBFEFF30880EFF30980816911F8021C19
:101620000229FFD001B503F0F8F901BD43B2002B48
:1016300008DB012200F01F0002FA00F0024A5B09F9
:1016400042F82300704700BF00E100E0054B42096B
:1016500053F82220012300F01F0003FA00F010408D
:10166000704700BF00E100E043B2002B01F101012F
:10167000ACBF03F16043064B4FEA4111C9B2ABBFA7
:1016800003F5614300F00F0083F80013195470470D
:1016900014ED00E042F8203C009B0B4942F81C3C52
:1016A000019B21F0010142F8183C029B42F8081C02
:1016B00042F8143C4FF0807342F8043C0023203A77
:1016C00082658367704700BF0746000008B504467F
:1016D0000E4615460023E1EE103A00F00DFA094BD4
:1016E0009C60A36E83F30B88284686F3098800214B
:1016F00063B681F31188BFF36F8F0022002302F0DD
:1017000082FF00BFF4070020014910220A607047E1
:1017100010ED00E072B6404080F31188BFF36F8F88
:10172000BFF34F8F30BF62B6BFF36F8F704700BFFC
:1017300072B6494081F3118820BF80F3118862B6E8
:10174000704700BF30BFFFF7FDBF00BF174A08B5A5
:10175000174B22F07F029A60BFF34F8FBFF36F8F5A
:10176000D3F8882022F47002C3F88820D3F88820A8
:1017700042F4A002C3F888200E4A536823F0404385
:101780005360BFF34F8FBFF36F8F0023E1EE103A2A
:10179000EFF3148323F0040383F3148800F072FF43
:1017A00000F07AFF00F070F900F0A8FF00000000E0
:1017B00000ED00E030EF00E001B572B60B4A106AB0
:1017C00000281EBF0021116203F053FA62B6EFF346
:1017D0000580A0F110004FEAC0000549014409C985
:1017E0009847BDE80140034908470000F40700207E
:1017F000104F0000491A000002F0ECFF202080F397
:10180000118808484FF40061401880F30988EFF30D
:1018100014800221084380F31488BFF36F8FFFF711
:1018200095FF0000980D0020EFF30880EFF3098189
:1018300001B5724600F070F801BD00BF0C4B9A6A0A
:101840009A6A9A6A920708D55A6B9A6A120604D560
:1018500018B19A6A22F080029A620020044B9A6AB8
:101860009A6A9A6A9A6A42F0FF029A62087070470E
:1018700000ED00E00D4B9A6A9A6A9A6A920508D5C3
:101880009A6B9A6A120404D518B19A6A22F400423B
:101890009A620020054B9A6A9A6AD20558BF9A6AE2
:1018A0009A6A42F47F429A620870704700ED00E045
:1018B000094B9A6A9A6A986A9A6A9A6A9A6A9A6ABA
:1018C0009A6A10F480106FEA02426FEA124218BF5F
:1018D00002209A62704700BF00ED00E00D4B9A694C
:1018E0005A695A69D0070FD45A6991070CD45A69BA
:1018F000520709D45A69100706D45A69D10603D48D
:101900005A69920658BF5A695A6942F0FF025A61F1
:10191000704700BFD0ED00E0F0B5414B00255B689B
:101920008BB0C3F3080385F31188BFF36F8F02F008
:101930007F44B4F17F4F1ED112F001041AD0560635
:1019400002F0080467D482F00402C2F3800564B197
:10195000EFF389860022033B8DF80720042B4BD838
:10196000DFE803F00B4C50414800EFF38886F1E7C5
:101970000E46EFE725462E46ECE7294BDA6A92073A
:101980003AD4DC6A14F0804408D028331B78EBB1D9
:1019900001200DF10701FFF751FF04469DF80730C4
:1019A00093B92022314602A803F093F8099B6DB346
:1019B000C3F3080222B96FEA53236FEA4323099362
:1019C000204602A903F027F80BB0F0BD154B1B7899
:1019D0002BB101200DF10701FFF74CFFDDE7124BA2
:1019E0001F88BFB217B1FFF763FFD6E70F4B5C69E3
:1019F000002CD3D0FFF772FF0024CFE700200DF1B9
:101A00000701C8E700200DF10701E5E723F4FF73A4
:101A100023F00103D3E7002CAAD10646012599E75C
:101A200000ED00E029ED00E02AED00E0D0ED00E05F
:101A3000044B5A6942F010025A615A6942F48062BA
:101A40005A61704700ED00E0044B9968586A88427B
:101A500003D003494FF080520A607047F40700201A
:101A600004ED00E0BFF34F8F0549064BCA6802F44E
:101A7000E0621343CB60BFF34F8F00BFFDE700BFB1
:101A800000ED00E00400FA05002320210348C218FD
:101A90000133412B82F80013F9D1704700E100E0D7
:101AA00010B5044601F0ACF9114B9B68A34207D175
:101AB000EFF3058383B10F4A536843F080535360BB
:101AC0004FF02003EFF3118083F31188BFF36F8F82
:101AD000BDE8104003F0F1B84FF02003EFF31180A0
:101AE00083F31188BFF36F8FFFF74AFDE8E700BF6C
:101AF000F407002000ED00E010B50E4B88B0029313
:101B00000D4B0E4C03930E4B0E4A049302AB019304
:101B100001A82346012100F007F9002307930A4B8F
:101B20000121E41A05A80593069400F007F908B00E
:101B300010BD00BF000000200000000000000120D8
:101B400006000100000000202801002010B50B68ED
:101B50000C7A23F01F0204F01F031A43CB686409B8
:101B600023F01F03044943EA440343F00103886060
:101B7000CA600B6110BD00BF90ED00E02DE9F04F91
:101B800007468846144600264A4D85B046450BDA7E
:101B900057F82630D3F80490B9F1000F3AD0B9F1D4
:101BA0001F0F05D86FF01504204605B0BDE8F08F73
:101BB00019F01F0FF6D1D3F800A01AF01F0FF1D1C2
:101BC000504602F055FF834609EB0A00013802F047
:101BD0004FFF8345E6D11BF1160FE3D0631E5B4533
:101BE000E0DBC5F808B0E868C5F808B02B6957F81D
:101BF000261020F01F0043F01F0AD1E900321A44DA
:101C0000984202F1FF3918D1CA4505D15FFA8BF02D
:101C100002F00EFF0136B9E7C5F808B0EB6822F014
:101C20001F0203F01F031A43EA60E0B202F000FF54
:101C300010F1160FB6D0441CECE7C5F808B02A69BD
:101C4000013B23F01F0302F01F021343CA45E0B219
:101C50002B61EBD002F0ECFE10F1160FA2D0C5F80C
:101C600008B0EA689DF808300AF1FF3A62F304030D
:101C70008DF808302B699DF808205B0863F3471244
:101C800057F826308DF80820D3E900130B44009351
:101C900023F01F0301305344A3EB0903C0B223F028
:101CA0001F030F2803933FF67DAF6946FFF74EFFF2
:101CB000C1E700BF90ED00E00522034B5A60BFF37F
:101CC0004F8FBFF36F8F704790ED00E0BFF35F8FD2
:101CD0000022014B5A60704790ED00E038B50E4C81
:101CE0002568102D14D8FFF7F1FF00200B4B0C4A8C
:101CF0001A63854205D10B4B1D70FFF7DDFF0020F5
:101D000038BD616801EB0011FFF720FF0130F0E7FB
:101D10004FF0FF30F4E700BF9852000090ED00E074
:101D2000AAFF44005008002010B5034C2278FFF7AA
:101D300025FF207010BD00BF500800202DE9F74F8F
:101D4000264D8A4606464FF00008AB46244FD04544
:101D50001BDAD6F80490B9F1000F39D03168084683
:101D6000019102F085FE0199044609EB010001385A
:101D700002F07EFE84424FF014021A4B08D06FF03E
:101D8000150302FB08F84BF8083003B0BDE8F08FEC
:101D900014F1160F2C60F8D01978A142F5DD02FB82
:101DA00008B0BC60BC60FC6800F10801007B64F313
:101DB0000400087138690C79400860F347140C710D
:101DC000F96821F01F016960396921F01F0129615B
:101DD00008F1010814350C36B9E700BFB807002038
:101DE00090ED00E05008002082680C4B9A60036878
:101DF00083F38888436883F38988027B02F00101BA
:101E0000EFF3948323F00303920748BF43F00203E8
:101E100009B143F0010383F39488704700ED02E0B9
:101E2000084AD36848B123F400531B041B0C43F049
:101E3000BF6343F40033D36070479BB243F4005355
:101E4000F5E700BF00ED00E0084AD36840B19BB25F
:101E500043F4804343F0BF6343F40033D3607047DF
:101E600023F480431B041B0CF4E700BF00ED00E0EB
:101E7000084AD36840B19BB243F0080343F0BF6304
:101E800043F40033D360704723F008031B041B0C9A
:101E9000F4E700BF00ED00E0034AD2F88C3043F4D1
:101EA0004063C2F88C30704700ED00E0084B1A68C0
:101EB00018B142F001021A60704722F001021A6064
:101EC0001A6811B142F00202F5E722F00202F2E7CD
:101ED000D0ED00E0064A00F01F0002EB8000D0F8D1
:101EE000003223F4403343EA0141C0F80012704746
:101EF0000025845008B5094B1A786AB901210D20D4
:101F000019700521FFF7B0FB0D20FFF78FFB4FF095
:101F10000042034BC3F80423002008BD51080020F1
:101F200000D00050284B70B54668284813408342C3
:101F30003BD00DD8062B15D005D89BB1022B36D03F
:101F40006FF0150030E0B3F5801FF9D1012309E0EF
:101F50001F4883422DD0B3F5A00F2CD0B3F5800FCE
:101F6000EED10223D0064CBF0325C2F3401582F404
:101F7000807412F4007FC2F34020C4F3002406D022
:101F800012F4006F766818D001228A40B26040EAED
:101F90004402002042EA032301F01F010D4A43EAF4
:101FA0008503803142F8213070BD0723DAE704232E
:101FB000D8E70523D6E70323D4E7520542BF012221
:101FC0008A40F260E3E700BF0600F0000600100060
:101FD0000200400000258450F8B50D464168C768EE
:101FE000087A05F01F06B2F5A03F46EA40160AD16E
:101FF000674806F01F01803150F82110CC0707D543
:102000006FF02200B7E0B2F5005FF96800F0A4803D
:102010000121F868A9400143F96001217869A940CC
:10202000B2F5A03FBA690CBF08438843B3F5C02F8F
:102030000CBF0A438A43B3F5802F4FF00003BA6107
:102040003A6978610CBF114322EA0101514A3961B2
:10205000D2F80413C9B203F5A27052F82000C0F3FD
:10206000042086427DD121FA03F0C00779D50121F1
:102070009940CC434848D0E8EFCF0CEA040CC0E8C4
:10208000EECFBEF1000FF6D19B0003F1A04303F5A4
:102090005043D3F8100520F00100C3F81005C2F832
:1020A000081300213046FFF715FFFB68EB4013F0E3
:1020B00001034FD07B69EB4013F001045CD0BB6996
:1020C0000022EB40DB0754BF396903254FF00107BD
:1020D0005EBF21FA05F505F00105C5F102052E499F
:1020E00058BFEDB207FA02F4D1E8EF0F40EA04035B
:1020F000C1E8EC3FBCF1000FF6D1D04010F0010375
:1021000034D1910001F1A04101F55041D1F8100501
:10211000403220F4473020F44070C1F810053602F8
:102120009200D1F8100506F4F85692B246EA054638
:1021300002F1A04202F550420643C1F81065136057
:102140001268D1F8102542F00102C1F81025114A99
:10215000C2F8044318460EE00120A84021EA00011D
:102160005AE70133082B7FF476AF9AE70132082A49
:10217000B8D16FF01200F8BD39693046E94001F07E
:102180000101C1F10301C9B2FFF7A4FE2046F2E745
:102190000025845000D00050E80700202DE9F843C6
:1021A0003F4F3E68002E4FD04FF001084FF000091E
:1021B0003C4BDD68D3E905210A4325EA02053A4A8A
:1021C0001B6914695C4025EA040475BB3D603B68EB
:1021D000002301251F463548D0F8042305FA03F1F2
:1021E000114211D09A0002F1A04202F55142116849
:1021F00051B103F5A27150F821101760C1F3042109
:1022000005FA01F112680C430133082BE4D1ECB953
:102210004EB101260027234DEC68D5E905210A437C
:1022200024EA020454BBBDE8F88315EA080F06D07F
:10223000002109F01F00FFF74DFE25EA080509F10E
:1022400001094FEA4808C0E73446C1E7154B596811
:102250000029DDD00D68164F002D38BF00258A6893
:10226000224002D038464B689847002DD0D02B68CA
:102270002946002B38BF00231D46F0E726420CD02C
:10228000296907F01F00F94001F00101C1F10301C4
:10229000C9B2FFF71FFE24EA060401377600C1E742
:1022A0007CD10050CC0700200025845000D0005085
:1022B000B00000202DE9F0430025214C214E54F8B8
:1022C000048CDFF8889085B0A84503D8002005B0BD
:1022D000BDE8F083636A96E807001F6801AB83E8F6
:1022E00007000C221946384602F0CCFB90B98FB19A
:1022F000636A21691B681A6991420BD19A69A169C5
:10230000914207D8E169914204D962695B6932EA76
:1023100003030AD0276A67B10B4802F0BBF84040BC
:1023200080F311884FF0040002DFE36801351C449C
:10233000CAE7484602F0AEF8636A1F60F5E700BFDF
:102340003C0200002C510000515700007A57000059
:10235000054B1868043B1B68092B03D1431E5842E8
:1023600058417047002070473401FF004F4A08B5BC
:10237000136843F0020313604D4B1B68092B01BF28
:102380004FF050230022C3F81421C3F81821FFF79F
:10239000DFFF30B10123474A1360A2F63822C2F8AA
:1023A0007835434B1B68092B07D1434B1B68012B26
:1023B0001EBF0122414BC3F87825FFF7C9FF10B1BA
:1023C0000E223F4B1A603A4B1B68092B04D10022A6
:1023D0003C4B1A6001225A600022D30003F57F03B0
:1023E000D3F80013013108D0D3F800130132D3F829
:1023F0000433B2F5807F0B60EFD1334BDA69D1073C
:102400003BD5324B1946D3F80024012AFBD1C3F83F
:102410000425D1F80034012BFBD12B4BDA69D2070C
:1024200008D5DA69294922F00102DA61D1F80024DD
:10243000012AFBD11A6A01320AD11A6A22F0FF027C
:1024400042F020021A62214AD2F80034012BFBD15B
:1024500000221E4BC3F80425D3F80024012AFBD127
:10246000BFF34F8F1A491B4BCA6802F4E062134353
:10247000CB60BFF34F8F00BFFDE71B6A0133C0D0B5
:10248000134BD3F88C2042F44062C3F88C20D3F86D
:10249000882042F47002C3F88820BFF34F8FBFF347
:1024A0006F8F0D4B0D4A1A6008BD00BFD0ED00E0E4
:1024B0003001FF00384A00503401FF000040005056
:1024C000E4AE03500C4700500080FF000090035022
:1024D00000ED00E00400FA05240000200090D00385
:1024E000044B1A7922B9012218601A710248704708
:1024F00002487047EC0700200000AD0B0C00AD0B4C
:1025000010B1012820D070474FF05022D2F8183473
:10251000D2F81814C90311D503F00303022B0DD10F
:10252000C2F8183500220D4B1A601B6802224FF0CA
:102530005023C3F8042301229A6070474FF05023C0
:102540000122C3F81825EDE70022054B1A601B682D
:102550004FF05023C3F80403186070470451005033
:102560000051005038B510B1012818D038BD4FF0D7
:1025700050230222012142F210751C46C3F80823A1
:10258000154A10601268154A1160D4F81834DB033C
:10259000ECD5012002F044FB013DF6D1E6E74FF017
:1025A0005024002242F210750D4BC4F808031A6043
:1025B0001B680C4B1860D4F80C34D4F80C2403F0CE
:1025C0000103D203D2D5002BD0D0012002F028FB8A
:1025D000013DF0D1CAE700BF045100500C5000503B
:1025E0000051005004500050164B10B51A6852B1FB
:1025F000002018601B6801224FF05023C3F8082305
:10260000114B1B689847114B1A688AB100221A6057
:102610001B684FF05023D3F81824D3F8181402F095
:102620000302012A4FF0020103D1C3F818159A6082
:1026300010BDC3F80813044B0120BDE810401B680F
:10264000184700BF00510050EC0700200451005013
:1026500008B50B4D4FF02002EFF3118382F3118880
:10266000BFF36F8F02F0F3FB012104460228D8BFAD
:10267000084602F0FCFB2C62FFF74CF8EAE700BFCB
:10268000F40700200248034A0021121A02F04CBA53
:10269000280100205408002008B50648064A0749CA
:1026A000121A02F016FABDE80840054A0549064824
:1026B00002F00FBA0000002024010020C4570000DF
:1026C00000000000C457000000000020012208B5EF
:1026D000084B02201A7000F065FF032000F062FF33
:1026E00000F0AAFD01F0B0FE034A137B23F00103C2
:1026F000137308BD52080020A80100202DE980486E
:10270000374BA7B003F5006989F3088883F30A887B
:102710000024E023334D4FF0010B85F82230EC7795
:102720002C766C76AC76EC766B6A2F4E43F4E02315
:102730006B626B6ADFF8CCA043F400236B62AC637E
:10274000FFF776F9FEF7E0FF4FF0FF33AB62EB6285
:1027500040F20113254DADF8243006ABAB602046A6
:10276000CDE9204400F01EFF012000F01BFF00F027
:1027700069FC1F4B6E624FF480621E490593304620
:102780005346CDE9034BCDE90144009400F024FD0C
:10279000737B804623F004033046737302F0B9FA6A
:1027A0000F23154F4FF4A072CDE902431349144B88
:1027B0003846CDE904B4CDE9004400F00DFD7B7B43
:1027C000524623F004037B7305F11803414630465B
:1027D000C5E90633EF602C75C5F80490FEF776FF67
:1027E000980D002000ED00E0A8010020F407002073
:1027F000B85700005808002028010020580C00207D
:1028000051260000CD26000070B50E4B0E4CA342A1
:1028100001D3002070BDD3E9030141EA000212F0A8
:1028200003020BD19D685A61AA4201D11C33EEE725
:102830005E6901320E6059610144F5E76FF01500E1
:10284000E8E700BFD4000020D4000020D3B50C4638
:1028500016461F464FF02003EFF3118183F31188D2
:10286000BFF36F8F43695BB123601B68436183696A
:1028700001338361002081F31188BFF36F8F11E072
:1028800056EA070203D16FF00B002360F3E702461C
:10289000CDE90067044800F04FFB18B9034B9B6873
:1028A0005B69236002B0D0BD53080020F40700200C
:1028B00070B504460D464FF02003EFF3118683F305
:1028C0001188BFF36F8F02F07FFA58B100212A6898
:1028D000C167426102F01DFA3146BDE87040084808
:1028E00000F010B92B6862691A602B686361A369F4
:1028F000013BA36186F31188BFF36F8F70BD00BFEA
:10290000530800202DE9F341044616461F464FF0B8
:102910002003EFF3118883F31188BFF36F8FC3682F
:10292000324A6BB180689168884219D056EA070331
:1029300018D188F31188BFF36F8F6FF00F000CE090
:10294000916891F90E100133E36093682161A360EF
:1029500088F31188BFF36F8F002002B0BDE8F081CB
:102960002169F0E790F90E3091F90E109942A8BF55
:10297000194621EAE17199422CDA00F01FFB054665
:1029800022464146CDE90067194800F0D5FA0028F3
:10299000E3D04FF02003EFF3118683F31188BFF3E8
:1029A0006F8F23682169A34207D033B193F90E30AA
:1029B0009942A8BF194621EAE171A06890F90E304A
:1029C000994209D16DB13146094800F09BF86FF08A
:1029D0000A00C2E70025D3E700F0F0FA0028F2D1A0
:1029E000F0E786F31188BFF36F8FF0E7F40700205C
:1029F0005308002038B583680446002B36D01E4AA1
:102A00009268934235D1DA7B013ADA73C368012BBD
:102A100005D0013BC36000F0D5F8002038BD4FF071
:102A20002003EFF3118583F31188BFF36F8F0169E2
:102A3000806890F90E30994201D000F0BFFA20462C
:102A400002F0C2F9A06058B190F90E202261002274
:102A5000C26702F05EF92946084800F053F8DAE749
:102A6000E06085F31188BFF36F8FD4E76FF0150036
:102A7000D4E74FF0FF30D1E7F407002053080020DF
:102A800010B5084C23685BB1FEF77CFA2268064952
:102A900010440861BDE810400021104602F0E7B97B
:102AA00010BD00BF2C080020F4070020F8B50C462C
:102AB0004FF02003EFF3118583F31188BFF36F8F7D
:102AC0004FF4004140F2E73600270022E1FB0067A7
:102AD000094B30461A6139464FF47A720023FDF7EC
:102AE000ADFB064B1860064B1C60FFF7C9FF85F372
:102AF0001188BFF36F8FF8BDF40700202C08002069
:102B00002808002049B9EFF3058030B9054B5A6A0F
:102B10009B689A4201D0FEF733BD81F31188BFF361
:102B20006F8F7047F40700204FF02003EFF31181FF
:102B300083F31188BFF36F8F044B9A68D37B013BFB
:102B4000D37381F31188BFF36F8F7047F4070020B0
:102B5000094B03F12802824205D19B688B4202D1C6
:102B60004B7BDB0606D1D1E9003213605A600023AB
:102B7000C1E90033704700BFF407002070B5104C66
:102B8000064604F1280002F0BAF80546A368597B0E
:102B9000880644BF41F00801597305B9E5684EB98C
:102BA0005A7BD20606D1AA6922B9DA897F2A01D9CD
:102BB000636270BDAB4201D0FFF762FF6562F8E768
:102BC000F407002010B54FF02003EFF3118483F3D6
:102BD0001188BFF36F8F084B00209A68D37B0133B5
:102BE000D373FFF7CBFF84F31188BFF36F8FBDE87A
:102BF000104002F06EB800BFF407002070B4437BB1
:102C0000DB062AD1836943BB154A114651F8284F88
:102C10008C4218BF2346002B38BF0023D46AB3B1BF
:102C200090F90E6093F90E50AE4203DBA3420ED032
:102C30001B68F4E75A68C0E9003210605860437BB3
:102C400063F07F03437370BC0020FFF797BFC0E9B8
:102C50000014D36A1860D062F1E770BC704700BFFF
:102C6000F407002010B54FF02002EFF3118482F337
:102C70001188BFF36F8F427B510704D484F311880E
:102C8000BFF36F8F10BD22F004024273FFF7B6FF4F
:102C90002146BDE810400148FFF734BF530800202B
:102CA00070B590F90D300146002B02DA1748FFF796
:102CB0004FFF174A104650F8283FD46A834208BF96
:102CC0000023002B38BF0023D3B191F90E6093F994
:102CD0000E50AE4203DBA34212D01B68F4E75868E3
:102CE000C1E90030016059604B7B906863F07F035D
:102CF0004B73431A58425841BDE87040FFF73EBF3E
:102D0000C1E90004D36A1960D162EDE71C08002014
:102D1000F4070020014670B54FF02003EFF3118453
:102D200083F31188BFF36F8F164B174A98681568A5
:102D3000A8421D4606D1FFF7A3FE84F31188BFF316
:102D40006F8F70BD00261660104A1268BAB1C28932
:102D50007F2A14D8427BD20611D10D4A90F90E6019
:102D6000126896420BDB0B4A904208D01A698A42DD
:102D700002DCFFF795FFDEE7521A1A61DDE7002358
:102D80002B61DAE7F4070020240800202C0800203B
:102D9000280800202801002070B50446183002F0F1
:102DA00040F84FF02003EFF3118683F31188BFF34F
:102DB0006F8F94F90D30002B07DA21460E48FFF78C
:102DC000C7FE637B03F07F0363730C4D637BA868CE
:102DD00043F010036373031B58425841FFF7CEFEC4
:102DE00086F31188BFF36F8FAB68A34203D1BDE8B0
:102DF000704001F06EBF70BD1C080020F407002079
:102E0000036E2DE9F041044603B1984704F1180020
:102E100002F007F84FF02003EFF3118683F31188D7
:102E2000BFF36F8F637BD80623D1A2690ABB190653
:102E300007D521461E48FFF78BFE637B03F07F0317
:102E400063731C4B9868021B50425041FFF796FE7B
:102E50000027637B04F1300843F008036373256B9C
:102E6000454500D095B986F31188BFF36F8FBDE853
:102E7000F0819B07ECD52146A068FFF769FE637BD4
:102E800023F0020363730023A360E1E705F1180058
:102E900001F0C7FFA8682946FFF75AFE6B7B28465A
:102EA00023F002036B73AF60EF67FFF7A7FED6E76F
:102EB0001C080020F407002008B590F90D300146E9
:102EC000002B06DA0748FFF743FE4B7B03F07F0336
:102ED0004B73054B9868431A58425841BDE8084067
:102EE000FFF74CBE1C080020F40700202DE9F0413C
:102EF000064614461D464FF02003EFF3118783F377
:102F00001188BFF36F8F01F034FF87F31188BFF38F
:102F10006F8F6B1C08BFB4F1FF3F08D022462B46D1
:102F200006F118000349BDE8F04100F02FBABDE8F2
:102F3000F08100BF334D000010B50C46064B114622
:102F40009868064B1860DDE90223FFF7CFFF2046A3
:102F5000BDE81040FEF714BBF40700202408002051
:102F6000F8B5054601F09EFF2C184FF02003EFF353
:102F7000118783F31188BFF36F8F0D4E0D4BB0682F
:102F80001860FFF799FFB0680B492A46EB17183015
:102F900000F0FCF9B2683846537B43F010035373DA
:102FA000FEF7EEFA01F07EFF201A20EAE070F8BD8D
:102FB000F407002024080020334D00002DE9F041E3
:102FC00004464FF02003EFF3118883F31188BFF319
:102FD0006F8F437B4EB2DB062ED1856965BB184FE0
:102FE000214607F12800FFF7B3FDBB6AFA6A834266
:102FF00018BF1D46002D38BF0025A673B5B195F941
:103000000E10B14203DCAA4210D02D68F6E76A68C0
:10301000C4E9005214606C600120FFF7AFFD01208D
:1030200088F31188BFF36F8FBDE8F081C4E9000217
:10303000FB6A1C60FC62EFE70020A673F0E700BFAC
:10304000F40700200021044B084603F12802C3E9DD
:103050000A22FFF72BBD00BFF4070020F8B5244C6F
:10306000244BA2689A4230D04FF02003EFF3118531
:1030700083F31188BFF36F8FA16804F12800FFF775
:1030800067FDA36AA268834208BF0023002B38BFF4
:103090000023E16A2BB392F90E7093F90E60B742E8
:1030A00003DB8B421DD01B68F4E75968C2E900318D
:1030B0000A605A60537B012063F07F035373FFF76C
:1030C0005DFD85F31188BFF36F8F4FF02003EFF3A1
:1030D000118083F31188BFF36F8FBDE8F840FEF7CE
:1030E0004FBAC2E90001E36A1A60E262E2E700BF98
:1030F000F4070020280100200B46013308BFB0F17F
:10310000FF3F10B506D10B4B9868FFF745FE4FF017
:10311000FF3010BD044648B9FFF7A0FF4FF47A70A6
:1031200084FB0034D80B40EA4440F2E7FFF718FF75
:103130000446F3E7F4070020014B9868704700BF8E
:10314000F407002038B504464FF02003EFF3118553
:1031500083F31188BFF36F8F01F036FE48B1002270
:10316000C26701F0D6FD2946BDE838400448FFF7A4
:10317000C9BCD4E902329A4218BF0133A360F2E716
:103180005308002037B514461D464FF02003EFF3D7
:10319000118183F31188BFF36F8F836843B1013BC3
:1031A000836081F31188BFF36F8F002003B030BDBF
:1031B00054EA050306D181F31188BFF36F8F6FF0D6
:1031C0000F00F3E70246CDE900450248FFF7B4FEE1
:1031D000ECE700BF530800202DE9B04100F13005B5
:1031E00085B0C0E90C550E9D044605730425457352
:1031F0000D9D07328573002522F00702C0E91A12DF
:1032000001EB02080C9AC0E90655C57305670292E6
:103210000B9A01920A9A00924246FEF73BFA054B3E
:10322000C4E917559B6803B15B6F4046636705B0FF
:10323000BDE8B081F40700202DE9F0472A4E2B4D60
:10324000B04686B0B54205F1300410D3FFF76CFCF0
:103250004FF4004940F2E7360027244CDFF890A0F5
:10326000444521D306B0BDE8F047FFF7ABBC54F8A6
:10327000043C059354F8103C049354F8143C039315
:1032800054F8183C029354F81C3C019354F8203C29
:10329000009354E90A2354E90C01FFF79DFF54F809
:1032A000303CDD652546CDE7636A5A1C0DD03046BB
:1032B000394623EAE373C9FB0301B94208BFB042B0
:1032C000256804D12846FFF7CDFC3034C8E74FF419
:1032D0007A720023FCF7B2FF02460B4605F1180094
:1032E000514600F053F8F0E7D4000020D40000204D
:1032F000334D0000034B1B680BB9FDF743BE0020A4
:10330000704700BF3008002030B5036868B10A4A32
:103310005268904209D043B1D3E90421D0E9044571
:10332000121945EB0101C3E90421426813605A6098
:103330000023C0E9003330BD28000020114B10B538
:103340001C689C4208BF0024FFF7D4FFBCB1D4E93D
:103350000423121A63EBE073B2F1004F73F1000122
:103360000DDA1946002A71F10003104600DA002038
:10337000054B1B6913B19842A8BF184610BD6FF0EA
:103380000040F5E728000020F40700202DE9F74F62
:10339000019119464B1C08BFB2F1FF3F82466BD02A
:1033A0006FF001034FF0FF3B541C41F10005B3EBFC
:1033B00004086BEB0509B8F1000F79F100030FDB8E
:1033C000FFF798FF6FF00103324AD2E9001C5B1A45
:1033D0006BEB0C021E1B62EB0507341A67EBE07502
:1033E000019BCAF808304FF02003EFF3118683F3F6
:1033F0001188BFF36F8FFFF77DFF012C75F100037C
:10340000BCBF01240025244B24181A6845EBE07545
:103410009A42CAE9044501D05F6852B95A68CAF8AD
:103420000030CAF804205A68C2F800A0C3F804A00B
:1034300014E0D2E90489DAE90445444575EB090151
:103440001DDAB8EB040069EB0501C2E9040151681B
:10345000CAE90021C1F800A0C2F804A01A689A4283
:1034600006D0924504D1FFF769FF0021FDF724FD46
:1034700086F31188BFF36F8F03B0BDE8F08FB4EB14
:10348000080065EB0901BA42CAE90401C6D0126816
:10349000C3E700BF28020020280000202DE9F74FD5
:1034A0000646FFF737FC4FF02003EFF3118483F358
:1034B0001188BFF36F8FDFF8B0A02A4D5146DFF8B7
:1034C000ACB02E60D5F800C0DBF800006246DAE947
:1034D0000089D3175845CDE900230DD060B1D0E95C
:1034E0000467B445BB411DDA009BB6EB030C019B9E
:1034F00067EB0306C0E904C60026009B2E6013EBB1
:103500000802019B43EB0903C1E90023FFF716FF03
:103510003146FDF7D1FC84F31188BFF36F8F03B000
:10352000BDE8F08F0022002318EB060849EBE6798E
:10353000C0E90423ACEB0606CAE900892E60FFF758
:10354000E3FE84F31188BFF36F8F836898474FF0D1
:103550002003EFF3118483F31188BFF36F8F0249C7
:10356000B0E700BF3008002028020020280000201B
:1035700010B54FF02003EFF3118483F31188BFF3EC
:103580006F8FFDF7FFFC064BD3E90023121843F1C0
:10359000000384F31188BFF36F8F1046194610BDE6
:1035A00028020020F8B5104B104F53F8205001307E
:1035B00053F82060AE4200D8F8BDD5E9003420466B
:1035C000984770B16CB10123E41B094A24116109C9
:1035D00052F8210004F01F0403FA04F4044342F8F3
:1035E00021400835E6E700BFF452000090000020BB
:1035F000D000002038B5064C064DAC4201D3002067
:1036000038BD2046D4E9011201F050FC1434F4E72F
:10361000D4000020D400002001F044BA0A46002162
:1036200001F082BA10B5114800F048F800B110BDA1
:103630000F4800F043F80028F9D10E4C204600F066
:103640003DF80028F3D10C4B0C481C6000F036F814
:1036500001460028EBD100F02DF8044608B12046C1
:1036600010BD00F051F82046FAE700BF3C000020F2
:1036700030000020380000204000002034000020EE
:1036800008B5084800F024F8074800F021F807487A
:1036900000F01EF8064800F01BF8BDE8084000F0F6
:1036A0000BB800BF3C000020300000203800002094
:1036B0003400002000207047704700BF08B5034B5E
:1036C00002681B6810689847002008BD540000205D
:1036D00008B5034B02685B6810689847002008BD76
:1036E00054000020024B02689B681068184700BF16
:1036F0005400002008B5034B0268DB681068984747
:10370000002008BD5400002070B5094C094D206907
:10371000AB68984718B1084B08485B689847002188
:10372000074AEB6811602069BDE87040184700BF88
:1037300064000020540000204400002008530000D2
:103740003408002070B51A4D1A4E0446B268286934
:103750009047F0B95CB1184C2368ABB1012B1AD07B
:10376000013B23602869F3689847002070BD124C24
:10377000216839B90120114B114AC3F800051368BB
:10378000002BFCD101312160F368286998470020A3
:1037900070BD0C4870BD0A4A1368002BFCD1074A63
:1037A0006FF07E40C2F8003500F020F82368D7E7BC
:1037B00064000020540000203408002000008450E1
:1037C00010198450E98FFFFF0020704700207047D8
:1037D000430503D54FF0FF32024B1A60024B1860CD
:1037E000704700BF08118450081A8450014B1860BC
:1037F000704700BF041A845008B100F003B84FF4BA
:10380000750070470246074803681342FCD021B197
:10381000054B06481B680B600360054B00201A60CF
:10382000704700BF001A845004118450081184505E
:10383000081A845000F09EB838B131B1002201441A
:103840000346013081421A70FAD170472DE9F041E8
:10385000ADF51A7D0E4605920021144612A84FF4CC
:1038600008721D4601F060F90021282208A806917F
:1038700001F05AF9002E3CD0002D3AD0002C38D05F
:10388000042106A8FFF7CAFE08A82821FFF7C6FEF4
:1038900008A800F031F878B14FF0FF374FF4087105
:1038A00012A8FFF7C9FF042106A8FFF7C5FF384695
:1038B0000DF51A7DBDE8F08112AB0DF11C08024632
:1038C000CDE90153039005AB08A9CDF8008006A807
:1038D00000F014FD0028DFD12B68A342DCD3D8F818
:1038E00000100746224630460831FFF795FE2C604F
:1038F000D4E74FF0FF37DAE71C2330B583B001A9D6
:103900000446019300F0CEF9054638B9019B1C2B03
:1039100007D0164D20461C21FFF780FE284603B035
:1039200030BD0121D4E90032003B18BF0123E16121
:103930000AB143F00203A26832B9E26842B9C4E9AD
:1039400008328BB90A4DE5E7E26843F004033AB167
:103950000022284643F00803C4E9083203B030BD12
:103960001546C4E90832D9E71546D7E7370CF00009
:103970000E0CF00010B50C4C236813B10B4B1B68F8
:103980002BB900F04FF930B90122084B1A6001231E
:103990000020236010BD0138062801D9044810BD5D
:1039A000044B53F8200010BD380800203C080020CC
:1039B000FE8FFFFF2853000010B50A4C23681BB18F
:1039C00001230020236010BD00F098F80028F7D0F4
:1039D0000138062803D8044B53F8200010BD0348D3
:1039E00010BD00BF3808002028530000FE8FFFFFE5
:1039F000BFF34F8F0549064BCA6802F4E0621343D8
:103A0000CB60BFF34F8F00BFFDE700BF00ED00E0CC
:103A10000400FA05014B5B68184700BF4400002012
:103A2000024BD0E90012C3E90012704744000020A5
:103A300048B143682BB1BFF35F8F00230360184682
:103A40007047024870476FF4E0407047EA8FFFFF0D
:103A500010B5044628B1636813B100232360636086
:103A600010BD024B02485B689847F4E74400002011
:103A70004453000010B5044630B100226368226050
:103A800043F00103636010BD0148FFF7C3FFF4E793
:103A90006C53000080B1436863B10122D0E8EF3F6E
:103AA000C0E8E12F0029F9D1012BF7D0BFF35F8FD8
:103AB00000207047024870476FF4E040704700BF35
:103AC000EA8FFFFF70B40B4B0668C268D0E901545F
:103AD000C3E90242C3E90065D1E903020E68064B5F
:103AE000D1E90154C3E90065C3E902401A6170BC21
:103AF000704700BF540000206400002010B5FFF79D
:103B000063FE20B10324FFF7BBFD204610BDFFF785
:103B100089FD90B9FFF716FE90B90F4B1B681B0E7D
:103B2000F02B08D10D4A0E4B12689A420AD0072496
:103B3000FFF74CFEE7E70624FAE70424204610BD11
:103B40000024F5E70120FFF7FDFD04460028F7D12A
:103B5000044B1860D9E700BF28198450241A8450F8
:103B60000000E0200C1A845030B5ADF5157D4FF4FF
:103B7000087200210CA800F0D7FF0021282202A81B
:103B8000019100F0D1FF02A8FFF7B6FE20B1052495
:103B900020460DF5157D30BD1D4D4FF0FF312868D5
:103BA000FFF7A0FD0446E8B90020FFF7CBFD58BBA6
:103BB0000CAA02A901A800F0EDFB04460120FFF7C2
:103BC000C1FDE8B92868FFF795FD28B9002CDED1C2
:103BD00020460DF5157D30BD0E48FFF71BFF002C6C
:103BE000F6D0D4E70C48FFF715FF012CDCD128688C
:103BF000FFF780FD0028CAD00648FFF70BFFC6E795
:103C00000648FFF707FFDDE70548FFF703FFCFE7AB
:103C100040000020A853000090530000E053000033
:103C2000C053000008B5FFF7CFFD18B1FFF728FD1E
:103C3000032008BDFFF7F6FCC0B9FFF783FDB8B954
:103C4000144B1B681B0EF02B0AD1134A134B12683E
:103C50009A4217D0FFF7BAFDFFF712FD072008BD03
:103C6000FFF7B4FDFFF70CFD062008BD042008BDDA
:103C7000FFF7ACFDFFF704FDFFF776FF002818BF44
:103C8000052008BD0120FFF75DFD0028F0D1044BA1
:103C90001860F1E728198450241A84500000E020AD
:103CA0000C1A8450002866D0002964D00B681C2BA5
:103CB00061D14FF47F033B4AD3F8101C91425CD092
:103CC000D3F8102C013258D0D3F8102C4FF47F03C6
:103CD0000260D3F8141C344A914260D0D3F8142CFB
:103CE00001325CD0D3F8142C4FF47F034260D3F838
:103CF000182C12F5947F4FD0D3F8182C01324BD0EA
:103D0000D3F8182C4FF47F038260D3F81C1C274A89
:103D100091423ED0D3F81C2C01323AD0D3F81C2C5F
:103D20004FF47F03C260D3F8002C70322FD0D3F849
:103D3000002C01322BD0D3F8002C4FF47F0302610A
:103D4000D3F8042CAF3220D0D3F8042C01321CD08D
:103D5000D3F8042C4FF47F034261D3F8081C144AB3
:103D600091420DD0D3F8082C013209D0D3F8083C89
:103D70008361002070470120704740F6FC02A5E7F0
:103D800040F237338361002070475122E2E79022EE
:103D9000D3E742F60412C3E740F6D862B2E742F234
:103DA000D002A1E7FCF8FFFFD020FFFF0429FFFFAE
:103DB00037F3FFFF2DE9F843002877D00C460029A0
:103DC00074D01D46002B71D006461AB10122002383
:103DD0002A6003602B68002B64D02946204600F03F
:103DE00015FB074600285ED12146286800F0F0FA4E
:103DF0000746002857D12B68082B66D0042B67D0C4
:103E0000A3F10208B8FA88F84FEA581801239C4633
:103E1000314A3249136010460B60943AC0F800C032
:103E2000636A136011688B42F8D14FF000092C4B84
:103E30004FF0FF30C3F80090FFF7CAFC294B2A4A25
:103E400048461A60FFF7D2FC284A294BC2F8008086
:103E5000186840F48060FFF7C9FC0A22254B1A60FD
:103E6000089A2369012A616A24D0234AA2FB03230A
:103E70001B09012203FB01F303EB43031F49DB038F
:103E80009B090B60164B38461A6033682A6823F08A
:103E90007F4343EA026333602A6843EA02233360C4
:103EA000BDE8F883164F3846BDE8F883154F38460D
:103EB000BDE8F8834FF47F03D3F80C2C013202D015
:103EC000D3F80C3CD1E71623D3E74FF003089DE766
:103ED0004FF002089AE700BFC4118450401184508B
:103EE0002C11845000118450FEFFFF0F0C118450E0
:103EF000041A845038118450ABAAAAAAD81184504D
:103F0000310CF100350CF100F0B40024C900264654
:103F1000274601F1FF3C06E09F4215D0012665458A
:103F200018D82C461F46630950F8233004F01F01AF
:103F3000CB401F2904F1010518BF03F00103002C39
:103F4000EAD101263546ECE701369642E7D103482F
:103F5000F0BC70470020F0BC704700BF360CF10089
:103F600000285FD02DE9F0414C1EB4F5047F26D225
:103F70002BB322B3CC00012B04F1FF3E2FD0002144
:103F80008C460F460D4603F1FF384C0950F824408B
:103F900001F01F06F4401F2E18BF04F0010421B9E0
:103FA0000125AC4629462746EFE7AB4213D0A7428E
:103FB00001D10CF1010C454504D1624502D21A48E9
:103FC000BDE8F0813C4601318E4505F10105EAD29C
:103FD0000020BDE8F08100254FF0010CF3E700263A
:103FE000B446374631464B0950F8233001F01F05DF
:103FF000EB401F2D18BF03F0010339B15FB99C4599
:1040000001D0634608E06346013605E001263146EB
:104010009C460127E7E73E46B242D0D30131A14298
:10402000F6D1D5E700487047370CF1002DE9F04F85
:104030008DB0189E07460C46179D002E4CD1D1F826
:1040400010B000211D60169B1960002A00F01E812F
:104050009A4A9B4B1168626A1B689A4247D10A29A7
:1040600045D1FB7804930423B8460293954BA3FBF8
:104070000B234FEA930A0AEB4A0305F10802039265
:10408000ABEB430A169BC3F800B0BBF1000F00F086
:10409000C3805D464FF00009039E00F0C7F900237E
:1040A0000593B8F1000F00F0E580002C00F0E280ED
:1040B000049B002B00F0DC80204604A900F0A6F948
:1040C000B8B1814B984240F0A780029000F0AEF961
:1040D00002980DB0BDE8F08F4FF47F01D1F80C0CC1
:1040E00001300CBF4FF4047BD1F80CBCA9E7774832
:1040F000EBE72146049800F06BF90028E1D1049F1A
:10410000082F00F0B980042F00F0B880A7F1020753
:10411000B7FA87F77F09012319466D48036040F815
:10412000843C6B4B66481960636A03600068834295
:10413000F7D10023674A4FF0FF301360FFF748FBC9
:10414000002365491846654B1960FFF74FFB64492A
:10415000644B0F6018685B4F40F48060FFF746FBCC
:104160000A210122554B604819602169636AA7FB47
:1041700001C1090903FB01F303EB4303DB039B09C3
:104180000360544B05A81A600499D8F800200B026C
:1041900043EA016322F07F421343C8F8003000F085
:1041A00007F900288DD1514BA7FB05271A68143356
:1041B000069253F8102CB9EB970F079253F80C2C7A
:1041C000089253F8082C099253F8042C0A921B68A1
:1041D0000B9302D1BAF1000F41D1182230460DEBFA
:1041E0000201FFF719FA183D183609F10109002DEF
:1041F0007FF453AFBBF5047F5DD8039D5946284635
:104200006269FFF781FE00284BD00023169A1360E5
:104210002D4B98423FF459AF049D082D34D0002215
:1042200004AB214640466D0000920495FFF7C2FDA5
:104230002F4B984224D000287FF447AFD8F80020B5
:10424000130A03F47F03134323F07F43C8F80030BD
:10425000029B013B02937FF415AF002035E7304607
:10426000524606A9FFF7D8F9A5EB0A055644BCE764
:104270001F4826E71F4824E703274CE702274AE7A1
:10428000236A002B3FF421AF1B481EE70122214681
:104290003846009604ABFFF78DFD00283FF4E3AEEF
:1042A00013E74FF4806359462846A269FFF758FE8A
:1042B0000028AAD1D1E7169B1D60ADE738118450C4
:1042C00030118450ABAAAAAA020CF100300CF10004
:1042D000C41184502C118450FEFFFF0F0011845034
:1042E0000C118450041A8450D81184501411845035
:1042F000310CF100350CF100320CF1002DE9F041E8
:104300001F4E84B004460D4630684FF0FF31904692
:104310000C9FFFF7E7F9D8B90020FFF713FAF8B9B7
:1043200000230B9A204600920293424629460A9B9C
:104330000197FFF77BFE04460120FFF703FAD0B98F
:104340003068FFF7D7F978B9204604B0BDE8F081AE
:104350000C48FFF75FFB0020FFF7F4F90028DFD0DF
:104360000948FFF757FBDBE70848FFF753FB2046F8
:1043700004B0BDE8F0810648FFF74CFBE0E700BF62
:104380004000002090530000C0530000A8530000DC
:10439000E053000010B5012486B005ABCDE901243F
:1043A0000093002204ABFFF741FE06B010BD00BF32
:1043B000014608B54FF48060FFF71EFA002302495A
:1043C000024A0B60136008BDC81184502C11845040
:1043D0000138072805D8DFE800F00A0E04120404AB
:1043E000040609487047CB6800204B6270470B6891
:1043F00000204B6270474B6800204B6270478B680F
:1044000000204B62704700BF310CF1000B6802E0E6
:10441000082B0B6006D8026A13424FEA4303F7D019
:104420000020704700487047310CF1000023044918
:10443000044A0B604FF480601360FFF7C9B900BFF6
:104440002C118450C411845008B5FCF7A5FEBDE8BA
:104450000840FCF737BE60B1436803F00303012B4B
:1044600003D0032B05D103681BB1002383601846DA
:1044700070476FF01500704700224368816003F0B9
:104480000303032B14BF13460368426018467047AA
:10449000002070470FB407B504A951F8040B01912F
:1044A000FCF7F8F903B05DF804EB04B07047038B38
:1044B00013F0070305D10368002B0CBF0020032075
:1044C0007047022B05D1438B002B14BF0020042022
:1044D0007047012B05D10368002B0CBF002005207D
:1044E00070470020704773B50D4606461946281DD3
:1044F00001920093FFF7C0FF044640B1DDE90032AE
:1045000029463046A44602B0BDE87040604702B07C
:1045100070BD10B44FF02004EFF3118284F31188C2
:10452000BFF36F8F41615DF8044B0121FCF7C0B907
:1045300010B50C4640B139B1081DFFF78CFF28B902
:10454000A36833F0030301D06FF0150010BD38B538
:104550000C46054658B151B10B6843B14B6833B1B5
:104560001C22002100F0E0FA00202C6138BD6FF021
:104570001500FBE770B504460E46FFF7D9FF051E90
:1045800031DB4FF02003EFF3118183F31188BFF388
:104590006F8F4FF6FF75638B208BAB4200F00702E5
:1045A0002ED0022A0ED1013363831546012381F3F5
:1045B0001188BFF36F8FB3B1002331462046FFF758
:1045C00092FF10E0830701D0062A0ED1002333604A
:1045D000636893B9C4E90066154662B90A46204685
:1045E0000221FCF765F9284670BD052A0CBF6FF063
:1045F00022056FF004050023D9E71E606660EBE733
:104600006FF00A05F7E7044608B5084611461A4652
:10461000A047FEF791FDFDF743FA836800EBC10167
:10462000B3F5004F2CBF51F8220031F8120070474B
:1046300000EBC1018068B0F5004F2CBF41F822307B
:1046400021F812307047012208B5FFF7E6FF400855
:1046500008BD836800EBC101B3F5004F08D34B6878
:104660001AB143F001034B60704723F00103FAE7EE
:104670004B881AB143F001034B80704723F00103CC
:10468000FAE753000122FFF7D3BF80680131B0F58C
:10469000004F2CBF02200120081AB0FA80F0C0F1B0
:1046A0001F0070472DE9F04104460D46FFF7CBFF90
:1046B000A3680146B3F5004F01D3012835D0204649
:1046C000FFF7E3FF04EB800216699EB9012303FAAA
:1046D00000F0E36829460343E360204615612B465A
:1046E0000222FFF7A5FF032229462046BDE8F0413C
:1046F000FFF79EBF022231462046FFF78EFF074696
:104700000346022229462046FFF792FF3346032242
:1047100029462046FFF78CFF032239462B462046C8
:10472000FFF786FF02223146DFE7BDE8F081B2F5F0
:10473000802FF8B52CBF082504250023551B002227
:10474000CC1D24F007040460C4E9002300230D44B9
:1047500025F007052D1BED0829462046A560E360DE
:10476000FFF793FF8600411C18461B36F60804F13C
:1047700010028B4229DB324620460021FFF781FFE1
:10478000AF1B204601220021FFF763FF3A46314666
:10479000FFF777FF3346314620460022FFF748FFF8
:1047A000294620460022FFF76CFF3B46294620465B
:1047B0000022FFF73DFF294620460122FFF749FF6F
:1047C0003146BDE8F840FFF76DBF42F8040B0133F6
:1047D000CFE77047FDF7CABDCBB20C21C26803FB1F
:1047E0000121086C00F0070070474FF02003EFF341
:1047F000118283F31188BFF36F8F036813F0C00336
:1048000001D08B4207D101230360002082F311887D
:10481000BFF36F8F70474FF0FF30F7E710B54FF0E1
:104820002003EFF3118283F31188BFF36F8F0368C6
:1048300003F00704012C06D10160002082F31188E7
:10484000BFF36F8F10BD03F0C0038B4214BF4FF056
:10485000FF306FF00F00F1E74FF02003EFF311820C
:1048600083F31188BFF36F8F036803F0C00343F035
:104870000203036082F31188BFF36F8F704710B497
:104880001C24C068CBB203FB040000215DF8044B7C
:1048900010471046FEF756BC0020FDF763BE00200F
:1048A000FDF72EBE38B50C23CCB263430546C06875
:1048B000403380211844FFF798FF002805DB696822
:1048C00001EBC40463689847002038BD2DE9F0412E
:1048D0004FF00C08CDB208FB05F8C468064608F195
:1048E0004000802120441746FFF798FF002809DB8D
:1048F0007B684444A363BB68E363736853F8353053
:1049000098470020BDE8F08170477047704700234A
:1049100007B501A88DF80430FEF78CFF03B05DF8F1
:1049200004FB902908B5134639D10A4601460020F8
:10493000FEF78CFFBDE80840714672467346B7EE3D
:10494000000AF7EE000AB7EE001AF7EE001AB7EE0B
:10495000002AF7EE002AB7EE003AF7EE003AB7EE7B
:10496000004AF7EE004AB7EE005AF7EE005AB7EEEB
:10497000006AF7EE006AB7EE007AF7EE007A8EF37F
:10498000008C10B4F1EE10CA4FF66074C0F6FF74DC
:104990000CEA040CE1EE10CA10BCF44674476FF048
:1049A0001500C7E70020FCF789B80021012000F0BE
:1049B00032B843B2C9B9002B15DB01215B099B005A
:1049C00003F1604303F56143D3F8802200F01F0038
:1049D000814022EA0102C3F88022D3F88012C1404C
:1049E00001F00101C9B208467047002B0DDB01221E
:1049F0005B099B0003F1604303F56143D3F8801228
:104A000000F01F0082400A43E5E70021EBE7836ED8
:104A100083F30B88704700F010B90146006800F07E
:104A20000CB908B5FCF78EFEBDE80840FDF70CB8E0
:104A300030B54B680C6885B00A898D7A0094013BCB
:104A400024F01F04234402F01F0242EA451223F01F
:104A50001F030F2804468DF80820039305D86946E4
:104A6000FDF774F8204605B030BD6FF01504F9E786
:104A700040E800F0C3B210F4803F14BF18466FF056
:104A80001500704710B55AB10139841810F8012B80
:104A900011F8013FA04201D09A42F7D0D01A10BDC0
:104AA0001046FCE7431A934210B500EB020308D30B
:104AB000024601399A420BD011F8014F02F8014B1E
:104AC000F8E70A4412F8014D8A4203F8014DF9D182
:104AD00010BDF0B581EA0004A50703460BD0013BE9
:104AE0000A4491421BD1F0BD002AFCD011F8014BC1
:104AF000013A03F8014B9C07F6D122F003041D1F75
:104B000096080F19B94205D16FF00305234405FB40
:104B10000622E4E751F804CB45F804CFF2E711F898
:104B2000014B03F8014FDCE7034670B5C9B29C079F
:104B300011D141EA012422F0030644EA04451E444F
:104B40009408B3420DD16FF0030505FB04221A440B
:104B5000934209D170BD002AFCD003F8011B013A31
:104B6000E5E743F8045BECE703F8011BF0E7436873
:104B700000205B681B690B60704743685B6858687E
:104B800042400A4042405A6000207047436800207B
:104B90005B6899607047436800205B68D960704724
:104BA000436800205A685368594051607047C36891
:104BB00030B5586858B10024814213D108685CB9F7
:104BC0009C685860A14200D198600020086072B9CA
:104BD000002030BD2846EFE720609868814208BF7A
:104BE0009C60F2E705680446002DF3D13AB15A689B
:104BF0000A60986859600028EAD19960E9E76FF087
:104C00001500E6E7002008B5FCF72CFF08B5FCF717
:104C10001DFCFCF79FFCBDE80840FEF7CDBE004739
:104C200000F0FDB808B50520FCF710FD20B9BDE87F
:104C300008400520FCF7FABC08BD73B50546019194
:104C40004FF02003EFF3118683F31188BFF36F8FCA
:104C5000FEF772FA019904462846FFF7D3FF86F360
:104C60001188BFF36F8F204602B0BDE87040FCF79B
:104C700017BFFFF74ABE30B50024846141EA020441
:104C800014F00304C0E9023201610CD14461A34273
:104C900003D1C0E90000002030BD456901340D603A
:104CA00041611144F3E76FF01500F5E70023C0E917
:104CB0000000C0E9023318467047034620B9EFF3FD
:104CC00005820AB9FCF75CBC83F31188BFF36F8FD0
:104CD00070474FF02003EFF3118083F31188BFF387
:104CE0006F8FFFF7EABF014608B58068FDF730FF18
:104CF0004B7B23F002034B7300238B6008BD0368DA
:104D0000984204D0002B38BF00231846704700207B
:104D1000704710B54FF02003EFF3118483F311882F
:104D2000BFF36F8FFDF76AFF84F31188BFF36F8FB6
:104D300010BD37B504464FF02003EFF3118583F320
:104D40001188BFF36F8F54F8103C18381BB10190D5
:104D5000FFF7C9FF019814F80B3C23F0140304F883
:104D60000B3CFDF74BFF85F31188BFF36F8F03B04A
:104D700030BD38B504460D46FEF79EF8637B43F020
:104D800002036373C5B12B68A5609D4208BF002371
:104D9000002B38BF002383B194F90E1093F90E2035
:104DA000914204DB6A689A4207D01B68F3E75A68AD
:104DB000C4E9003214605C6038BD6B6825606360D4
:104DC0006B681C606C60F7E738B54FF02003EFF3B9
:104DD000118283F31188BFF36F8FFFF790FF0446B2
:104DE00082F31188BFF36F8F88B14FF02003EFF388
:104DF000118583F31188BFF36F8FFFF774FF85F37D
:104E00001188BFF36F8F04F1180000F00AF82046F4
:104E100038BDEFF30580003818BF01207047FBF75D
:104E200043BE10B54FF02002EFF3118482F31188D6
:104E3000BFF36F8F03683BB1FEF766FA002084F37F
:104E40001188BFF36F8F10BD6FF01500F7E710B535
:104E50004FF02003EFF3118483F31188BFF36F8FBA
:104E6000FEF76CFA84F31188BFF36F8F10BD37B56E
:104E7000044601914FF02003EFF3118583F311886D
:104E8000BFF36F8FFEF75AFA012805DDA0420199A2
:104E900002DD2046FCF710F885F31188BFF36F8F11
:104EA00003B030BD08B5FEF763FB08BD10B400F1D8
:104EB0000C04C0E903445DF8044BFFF738BC7047AD
:104EC000ACB3FF7F01000000810A00000000000079
:104ED0000928000000000000F53500000000000077
:104EE000DD1C0000000000008D0B00009000002081
:104EF000650E0000A0000020F51E0000B00000209C
:104F00000D4C0000C0000020B52200000000000091
:104F100000000000AB49000000000000AB490000A9
:104F200000000000AB49000000000000AB49000099
:104F300000000000AB490000E92500001F4C000004
:104F400000000000AB49000000000000AB49000079
:104F500000000000AB49000000000000AB49000069
:104F600000000000AB49000000000000AB49000059
:104F700000000000AB490000000000009D2100007F
:104F800000000000AB49000000000000AB49000039
:104F900000000000AB49000000000000AB49000029
:104FA00000000000AB49000000000000AB49000019
:104FB00000000000AB49000000000000390E0000B6
:104FC00000000000AB49000000000000AB490000F9
:104FD00000000000AB49000000000000AB490000E9
:104FE00000000000AB49000000000000AB490000D9
:104FF00000000000AB49000000000000AB490000C9
:1050000000000000AB49000000000000AB490000B8
:1050100000000000AB49000000000000AB490000A8
:1050200000000000AB49000000000000AB49000098
:1050300000000000AB49000000000000AB49000088
:1050400000000000AB49000000000000AB49000078
:1050500000000000AB49000000000000AB49000068
:1050600000000000AB49000000000000AB49000058
:1050700000000000AB49000000000000AB49000048
:1050800000000000AB49000000000000AB49000038
:1050900000000000AB49000000000000AB49000028
:1050A00000000000AB49000000000000AB49000018
:1050B00000000000AB49000000000000AB49000008
:1050C00000000000AB49000000000000AB490000F8
:1050D00000000000AB49000000000000AB490000E8
:1050E00000000000AB49000000000000AB490000D8
:1050F00000000000AB49000000000000AB490000C8
:1051000000000000AB49000000000000AB490000B7
:1051100000000000AB490000FFFFFFFFFFFFFFFFA3
:10512000DEE61E284CBBCE8F025B0000DEE61E28AA
:10513000EAAC45B8025B0000DEE61E284CBBCE8F11
:10514000025B000000000000000000000000000002
:105150000338FDD870470000CD0C0000A5480000C2
:10516000CD48000000000000D9470000450C0000B9
:10517000A90C00009F48000099480000350B000072
:10518000ED0A000000000000EC55000042010000A4
:10519000F355000005010000FD550000140100005A
:1051A00006560000150100000F56000039010000EE
:1051B0001856000009010000235600000A000000F4
:1051C0002E5600000A010000385600000B010000B6
:1051D000425600000F0100004D5600001001000073
:1051E0005856000011010000635600000E01000037
:1051F0006D560000210100007656000022010000DB
:105200007F560000230100008856000024010000A2
:105210009156000018010000995600002A01000074
:10522000A15600003A010000A95600002C01000020
:10523000B15600001C010000BA5600001D0100001C
:10524000C356000017010000CD56000031010000D8
:10525000D956000004010000000000000002000018
:105260000004000000080000001000000000000022
:10527000A5490000B91400007914000021150000B0
:10528000591400001C00002004000020140000201D
:10529000000000000C00002002000000A0520000EE
:1052A000000000003B57000006000000E0FF0F0078
:1052B000000000204357000021000000E0FF002014
:1052C000251F00006F4B00007B4B00008D4B000042
:1052D000974B0000A14B0000D91F0000AF4B00000E
:1052E00000000000FFFFFFFF0025845000000000C9
:1052F000F5FFFFFFC84E0000F04E0000F84E000022
:10530000104F0000104F0000436F756C64206E6FEB
:1053100074206C6F636B20706F7765722073617699
:1053200065206D7574657800FF8FFFFFFF8FFFFFAD
:10533000FE8FFFFFFE8FFFFFFD8FFFFFFC8FFFFF44
:10534000FC8FFFFF6D757465785F6672656520631D
:10535000616C6C65642077697468204E554C4C20F4
:10536000706172616D6574657200000043616E2743
:105370007420696E697469616C697A65206D7574F1
:1053800065782C20776173204E554C4C0D0A000037
:105390004661696C20746F20616371756972652064
:1053A0006D757465780A00004661696C20746F2021
:1053B00072656C65617365206D757465780A0000AF
:1053C0004661696C20746F20696E637265617365F4
:1053D00020504D20636F756E7465720A00000000E6
:1053E0004661696C20746F206465637265617365E2
:1053F00020504D20636F756E7465720A0030313233
:105400003334353637383961626364656600466126
:10541000696C656420746F207265626F6F743A20E6
:105420007370696E6E696E6720656E646C65737308
:105430006C792E2E2E0A007379735F636C6F636B29
:10544000005365637572650909004E6F6E2D5365D3
:10545000637572650900253032752025303275205C
:10546000307825303578203078253035782009009F
:1054700025630053504D3A204E5320696D61676596
:1054800020617420307825780A0053504D3A204E20
:1054900053204D535020617420307825780A0053F2
:1054A000504D3A204E5320726573657420766563C3
:1054B000746F7220617420307825780A0053504D43
:1054C0003A207072657061726520746F206A756D24
:1054D0007020746F204E6F6E2D536563757265205A
:1054E000696D6167652E0A004E6F6E2D5365637599
:1054F000726500466C61736820726567696F6E73D0
:105500000909446F6D61696E09095065726D6973AF
:1055100073696F6E730A004E6F6E2D7365637572DB
:10552000652063616C6C61626C6520726567696F90
:105530006E203020706C6163656420696E20666C3B
:1055400061736820726567696F6E202564207769D2
:1055500074682073697A652025642E0A00436F758C
:105560006C64206E6F7420696E697469616C697A0D
:10557000652073656375726520736572766963650E
:10558000732028657272202564292E0A0053524127
:105590004D20726567696F6E0909446F6D61696EB0
:1055A00009095065726D697373696F6E730A0050F3
:1055B00065726970686572616C0909446F6D616933
:1055C0006E09095374617475730A002530327520B1
:1055D000252D32317325730009534B49500A0009B8
:1055E0004552524F520A00094F4B0A004E52465F35
:1055F0005030004E52465F434C4F434B004E524694
:105600005F52544330004E52465F52544331004E75
:1056100052465F4E564D43004E52465F55415254DE
:105620004531004E52465F554152544532004E526C
:10563000465F5457494D32004E52465F5350494DD4
:1056400033004E52465F54494D455230004E52464B
:105650005F54494D455231004E52465F54494D45C5
:105660005232004E52465F5341414443004E52462F
:105670005F50574D30004E52465F50574D31004EEF
:1056800052465F50574D32004E52465F50574D3391
:10569000004E52465F574454004E52465F495043B5
:1056A000004E52465F564D43004E52465F4650559F
:1056B000004E52465F45475531004E52465F4547C2
:1056C0005532004E52465F4450504943004E5246B8
:1056D0005F4750494F544531004E52465F5245474F
:1056E000554C41544F5253006D757465785F696E27
:1056F00069742063616C6C65642077697468204EFE
:10570000554C4C20706172616D6574657200436F19
:10571000756C64206E6F7420616C6C6F636174656E
:10572000206D75746578206265666F726520696E9C
:10573000697469616C697A696E6700464C415348C7
:105740005F30005352414D5F30004750494F5F304A
:10575000004552524F523A2043616E6E6F7420667C
:10576000756C66696C6C204558545F4150492072D5
:105770006571756573742E0D0A005741524E494E7E
:10578000473A204F7074696F6E616C204558545FC2
:105790004150492072657175657374206E6F742075
:1057A00066756C66696C6C65642E0D0A0048575FFF
:1057B00043433358585F30006D61696E000000004C
:1057C0000000000091440000D4000020010000000F
:1057D000E800002001000000FC00002001000000A3
:1057E00010010020010000000090D00328000020DC
:1057F0002800002068000020740000206C000020B9
:10580000640000203800002000000000F139000092
:105810004008002001000000753A0000513A0000E5
:10582000953A0000313A0000880000204C0000202A
:1058300080000020000000007800002044080020C4
:105840000100000048080020010000004C08002072
:1058500001000000F75500006C5100005851000095
:10586000400200203754000000000000000000004B
:10587000000000004A570000E4520000C05200003F
:10588000CC070020AD570000000000000000000021
:105890000000000000000000D4000020D400002020
:1058A00000000000000000000F000000E8000020E1
:1058B000E800002000000000000000000F000000D1
:1058C000FC000020FC0000200000000000000000A0
:1058D0000F00000010010020100100200000000057
:1058E000000000000F000000FFFFFFFFFFFFFFFFB1
:1058F000FFFFFFFFFFFFFFFFFFFFFFFFFFFFFFFFB8
:105900000000000000000000000000000000000097
:105910000000000000000000000000000000000087
:105920000000000000000000000000000000000077
:107FE0007FE97FE9F9F7C8B97FE97FE9FCF799BC38
:107FF0007FE97FE9F9F768B90000000000000000A0
:10C000009834022081FA0000B3F30100B1FA000075
:10C01000B1FA0000B1FA0000B1FA0000B1FA000074
:10C0200000000000000000000000000071F70000A8
:10C03000B1FA000000000000C1F6000051F4000059
:10C0400041FA000041FA000041FA000041FA000004
:10C0500041FA000041FA000041FA000041FA0000F4
:10C0600041FA000041FA000041FA000041FA0000E4
:10C0700041FA000041FA000041FA000041FA0000D4
:10C0800041FA000041FA000041FA000041FA0000C4
:10C0900041FA000041FA000041FA000041FA0000B4
:10C0A00041FA000041FA000041FA000041FA0000A4
:10C0B000F10C0100F1F5010041FA000041FA000025
:10C0C00041FA000041FA000041FA000041FA000084
:10C0D00041FA000041FA000041FA000041FA000074
:10C0E00041FA000041FA00000FF6010041FA000099
:10C0F00041FA000041FA000041FA000041FA000054
:10C1000041FA000041FA000041FA000041FA000043
:10C1100041FA000041FA000041FA000041FA000033
:10C1200041FA000041FA000041FA000041FA000023
:10C1300041FA000041FA000041FA000041FA000013
:10C1400041FA0000000000000000000000000000B4
:10C1500000000000000000000000000000000000DF
:10C1600000000000000000000000000000000000CF
:10C1700000000000000000000000000000000000BF
:10C1800000000000000000000000000000000000AF
