:020000040100F9
:10000000C8050021112500017B490001412500019F
:1000100041250001412500014125000100000000AB
:100020000000000000000000000000005523000157
:100030004125000100000000FD2200010522000111
:10004000E9240001E9240001E9240001E924000178
:10005000E9240001E9240001E9240001E924000168
:10006000E9240001E9240001E9240001E924000158
:10007000E9240001E9240001E9240001E924000148
:10008000E9240001E9240001E9240001E924000138
:10009000E9240001E9240001E9240001E924000128
:1000A000E9240001E9240001E9240001E924000118
:1000B000E9240001E9240001000000000000000024
:1000C0000000000000000000000000000000000030
:1000D0000000000000000000000000000000000020
:1000E0000000000000000000000000000000000010
:1000F0000000000000000000000000000000000000
:1001000000000000000000000000000000000000EF
:1001100000000000000000000000000000000000DF
:1001200000000000000000000000000000000000CF
:1001300000000000000000000000000000000000BF
:1001400000000000000000000000000000000000AF
:10015000000000000000000000000000000000009F
:10016000000000000000000000000000000000008F
:10017000000000000000000000000000000000007F
:10018000000000000000000000000000000000006F
:10019000000000000000000000000000000000005F
:1001A000000000000000000000000000000000004F
:1001B000000000000000000000000000000000003F
:1001C000000000000000000000000000000000002F
:1001D000000000000000000000000000000000001F
:1001E000000000000000000000000000000000000F
:1001F00000000000000000000000000000000000FF
:10020000DEE61E284CBBCE8F023500003C0000000D
:100210007461000001000000000000010000000106
:10022000FFFF02910000000000000000000000003D
:10023000000000000000000000000000FFFFFFFFC2
:1002400053B94AB9002908BF00281CBF4FF0FF313D
:100250004FF0FF3000F080B9ADF1080C6DE904CE2D
:1002600000F006F8DDF804E0DDE9022304B0704791
:100270002DE9F04F099E0D4604460F46002B47D14D
:100280008A4294465FD9B2FA82F343B1C3F12001A6
:100290009F4002FA03FC9C4020FA01F10F434FEA11
:1002A0001C451FFA8CFE220CB7FBF5F105FB1177FC
:1002B00001FB0EF042EA0742904208D91CEB020211
:1002C00001F1FF3702D2904200F234813946121A0E
:1002D000A4B2B2FBF5F005FB102200FB0EFE44EACF
:1002E0000244A64508D91CEB040400F1FF3202D2F7
:1002F000A64500F21981104640EA0140A4EB0E0425
:1003000000211EB1DC400023C6E90043BDE8F08FA8
:100310008B4208D9002E00F0FB800021C6E90005C1
:100320000846BDE8F08FB3FA83F100294BD1AB4208
:10033000C0F0F180824240F2EE800846002EE5D007
:10034000C6E90047E2E702B9FFDEB2FA82F3002B0A
:1003500040F09D808D1A4FEA124E97B20121B5FBF5
:10036000FEF20EFB1250250C45EA004507FB02F099
:10037000A8420FD91CEB050502F1FF382CBF4FF046
:1003800001094FF00009A84203D9B9F1000F00F0AC
:10039000CE8042462D1AA4B2B5FBFEF00EFB1055DE
:1003A00000FB07F744EA0544A74208D91CEB040404
:1003B00000F1FF3502D2A74200F2B3802846E41BC9
:1003C00040EA02409DE7C1F120078B4005FA01F4A5
:1003D00022FA07FCFD408A404CEA030C20FA07F39E
:1003E0004FEA1C491C431FFA8CFE00FA01F3200C53
:1003F000B5FBF9F809FB185540EA054508FB0EF076
:10040000A8420FD91CEB050508F1FF3A2CBF4FF0AD
:10041000010B4FF0000BA84203D9BBF1000F00F015
:100420008C80D0462D1AA4B2B5FBF9F009FB10550B
:1004300000FB0EFE44EA0545AE4507D91CEB050559
:1004400000F1FF3401D2AE457ED8204640EA084094
:10045000A5EB0E05A0FB029845454C46C64602D3C7
:1004600006D14B4504D20138B9EB020468EB0C0EFF
:10047000002E6FD01A1B65EB0E0522FA01F305FA68
:1004800007F7CD4000211F43C6E900753EE702FA99
:1004900003FCC3F1200001FA03F24FEA1C4EC140F5
:1004A00024FA00F51FFA8CF79C401543B1FBFEF0CF
:1004B0002A0C0EFB101142EA014200FB07F19142A7
:1004C0000ED91CEB020200F1FF382CBF4FF00109DE
:1004D0004FF00009914202D9B9F1000F31D04046E6
:1004E000521AADB2B2FBFEF10EFB112245EA0245F3
:1004F00001FB07F2AA4207D91CEB050501F1FF3801
:1005000001D2AA4223D84146AD1A41EA004126E76A
:1005100031463046FAE6841A65EB030301201F4694
:100520000CE7644402384AE764440238E4E6023ADD
:1005300065442FE702396244C9E6A8F10208654420
:1005400070E702386244CBE7023865447EE702393F
:100550006544D9E73146D9E6704700BF30B44FF063
:10056000000310F8014B11F8015B013A84EA05041D
:1005700043EA0403F5D1A3F101034FEAD37030BC81
:10058000704700BF4FF0000310F8012B013943EA18
:100590000203F9D1A3F101034FEAD370704700BF02
:1005A00011F8013B00F8013B013AF9D1704700BF57
:1005B000002200F8012B0139FBD170472DE9F04FE3
:1005C00092E8F00F4FF0020E88EA781C8CEAF84CA3
:1005D0000BEBBC1C8AEA090303EA080383EA0A035B
:1005E0009C4450F8043B9C4451F8043B9C446744B1
:1005F00044EA050B0BEA060B04EA05034BEA030B7E
:10060000E34484EAF42383EA34530BEBB30B87EA25
:10061000771C8CEAF74C0AEBBC1C89EA080303EA56
:10062000070383EA09039C4450F8043B9C4451F8B7
:10063000043B9C4466444BEA040A0AEA050A0BEAB6
:1006400004034AEA030AE2448BEAFB2383EA3B53AE
:100650000AEBB30A86EA761C8CEAF64C09EBBC1C62
:1006600088EA070303EA060383EA08039C4450F878
:10067000043B9C4451F8043B9C4465444AEA0B0902
:1006800009EA04090AEA0B0349EA0309E1448AEA90
:10069000FA2383EA3A5309EBB30985EA751C8CEA1D
:1006A000F54C08EBBC1C87EA060303EA050383EA62
:1006B00007039C4450F8043B9C4451F8043B9C4481
:1006C000644449EA0A0808EA0B0809EA0A0348EA06
:1006D0000308E04489EAF92383EA395308EBB308B5
:1006E00084EA741C8CEAF44C07EBBC1C86EA050314
:1006F00003EA040383EA06039C4450F8043B9C4449
:1007000051F8043B9C44E34448EA090707EA0A0716
:1007100008EA090347EA0307674488EAF82383EAFB
:10072000385307EBB3078BEA7B1C8CEAFB4C06EBD8
:10073000BC1C85EA040303EA0B0383EA05039C441B
:1007400050F8043B9C4451F8043B9C44E24447EA83
:10075000080606EA090607EA080346EA03066644AD
:1007600087EAF72383EA375306EBB3068AEA7A1C53
:100770008CEAFA4C05EBBC1C84EA0B0303EA0A037F
:1007800083EA04039C4450F8043B9C4451F8043B26
:100790009C44E14446EA070505EA080506EA070322
:1007A00045EA0305654486EAF62383EA365305EBFA
:1007B000B30589EA791C8CEAF94C04EBBC1C8BEA82
:1007C0000A0303EA090383EA0B039C4450F8043B41
:1007D0009C4451F8043B9C44E04445EA060404EA86
:1007E000070405EA060344EA0304644485EAF523A2
:1007F00083EA355304EBB304BEF1010E7FF4E4AE9B
:1008000082E8F00FBDE8F08F2DE9F04F90E8FC038F
:10081000D0E9091CD0E90EAB0A444FEA7A4E8EEAC1
:10082000FA4E8EEA9A2E72444FEAF31E8EEAB34EC7
:100830008EEAD30E724463444FEA7B4E8EEAFB4E3F
:100840008EEA9B2E73444FEAF41E8EEAB44E8EEA73
:10085000D40E7344D0E90B1A0C444FEA724E8EEA60
:10086000F24E8EEA922E74444FEAF51E8EEAB54E91
:100870008EEAD50E744455444FEA734E8EEAF34E19
:100880008EEA932E75444FEAF61E8EEAB64E8EEA35
:10089000D60E7544D0E90DEA76444FEA744E8EEADE
:1008A000F44E8EEA942E76444FEAF71E8EEAB74E47
:1008B0008EEAD70E764457444FEA754E8EEAF54ECF
:1008C0008EEA952E77444FEAF81E8EEAB84E8EEAED
:1008D000D80E7744D8444FEA764E8EEAF64E8EEA2A
:1008E000962EF0444FEAF91E8EEAB94E8EEAD90EE2
:1008F000F044D0E908AB91444FEA774E8EEAF74EC8
:100900008EEA972EF1444FEAFA1E8EEABA4E8EEA2C
:10091000DA0EF1449A444FEA784E8EEAF84E8EEAA7
:10092000982EF2444FEAFB1E8EEABB4E8EEADB0E97
:10093000F244A3444FEA794E8EEAF94E8EEA992E9C
:10094000F3444FEAFC1E8EEABC4E8EEADC0EF34402
:10095000AC444FEA7A4E8EEAFA4E8EEA9A2EF4446E
:100960004FEAF11E8EEAB14E8EEAD10EF444A0E8B1
:10097000FC1FD0E9014531444FEA7B4E8EEAFB4E25
:100980008EEA9B2E71444FEAF41E8EEAB44E8EEA34
:10099000D40E71443C444FEA7C4E8EEAFC4E8EEA03
:1009A0009C2E74444FEAF51E8EEAB54E8EEAD50EA3
:1009B0007444D0E9036745444FEA714E8EEAF14E24
:1009C0008EEA912E75444FEAF61E8EEAB64E8EEAF6
:1009D000D60E75444E444FEA744E8EEAF44E8EEABB
:1009E000942E76444FEAF71E8EEAB74E8EEAD70E63
:1009F000764457444FEA754E8EEAF54E8EEA952EB0
:100A000077444FEAF21E8EEAB24E8EEAD20E774457
:100A1000F2C0BDE8F08F00BF2DE9F04F0FF2D029F2
:100A2000D9E900890FF2D02BDBE900AB00269BB09F
:100A3000CDE900890FF2C829D9E90089CDE902ABD7
:100A40000FF2C42BDBE900AB14460546CDE9186272
:100A5000CDE90489CDE906AB002A79D180230120B4
:100A60008DF820303A210E23E846CDF8212008AF3A
:100A70000DF125020026022B166021D0032B5660B3
:100A80001ED0042B96601BD0052BD66018D0062BE9
:100A9000166115D0072B566112D0082B96610FD026
:100AA000092BD6610CD00A2B166209D00B2B56628B
:100AB00006D00C2B966203D00E2BD66208BF1663AD
:100AC000B1EB830F00EB830012D0431C00221AA964
:100AD00001443B2B01F8482C0AD01AA90B443928B1
:100AE00003F8482C00F1020302D00B4403F8482C11
:100AF000620F630D39468DF85B208DF85C30620B18
:100B000063094046E4008DF85D208DF85E308DF875
:100B10005F4003F05DFCDDE90064DDE90201DDE931
:100B2000042396FA86FC27BA06BA0CBA10BA19BA88
:100B3000069A079B12BA1BBAC5F800C06F60AE6078
:100B4000EC6028616961AA61EB611BB0BDE8F08FC0
:100B5000E84640460F4603F07BFB241A0346274431
:100B6000002800F0B980421E022A44D93968820860
:100B7000012A08913AD07968022A099136D0B968D9
:100B8000032A0A9132D0F968042A0B912ED03969D0
:100B9000052A0C912AD07969062A0D9126D0B969C7
:100BA000072A0E9122D0F969082A0F911ED0396ABE
:100BB000092A10911AD0796A0A2A119116D0B96AB5
:100BC0000B2A129112D0F96A0C2A13910ED0396BAC
:100BD0000D2A14910AD0796B0E2A159106D00F2A8E
:100BE000B96B18BFFA6B169118BF179223F0030662
:100BF000B342374413D03878721C1AA93144934257
:100C000001F8480C0BD979781AA802360244B3428D
:100C100002F8481C03D9BA78064406F8482C80210B
:100C2000581C1AAA1A443828189302F8481C98BF6E
:100C300008AF35D93F282CD800211AAA10443E2BE2
:100C400000F8481C03F1020223D01AA802443D2BED
:100C500002F8481C03F103021BD002443C2B02F8AB
:100C6000481C03F1040214D002443B2B02F8481C38
:100C700003F105020DD002443A2B02F8481C03F19F
:100C8000060206D00244382B02F8481C01D18DF828
:100C90005F1008AF3946404603F09AFB3A2819D84E
:100CA000431C3B2BC0F13A02C0F13B0188BF01213C
:100CB000022A199C7FF60AAF002600F1200308EBF8
:100CC000030248F803608B08012B02F104027FF451
:100CD000D1AEF5E6199C0BE7802218903A2101204D
:100CE000199C8DF8202008AFE6E700BFAFF3008025
:100CF00067E6096A85AE67BB72F36E3C3AF54FA5AD
:100D00007F520E518C68059BABD9831F19CDE05BD8
:100D10002DE9F0434FF4084185B04FF0807002F0A8
:100D2000FFF804462D4802F0C3FE06463CB12C48AD
:100D300003F0F1FB05B0BDE8F04302F00FBB02F099
:100D4000D3FA054602F018FB00BB02F029FBB0F114
:100D5000805F044607D20146284603F08FFF10B992
:100D60002146204805E0304602F020FB014618B13C
:100D70001D4803F0D0FBDDE72946284603F07EFF3F
:100D800010B102F08DFBFEE72946EAE74FF45E3131
:100D9000164802F0C5F8014608B11548E9E70446CF
:100DA000DFF85090DFF8508001AF59F8046B98E8F5
:100DB00007002E4487E807000C223946304603F02E
:100DC000FFFD00B91EB90134052CEED100263046D6
:100DD00005B0BDE8F04302F02FB900BF5451000147
:100DE0006751000195510001BF51000100880001C9
:100DF000DE510001784F0001304F000138B54468E2
:100E0000054604F00304032C816002D02CB10020BD
:100E100000E0006800236B6038BD452204490548A6
:100E200003F079FB4521024803F0C2FCEFE700BF65
:100E300000520001235200010B6801330B60014B8B
:100E40001B68184700000021014B1860704700BF65
:100E50000000002107B50B4600210246019103481E
:100E600001A900F0F1FA03B05DF804FB390E0001AE
:100E70002DE9F74FB0F81CA004461AF0080F93466E
:100E80001CD001290CBF4AF0100A4AF0200AA0F831
:100E90001CA004F1140003F0FBF840B992499348F8
:100EA000A72203F038FBA7218F4803F081FC8BF3C6
:100EB0001188BFF36F8F03B0BDE8F08F8C4FDFF860
:100EC0002C820AF0070A022906D1204603F030FBE3
:100ED0000028DED0012863D1D4F81890A38BB9F193
:100EE000000F19DA0026256823F00703C4E900661D
:100EF00043F00103A383A38B03F007025245009242
:100F000003D0A268002A40F0F58015B9002E00F049
:100F10002F814FF0000AEFE003F00702511F012973
:100F200020D8002123F00703062A25689BB2C4E9D4
:100F300000110AD13DB12946E28B0968013292B213
:100F40000029FAD1E28343F002032046A38303F091
:100F5000EFFA06460028CED0A38B43F02003A383EC
:100F60000026C8E7042A0DD123F007039AB22046D1
:100F7000A28303F0DDFA054680B142F0200200258D
:100F8000A283EDE740F219123946404603F0C3FA56
:100F900040F21911384603F00BFC00252E46AAE753
:100FA000032831D1BAF1000F0AD0394640464FF438
:100FB000AA7203F0B0FA4FF4AA71384603F0F8FBB6
:100FC000236853B93946404640F2551203F0A3FA5C
:100FD00040F25511384603F0EBFB23691E6856B901
:100FE000394640464FF4AC7203F095FA4FF4AC71B9
:100FF000384603F0DDFBA38B23F0070343F0060321
:101000000025A383A94676E704282ED1BAF1020F62
:101010000AD03946404640F25B1203F07CFA40F2B7
:101020005B11384603F0C4FBE38B53B139464046AD
:101030004FF4AE7203F06FFA4FF4AE71384603F01E
:10104000B7FB23695E6856B93946404640F25F12E5
:1010500003F061FA40F25F11384603F0A9FBA38B5D
:1010600023F0070343F00403CAE705282ED1BAF1A1
:10107000010F0AD0394640464FF4B17203F04BFAE3
:101080004FF4B171384603F093FB236853B93946E6
:10109000404640F2631203F03EFA40F263113846D4
:1010A00003F086FB23699E6856B9394640464FF4E3
:1010B000B37203F030FA4FF4B371384603F078FBA3
:1010C000A38B23F0070343F0050399E7002540F2C3
:1010D00069123946404603F01EFA40F2691138465B
:1010E00003F066FB2E468DE75D520001235200019E
:1010F0003B5200014FF0010A43F00803A38304F1BF
:1011000014031846019302F0C3FF40B94046314929
:10111000A72203F000FAA7212E4803F049FB8BF326
:101120001188BFF36F8FBAF1000F30D1002D40D17D
:1011300016B120462849B0474FF02003EFF3118B3A
:1011400083F31188BFF36F8F019802F093FF40B9CA
:10115000404620497C2203F0DEF97C211D4803F043
:1011600027FB019802F0A2FFA38B23F00803A383BF
:10117000A38BDA0625D5012123F01003A383B4F84D
:101180001CA00AF0070A00297FF49DAE81E6A16841
:101190000029CBD0D1F800A04B462046D1F804B0AE
:1011A000009AD847BAF1000FC0D05146DAF800A033
:1011B000F2E729464B462046009A2D6803F0D4F901
:1011C000B4E713F020011EBF23F020030221A38304
:1011D000D5E700BF5D520001DD110001F8B50446FE
:1011E0000D4600F114064FF02003EFF3118783F34F
:1011F0001188BFF36F8F304602F03CFF40B90A49B7
:101200000A487C2203F087F97C21074803F0D0FAD2
:10121000304602F04BFF3A462046A5610121BDE869
:10122000F840FFF725BE00BF5D52000123520001C8
:101230002DE9F04704460F4603F0ACF9051E54DBD8
:1012400004F114094FF02003EFF3118A83F311889E
:10125000BFF36F8F484602F00DFF40B93349344861
:101260007C2203F058F97C21304803F0A1FA48466B
:1012700002F01CFF4FF6FF71E38BA28B8B4202F052
:1012800007064AD0022E1FD135464FF00108013320
:10129000E383484602F0FCFE40B924492448A722D3
:1012A00003F039F9A721214803F082FA8AF3118863
:1012B000BFF36F8FB8F1000F17D0002332463946C5
:1012C000204603F051F910E0930701D0062E0FD10C
:1012D00000233B606368EBB9C4E900773546F6B993
:1012E000524602212046FFF7C3FD2846BDE8F0879D
:1012F000052E17D0012E0AD00E490D4840F2C51216
:1013000003F009F940F2C5110A4803F051FA6FF0F1
:10131000040504E01F606760E0E76FF00A054FF026
:101320000008B6E76FF02205F9E700BF5D52000143
:10133000235200013B520001B2F5802FF8B5074659
:101340000C4616460ED2042A0AD83D493D484FF4B1
:10135000B67203F0E0F84FF4B671394803F028FA9A
:10136000042200E00822B61AE51D344425F00705E2
:1013700024F00704641B172C4FEAD4060AD830491E
:10138000304840F2751203F0C6F840F275112C484F
:1013900003F00EFA002300223D60C5E9002300237C
:1013A00031463046AE60EB6003F057F9012184000E
:1013B000471C304603F048F91B34E4082044B0428F
:1013C0000AD31F491F4840F2811203F0A4F840F2EB
:1013D00081111B4803F0ECF90023194605F11002B6
:1013E000BB4228DB22462846002103F029F9371B9F
:1013F00028460122002103F00BF93A46214603F06A
:101400001FF9234600222146284603F0F0F8314612
:10141000284603F015F93B4631462846002203F0E2
:10142000E6F831462846012203F0F2F82146BDE8ED
:10143000F84003F01EB942F8041B0133D0E700BFA7
:1014400083520001235200012DE9F04F8B46924652
:101450001C46002591B002909AF8000008B9284671
:101460005FE325280AF1010707D05946029B9847F8
:101470000028C0F25683013512E2182200210AA882
:1014800003F0DAFA9AF80130252B78D0002294463E
:10149000964616461046394617F8013B2B2B00F0AE
:1014A0009D8000F29480202B00F09A80232B00F086
:1014B0009A8028B19DF8300040F004008DF830008B
:1014C0002EB19DF8300040F008008DF83000BEF1DC
:1014D000000F05D09DF8300040F010008DF830006E
:1014E000BCF1000F05D09DF8300040F020008DF8D1
:1014F00030002AB19DF8302042F040028DF83020B3
:101500009DF8302002F04400442803D16FF3861286
:101510008DF830209DF830202A2B42F080028DF883
:1015200030207BD19DF831204B1C42F001028DF818
:1015300031201A782E2A0CBF012100219DF831207C
:1015400061F341028DF8312074D15A782A2A6AD089
:1015500000210A260133184610F8012BA2F13007AA
:10156000092F40F28E809DF830200E91C2F340008A
:1015700040EAD17161F341028DF830205AE00AF15E
:1015800002078DF833309DF83130D90740F1498199
:1015900054F8049BB9F1000F07DA9DF83020C9F127
:1015A000000942F004028DF830205A0740F14281D0
:1015B00054F8048BB8F1000F80F241819DF831306E
:1015C0006FF341038DF831304FF0FF3837E12D2BA9
:1015D0000CD0302B7FF46DAF01225CE701265AE777
:1015E0004FF0010E57E74FF0010C54E7012052E78E
:1015F00033460CFB0202303A1E4616F8010BA0F1EE
:101600003007092FF4D9994293D09DF830100D92EC
:10161000D20F62F341018DF830108AE70B460022A9
:101620004FF00A0CE8E79DF83120023342F0040243
:101630008DF831201F4617F8012B6C2A41D025D890
:10164000682A2BD06A2A46D04C2A4CD01F4617F85D
:10165000012B9DF83130782A8DF8332000F2D980A3
:10166000572A4DD8412A03D0453A022A00F2D180A8
:1016700004229DF8323062F302038DF832300123E8
:101680009EE006FB01210346303964E7742A26D028
:101690007A2ADBD106229DF831300DE05A78682A8B
:1016A0009DF8312006D1012161F3C6028DF8312069
:1016B0009F1CCCE71346022262F3C6038DF831303B
:1016C000C5E75A786C2A9DF8312001D10421EBE757
:1016D00013460322F0E705229DF83130ECE707229C
:1016E0009DF83130E8E7BDF8303023F4F04323F0C3
:1016F000020343F4804343F00203ADF83030A6E721
:10170000A2F15801202900F2848001A050F821F0B4
:10171000D517000113180001131800011318000158
:101720001318000113180001131800011318000109
:10173000131800017116000113180001D5170001DC
:101740009517000171160001711600017116000154
:101750001318000195170001131800011318000158
:101760001318000113180001DD170001D51700013F
:10177000F91700011318000113180001F9170001EF
:1017800013180001D51700011318000113180001E8
:10179000D517000101209DF8321003F0780360F3A3
:1017A0000201402B8DF8321002BF9DF8301041F03D
:1017B00001018DF83010632A31D1003B18BF01239D
:1017C0009DF83020C2F340010B4363F341028DF8D2
:1017D0003020D8E602209DF83210DEE703219DF884
:1017E000322003F07803A3F1400061F30202434288
:1017F0008DF832204341E3E703219DF8322013F0B6
:10180000780F61F3020214BF012300238DF8322008
:10181000D6E79DF8303043F001038DF830300023D7
:10182000CEE79DF93020002AACBF4FF0FF39DDF83C
:101830003490BAE69B077FF5C7AEDDF83880002309
:10184000CDE90D339DF832309DF8311003F00703D8
:10185000012BC1F3C30138D1CB1E042B22D8DFE802
:1018600003F003090921210054F8043BDA17CDE9FC
:101870000A3206E0073424F00704F4E80223CDE935
:101880000A239DF8303013F0030656D03B465246EB
:101890005946029802F076FF0028C0F242810544C2
:1018A000BA46D9E554F8043B01294FEAE372CDE981
:1018B0000A3205D19DF828300A9300230B93E0E704
:1018C0000229DED1BDF92830D0E7022B23D1CB1E6F
:1018D000042B13D8DFE803F0030A0A1212000023D6
:1018E0002268201D0A920B930446CAE7E01D20F0EF
:1018F0000700F0E80223CDE90A23F5E754F8043B9A
:1019000001290A934FF000030B93D3D00229B8D1D9
:10191000BDF82830D0E7042B09D1E31D23F00703DD
:1019200003F10804D3E90023CDE90A23A9E7032B37
:1019300004BF54F8043B0A93A3E79DF833007828CA
:10194000AED8622822D825283FF48FAD5828A7D1D9
:10195000DDE90A010DF1260300930CAA04AB02F0A5
:10196000CBFE8246B8F1000F0DF126000CDB9DF88E
:101970003020A0EB0A036FF3861298458DF83020D3
:1019800002D9A8EB03030D9380463DE06338152888
:1019900086D801A252F820F0191A00017D1A000120
:1019A000A1180001A1180001A1180001A11800014F
:1019B0007D1A0001A1180001A1180001A118000161
:1019C000A1180001D71A0001A51A0001A91A0001E7
:1019D000A1180001A1180001F1190001A1180001CE
:1019E000A51A0001A1180001A1180001A51A000103
:1019F000B8F1000FDDF828A00ADB4146504602F09E
:101A0000CAFF00260AEB0008BAF1000F0CD147E725
:101A1000504602F0B9FFF4E700260A9B0DF1100AC8
:101A20008DF810300DF11108A8EB0A0306B101334F
:101A30009DF83220D00668D5023352060D9948BF72
:101A40000E9A0B4448BF9B18B9F1000F76DD9DF844
:101A50003020A9EB0309C2F38003039353076DD42D
:101A6000500661D546B159463046029B984700283A
:101A700057DB039B01351E46302356E01E070FD46B
:101A800013F0100618BF2026DDE90A23002BBFF64D
:101A90005FAF524263EB43032D26CDE90A2357E79C
:101AA0002B26F1E7002653E70A9840B30DF12603F1
:101AB0000093002104AB0CAA02F01EFEBDF83230E8
:101AC000824603F0EF0343F4F04343F01003002693
:101AD000ADF8323046E70A9B07293FF6E1AEDFE872
:101AE00001F00C04060C08080C0C1D70D8E61D80D3
:101AF000D6E6EA17C3E90052D2E61D60D0E6DFF869
:101B0000C8A006460AF105088EE7110748BF013351
:101B100093E7184603935946029B98470028039B76
:101B200004DA11B0BDE8F08F20234D444A46002A64
:101B3000A5EB090109F1FF39EBDC0D4636B1594639
:101B40003046029B98470028EBDB01359DF8323088
:101B5000D90601D41A0706D559463020029B98476A
:101B60000028DEDB01359DF83230DB0607D559460B
:101B70009DF83300029B98470028D2DB01350D9E6B
:101B80002E44731B002B16DC4346524659460298DE
:101B900002F0F8FD0028C4DB0544A944A9EB0503C5
:101BA000002B7FF77DAE59462020029B98470028E6
:101BB000B7DB0135F2E759463020029B98470028F1
:101BC000AFDB0135DDE700BFA45200014FF020027A
:101BD000EFF3118382F31188BFF36F8F0121044A61
:101BE000C2F8401583F31188BFF36F8F0020704750
:101BF0000000084120B1034B800143F00103184766
:101C0000704700BF704F000142680B6810B59342E7
:101C10000C4606D90548452102F07DFC0020606095
:101C200010BD4B68012013444B60F9E7AE52000130
:101C300030B5054685B0C06801AA02F077FF0446BA
:101C400038B145210246104802F065FC204605B037
:101C500030BD019B2A6A9A42F8D001462B62E8689F
:101C600002F0B6FDDDE90112E86883689B689847D9
:101C700004460121E86802F0ABFD002CE6D02246C4
:101C800045210248E0E700BFD3520001F9520001AC
:101C900070B58468054674B1D0E90436013C1E4431
:101CA000A119FFF7C5FF041E07DA33462246452176
:101CB000234802F030FC204670BDE868002102F0A5
:101CC00087FDE8682A68AB6881684C683146A047A0
:101CD00004460121E86802F07BFD24B13346224628
:101CE00045211848E5E7EB6953B92B69AA68134405
:101CF0002B610023AB60DEE7135DDB43135501343A
:101D0000AB682A689C42F7D3E86881680C68314662
:101D1000A047044628B1024645210B4802F0FBFBD0
:101D2000C9E73246EB69A968286898470446002845
:101D3000DBD002464521054802F0EDFBD5E700BFA8
:101D40001A5300014D5300017653000191530001D5
:101D50002DE9F7430D46DDE90A8691461F46044604
:101D600020B96FF00D0003B0BDE8F0830029F8D072
:101D7000002AF6D0009300230846019302F022FDCA
:101D8000B7FBF0F303FB107020B14521174802F0B8
:101D9000C2FBE6E76A462846154902F0CBFE019BE6
:101DA000002BDED008EB0602934202D245211148F7
:101DB000EDE7284602F006FDB8FBF0F303FB1080C8
:101DC0000028F3D1C4E90097E5602061A060C4F861
:101DD000148016B9019EA6EB08060C9B0020E36157
:101DE0004FF0FF33A6612362BDE700BFAA53000195
:101DF000091C0001E653000110B5074801F058FE28
:101E0000064C074B1860204600F0B0FD2046FFF757
:101E10001BF8002010BD00BF0C540001251E00015E
:101E2000F80000210A2838B50446074D04D1286877
:101E300083680D215B68984728688368E1B25B6816
:101E40009847204638BD00BFF800002137B5402331
:101E50000C460A490093411A491105462346084A8F
:101E6000084802F035FD011E05DA2846234603B076
:101E7000BDE83040184703B030BD00BF0C01002161
:101E8000454900012800002138B5CCB2012C054697
:101E900008D9084908487E2202F03DFB7E2105480A
:101EA00002F086FC0C23E96804FB0314A06C00F02C
:101EB000070038BD1354000123520001F8B5CCB21D
:101EC000012C05461746C6680AD91849184840F239
:101ED000531202F020FB40F25311144802F068FC48
:101EE0004FF02003EFF3118183F31188BFF36F8F5D
:101EF0000C2202FB04639B6C13F0C00301D09F42D1
:101F000011D10123002002FB0466B36481F3118820
:101F1000BFF36F8F30B90C23696803FB0414636847
:101F200098470020F8BD4FF0FF30EFE71354000151
:101F30002352000170B50D4606490446411A491165
:101F400040220548FFF7BAFF2B4601462046BDE870
:101F5000704018470C0100212800002170B50022B4
:101F600001210446052000F023FA052000F002FAC2
:101F70000F4801F0B7FB0F4B984215D101F0D2FB8F
:101F8000E6680D49304602F014FB00280BDB012502
:101F9000E4680949B56404F1200002F00AFB002856
:101FA00001DB0020656570BD6FF00400FBE700BF3A
:101FB000F11F00010000AD0BB84F000101460C23DA
:101FC00000224B43084870B5C4184833D4E9105672
:101FD0001844226402F069FC2DB132462B46BDE85C
:101FE00070400248184770BD0C01002128000021F4
:101FF000012808B506D0032808D0A0B90F4B9B6C68
:102000005B0719D1BDE80840FFF7D8BF0C4940F283
:1020100066220C4802F07FFA40F26621BDE80840D3
:10202000074802F0C5BB064940F26A22054802F0A3
:1020300072FA40F26A21F1E708BD00BF0C010021ED
:10204000135400012352000108B54FF02003EFF3B1
:10205000118183F31188BFF36F8F114A136843F026
:10206000020013F0010310600BD00E4AD2F80C34BA
:10207000D2F80C2413F0010303D00B4802F015FC36
:10208000012381F31188BFF36F8F23B1BDE80840AE
:102090000020FFF793BF0120BDE8084001F064BBBA
:1020A000640100210050004154010021074BD3E896
:1020B000EF2F22F00201C3E8E01F0028F7D1D30779
:1020C00002D4012001F09CBB704700BF64010021D5
:1020D0002DE9F041012206464249D1E8EF3FC1E82F
:1020E000E02F0028F9D19BB93F4940484B60CB60B5
:1020F0008A60FFF79DF800280ADA3D493D4840F222
:10210000262202F008FA40F22621394802F050FB5C
:1021100086B3731E012B52D8012E06D1364BD3F84D
:102120001C3403F00303022B24D002F030FE0446DB
:1021300018B9324B1B78002B4ED14FF02003EFF330
:10214000118783F31188BFF36F8F01242A4DDFF8C5
:10215000B080D5F81834D5F81824D2030CD503F084
:102160000303022B01D0012E06D124B387F311887B
:10217000BFF36F8FBDE8F081C4B1384600F062F95B
:10218000D5F81835DBB2012BE3D1D5F80421002AAC
:10219000DFD00022C5F80421D5F804210222C5F8B9
:1021A00018252022C8F88021AB60D2E70021212029
:1021B00001F034FFE4E70223C5F80433DAE70C4901
:1021C0000C484FF40E7202F0A6F9BDE8F0414FF44E
:1021D0000E71074802F0ECBA0222074B0746C3F81B
:1021E0000823B3E768010021FC0000212C01002135
:1021F000135400012352000100500041C40100218A
:1022000000E100E010B5064C06482146172202F016
:1022100082F92046BDE81040172102F0C9BA00BF7C
:102220007054000123520001F8B500252F46104CD0
:102230002668104B05B1F8BDD3F80423D203FAD5B4
:10224000D3F84021002AF6D0C3F84051D3F84021FA
:102250004FF48032C3F848230125D3F8401526B146
:10226000002062682760B047E2E72660E3E700BF2E
:102270006C0100210060014138B500254FF4803326
:102280004FF480020C4C0121C4F80855C4F8043303
:102290000A4B1620C3F880212A4600F089F8162040
:1022A00000F068F80123064AA3600220236013604F
:1022B000FFF70EFF284638BD0060014100E100E055
:1022C000740100210A4A0B4993680968D867C3F86A
:1022D000801009494B6843F080534B60002383F31F
:1022E0001188BFF36F8F9368D3F88000704700BFE9
:1022F000900100213C50000100ED00E013498A6884
:102300004FF040001044EFF3098C80E8F01F2020CC
:1023100080F31188BFF36F8F0D4F4FF000660A6A8C
:102320008A603E60D06F0023D36780F3118802F18A
:10233000400090E8F01F8CF3098802F1000004B51A
:1023400002F013FBBDE8044070470000900100213B
:1023500004ED00E01EF0040F0CBFEFF30880EFF374
:102360000980816911F8021C0229FFD001B502F031
:1023700000FB01BD43B2002B08DB012200F01F006F
:1023800002FA00F0024A5B0942F82300704700BFDE
:1023900000E100E0054B420953F82220012300F040
:1023A0001F0003FA00F01040704700BF00E100E09A
:1023B00038B54C1C072C054608D90D490D485C2240
:1023C00002F0A9F85C210A4802F0F2F96BB2002B86
:1023D000ACBF03F16043084B4FEA4414E4B2ABBF17
:1023E00003F5614305F00F0583F800435C5538BDE4
:1023F000AC5400012352000114ED00E004460846ED
:1024000011461A46002383F30B880A4B2025A3F5B7
:10241000806686F30B8883F3098863B64FF0000368
:1024200083F31188BFF36F8FA04785F31188BFF343
:102430006F8FFEE7C8050021014910220A6070472E
:1024400010ED00E072B6494081F3118820BF80F39F
:10245000118862B6704700BF37B505460C46C9B152
:102460008B6810480093D1E90023452102F053F80E
:10247000636945210093D4E903230B4802F04BF82C
:102480004521E269094802F046F84521A269084859
:1024900002F041F82146284603B0BDE8304001F083
:1024A0002DBB00BFE2540001165500014A55000142
:1024B0005E55000130BFFFF7FDBF00BF08B5084BF8
:1024C000084A23F07F039360BFF34F8FBFF36F8FF2
:1024D00001F070FB01F02AFE00F01AFA01F08CFB0B
:1024E0000000000100ED00E001B5EFF30580A0F170
:1024F00010004FEAC0000449014409C99847BDE8EB
:102500000140024908470000004E0001E92800018F
:1025100002F056F9202080F3118808484FF400613A
:10252000401880F30988EFF314800221084380F3F8
:102530001488BFF36F8FFFF7C1FF0000C8050021AB
:10254000EFF30880EFF3098101B5724600F008F956
:1025500001BD00BF38B5214C4521214801F0DBFF0A
:10256000A36A9D0103D545211E4801F0D4FFA36A4B
:10257000DC0103D545211C4801F0CDFF174DAC6AA5
:1025800014F4801404D04521184801F0C4FF02243B
:10259000AB6A180303D54521154801F0BCFF0F4D68
:1025A000AB6A590303D54521124801F0B4FFAB6A69
:1025B0009A0303D54521104801F0ADFF074DAB6AE2
:1025C000DB0303D545210D4801F0A5FFAB6A20468A
:1025D0006FEA03436FEA1343AB6238BD00ED00E0DE
:1025E00091550001AE550001C6550001E5550001A9
:1025F0001456000137560001615600018056000153
:1026000070B5204C06460D461F48452101F083FF5A
:10261000A36ADB0403D545211C4801F07CFFA36AB3
:102620001C0503D545211A4801F075FF154CA36A16
:10263000980510D54521174801F06DFFA26BA36ADC
:10264000190408D54521144801F065FF1EB1A36A9D
:1026500023F40043A3620B4CA36A5A0503D545211A
:102660000E4801F058FFA36ADB0503D545210C484D
:1026700001F051FF0020034A936A43F47F439362C1
:10268000287070BD00ED00E0B0560001CB5600018F
:10269000E1560001F95600011757000131570001BA
:1026A0005157000170B5254C06460D46244845217A
:1026B00001F031FFA36AD90603D54521214801F075
:1026C0002AFFA36A1A0703D545211F4801F023FFFB
:1026D0001A4CA36A9B0710D51C48452101F01BFF2B
:1026E000626BA36A180608D54521194801F013FF4B
:1026F0001EB1A36A23F08003A362104CA36AD9071A
:1027000003D54521134801F006FFA36ADA0602D477
:10271000A36A9B070AD51049104840F2471201F0FE
:10272000FAFE40F247110C4802F042F80020034A3A
:10273000936A43F0FF039362287070BD00ED00E0E0
:102740006E57000189570001E1560001C157000191
:10275000DE570001F95700011D5800012352000106
:102760002DE9F0414F4B0026D3F804808AB0C8F31E
:10277000080586F31188BFF36F8F02F07F43B3F132
:102780007F4F07D102F00C03082B10D1452146489A
:1027900001F0C1FE4FF471724449454801F0BBFE9F
:1027A0004FF47171414802F003F8002706E0120768
:1027B0004EBF0F4607460126002FEBD00024EB1E2C
:1027C0008DF80740092B5AD8DFE803F0054E523246
:1027D000595959595956334D4521364801F09BFEF8
:1027E0008DF80740EC6A14F0020405D04521324808
:1027F00001F091FE00241EE0EB6A5B001BD5452131
:102800002E4801F088FE95F828302BB101200DF1FB
:102810000701FFF747FF0DE095F829302BB10120A4
:102820000DF10701FFF7ECFE04E06B8D9BB213B1D5
:10283000FFF790FE04469DF8073093B920223946F1
:1028400002A802F0CEF8099B36B3C3F3080222B9FE
:102850006FEA53236FEA43230993204602A9FFF747
:10286000FBFD0AB0BDE8F08100200DF10701D0E7C3
:1028700000200DF10701D5E745211148B8E71149BE
:1028800018F4F87F104A114808BF0A46A5F1100352
:10289000452101F040FEADE723F4FF7323F001036F
:1028A000DAE700BF00ED00E0855800011D58000187
:1028B00023520001B5580001D1580001F75800011A
:1028C0001B590001575800016C580001565900016E
:1028D000044B5A6942F010025A615A6942F480620C
:1028E0005A61704700ED00E0704700BFBFF34F8FA3
:1028F0000549064BCA6802F4E0621343CB60BFF39C
:102900004F8F00BFFDE700BF00ED00E00400FA05B7
:10291000002320210348C21801331E2B82F8001324
:10292000F9D1704700E100E008B50E4B9B68834287
:1029300007D1EFF3058393B10B4A536843F08053FB
:10294000536001F075FA4FF02003EFF3118083F329
:102950001188BFF36F8FBDE8084002F0FCB901F0A9
:10296000ADFB00BF9001002100ED00E0014B1860BD
:10297000704700BF04000021024B0B60012313606D
:10298000704700BF7801002100487047DC4F00010C
:1029900070B50C46164602F0D9F921460546324676
:1029A000174801F0B8FD3146204602F06DF808B333
:1029B000B4FBF5F305FB134323B9B6FBF5F005FBB8
:1029C000106040B13346224645210E4801F0A3FD78
:1029D0006FF015000DE0B5420BD802F0B7F90546CF
:1029E00004F18074204600F0C1FF761B2C44F9D11D
:1029F000304670BD3346224645210348E6E700BF16
:102A00006E59000193590001B759000110B502F049
:102A1000A0F9034C206002F099F96060002010BD1D
:102A20007801002170B50D461946284616461C4609
:102A300002F02AF840B184B12246304605F1807197
:102A400001F0CFFF002007E0054823462A46452134
:102A500001F061FD6FF0150070BD2046FCE700BF7E
:102A6000B7590001F8B50D461946284617461C46C9
:102A700002F00AF858B105F1807545EA040616F02F
:102A800003060DD023462A464521104803E023467D
:102A90002A4645210E4801F03EFD6FF01500F8BDB5
:102AA0008CB124F00304A64205EB060006D1094AC6
:102AB000D2F80034DB07FBD50020F0E7B95900F06D
:102AC00087FF0436EFE72046E9E700BFD959000148
:102AD000B759000100000841026810B553090446C7
:102AE00029D0012B4FF6FF7318BF002302F01F02FD
:102AF000D340DB070AD41249124840F21A2201F0EF
:102B00000AFD40F21A210E4801F052FE236803F03C
:102B10001F025B0922600CD0012B0FD00849094825
:102B200040F21F2201F0F7FC40F21F21044801F09F
:102B30003FFE054810BD4FF0FF33D7E70348F9E7E4
:102B4000065A00012352000100058C4100088C4107
:102B5000F0B54B79012B2BD0032B26D110278B7985
:102B6000032B22D1CD7925B1012D1ED143681B79CC
:102B7000DBB10A79012A1DD0022A1FD0AAB9144656
:102B80000B684668B3F5164F36686ED033D8B3F588
:102B9000165F6DD01CD8B3F5966F6BD010D8B3F517
:102BA000967F6AD0B3F5167F6AD06FF022005BE0A3
:102BB0000027D4E74FF480740E22E1E70024FBE7FE
:102BC000B3F5166F5FD0B3F5965FEED1384B3EE0AC
:102BD000B3F5E14F5AD007D8B3F5615F58D0B3F5DC
:102BE000964FE2D1334B32E047F6122C6345DCD1ED
:102BF0004FF400032BE0B3F5613F4BD013D8B3F58E
:102C0000963F4AD009D84DF6C02C634547D0B3F55E
:102C1000614FCAD14FF46B0319E0B3F5E13FC4D162
:102C20004FF0EB7313E0B3F5612F3BD009D8DFF819
:102C300088C0634539D0B3F5E12FB6D14FF0E863D2
:102C400005E0DFF878C06345AFD14FF08053C6F898
:102C50002435C3682C433A432243043303C9C6F8DE
:102C60006C2583E803000020F0BD4FF41D03EEE760
:102C7000134BECE74FF49E23E9E74FF4A033E6E76C
:102C80004FF41C33E3E74FF41D23E0E70D4BDEE781
:102C90000D4BDCE74FF06C73D9E70C4BD7E74FF4E3
:102CA0006503D4E74FF07063D1E74FF08063CEE760
:102CB00000B0130000A04E0090D0030040420F006F
:102CC0000050270000C0750000F03A0000903A0163
:102CD0002DE9F04106468846C76802F058F8B8B9B1
:102CE000284B1B7883F001037268156893B14FF08D
:102CF0002003EFF3118483F31188BFF36F8F7068A3
:102D000001F066FF38BB84F31188BFF36F8FEEE7E5
:102D10000123E9E76424706801F05AFF70B90120CB
:102D200001F0FBFF013CF6D10021212001F076F9F2
:102D3000F0E784F31188BFF36F8FF5E74FF02003BE
:102D4000EFF3118483F31188BFF36F8F706801F084
:102D50003FFF0028EDD00123002207F8108FC5F8AF
:102D60004475C5F84835C5F82021D5F82011C5F8B7
:102D70005821D5F85821AB6084F31188BFF36F8FC9
:102D8000BDE8F081C40100212DE9F74F05464FF061
:102D900000084FF02109002201211320FFF708FB52
:102DA0001320FFF7E7FA6B68EE681C680127C4F888
:102DB000008501A83560CDF80490FFF78DFE019BDA
:102DC0004FF0030A07FA03F3836001A8CDF80490DB
:102DD000FFF782FE4FF0200B019B803340F823A0C9
:102DE00001A8CDF804B0FFF777FE019B803340F8CF
:102DF0002380C4F80C954FF00A09C4F814B501A853
:102E0000CDF80490FFF768FE019B803340F82380E3
:102E10004FF00B0801A8CDF80480FFF75DFE019B81
:102E20009F40876001A8CDF80480FFF755FE019B05
:102E3000E968803340F823A00431C4F808852846A7
:102E4000C4F81095FFF784FE074680B96B689B793C
:102E5000002B3AD006F1120000F05EFD2B4B984299
:102E600009D045212A4801F056FB6FF00407384687
:102E700003B0BDE8F08F14F5907996F812800AD16E
:102E8000244925484FF4F57201F045FB4FF4F571E4
:102E9000204801F08DFC48F0004814F10C0FC9F8EF
:102EA00080800AD11B491C484FF4F87201F033FBB3
:102EB0004FF4F871174801F07BFC0123C4F88C80B3
:102EC000B27C9340154AC2F804350823C4F8003593
:102ED0000023C4F81031D4F8103106F11103C4F8FE
:102EE00034350123C4F8383523606B689B791BB9EE
:102EF0004FF48073C4F8043300231036C4F84465DB
:102F0000C4F848350123A360E360B0E70000AD0BCF
:102F1000395A00015D5A00012352000100F00041BE
:102F2000F8B53B4B0646D3F820320D46B3F5006F9B
:102F300008D038493848102201F0EDFA1021354800
:102F400001F036FC35490C68072C5BD8304BD3F8C0
:102F50002002B6FBF0F200FB1262002A55D1D3F832
:102F60002002B5FBF0F200FB1252002A4DD1D3F83B
:102F70002002D3F824224243AA4246D3002D44D053
:102F8000621C0A60D3F82022B6FBF2F302FB136343
:102F900043B123492048762201F0BDFA762120482A
:102FA00001F006FC1A4FD7F82032D7F824225343F9
:102FB0009D4208D91A491848772201F0ACFA7721C6
:102FC000174801F0F5FBD7F82022B5FBF2F302FB1E
:102FD000135343B112491048792201F09CFA792128
:102FE0000F4801F0E5FB240104F1824303F50023BF
:102FF000C3F800681C46C3F8045802230020C4F834
:103000000838F8BD6FF01B00FBE76FF01500F8E71C
:103010000000FF01A55A0001235200018001002198
:10302000D15A00010348452108B501F074FA002087
:10303000FFF75CFC035B000138B504468169294851
:1030400001F069FA00234FF0FF31274AC2F800353A
:10305000A2F56042C2F80813BFF36F8F72B6234A1D
:1030600003F120000133102B42F82010F8D1002387
:103070004FF0FF3003F160010133102B42F82100C3
:10308000F8D14FF0E02300221A61D3F8042D03F5A4
:10309000506342F000725A605A6A22F4E0225A6287
:1030A000EFF31482920705D5EFF3148222F00202A7
:1030B00082F31488BFF34F8FBFF36F8FA56901218F
:1030C00020469D6000F048FA58B1002383F30B8836
:1030D00083F30A882A6882F3088883F309886B6877
:1030E000984738BD255B00010030014100E100E058
:1030F0001FB50446074A01AB07CA83E807000C2244
:103100001946204601F05CFC00280CBF2046002038
:1031100004B010BD3C4F000170B505460024054EBB
:1031200056F8040B2844FFF7E3FF10B90134052CCF
:10313000F6D170BD005000012DE9F04F1C46D36957
:10314000814685B010460E461546D2F80C801769A8
:10315000D3F804A0FFF7CCFF48B924B100242046DF
:1031600005B0BDE8F08F504801F0D5F9F7E7AB693D
:103170004B4503D0002CF1D14C48F5E71CB9B342C4
:1031800001D04B48F0E73046FFF7C6FF854203D039
:10319000002CE3D14748E7E7296A474B994205D01D
:1031A000002CDBD1454801F0B6F9D8E7D5F814B0CA
:1031B00001F0AFFDC0F34F0083450BD2002CCDD101
:1031C0006D6901F0A6FD2946C0F34F023C4801F0AD
:1031D000A2F9C4E715EB080815D2BB1913D2B54202
:1031E00011D39D420FD208F1FF3846450BD8434515
:1031F00009D917EB090702D2EB694B4507D2002C1E
:10320000ACD13048B0E7002CA8D12F48ACE7BB4286
:10321000F5D2D1450FD857450DD92F69DFF8AC90BD
:10322000374407F1050A0DF10408BA4507D1002C0F
:1032300094D1274898E7002C90D1264894E799E844
:10324000070088E807000C224146384601F0B8FB29
:1032500000B90FB90137E8E7FA68AB699A4204D0C0
:10326000002C7FF47BAF1C487EE72D6901F0E3FC66
:10327000014620B1002C7FF471AF184893E729462E
:10328000304607F1100201F0DDFC014620B1002CB0
:103290007FF464AF124886E7002C7FF460AF1148DA
:1032A00001F039F901245AE7375B0001575B00014F
:1032B0008A5B0001B75B0001FFFF0291E05B000148
:1032C000075C0001745C0001475C0001484F00018D
:1032D000CD5C0001A05C0001FE5C0001315D0001DD
:1032E000515D00017D5D0001024B1868BFF34F8FF7
:1032F000704700BF00860001024B9868BFF34F8FF4
:10330000704700BF0086000170B5FFF7F5FF14237A
:10331000584311490144084601F0BEFC012802D07F
:103320000024204670BD0029FAD000260C1D023171
:10333000084601F0B1FC8642F2D2A01C01F0ACFCC0
:103340000546204601F0A8FC0128EAD0023504EB2E
:1033500045040136ECE700BF0C86000108B50348C0
:1033600001F0D9F8024B034A1A6008BD975D0001CD
:1033700000E0072015FCBA25064B1868064B98425A
:1033800005D0064B984214BF022001207047002050
:10339000704700BF00E00720B6B3B4B55DCE03F1BF
:1033A000014B5868704700BF00E00720F0B5344C6F
:1033B00001680546ADF50F7D324801F0ACF8226892
:1033C000314B9A4258D10023CDE90133E3682946B5
:1033D00000930EAA4FF4007305A8FEF7B9FC05464A
:1033E00040B102464521294801F095F828460DF5DF
:1033F0000F7DF0BD6168B1F1805F1CD3244FA269DD
:10340000A3689A421ED2217F0029FAD00123D4E971
:10341000041205A801F0DFF9064628B3024645214B
:103420001C4801F078F84FF480520021206901F027
:1034300003FB3546DAE7A268012305A801F0CBF9C2
:10344000044650B90E4B4FF480520021186901F028
:10345000F3FA114801F05FF8C8E7024645210F482A
:1034600001F059F82546C1E73846099901F053F8AB
:103470004FF48073A383C2E76FF00D05B6E700BF7A
:1034800000E00720A85D0001B6B3B4B5BC5D000143
:10349000425E0001185E0001DF5D0001ED5D00018C
:1034A00008B5034801F037F8024B034A1A6008BD1B
:1034B0005B5E000100E007205DCE03F12DE9F043E3
:1034C0000025214C214E54F8048CDFF8849085B0FF
:1034D000A84503D8002005B0BDE8F083636A96E8EC
:1034E00007001F6801AB83E807000C221946384625
:1034F00001F066FA90B98FB1636A21691B681A6995
:1035000091420BD19A69A169914207D8E169914230
:1035100004D962695B6932EA03030AD0276A67B19A
:103520000C4800F0F8FF404080F311884FF0040091
:1035300002DFE36801351C44CAE7484600F0EBFFB0
:10354000636A1F60F5E700BF3C020001544F0001B1
:10355000995E0001705E00012DE9F04F0F460646AE
:1035600089B018B9002009B0BDE8F08F0023426B84
:1035700000F13C04934206D14FF00009B36B4B4578
:1035800005D80120EFE7E16801330C44F2E74FF082
:10359000000A2A4B01934FF0000B019B0DF1140818
:1035A00053F8042BCDE90132254B53F8045B039308
:1035B000029B1D44234B93E8070088E807000C2278
:1035C0004146284601F0FCF9039B00B9ADB90BF167
:1035D000010BBBF1050FE8D11B4B0AF1010A9A451B
:1035E000D9D31FB10023626A136013BB236A03B3EC
:1035F000B8E7DA680130134408E02B6A134A9342B3
:10360000EAD1AE42E8D0696B05F13C038842E3D0D1
:1036100025691A699542ECD19A69A5699542E8D85D
:10362000E5699542E5D962695D69AA43E1D1002F58
:10363000D9D1E36809F101091C449FE70461000145
:1036400014500001604F000101000000FFFF0291D3
:103650000022D30003F1FF7303F58033D3F8001386
:10366000013107D0D3F800130132D3F80433202AF4
:103670000B60EED1144BD3F83021072A1AD1D3F8BE
:103680003431023B032B0CD8104AD35C4BB1104BA6
:10369000D3F80024D10742BF0022C3F81421C3F895
:1036A00018210B4BD3F80024D20744BF6FF001025E
:1036B000C3F80024074B1A68074BC3F84425074B8F
:1036C000074A1A60704700BF0000FF01CC5E00018E
:1036D000005000410080FF01006000411C000021FB
:1036E0000090D00310B5044640B909490948B322F7
:1036F00000F011FFB321064801F05AF8064B1A7981
:1037000022B9012205481C601A7110BD0448FCE76B
:10371000D05E000123520001840100210000AD0BA6
:103720000C00AD0B08B50C4B1B7943B90B490C4889
:10373000CC2200F0F0FECC21084801F039F8052039
:10374000FEF728FE10B90520FEF714FE0122054BF6
:10375000C3F8142508BD00BF84010021D05E00011C
:103760002352000100500041214B10B51B79044643
:1037700053B9204920484FF4847200F0CCFE4FF436
:1037800084711C4801F014F874B1012C26D0194939
:1037900019484FF49D7200F0BEFEBDE810404FF492
:1037A0009D71144801F004B8144BD3F81824D3F8D1
:1037B0001814C90310D502F00302022A0CD1C3F871
:1037C00018250022C3F80421D3F804210222C3F8EB
:1037D000042301229A6010BD0122F0E70022074B6A
:1037E000C3F80021D3F80021C3F804431C60F2E7BA
:1037F00084010021D05E00012352000100500041ED
:1038000038B5274B04461B7953B92649264840F260
:10381000411200F080FE40F24111224800F0C8FF42
:1038200074B1012C22D01F491F4840F25D1200F0F4
:1038300072FEBDE8384040F25D111A4800F0B8BF92
:1038400002231A4DC5F80833C5F80441D5F80431F0
:10385000012342F21074EB60D5F81834DB031ED557
:10386000012001F05AFA013CF6D118E000230F4D77
:10387000C5F80843C5F80031D5F800316C6042F254
:103880001074D5F80C34D5F80C2403F00103D203DE
:1038900005D523B1012001F040FA013CF1D138BD3A
:1038A00084010021D05E000123520001005000413C
:1038B000174B10B5D3F8002152B10020C3F8000116
:1038C000D3F800210122C3F80823124B1B68984744
:1038D0000F4BD3F804218AB10022C3F80421D3F896
:1038E0000421D3F81824D3F8181402F00302012A93
:1038F0004FF0020103D1C3F818159A6010BDC3F848
:103900000813044B0120BDE810401B68184700BF96
:10391000005000418401002170B50B4D2E68F24328
:1039200092B272B10024E1B222FA01F3DB0704F192
:103930000104F8D501238B403343017003482B6009
:1039400070BD0348FCE700BF8C0100210000AD0BF7
:103950000200AD0B044AD2F80034DB07FBD501604E
:10396000BFF35F8F704700BF0000084100F17F4345
:10397000B3F5802F10B504460AD3104910484FF410
:10398000827200F0C8FD4FF482710C4800F010FF05
:10399000C4F30A037BB902220A4BC3F804254FF093
:1039A000FF322260D3F80024D207FBD5002206485C
:1039B000C3F8042510BD0548FCE700BF0D5F0001FA
:1039C00023520001000008410000AD0B0A00AD0BBE
:1039D00070B50D460121044601F0A1F950B9124914
:1039E00012484FF4C97200F096FD4FF4C9710E48A9
:1039F00000F0DEFEA3070AD00B490C4840F29312F8
:103A000000F089FD40F29311074800F0D1FE012338
:103A1000074E2946C6F804352046FFF79BFF0023D2
:103A2000C6F8043570BD00BF0D5F000123520001D0
:103A300000000841F8B5104B104F53F820500130EA
:103A400053F82060AE4200D8F8BDD5E900342046D6
:103A5000984770B16CB10123E41B094A2411610934
:103A600052F8210004F01F0403FA04F4044342F85E
:103A700021400835E6E700BF28500001280000215A
:103A800068000021084BC01A0011084B420953F886
:103A90002220012300F01F0003FA00F010420CBFA7
:103AA00018460020704700BF280000216800002150
:103AB00070B505460F4C104EB44204D10D4CB442C3
:103AC0000AD1002414E02046FFF7DCFF10B1236880
:103AD000AB420DD01034EFE72046FFF7D3FF08B913
:103AE0001034ECE72846216800F05EFF0028F7D18B
:103AF000204670BD2800002168000021F7B504466B
:103B00000E464FF02003EFF3118783F31188BFF3C4
:103B10006F8F00F0A9FA0022042C98BF1D4B0546B8
:103B200094BF53F824301C4B0092452122461B4879
:103B300000F0F1FC3EB1F369C3F308031BB145216A
:103B4000174800F0E8FC35B1284601F02AF9034691
:103B500008B1027802B9134B2A464521124800F0F9
:103B6000DAFC31462046FFF75DFA042C08D10F49F4
:103B70000F488E2200F0CFFC8E210C4800F018FE7A
:103B800087F31188BFF36F8F284603B0BDE8F0407C
:103B9000FEF7CABE40500001495F00015F5F0001AF
:103BA0008C5F0001575F0001B25F0001CF5F000131
:103BB000235200010248034A0021121A00F03CBFC0
:103BC00070000021C8010021012208B5084B022025
:103BD0001A70FFF72FFF00F09DFA0320FFF72AFF6E
:103BE000FDF796F8034A137B23F00103137308BD16
:103BF000C40100217000002108B5144B03F50062D8
:103C000082F3088883F30A880025E023104C84F8A7
:103C10002230E57725766576A576636A43F4E0235E
:103C20006362FEF755FEFEF707FC4FF0FF332846B0
:103C3000A362E362FFF7FEFE0120FFF7FBFE2B46C7
:103C40002A4629460348FEF7D9FB00BFC8050021D4
:103C500000ED00E0C93B0001836810B5044653B98C
:103C6000064907484FF4017200F055FC4FF401710A
:103C7000024800F09DFDA06810BD00BF3E6000013D
:103C800023520001094B03F12402824205D19B68B3
:103C90008B4202D14B7BDB0606D1D1E900321360A7
:103CA0005A600023C1E90033704700BF9001002132
:103CB00038B5164D02462B691BB1EC6888B12C62F1
:103CC00038BD05F1240001F05CF80446A9684B7B7F
:103CD000980644BF43F008034B7304B9EC685AB12B
:103CE000EDE7AB6843B90A490A48832200F013FCA8
:103CF0008321074800F05CFDAB685A7BD206DED119
:103D0000A269002A08BF1C46D9E700BF9001002124
:103D10003E60000123520001F0B490F90D30417B68
:103D2000002B28DBCB0626D1836923BB134A02F183
:103D30002405D2E90934AB4217D0B3B190F90E6033
:103D400093F90E70B7420BDD5A68C0E9003210607B
:103D5000586061F07F014173F0BC0020FFF7A8BFFD
:103D6000A34202D01B68002BEAD1C0E90054936A39
:103D700018609062EDE7F0BC704700BF9001002131
:103D800070B50446183000F005FA4FF02003EFF349
:103D9000118683F31188BFF36F8F204800F06AF912
:103DA00040B91F491F487C2200F0B5FB7C211C480C
:103DB00000F0FEFC194800F079F994F90D30002B61
:103DC00007DA21461848FFF75DFF637B03F07F03A6
:103DD0006373164D637BA86843F010036373031B82
:103DE00058425841FFF764FF0C4800F051F940B9C0
:103DF0000B490C48A72200F08EFBA721084800F0D1
:103E0000D7FC86F31188BFF36F8FAB68A34203D151
:103E1000BDE8704000F0ABBF70BD00BFBC01002129
:103E20005D52000123520001B401002190010021E4
:103E30002DE9F041037B0446DD070AD5714972483C
:103E400040F20D2200F067FB40F20D216D4800F0BA
:103E5000AFFC6E4DAB68A3420DD1EFF3058353B9B0
:103E60006849694840F20F2200F055FB40F20F21EB
:103E7000644800F09DFC4FF02003EFF3118683F3BC
:103E80001188BFF36F8F624800F0F4F840B96149C0
:103E90005D487C2200F03FFB7C215E4800F088FCFE
:103EA0005B4800F003F9637B13F0280F12D05848E9
:103EB00000F0EEF840B957495348A72200F02BFB19
:103EC000A721544800F074FC86F31188BFF36F8F6C
:103ED000BDE8F08143F020034D48637300F0D8F84B
:103EE00040B94C494848A72200F015FBA721494892
:103EF00000F05EFC86F31188BFF36F8F04F11800A9
:103F000000F048F94FF02003EFF3118683F3118896
:103F1000BFF36F8F3E4800F0ADF840B93D493A48D5
:103F20007C2200F0F8FA7C213A4800F041FC384845
:103F300000F0BCF8637BD80615D1A2699AB91906BE
:103F400007D521463448FFF79DFE637B03F07F03CE
:103F50006373A868021B50425041FFF7A9FE002777
:103F600004F1300822E09B07F9D52046FFF774FEE4
:103F70002146FFF787FE637B23F002036373002370
:103F8000A360ECE705F1180000F004F92846FFF7FC
:103F900063FE2946FFF776FE6B7B284623F002037B
:103FA0006B73AF60C5F88070FFF7B6FE256B4545B3
:103FB00001D0002DE6D10022637BA56E43F00803FB
:103FC000637304F13803D3E8EF1FC3E8E02F002840
:103FD000F9D10F4800F05CF840B90E490A48A72211
:103FE00000F099FAA7210B4800F0E2FB86F3118854
:103FF000BFF36F8F002D3FF46BAF20462B46BDE81B
:10400000F04118473E600001235200019001002159
:10401000BC0100215D520001B401002138B5054604
:104020000C46EFF3058353B10C490D4840F21A5288
:1040300000F071FA40F21A51084800F0B9FBB4F1EF
:10404000FF3F08BFB5F1FF3F06D1064B9868FFF769
:1040500097FE4FF0FF3038BD0020FCE73E600001C6
:104060002352000190010021014B9868704700BF66
:1040700090010021006838B1044B00F003001B7D63
:10408000C01A18BF0120704701207047900100211D
:10409000054903468A68087D196802430020914259
:1040A00004BF18600120704790010021024A117D71
:1040B00093680B43036070479001002108B54FF0EF
:1040C0002003EFF3118583F31188BFF36F8F0E4C3C
:1040D000236943B10D490E48282200F01CFA28211B
:1040E0000A4800F065FBA0682061FFF749FE2846FA
:1040F000FEF7E8F805490648302200F00CFA3021B6
:10410000024800F055FB00BF9001002160600001F3
:1041100023520001024A0349034800F0FCB900BFE2
:10412000B15F0001896000019660000108B5064892
:10413000064A0749121A00F054FCBDE80840054A37
:104140000549064800F04DBC000000216C0000212C
:10415000086100010000000008610001000000216A
:1041600030B5036868B10A4A5268904209D043B139
:10417000D3E90421D0E90445121941EB0501C3E953
:104180000421426813605A600023C0E9003330BD47
:104190002000002138B504464FF02003EFF31185CD
:1041A00083F31188BFF36F8F1548FFF763FF40B9A2
:1041B000144915487C2200F0AEF97C21114800F02A
:1041C000F7FA0F48FFF772FF2368B3B12046FFF7F5
:1041D000C7FF00240A48FFF75BFF40B909490A48B6
:1041E000A72200F098F9A721064800F0E1FA85F32C
:1041F0001188BFF36F8F204638BD6FF01504E9E7D3
:10420000C00100215D5200012352000170B50C4C29
:104210000C4D0D4EAC4208D931460C48152200F029
:104220007AF91521304600F0C3FAAC4201D30020E0
:1042300070BD2046D4E9011200F0B5FD1834E9E75D
:104240006C0000216C000021E1600001235200019C
:104250002DE9F04F3F2A9BB0019240F2AD800C4611
:104260000546A2F1400020F03F0040302018D5E97B
:1042700002BA0090D5E906C35846D5E90012D5E93F
:10428000049E9B46DFF84481236867681BBAA668D2
:1042900002910392E16822690490CDF814A060694C
:1042A000D4F818A0CDF81890CDF81CE0D4F81C90E4
:1042B000D4F820E0CDF820C0CDF824B0D4F824C044
:1042C000D4F828B00A93E36A9EFA8EFE3FBA36BA53
:1042D00009BA12BA00BA9AFA8AFA99FA89F99CFAD2
:1042E0008CFC9BFA8BFB1BBACDE912ECCDE90C617F
:1042F000CDE90E20CDE910A9CDE914B30B97D4F880
:1043000030C0676BA66BE36B9CFA8CFC1BBA02AAED
:104310000AA940463FBA36BACDE916C7CDE91863B7
:10432000FCF74CF90AA8FCF76FFA02AA0AA924487C
:10433000FCF744F90AA8FCF767FA02AA0AA921487F
:10434000FCF73CF90AA8FCF75FFA1F4802AA0AA981
:10435000FCF734F96A68039B2E681A44EB68A86876
:104360009C46059B049F0CEB030A2B6902999C4613
:10437000069B31440CEB03096E69079B3844AF6917
:1043800006EB030EDDE9086307EB060CEE6940342B
:1043900006EB030B009BC5E900129C42C5E9020A2B
:1043A000C5E9049EC5E906CB7FF46EAF019B03F01F
:1043B0003F001BB0BDE8F08F10461BB0BDE8F08F8A
:1043C00094500001D45000011451000154500001D8
:1043D000F0B504460B688F68CE6899B01BBA0D69BA
:1043E00048698A6908933FBACB6936BA0A970B962F
:1043F0006768A668D1F804C02DBA00BA12BA1BBA11
:104400000C950D90E56820690E920F936269A3697F
:1044100001970296E76926689CFA8CFCCDE9035067
:10442000CDE90523CDF824C0079700960B6ACF6A23
:10443000086B8A6B1BBA2D4DD1F824E0D1F828C047
:104440004E6B1093CB6B3FBA11BA00BA9EFA8EFE38
:104450009CFA8CFC1BBA6A46CDE91370169128466B
:1044600008A936BA1793CDE911EC1596FCF7A6F812
:1044700008A8FCF7C9F96A4608A905F14000FCF74D
:104480009DF808A8FCF7C0F96A4608A905F1800064
:10449000FCF794F808A8FCF7B7F96A4608A905F1F3
:1044A000C000FCF78BF8D4E90265606801992768C1
:1044B0004318009A0299206917440E44039A0499FC
:1044C000154408446269059927601144C4E9040150
:1044D0000020A769069A63603A44E369079FC4E92C
:1044E00002653B44C4E9062319B0F0BD54500001F5
:1044F000034658B1426802F00302012A03D0032A9E
:1045000004D1026812B10020986070476FF0150066
:104510007047002070470FB407B504A951F8040B89
:104520000191FCF797FC03B05DF804EB04B0704711
:10453000838B13F0070305D10368002B0CBF002009
:1045400003207047022B05D1C38B002B14BF002022
:1045500004207047012B05D10368002B0CBF0020FD
:1045600005207047002070472DE9F0410D460746B1
:104570001946281D90461E46FCF740FC044638B1FB
:104580003346424629463846A446BDE8F0416047D6
:10459000BDE8F08110B50C4640B139B1081DFFF7F8
:1045A000A7FF28B9A36833F0030301D06FF015000B
:1045B00010BD38B50C46054658B151B10B6843B132
:1045C0004B6833B12022002100F036FA00202C6124
:1045D00038BD6FF01500FBE7836800EBC101B3F550
:1045E000004F2CBF51F8220031F81200704700EB49
:1045F000C1018068B0F5004F2CBF41F8223021F88E
:1046000012307047012208B5FFF7E6FFD04008BD21
:10461000836800EBC101B3F5004F08D34B681AB1B2
:1046200043F001034B60704723F00103FAE74B8826
:104630001AB143F001034B80704723F00103FAE7FE
:1046400053000122FFF7D3BFB0F5004F2CBF082065
:10465000042007310844C008704708B50B46012103
:10466000FFF7F2FF01331B1AB3FA83F0C0F11F000A
:1046700008BD2DE9F0410D4686680446FFF7C2FFEC
:10468000B6F5004F014601D3012833D03046FFF77D
:10469000E4FF04EB800216699EB9012303FA00F0DF
:1046A000E36829460343E360204615612B46022256
:1046B000FFF79DFF032229462046BDE8F041FFF7A2
:1046C00096BF022231462046FFF786FF0746034683
:1046D00029462046FFF78BFF032233462946204612
:1046E000FFF785FF39462B462046FFF780FF022261
:1046F0003146E1E7BDE8F0812DE9F84F9A46D378DD
:1047000080466F2B0F461546A3F1410B29D024D8C4
:10471000582B14BF0A261026DDF8289032460023B5
:1047200040463946FBF78CFD092AD4B21ED83034F6
:10473000B045E4B277F1000309F8014D01D3D1454A
:1047400011D82B789B0605D5082E15D1AB7843F0F0
:104750000803AB704846BDE8F88F03F0F703702BF1
:10476000D7E70826D8E780460F46D7E7BBF1190FF1
:1047700094BF37345734DBE7102EEBD1AB7843F0DE
:104780001003E6E72DE9F0410746884615461E4628
:104790001446B442A4EB050002D33EB923782BB1F2
:1047A000414614F8010BB8470028F2DABDE8F08161
:1047B000404080F311884FF0040002DF70477047DB
:1047C000FEF746BF08B583681B699847006808BDB7
:1047D0008368DB6818472DE9F347894616469846F3
:1047E0000446002859D0826803691344826933441F
:1047F000934255D80025D4E90170A6EB050A3F1A6B
:10480000BA453AD2B54209D223685246184409EB58
:10481000050100F0E6F8A3685344A360B8F1000F67
:1048200041D0A06830B3E068FFF7CCFFA56806462A
:10483000B5FBF0F300FB1355B5B1D4E90431E068E2
:10484000194483680DF107021F680123B84788B92E
:10485000A3682068751B18442A469DF8071000F0CD
:10486000EBF8A3682B44A3602046FDF711FA2369F7
:104870005B1B236102B0BDE8F08723683A46184409
:1048800009EB050100F0ADF863682046A360FDF771
:10489000FFF90028EED13D44ADE76FF00D00E9E7E8
:1048A0006FF00B00E6E74046E4E74FF02003EFF33C
:1048B000118283F31188BFF36F8F036803F0C00385
:1048C00043F00203036082F31188BFF36F8F7047D8
:1048D000F8B5069F0546C468C9B24FF02000EFF353
:1048E000118C80F31188BFF36F8F0C2606FB0146F5
:1048F000B06C00F0070EBEF1010F10D1B7640026B6
:104900008CF31188BFF36F8F3EB90C2041430C44E8
:10491000C4E910236B685B5898473046F8BD00F037
:10492000C000874214BF4FF0FF366FF04406E7E740
:1049300013B580240094FFF7CBFF02B010BD6FF0D9
:1049400022007047C068CBB200EB43100021104733
:104950000020FEF709BF0020FEF752BF8022FDF7BE
:10496000ADBA00210120FDF777BDC36E83F30B883C
:10497000704701460068FDF76FBD08B5FDF79AFD69
:10498000BDE80840FDF7B0BF034600201A5C02B93D
:1049900070470130FAE7034600201A5C0AB18842EA
:1049A00000D170470130F8E7431E013913F8012F99
:1049B00011F8010F824201D1002AF7D1101A704775
:1049C000034610B55AB10139841813F8010B11F8D8
:1049D000012FA34201D09042F7D0801A10BD10469B
:1049E000FCE7F0B581EA0004A50703460BD0013BC4
:1049F0000A4491421BD1F0BD002AFCD011F8014BB2
:104A0000013A03F8014B9C07F6D122F003041D1F65
:104A100096080F19B94205D16FF00305234405FB31
:104A20000622E4E751F804CB45F804CFF2E711F889
:104A3000014B03F8014FDCE770B50446C9B2A30788
:104A400011D141EA012343EA034522F0030396080A
:104A500023449C420DD16FF0030404FB06221A4448
:104A6000934209D170BD002AFCD004F8011B013A21
:104A7000E5E744F8045BECE703F8011BF0E74FF0CF
:104A8000FF3070470020704738B504460D4600F0EF
:104A90005AF9844209D2002C07DBA84205D32C44E2
:104AA00084428CBF0020012038BD0020FCE72DE9A6
:104AB000F3411E4683680C465B696946174601AAA6
:104AC0009847DDE9001000231D469E469C460138AC
:104AD000421C02D16FF0150019E00A68D7B1D1F875
:104AE000048008FB0255A54200F1FF3017DD03B139
:104AF0000091009B5B68736077B1A4EB0E04B4FB7C
:104B0000F3F4002004FB03E364443360B46002B0B8
:104B1000BDE8F0811544E6E7A4EB0C04F1E74B682F
:104B2000944403FB02EE08310123D1E7134601222E
:104B3000FFF7BDBF2DE9F0470024836886B08846A3
:104B400091465B6902AA01A99847A2462546029BA5
:104B5000AB4202D806B0BDE8F0870026019F07EB04
:104B6000C5077B6804933A680AEB0603B24202D891
:104B70009A460135EBE7494603A803940593C047DD
:104B80000028E7D0049B01361C44ECE70B46C268C2
:104B9000D2E9010183E803000020704743681B68E5
:104BA000D3F88004C3F8800470474368C2681B6868
:104BB000D3F8100148B10020527C0A70C3F81001EC
:104BC000D3F8102101221A6070474FF0FF30704770
:104BD00002680346D2F8580138B99B7933B9D2F844
:104BE0002001003818BF012070470120704743683A
:104BF0001B68D3F80423D20518D5D3F82021AAB115
:104C00004FF02001EFF3118281F31188BFF36F8F12
:104C1000D3F8201131B10021C3F82011D3F82011AD
:104C20000121D96082F31188BFF36F8F7047002094
:104C300070470020704708B5FFF7F9FF08B9FFF784
:104C4000F8FF08BD30B589B0154601230A46014674
:104C5000684600F00EF8044640B92022694628460E
:104C6000FBF77CFC002808BF6FF06404204609B005
:104C700030BD08B5FBF7D0FE002008BD70B5054675
:104C800008460C46FEF748FA21460246012328460C
:104C9000BDE87040FEF750BA20F0030203461068EA
:104CA000BFF34F8F9B0714BF000C80B2704708B54D
:104CB000FEF72AFB08B9002008BD0230FFF7ECFF21
:104CC0004FF6FF739842F7D1F5E72DE9F04105461D
:104CD000FEF71AFB0446FFF7EAFF211D00240746F2
:104CE0002646A74207D84FF000080DB1C5F800804E
:104CF0003046BDE8F0810846FFF7CEFFC3439BB2C4
:104D000088460231002BF0D09E4238BF1E46013447
:104D1000E7E70020FFF7D9BF004700F03EB80346A1
:104D200003F17F42B2F5802F08460AD351B103F157
:104D30007E4101F50041B1F5607F2CBF00200120CC
:104D40007047012070474FF4802070474FF4006097
:104D5000704780207047034620B9EFF305820AB9F7
:104D6000FDF7B0BA83F31188BFF36F8F70474FF030
:104D70002003EFF3118083F31188BFF36F8FFFF7E8
:104D8000EABF03460068834208BF00207047EFF384
:104D90000580003818BF0120704708B1FCF72ABF12
:104DA00070470020704710B400F10C04C0E90344C0
:104DB00010BCFCF7C1BA7047B8B4FF7F0100000017
:104DC000CD1B0001000000000D42000100000000AA
:104DD0005D1F000128000021892D000138000021FD
:104DE000F91D0001000000007922000148000021A7
:104DF0000D2A000158000021BD3400010000000010
:104E00000000000063490001000000006349000148
:104E10000000000063490001000000006349000138
:104E20000000000063490001B1380001194D000184
:104E30000000000063490001000000006349000118
:104E40000000000063490001000000006349000108
:104E500000000000634900010000000063490001F8
:104E600000000000634900010000000063490001E8
:104E700000000000634900010000000063490001D8
:104E800000000000634900010000000063490001C8
:104E9000000000006349000138000021EF4B0001D1
:104EA00000000000634900010000000063490001A8
:104EB00000000000292200010000000063490001F9
:104EC0000000000063490001000000006349000188
:104ED0000000000063490001000000006349000178
:104EE0000000000063490001000000006349000168
:104EF000FF530001030000006254000103000000A2
:104F0000195B000103000000FC59000103000000D0
:104F10003B600001030000006C5E00010300000024
:104F2000AA52000103000000955A00010100000090
:104F3000DEE61E284CBBCE8F02350000DEE61E28C2
:104F40004CBBCE8F02350000DEE61E2883845186DE
:104F500002350100DEE61E28EAAC45B80235000045
:104F6000DEE61E284CBBCE8F02350000000000009C
:104F70000338FDD870470000000000000002000068
:104F80000004000000080000001000003F4900017C
:104F90005D4900013149000100000000891E000147
:104FA00049200001AD200001565400015149000183
:104FB000574900015C5400014D1E0001351F0001DE
:104FC00000000000252A0001652A00019129000146
:104FD000854A0001892900017929000104000000A7
:104FE000FF000000AB4B0001D12C00019D4B0001E4
:104FF000512B00018D4B00010030014106000100E2
:105000000000000000020000000400000008000092
:10501000001000000000000000020000000400007A
:105020000008000000100000C04D0001E84D000124
:10503000F04D0001004E0001004E0001F5FFFFFFA2
:10504000F15F0001FF5F00011360000122600001B9
:105050002E600001982F8A4291443771CFFBC0B572
:10506000A5DBB5E95BC25639F111F159A4823F9233
:10507000D55E1CAB98AA07D8015B8312BE8531248C
:10508000C37D0C55745DBE72FEB1DE80A706DC9B4D
:1050900074F19BC1C1699BE48647BEEFC69DC10FF9
:1050A000CCA10C246F2CE92DAA84744ADCA9B05C35
:1050B000DA88F97652513E986DC631A8C82703B0F8
:1050C000C77F59BFF30BE0C64791A7D55163CA0606
:1050D00067292914850AB72738211B2EFC6D2C4D12
:1050E000130D385354730A65BB0A6A762EC9C28100
:1050F000852C7292A1E8BFA24B661AA8708B4BC296
:10510000A3516CC719E892D1240699D685350EF4BF
:1051100070A06A1016C1A419086C371E4C77482776
:10512000B5BCB034B30C1C394AAAD84E4FCA9C5BEC
:10513000F36F2E68EE828F746F63A5781478C8843D
:105140000802C78CFAFFBE90EB6C50A4F7A3F9BE1F
:10515000F27871C64E52465F464C4153485F445206
:10516000565F4E414D45004661696C656420746F21
:105170002070726F746563742062306E20666C619B
:1051800073682C2063616E63656C20737461727444
:1051900075700A0D00556E61626C6520746F206633
:1051A000696E642076616C6964206669726D7761EE
:1051B000726520696E736964652025700A0D00466A
:1051C00061696C656420746F207472616E736665CA
:1051D0007220696D6167653A2025640A0D00466199
:1051E000696C656420746F2070726F7465637420DD
:1051F00061707020666C6173683A2025640A0D0046
:10520000574553545F544F504449522F7A65706844
:1052100079722F6C69622F6F732F6E6F7469667964
:105220002E6300415353455254494F4E2046414945
:105230004C20402025733A25640A00574553545F9B
:10524000544F504449522F7A65706879722F6C69B7
:10525000622F6F732F6F6E6F66662E630057455314
:10526000545F544F504449522F7A65706879722FB9
:10527000696E636C7564652F7370696E6C6F636BB8
:105280002E6800574553545F544F504449522F7A6B
:1052900065706879722F6C69622F6F732F68656112
:1052A000702E6300286E696C2900736F630025639C
:1052B0003A204275666665722073697A6520697363
:1052C00020626967676572207468616E207061672B
:1052D000650A0025633A204572726F7220256420AA
:1052E0007768696C652067657474696E67207061A2
:1052F000676520696E666F0A0025633A2045727201
:105300006F72202564207768696C6520657261730F
:10531000696E6720706167650A0025633A207374BF
:105320007265616D5F666C6173685F6572617365FC
:105330005F7061676520657272202564206F666604
:105340007365743D30782530387A780A0025633AE1
:1053500020666C6173685F7772697465206572722C
:105360006F72202564206F66667365743D30782502
:1053700030387A780A0025633A20666C61736820B9
:1053800072656164206661696C65643A2025640A0F
:105390000025633A2063616C6C6261636B20666117
:1053A000696C65643A2025640A0025633A204275D9
:1053B000666665722073697A65206973206E6F7402
:1053C00020616C69676E656420746F206D696E6919
:1053D0006D616C2077726974652D626C6F636B2DE3
:1053E00073697A650A0025633A20496E636F7272A9
:1053F00065637420706172616D657465720A005333
:10540000545245414D5F464C41534800554152541A
:105410005F3000574553545F544F504449522F7AE0
:1054200065706879722F647269766572732F636C28
:105430006F636B5F636F6E74726F6C2F636C6F63FF
:105440006B5F636F6E74726F6C5F6E72662E63005B
:10545000434C4F434B006866636C6B006C66636C37
:105460006B00636C6F636B5F636F6E74726F6C0065
:10547000574553545F544F504449522F7A657068D2
:1054800079722F647269766572732F74696D6572B3
:105490002F7379735F636C6F636B5F696E69742ED2
:1054A00063007379735F636C6F636B00574553548C
:1054B0005F544F504449522F7A65706879722F615A
:1054C0007263682F61726D2F636F72652F616172F5
:1054D000636833322F6972715F6D616E6167652E2B
:1054E000630025633A2072302F61313A20203078F2
:1054F00025303878202072312F61323A20203078E0
:1055000025303878202072322F61333A20203078CD
:10551000253038780A0025633A2072332F61343AF7
:105520002020307825303878207231322F69703A57
:105530002020307825303878207231342F6C723A40
:1055400020203078253038780A0025633A202078EA
:105550007073723A20203078253038780A0025633D
:105560003A204661756C74696E6720696E73747257
:10557000756374696F6E206164647265737320284B
:105580007231352F7063293A203078253038780A07
:105590000025633A202A2A2A2A2A205553414745C2
:1055A000204641554C54202A2A2A2A2A0A002563DB
:1055B0003A2020204469766973696F6E20627920F1
:1055C0007A65726F0A0025633A202020556E616C5F
:1055D00069676E6564206D656D6F727920616363C4
:1055E0006573730A0025633A202020537461636B4E
:1055F000206F766572666C6F772028636F6E7465B6
:1056000078742061726561206E6F742076616C69B8
:1056100064290A0025633A2020204E6F20636F70B2
:10562000726F636573736F7220696E7374727563E2
:1056300074696F6E730A0025633A202020496C6CF0
:105640006567616C206C6F6164206F66204558430C
:105650005F52455455524E20696E746F2050430A74
:105660000025633A202020496C6C6567616C2075C9
:105670007365206F662074686520455053520A0098
:1056800025633A202020417474656D707420746F16
:10569000206578656375746520756E646566696EEE
:1056A000656420696E737472756374696F6E0A0045
:1056B00025633A202A2A2A2A2A2042555320464185
:1056C000554C54202A2A2A2A2A0A0025633A2020E7
:1056D00020537461636B696E67206572726F720A22
:1056E0000025633A202020556E737461636B696EE8
:1056F00067206572726F720A0025633A202020507D
:1057000072656369736520646174612062757320DA
:105710006572726F720A0025633A2020204246416A
:105720005220416464726573733A20307825780A98
:105730000025633A202020496D70726563697365A6
:10574000206461746120627573206572726F720AE1
:105750000025633A202020496E7374727563746962
:105760006F6E20627573206572726F720A00256316
:105770003A202A2A2A2A2A204D5055204641554CA3
:1057800054202A2A2A2A2A0A0025633A2020205354
:105790007461636B696E67206572726F7220286333
:1057A0006F6E746578742061726561206D696768D9
:1057B00074206265206E6F742076616C6964290ABA
:1057C0000025633A202020446174612041636365B1
:1057D00073732056696F6C6174696F6E0A0025637C
:1057E0003A2020204D4D4641522041646472657339
:1057F000733A20307825780A0025633A2020204922
:105800006E737472756374696F6E20416363657340
:10581000732056696F6C6174696F6E0A0057455347
:10582000545F544F504449522F7A65706879722FF3
:10583000617263682F61726D2F636F72652F616192
:1058400072636833322F636F727465785F6D2F6691
:1058500061756C742E6300526573657276656420A1
:10586000457863657074696F6E2028005370757297
:10587000696F757320696E74657272757074202813
:10588000495251200025633A20535053454C20691A
:105890006E20746872656164206D6F646520646F4A
:1058A0006573206E6F7420696E646963617465202E
:1058B0005053500A0025633A202A2A2A2A2A2048CF
:1058C000415244204641554C54202A2A2A2A2A0A69
:1058D0000025633A202020427573206661756C7440
:1058E000206F6E20766563746F72207461626C65E0
:1058F00020726561640A0025633A202020466175A4
:105900006C7420657363616C6174696F6E202873B9
:1059100065652062656C6F77290A0025633A202A45
:105920002A2A2A2A204465627567206D6F6E697481
:105930006F7220657863657074696F6E20286E6F72
:105940007420696D706C656D656E74656429202ABC
:105950002A2A2A2A0A0025633A202A2A2A2A2A20C1
:10596000257320256429202A2A2A2A2A0A002A2A7D
:10597000496E7465726E616C206572617365206139
:105980006464723D25782C2073697A653D25782002
:105990002A2A0025633A20756E616C69676E65641A
:1059A00020616464726573733A2030782530386CF6
:1059B000783A257A750A0025633A20696E76616C1B
:1059C000696420616464726573733A2030782530AD
:1059D000386C783A257A750A0025633A206E6F7420
:1059E00020776F72642D616C69676E65643A203050
:1059F000782530386C783A257A750A00666C6173C0
:105A0000685F6E726600574553545F544F50444967
:105A1000522F6D6F64756C65732F68616C2F6E6F9C
:105A2000726469632F6E7266782F68616C2F6E7274
:105A3000665F6770696F2E680025633A204661696A
:105A40006C656420746F20616C6C6F636174652099
:105A5000505049204368616E6E656C0A005745538B
:105A6000545F544F504449522F6D6F64756C657389
:105A70002F68616C2F6E6F726469632F6E72667827
:105A80002F68656C706572732F6E7266785F6770D1
:105A900070692E6800756172745F6E7266785F75EA
:105AA0006172746500574553545F544F50444952D6
:105AB0002F6E72662F6C69622F6670726F746563E9
:105AC000742F6670726F746563745F61636C2E63AC
:105AD00000574553545F544F504449522F6D6F64E3
