:020000040000FA
:10000000A05E0020ED250000817100001D2600008B
:100010001D2600001D2600001D2600001D260000D4
:10002000000000000000000000000000F1230000BC
:100030001D26000000000000A923000067710000D9
:10004000C5250000C5250000C5250000C525000008
:10005000C5250000C5250000C5250000C5250000F8
:10006000C5250000C5250000C5250000C5250000E8
:10007000C5250000C5250000C5250000C5250000D8
:10008000C5250000C5250000C5250000C5250000C8
:10009000C5250000C5250000C5250000C5250000B8
:1000A000C5250000C5250000C5250000C5250000A8
:1000B000C5250000C5250000C5250000C525000098
:1000C000C5250000C5250000C5250000C525000088
:1000D000C5250000C5250000C5250000C525000078
:1000E000C5250000C5250000C5250000C525000068
:1000F000C5250000C5250000C5250000C525000058
:10010000C5250000C5250000C5250000C525000047
:10011000C5250000C5250000C5250000C525000037
:10012000C5250000C5250000C5250000C525000027
:10013000C5250000C5250000C5250000C525000017
:10014000C5250000C5250000C5250000C525000007
:10015000C525000053B94AB9002908BF00281CBFB3
:100160004FF0FF314FF0FF3000F080B9ADF1080CD7
:100170006DE904CE00F006F8DDF804E0DDE90223C5
:1001800004B070472DE9F04F099E0D4604460F4616
:10019000002B47D18A4294465FD9B2FA82F343B129
:1001A000C3F120019F4002FA03FC9C4020FA01F1B8
:1001B0000F434FEA1C451FFA8CFE220CB7FBF5F1EA
:1001C00005FB117701FB0EF042EA0742904208D985
:1001D0001CEB020201F1FF3702D2904200F234819F
:1001E0003946121AA4B2B2FBF5F005FB102200FB4F
:1001F0000EFE44EA0244A64508D91CEB040400F1B3
:10020000FF3202D2A64500F21981104640EA0140B1
:10021000A4EB0E0400211EB1DC400023C6E900431C
:10022000BDE8F08F8B4208D9002E00F0FB80002142
:10023000C6E900050846BDE8F08FB3FA83F100294E
:100240004BD1AB42C0F0F180824240F2EE800846D2
:10025000002EE5D0C6E90047E2E702B9FFDEB2FAB8
:1002600082F3002B40F09D808D1A4FEA124E97B218
:100270000121B5FBFEF20EFB1250250C45EA0045AC
:1002800007FB02F0A8420FD91CEB050502F1FF386D
:100290002CBF4FF001094FF00009A84203D9B9F172
:1002A000000F00F0CE8042462D1AA4B2B5FBFEF03E
:1002B0000EFB105500FB07F744EA0544A74208D996
:1002C0001CEB040400F1FF3502D2A74200F2B38018
:1002D0002846E41B40EA02409DE7C1F120078B401D
:1002E00005FA01F422FA07FCFD408A404CEA030CAF
:1002F00020FA07F34FEA1C491C431FFA8CFE00FA50
:1003000001F3200CB5FBF9F809FB185540EA054547
:1003100008FB0EF0A8420FD91CEB050508F1FF3AC7
:100320002CBF4FF0010B4FF0000BA84203D9BBF1DB
:10033000000F00F08C80D0462D1AA4B2B5FBF9F066
:1003400009FB105500FB0EFE44EA0545AE4507D9F2
:100350001CEB050500F1FF3401D2AE457ED82046E6
:1003600040EA0840A5EB0E05A0FB029845454C4627
:10037000C64602D306D14B4504D20138B9EB02047C
:1003800068EB0C0E002E6FD01A1B65EB0E0522FADF
:1003900001F305FA07F7CD4000211F43C6E90075B8
:1003A0003EE702FA03FCC3F1200001FA03F24FEA30
:1003B0001C4EC14024FA00F51FFA8CF79C401543EF
:1003C000B1FBFEF02A0C0EFB101142EA014200FBC9
:1003D00007F191420ED91CEB020200F1FF382CBF4D
:1003E0004FF001094FF00009914202D9B9F1000F15
:1003F00031D04046521AADB2B2FBFEF10EFB1122D3
:1004000045EA024501FB07F2AA4207D91CEB0505A4
:1004100001F1FF3801D2AA4223D84146AD1A41EA80
:10042000004126E731463046FAE6841A65EB0303BD
:1004300001201F460CE7644402384AE7644402384E
:10044000E4E6023A65442FE702396244C9E6A8F1BE
:100450000208654470E702386244CBE7023865441D
:100460007EE702396544D9E73146D9E6704700BFD7
:100470007FB53B4B3B4A3C48C2F80036C2F80436D5
:10048000C2F80836C2F80C36C2F81036C2F8143674
:10049000C2F81836C2F81C3602F58052C2F800368F
:1004A0004921C2F80436C2F80836C2F80C36C2F840
:1004B0001036C2F81436C2F81836C2F81C3606F0E8
:1004C00019FB00F07FF8294800F060F828B94521B1
:1004D000264A274806F00EFBFEE701A800F074FD4F
:1004E000244B1B68834204D04521234806F002FBBD
:1004F000FEE74921039A214806F0FCFA49212048E9
:1005000006F0F8FA4FF44041002003F08DFB20B1D3
:1005100045211C4806F0EEFAFEE703F045FC69466B
:100520009DF8080000F03EF8009B039C1C44019BD2
:100530001D8966194FF02002EFF3118382F31188B1
:10054000BFF36F8F06F010FE01F03CF8635983F3A0
:1005500008887368984745210B4806F0CBFAFEE7F8
:100560003546526E00800150C49A0000DD9A0000AA
:10057000F09A0000E40200200F9B0000329B000074
:10058000619B0000869B0000B99B000010B5044CE5
:10059000236813B904F0A8FE2060206810BD00BFD6
:1005A000E0020020024608B538B105480023452185
:1005B00006F0A0FA6FF0150008BD0860FCE700BF68
:1005C000DC9B00004FF4C051014804F087B900BF24
:1005D0007C1900202DE9F04FDFF8E8A1F9B038A828
:1005E000DDE9844817461D46DAF8006008F0CDFCC6
:1005F000002138A804F082FA3CB1B8F1000F04DD04
:100600004246214638A808F0C4FC4FF000097B8917
:10061000B7F808809844FB689844C8454BD80DA9A2
:1006200038A808F0F3FC869B23B1202218460DA9B8
:1006300006F0EBFD00232A46009339464FF6FF7380
:1006400007A805F0D7FF0446002840F0B580804693
:100650004FF0FF37DFF870910DF1160305AA06A9D8
:1006600007A806F013F8041EC0F2A68040F0978099
:10067000BDF816B0BBF1100F34D1BDF81480B8F13D
:10068000200F40F0978043462846069938AA06F086
:100690004BFC0446002840F08F80424638A90DA844
:1006A00006F06CF80446494B1B68834240F0848096
:1006B0004FF00108D0E7DDF80CB2A8EB09039B4529
:1006C00028BF9B4649465B462846829A06F02CFC8A
:1006D0000446002870D15A46829938A808F059FC7F
:1006E000D9449AE7BBF1010F36D1BDF81430202B65
:1006F00060D82846069938AA06F016FC0446002859
:100700005AD19DF814B0BBF1200F03D94FF0FF343C
:100710002746A1E7D9F800302D4F0393039B9C4255
:10072000F4DA1DA808F031FC00211DA804F0E6F958
:100730007A681DA8126857F8081B08F02AFC15A94A
:100740001DA808F063FC5A4638A915A806F034FD28
:100750000028DDD00134E1E7BBF1200F7FF47CAF4E
:10076000002F19DBD9F80030BB4215DDBDF814307D
:10077000B3F5807F1ED12846069938AA06F0D4FB2F
:100780000446C8B9FFB25946BDF81430009738AADC
:100790000DA800F01FF806464FF0FF375CE7B8F1F0
:1007A000000F0DD0094B1B68B34201D0DAF800608E
:1007B000344601E04FF0FF34204679B0BDE8F08FB9
:1007C0000124F9E700000020D8960000E402002090
:1007D000DC9600002DE9F04F91460022ADF54B7DEF
:1007E00098466B4B07468A4627A811469DF85063EA
:1007F0001D6808F086FB674B8AAA53F8364003EB66
:10080000C6035B680294196802A80C443023214691
:1008100007F064F968BB029B8A9A13449C4228D172
:10082000214629AA02A807F06DF910BB0DF1B00B03
:100830005A46214602A807F065F90646C8B929A814
:1008400007F053FC029B28909C4212D1334632465B
:10085000CDE9006B29A927A808F00FFB48B927A804
:1008600004F0EAF828B929A807F03FFC8045289051
:100870000AD027A808F050FB27A808F04DFB28460F
:100880000DF54B7DBDE8F08FB8F5807F02D04FF0BD
:10089000FF35F1E7BAF1200FF9D149468AAA27A816
:1008A00004F0EEF804460028F1D19DF82733BC2B64
:1008B000EDD10DF5A478DF26454603900CA808F08D
:1008C00064FB00210CA804F019F920220DF2073175
:1008D0000CA808F05EFB042203A90CA808F059FB41
:1008E00004A90CA808F092FB1F2ED4BFB1464FF00C
:1008F00020099DF80F30404601334A4604A9A6EB73
:1009000009068DF80F3006F080FC002EC844D5DCB7
:1009100028462A46DF238AAE117816F801CB013B20
:1009200081EA0C0102F8011BF6D12B7803F07F035A
:100930002B7010F8016B002EA9D10134BE2CF8D118
:1009400095F8BE30012BA2D10CA808F01EFB314651
:100950000CA804F0D3F808220F490CA808F019FBE2
:10096000394620220CA808F014FB20220DF20721A2
:100970000CA808F00EFB04A90CA808F047FB2022E5
:100980000DF2073104A805F0F9FE054681E700BF26
:1009900000000020DC960000029C00002DE9F041E0
:1009A000032386B00D466F460026DFF86C80ADF855
:1009B000003017F8010B01A901F016F90446D8B967
:1009C00001981023816802AA103906F0ADFA044696
:1009D00028B1019806F0A7FA0EE00126E9E71022F7
:1009E000414602A806F0E8FB50B1019806F09BFAD8
:1009F000002EF2D04FF0FF34204606B0BDE8F08163
:100A0000019806F0EBFE0423A0F108012A460198A4
:100A100006F08AFA0446DCE7FC9800002DE9F04174
:100A2000384B88B0064600200D461C6805F0D8FDFE
:100A300006A9C0B201F0D8F8002857D1294605F020
:100A4000CFFD2C2407A9C0B204FB056401F0CCF84B
:100A5000002836D04FF02C0808FB05F806EB0807F5
:100A6000396911F0100137D14FF480730193264B8F
:100A7000224600930846CDE90311069B0291FFF739
:100A8000A9FD0446214B56F8082006989A420CD13D
:100A90003A89FB68D1438B4207D81344826893425A
:100AA00003D21B4B1B68A3421DD045B382680021B3
:100AB00006F080FA174A4521174806F01BF8012472
:100AC00011E0079806F0A5FA0746079806F02BFAFA
:100AD000631EE21C93420DD1002DF0D030460699E2
:100AE00000F07AFA2C46069806F01DFA204608B067
:100AF000BDE8F08113F8011FB942EBD0AAE7074A1D
:100B0000D9E700BF000000207C3500203DB8F396F7
:100B1000E40200200A9C00001C9C0000149C0000C1
:100B200073B50D46002104462846CDE9001105F0B5
:100B3000DDFE30B3164E2368B34203D1204601AA2E
:100B400005F06BFEE36AB34204D16A4601212046F8
:100B500005F063FEDDE90032934288BF0193019BFB
:100B6000AB60019A2946204600F030FC094B1A6818
:100B7000002A03DD5721084805F0BCFF002002B021
:100B800070BD05F10801FFF709FFAB680193E8E7C5
:100B90003DB8F39648120020449C00002DE9F84F20
:100BA000884691469A460026DFF88CB0234D244CA7
:100BB0000B9B9E4201D300200FE00B9B40469F1BE6
:100BC000B7F5806F28BF4FF480671B4A3B4606EBA2
:100BD0000A0106F0A9F910B10120BDE8F88F0A99C1
:100BE0003B465A464846711806F0BBF90028F3D137
:100BF000144BC5F800463E44C5F80446C5F80846FF
:100C0000C5F80C46C5F81046C5F81446C5F8184690
:100C1000C5F81C46C3F80046C3F80446C3F80846A6
:100C2000C3F80C46C3F81046C3F81446C3F8184678
:100C3000C3F81C46BCE700BF7C3100200080015097
:100C40003546526E009001502DE9F04FAF4B0446EF
:100C5000602289B08A460021D3F8009006F000FB9C
:100C60000021AB4B08466362AA4B236505F0B8FC34
:100C700004F12001C0B200F0B7FF0121002005F00F
:100C8000AFFC04F14C01C0B200F0AEFF05462046B7
:100C900005F004FE024630B1F02257219E4805F0CF
:100CA00029FF0123C9E00146204605F09EFD0646C6
:100CB00018B1002257219948F1E7204600F09EFA2A
:100CC0000028EED004A805F008FE0146204605F0F5
:100CD0006DFE18B1324657219148E0E704A805F0AF
:100CE00005FE80F0010104AA2046C9B205F07DFD91
:100CF00006460028DDD104A805F0F8FD804660BB5B
:100D0000204604A9FFF70CFF9DF8173084F85830EF
:100D1000033B012B06D8404605F096FE10B1FF2399
:100D200084F858309DF81730023B022B0BD8002076
:100D300005F078FE38B1FF2384F858304521794812
:100D400005F0D8FEFEE794F85830FF2BF6D00021CE
:100D5000204604AA05F049FDA3E79DF81730012BB2
:100D600040F0A280E76C7049F868039606F018FA24
:100D7000002847D16D4805F0BDFED7F804B0DBF878
:100D800000206B4B9A4252D1BBF80860B8F1000FBB
:100D900040D05E44314672686648039205F0AAFE70
:100DA000002003F06FF8821E022A034645D8019006
:100DB00001212046FFF732FE5F4A019B12689042F4
:100DC00037D1039AB2F1807F37D9DBF80CB04921D3
:100DD0005A4805F08FFE5946304602F085FF58BB51
:100DE0004921574805F086FEB8F1000F34D0394646
:100DF000204600F0F1F800283FF453AF514805F0C9
:100E000079FE4EE77968504805F074FEB04604F16B
:100E10002C0BB4E70423384603AAF11806F084F833
:100E200050B906F180563146039A4848B6E7002685
:100E3000B6E701283FF435AF052384F8583094F81D
:100E40005830042B8DF8173039D8012B3DD854D0A9
:100E5000FF2384F8583050E0D4E91423013B52F8C2
:100E6000336002EBC3011268D1F80480B61ABB6884
:100E700032464146364805F03DFEBB68B342FFF4BA
:100E800010AF08EB06029342FFF40BAFF86804F0D2
:100E90002BFA79683144836842469B68984700285A
:100EA0003FF4FFAE2B48AAE701212046FFF7B6FD2D
:100EB000214B1B689842BFD19DF81730BDE7052B29
:100EC000C6D1002005F0C0FD12E0204604A9FFF7BE
:100ED00027FE94F858300546DA1E012A0BD8002068
:100EE00005F0B2FD05460028B2D1002005F09AFDBC
:100EF000054610B1ACE7022BF7D094F85830FF2B21
:100F00002AD14521074805F0F5FDFEE70000002045
:100F100048030020C80A0020739C0000B59C000014
:100F2000E19C00000B9D0000DD9A0000179D000071
:100F30003DB8F396629D0000E40200209F9D0000F2
:100F4000C19D0000E19D00003A9D0000809D0000D1
:100F5000039E0000219E0000012B06D000212046A8
:100F600004AA05F042FC0546E8B900212046FFF737
:100F700055FD8146124E3368834214D11022002160
:100F80000DEB020006F06CF9236A0E4859788AF8D6
:100F900004105A682389CAF80820CAF8004005F0EE
:100FA000A9FDD6F80090E06C05F0BDFF206A05F0C1
:100FB000BAFF002D14BF2846484609B0BDE8F08F9F
:100FC000E4020020439E000008B501460148FFF7F7
:100FD0003BFE08BDE80200202DE9F04F0C46CB682F
:100FE00085B00A7807464921274805F083FDD4E9F2
:100FF0000121264805F07EFD0021084605F0F0FAA3
:1010000001210646002005F0EBFA3246034605466C
:1010100021781F4805F06EFD23789E422FD09D4217
:101020002FD101262C2303FB0676F86DB56A05F057
:10103000A7FB4FF000088146DFF858B0013D736A06
:10104000204603EBC502D2F804A053F835101B6804
:101050005246C91A039105F088FC0399D0440091C7
:1010600007464B4642465146584605F043FDC145AA
:1010700005F1FF35E3D8384605B0BDE8F08F00260E
:10108000D0E70127F7E700BF679E0000929E0000AF
:10109000A99E0000D99E000073B516461C4633B3C6
:1010A000436A5D686379012B15D101BB1F4B226830
:1010B0001B689A4298BF0025002005F091FA01A90B
:1010C000C0B200F091FDF0B10125019805F02BFFB1
:1010D000284602B070BD022B09D12368012B08D924
:1010E000124A1268934202D8B1FA81F149090025E7
:1010F000E2E7FCD10029DFD00129F8D121790239BA
:1011000018BF0121F3E7294620233246019805F054
:101110000BFF05460028D7D1002CD6D035680448EF
:101120002D1A18BF4FF0FF35CFE700BF0400002095
:101130003DB8F3962DE9F04F07460C4685B00146C1
:101140000020164605F021FB051E51DB3846E46DF4
:1011500005F025FB5FFA84F94FF0000A4FF0010B10
:101160004FF0FF3405F1FF3809FB08089DB9BAF1CB
:10117000010F03DD4521204805F0BCFC631C06D0AF
:10118000EF2C2ADC40F2011301343460B38028468E
:1011900005B0BDE8F08F6B1E009341460123384631
:1011A0000DF10F0205F0C0FE031E019322DB0122A8
:1011B00038460DF10F0106F022FB019B40B19B4523
:1011C00001D00AF1010A9B46009DA8EB0908CDE772
:1011D000B4F1FF3F08BF2C46F5E70223F03C7371E2
:1011E000631004F001040133013433603471CEE73D
:1011F0000725CCE70125CAE7009F000038B5826AC1
:10120000446DA24208D0631C934205D05721134875
:1012100005F070FC002038BDF02A1CD95721104879
:10122000F6E7416A056D01EBC30105EBC3054968AB
:101230006D688D4202D057210A48E9E70133A34285
:10124000EFD19A4205D9426A02EBC3035B68994227
:10125000F1D10120DFE700231946F0E7239F0000CA
:101260005B9F00008A9F000000B589B0032004A99D
:1012700006F0F8FA9DF81020012A41D0254B2649A6
:10128000032A18BF0B469DF81320492102929DF8AE
:101290001220224801929DF811200092204A05F068
:1012A00029FC012006A906F0DDFA9DF81820012A84
:1012B00028D0184B1849032A18BF0B469DF81B204D
:1012C000492102929DF81A20144801929DF8192094
:1012D0000092144A05F00EFC9DF81030012B13D13A
:1012E0009DF81230032B0FD19DF81830012B0BD035
:1012F0000D48492105F0FEFB022009B05DF804FB12
:101300000A4BC0E7094BD9E70948492105F0F2FB30
:101310000020F2E7BB9F0000C19F0000D39F0000A8
:10132000C59F000014A0000024A00000B69F00008C
:1013300043A0000070B5064618464B6814461D4A87
:1013400003F0FF2393420D4686B02ED10B68012B8C
:101350002BD104A906F086FA9DF81020012A26D088
:10136000154B1649032A18BF0B469DF81320492137
:1013700002929DF81220124801929DF811200092CD
:10138000104A05F0B7FB9DF81030032B0DD1214614
:101390003046FFF721FE204606F054FA2046A968A1
:1013A00005F014FA204602F00FFD06B070BD064BA2
:1013B000DBE700BF00010004BB9F0000C19F0000ED
:1013C000D39F000014A00000B69F0000436A2DE9DF
:1013D000F04F0C465E6805460121002389B0334476
:1013E0009342084601F10101F9D3734B186020467E
:1013F00005F07CFAB8B1E86D05F0C2F90022AB6ADD
:10140000013B3244904201D9013BFAE76A4A126833
:101410009A4208D35721694805F06CFB0123E37118
:1014200009B0BDE8F08F06A9032000F0DDFB07A995
:10143000012000F0D9FB012321462846079AFFF737
:1014400079FF6379012B08D15B4BDFF874B11F681A
:10145000594B1B68A7B9012323604FF002030127F2
:10146000DFF85C816371544BDDF818901B689F4274
:101470004AD9484605F057FD079805F054FDCFE7D7
:10148000226801339B1A9F423CD86B6A012A196873
:1014900053F8370003EBC70353F8083CDDF8188016
:1014A000A0EB0109A3EB010A12D1E268079B022A13
:1014B0000AD0414628460393FFF78EFD2246414657
:1014C000284605F054FA039B19462846FFF784FD89
:1014D00032464946404605F048FA534642464146A0
:1014E0002846CDE90096FFF759FB2146284605F02E
:1014F0000AFA23680133236020B1DBF8003001339E
:10150000CBF80030013FA3E723689F4251D36A6ABA
:10151000FB0052F83710083B04911168DDF81CA05D
:101520000391296DC8580968A0EB010B21790129A5
:101530003DD1D158039B3246C91A4846059105F062
:1015400014FA05995B464A46009128465146019691
:10155000FFF724FB2146284605F0D5F94FF002039A
:10156000237120B1D8F800300133C8F8003032467A
:101570005946504605F0F9F9DDE9032349469B1A1F
:1015800028465246CDE900B6FFF708FB214628461B
:1015900005F0B9F92368013323604FF0010323718B
:1015A00038B1D8F800300133C8F8003001E0022922
:1015B000DDD0013757E700BF040000205AA000002B
:1015C000481200204FF0FF3301210F4A5160C2F84A
:1015D0004833C2F8083302F5805251600021C2F846
:1015E0004833C2F80833A2F55042C2F80015C2F8D9
:1015F000083302F58052C2F80015C2F808334FF0E4
:101600005022C2F808337047004001500B68013384
:101610000B60014B1B68184708000020014B186045
:10162000704700BF0800002007B50B4600210246A6
:101630000191034801A900F0E5F803B05DF804FB4F
:101640000D1600002DE9F84FB0F81890044619F077
:10165000080893460DD001290CBF49F0100949F044
:101660002009A0F818908BF31188BFF36F8FBDE8A5
:10167000F88F09F00709022907D1204605F047FA3B
:101680000028F0D00128238B4ED16769218B002FD1
:1016900015DA256821F00701C4E9008841F001014D
:1016A00021830026218B01F0070ACA4502D0A368D6
:1016B000002B5AD10DB9002E71D0002356E001F055
:1016C00007035A1F012A1ED821F00701062B25689F
:1016D00089B2C4E900880AD13DB12A46638B1268F9
:1016E00001339BB2002AFAD1638341F00201204604
:1016F000218305F00CFA06460028D3D0238B43F053
:1017000020032383CDE7042B0CD121F0070189B2FC
:101710002046218305F0FBF905460028C1D041F0A1
:10172000200121830025BCE7032809D1226923F089
:101730000703166843F00603002523832F46B1E70D
:10174000042806D1226923F00703566843F00403F6
:10175000F2E7052806D1226923F00703966843F0D3
:101760000503E9E700252E46E8E7012341F00801DB
:1017700021838BF31188BFF36F8FFBB985BB16B143
:1017800020461F49B0474FF02003EFF3118B83F33E
:101790001188BFF36F8F238B23F008032383238BE0
:1017A000DA0625D5012123F010032383B4F818901D
:1017B00009F0070900297FF45EAF54E7A16800290A
:1017C000DCD0D1F800903B4652462046D1F804B018
:1017D000D847B9F1000FD1D04946D9F80090F2E7C7
:1017E00029463B46524620462D6805F0ACF9C5E730
:1017F00013F020011EBF23F0200302212383D5E72D
:10180000736B00002DE9F04F0024064689464FF027
:10181000FF35A0468DB01F46531E0B9407934FF023
:10182000000A0AE0BAF1000F11D1252800F0418129
:101830004946B0470B9B01330B93079B13F8010FED
:1018400007930028EED10B980DB0BDE8F08F7A28F1
:101850000AD8622812D8302854D047D8252800F05A
:1018600026812D2800F02C8149462520B0470B9B6E
:10187000494601330B93079B187813E1A0F16303EA
:10188000172BF1D801A252F823F000BF9F1A0000D5
:101890004719000069180000691800006918000065
:1018A0002919000047190000691800006918000094
:1018B0002919000069180000691800006918000063
:1018C000D519000069180000691800007B1A000093
:1018D0006918000047190000691800006918000025
:1018E000D5190000691800002919000039280FD9FE
:1018F0005828B9D16C2C40F0B4804FF0000B57F849
:10190000042B98E0002D03DAB8F1000F00F0DB8023
:101910000A2325EAE57503FB0505B8F1000F08BFAA
:101920004FF00208303D88E7682803D1682C06D1C3
:10193000482482E76C2802D16C2C00F0C780002C70
:1019400092D1044679E77A2C07D1BA465AF8042B8B
:101950009346D71775282ED112E06C2CF5D04C2C5D
:1019600007D1073727F00707BA467F685AF808BB40
:10197000F0E7752807F1040A1AD1D7F800B000275C
:10198000B8F1030318BF0123B8F1010F0CBF3022D7
:101990002022CDE901320A230BA9CDE9035100939E
:1019A0005A463B464946304605F040FA574636E728
:1019B0003A689346D717002FE2DA49462D20B04700
:1019C0000B9BDBF1000B03F101030B9367EB470764
:1019D000013DD5E770288DD14FF0000B57F8043B3F
:1019E0003B493C485B451A460CBF8A4682461AF87A
:1019F000010B4946CDE90832B047DDE908320B98C2
:101A000001300B909AF800000028F0D193B9A5F1AD
:101A1000050AB8F1030F7FF402AFBAF1000F7FF7A8
:101A2000FEAE49462020B0470B9B0AF1FF3A013336
:101A30000B93F2E7023DB8F1030318BF0123B8F19D
:101A4000010F0CBF30202020CDE9013010230BA95D
:101A5000CDE90351009349465B46304605F0E6F96F
:101A6000DDE64C2C7FF449AF073727F007031F460C
:101A7000D3F804B057F8082BDDE757F804ABD3468A
:101A80005B461BF8010B20B9A3EB0A0AA5EB0A0A77
:101A9000BFE74946B0470B9B01330B93F0E749463C
:101AA00057F8040BB0470B9B01330B93B7E649463D
:101AB000F8E75446D0464FF0FF354FF0010ABCE638
:101AC0004FF00308B9E64FF00108B6E64C24B4E63F
:101AD00097A100009DA1000008B54FF47F03D3F843
:101AE0003021072A19D1D3F83431023B032B14D803
:101AF0000B4AD35C8BB145210A4804F0FBFF45211A
:101B0000094804F0F7FF4521084804F0F3FF40407E
:101B100080F311884FF0040002DF002008BD00BFF1
:101B20002CA20000A0A10000D2A10000FEA1000094
:101B3000054B03EB8000D0F8003223F0E04343F084
:101B40004053C0F8003270470025845010B54FF064
:101B50002003EFF3118483F31188BFF36F8F012209
:101B60000B490C4B0020C3F80025C1F8D026FFF725
:101B7000DFFF1046FFF7DCFFC1F80427C1F8042996
:101B8000C1F8002B84F31188BFF36F8F002010BDC4
:101B9000004000500010005048B1054B1A68054B3A
:101BA000B2FBF3F2044B504343F001031847704774
:101BB0008400002040420F00D0960000084B30B552
:101BC0001C68084B01461A6800239C4201DC002077
:101BD00030BD1046057810328D42F9D00133F4E75C
:101BE000689700000C000020084B10B51B680C46DD
:101BF0002BB1FFF7E3FF28B12060002010BD6FF08C
:101C00000C00FBE76FF00100F8E700BF0C000020BC
:101C100030B589B00C4615460190FFF7CFFFB8B13B
:101C20004368226802938368C068CDE903350023C6
:101C3000CDE90623059305F056F960B1074901AADD
:101C400005F01BFC079808B9059B236009B030BD5F
:101C50006FF01500FAE76FF01200F7E7EB6E000087
:101C6000044608B54FF02002EFF3118382F3118888
:101C7000BFF36F8F05F078FA204600F099FE034815
:101C800004F038FF00F032FCFCE700BF45A2000082
:101C90000A2838B50446064D03D10D21286805F001
:101CA000C1F92868E1B205F0BDF9204638BD00BF92
:101CB0004C12002010B5074803F016FB064C074BEA
:101CC0001860204601F076F82046FFF7A7FC0020B8
:101CD00010BD00BF6EA20000911C00004C1200203D
:101CE000084B70B5C31A0D4607499B10044659436B
:101CF0004022064805F0B5F92B4601462046BDE8CE
:101D00007040184760120020B76DDBB6000100205C
:101D1000402373B50B4C0093041B0B460D460A4938
:101D2000A41061430646094A094805F0C7F9011E97
:101D300005DA30462B4602B0BDE87040184702B0C5
:101D400070BD00BF60120020B76DDBB62B710000C4
:101D5000000100202DE9F84300220121064605205C
:101D600000F074FB052000F053FB114802F09CF9D1
:101D7000104B984219D105F09AFD00244FF01C0831
:101D80000C27DFF83490F568494608FB045004F04E
:101D90000DFF002807DB012307FB04551C44042C1E
:101DA000AB67F0D10020BDE8F8836FF00400FAE7DC
:101DB000F11D00000000AD0BB097000001460C23A0
:101DC00000224B43084870B5C4187833D4E91C5638
:101DD0001844226705F032F92DB132462B46BDE892
:101DE00070400248184770BD6012002000010020BA
:101DF000052811D8DFE800F0030E10100C0A074B7D
:101E0000986F10F0070007D1FFF7D8BF0220FBE75B
:101E10000320F9E70120F7E7704700BF60120020B8
:101E200008B54FF02003EFF3118183F31188BFF35E
:101E30006F8F124A136843F0020013F00103106021
:101E40000CD04FF05022D2F80C34D2F80C2413F0FE
:101E5000010303D00A4805F0F1F8012381F311884A
:101E6000BFF36F8F23B1BDE808400020FFF7A6BF86
:101E70000120BDE8084005F02ABD00BF0013002086
:101E8000D81200201FB500220123CDE902236B46A2
:101E9000084ACDF800D0CDF804D005F03FF900286D
:101EA00005DB4FF480420023684604F00BF805B0D0
:101EB0005DF804FB61710000074BD3E8EF2F22F0BF
:101EC0000201C3E8E01F0028F7D1D30702D40120A4
:101ED00005F04CBD704700BF001300202DE9F04114
:101EE000012207463749D1E8EF3FC1E8E02F00283B
:101EF000F9D133B9344935484B60CB608A6004F07E
:101F000068FE7B1E012B2FD8012F07D14FF05023E5
:101F1000D3F81C3403F00303022B25D007F0D3F9C8
:101F2000044618B92A4B1B78002B44D14FF02003EC
:101F3000EFF3118683F31188BFF36F8F01244FF005
:101F40005025DFF89080D5F81834D5F81824D2033E
:101F50000CD503F00303022B01D0012F06D124B3CB
:101F600086F31188BFF36F8FBDE8F081C4B13046AE
:101F700000F0CAFAD5F81835DBB2012BE3D1D5F859
:101F80000421002ADFD00022C5F80421D5F804215D
:101F90000222C5F818252022C8F88021AB60D2E7BC
:101FA0000021212003F04EFFE4E74FF050230222EE
:101FB000C3F80423D8E74FF0502302220646C3F8A3
:101FC0000823BCE704130020501200207C120020DC
:101FD0009E36002000E100E0044A1368C81A20F091
:101FE0007F400344136004F027B900BF141300209E
:101FF0002DE9F0474FF480374FF00009860000F1DB
:10200000500406F15026A40006F58036A4B204F16F
:102010005024D6F84035DFF86C8021F07F4504F578
:1020200080348740D8F804A5A3EB0A0323F07F434C
:102030002AF07F42012BC6F8402502D1132007F079
:1020400048F90AF10202AB1A23F07F43B3F5000FFF
:1020500088BF1546C4F80090236825F07F43C8F870
:102060004473C6F84035D8F804359A4506D0EB1AC3
:10207000023B23F07F43B3F5000F01D8BDE8F087A2
:102080002B46CFE700500150F8B500252F46104CE5
:102090002668104B05B1F8BDD3F80423D203FAD556
:1020A000D3F84021002AF6D0C3F84051D3F840219C
:1020B0004FF48032C3F848230125D3F8401526B1E8
:1020C000002062682760B047E2E72660E3E700BFD0
:1020D000081300200050015038B500244FF480331D
:1020E0004FF400120C4D0121C5F80845C5F8043322
:1020F0000A4B1520C3F88021224600F0A7F91520CD
:1021000000F086F90123064AAB6020462B6013607D
:10211000FFF7E4FE204638BD0050015000E100E02A
:1021200010130020134AB0F1FF3F14BF03461346BB
:10213000013B002B1CDD9342A8BF13460E4AD2F888
:1021400004050E4A1168401A10F4000F18BF00234E
:1021500020F07F4201320A4813440A4A10600020EE
:102160005060044A934294BFC9188918FFF740BFD2
:102170000023E3E7FFFF7F0000500150141300200D
:10218000D91F0000081300204FF02002EFF3118345
:1021900082F31188BFF36F8F064AD2F80405064A0E
:1021A0001268801A20F07F4083F31188BFF36F8F8D
:1021B000704700BF0050015014130020014804F084
:1021C0000FB900BFBC97000010B5044618B90D4BFD
:1021D0000D485B689847616808290DD031F0040309
:1021E0000AD011F0020108D02146084803F0E4F9B2
:1021F000002323600023636010BD1422206805F0D3
:102200002FF8F7E7A0000020B4A200001813002068
:1022100008B540B34368042B0BD0082B16D003B38A
:1022200000684FF0FF324FF0FF3303F0EFF958B181
:1022300015E001220368D3E8EF1F002903D1C3E8AA
:10224000E02F0028F7D10AD1002008BD0368074A13
:102250001B7803F5807352F82330002BF4D0044828
:10226000F3E70448F1E76FF4E040EEE700000350C5
:10227000E98FFFFFEA8FFFFF08B508B34368042B1F
:1022800007D0082B13D0F3B1006803F031FA002017
:102290000CE000220368D3E8EF1F012903D1C3E853
:1022A000E02F0028F7D1094808BF104608BD036891
:1022B00000201B78064A03F5807342F82300F5E7F7
:1022C0006FF4E040F2E70348F0E700BFE98FFFFF5B
:1022D00000000350EA8FFFFF10B5044618B9164BF3
:1022E00016485B6898476368042B23D0082B21D0DD
:1022F000CBB92368BBB94FF0FF324FF0FF33214613
:102300000F4803F029F908B923681BB90A4B0D4897
:102310005B68984714220021206804F0A1FF6368DD
:1023200043F002036360206806F015FF636843F022
:102330000103636010BD00BFA0000020B4A2000034
:1023400018130020DAA2000008B506494023142221
:10235000054806F0DDFEBDE808400449044804F0E5
:1023600091B800BF3413002018130020D497000048
:10237000C4970000094A0A49936809689867D967B1
:1023800008494B6843F080534B60002383F3118866
:10239000BFF36F8F9368D86F704700BF2419002078
:1023A000209A000000ED00E00F498A684FF03800E5
:1023B0001044EFF3098C80E8F01F202080F311888F
:1023C000BFF36F8F094F4FF000664A6A8A603E6024
:1023D000906F0023936780F3118802F1380090E832
:1023E000F01F8CF3098870472419002004ED00E0E9
:1023F0001EF0040F0CBFEFF30880EFF30980816932
:1024000011F8021C0229FFD001B504F0B5FE01BD90
:1024100043B2002B08DB012200F01F0002FA00F09B
:10242000024A5B0942F82300704700BF00E100E068
:10243000054B420953F82220012300F01F0003FA44
:1024400000F01040704700BF00E100E043B2002BF5
:1024500001F10101ACBF03F16043064B4FEA4111AA
:10246000C9B2ABBF03F5614300F00F0083F800135E
:102470001954704714ED00E042F8203C009B0B49D2
:1024800042F81C3C019B21F0010142F8183C029BE0
:1024900042F8081C42F8143C4FF0807342F8043CA8
:1024A0000023203A82658367704700BF656C000097
:1024B000064608B50D46144600F0BAFA074B9E6072
:1024C000204685F30988002163B681F31188BFF3A4
:1024D0006F8F0022002304F0C5FB00BF24190020E9
:1024E000014910220A60704710ED00E072B64040CA
:1024F00080F31188BFF36F8FBFF34F8F30BF62B689
:10250000BFF36F8F704700BF72B6494081F31188E7
:1025100020BF80F3118862B6704700BF37B505460B
:102520000C46C9B18B6810480093D1E900234521BE
:1025300004F0E0FA636945210093D4E903230B48D2
:1025400004F0D8FA4521E269094804F0D3FA45219C
:10255000A269084804F0CEFA2146284603B0BDE837
:10256000304002F0E7BE00BF07A300003BA300001D
:102570006FA3000083A3000030BFFFF7FDBF00BFC3
:102580000E4A08B50E4B22F07F029A60BFF34F8FC0
:10259000BFF36F8FD3F8882022F47002C3F888202D
:1025A000EFF3148323F0040383F3148802F010FF85
:1025B00003F05CFD00F00EFA02F02EFF00000000B8
:1025C00000ED00E001B5EFF30580A0F110004FEA47
:1025D000C0000449014409C99847BDE801400249C7
:1025E000084700004C9400009529000004F076FC98
:1025F000202080F3118808484FF40061401880F3D0
:102600000988EFF314800221084380F31488BFF394
:102610006F8FFFF7B5FF0000E05F0020EFF3088049
:10262000EFF3098101B5724600F006F901BD00BF64
:1026300010B5204C4521204804F05CFAA36A9901AA
:1026400003D545211D4804F055FAA36ADA0103D5E4
:1026500045211B4804F04EFA164CA36ADB0203D551
:102660004521184804F046FAA36A180303D545210A
:10267000154804F03FFA0F4CA36A590303D54521CE
:10268000124804F037FAA36A9A0303D5452110488B
:1026900004F030FA074CA36ADB0303D545210D484B
:1026A00004F028FAA36A00206FEA03436FEA134399
:1026B000A36210BD00ED00E0B6A30000D3A30000AC
:1026C000EBA300000AA4000039A400005CA40000F1
:1026D00086A40000A5A4000070B5234C06460D4654
:1026E0002248452104F006FAA36AD90403D54521FE
:1026F0001F4804F0FFF9A36A1A0503D545211D48B8
:1027000004F0F8F9184CA36A9B0510D51A48452126
:1027100004F0F0F9A26BA36A180408D54521174804
:1027200004F0E8F91EB1A36A23F40043A3620E4C3F
:10273000A36A590503D54521114804F0DBF9A36AC2
:10274000DA050BD545210F4804F0D4F90020064ADC
:10275000936A43F47F439362287070BDA36A9B041D
:10276000F4D545210848EFE700ED00E0D5A40000CE
:10277000F0A4000006A500001EA500003CA5000076
:1027800056A5000076A5000093A5000070B5224C68
:1027900006460D462148452104F0ACF9A36AD80647
:1027A00003D545211E4804F0A5F9A36A190703D5EE
:1027B00045211C4804F09EF9174CA36A9A0710D5CE
:1027C0004521194804F096F9626BA36A1B0608D5E7
:1027D0004521164804F08EF91EB1A36A23F0800348
:1027E000A3620D4CA36AD80703D54521104804F015
:1027F00081F9A36A990603D545210E4804F07AF9B8
:102800000020054B9A6AD20658BF9A6A9A6A42F02B
:10281000FF029A62287070BD00ED00E0C7A50000BD
:10282000E2A5000006A500001AA6000037A60000D9
:1028300052A6000093A500002DE9F041484B0F4639
:102840005E6800258AB0C6F3080485F31188BFF3DB
:102850006F8F02F07F43B3F17F4F07D102F00C037B
:10286000082B05D145213F4804F044F92F4603E0E9
:10287000120701D4074601254FF00008E31E8DF82A
:102880000780092B5AD8DFE803F0054E5232595918
:1028900059595956324E4521334804F02BF9F46A00
:1028A0008DF8078014F0020405D045212F4804F06C
:1028B00021F900241EE0F36A5B001BD545212C485A
:1028C00004F018F996F828302BB101200DF107011A
:1028D000FFF75CFF0DE096F829302BB101200DF1D8
:1028E0000701FFF7F9FE04E0738D9BB213B1FFF708
:1028F0009FFE04469DF8073093B92022394602A86E
:1029000004F083FC099B35B3C3F3080222B96FEAD4
:1029100053236FEA43230993204602A9FFF7FEFDE4
:102920000AB0BDE8F08100200DF10701D0E70020DA
:102930000DF10701D5E745210E48B8E70E4916F419
:10294000F87F0E4A0E4808BF0A46A4F1100345213D
:1029500004F0D0F8ADE723F4FF7323F00103DAE7C6
:1029600000ED00E0A4A60000D4A60000F0A6000040
:1029700016A700003AA7000076A600008BA600006C
:1029800075A70000024A536943F010035361704772
:1029900000ED00E0044B9968586A884203D003496F
:1029A0004FF080520A6070472419002004ED00E0C7
:1029B000BFF34F8F0549064BCA6802F4E062134328
:1029C000CB60BFF34F8F00BFFDE700BF00ED00E01D
:1029D0000400FA05002320210348C2180133452BC7
:1029E00082F80013F9D1704700E100E008B50E4B02
:1029F0009B68834207D1EFF3058393B10B4A536879
:102A000043F08053536003F073F84FF02003EFF36B
:102A1000118083F31188BFF36F8FBDE8084006F083
:102A2000A1BB03F003FB00BF2419002000ED00E070
:102A30001FB5094C094A23460121094800F054F901
:102A400000230393074B0121E41A01A80193029488
:102A500000F054F904B010BD00E007200000002091
:102A6000E8970000D801002010B50B680C7A23F01D
:102A70001F0204F01F031A43CB68640923F01F03ED
:102A8000054943EA440343F00103C1F89800C1F843
:102A90009C20C1F8A03010BD00ED00E030B54B68BF
:102AA0000C6885B00A894D890094013B24F01F040D
:102AB000234402F01F0242EA451223F01F030728B5
:102AC00004468DF80820039309D90246452106489B
:102AD00004F010F86FF01504204605B030BD6946CB
:102AE000FFF7C2FFF8E700BF91A700002DE9F04F04
:102AF0008946144606464FF00008594D85B0C84532
:102B000027DAD6F804A0BAF1000F45D0BAF11F0FAA
:102B100018D91AF01F0F15D1D6F800B01BF01F0FEF
:102B200010D1584604F033FB07460AEB0B0001387E
:102B300004F02DFB874210D06FF015073A4645216F
:102B4000484802E042464521474803F0D3FF6FF072
:102B50001504204605B0BDE8F08F17F1160FEDD033
:102B6000631EBB42EADBC5F89870D5F89C10C5F827
:102B70009870D5F8A03021F01F0143F01F0BD6E963
:102B800000321A44994202F1FF3A1DD1D34507D1D0
:102B90003146F8B2FFF782FF08F101080C36AEE7C4
:102BA0003146C5F89870D5F89C3022F01F0203F02A
:102BB0001F031A43C5F89C20E0B2FFF76FFF10F126
:102BC000160FC4D0441CE7E7013BD345E0B223F025
:102BD0001F03C5F8987008D1D5F8A020314602F03F
:102BE0001F021343C5F8A030E7E7D5F8A01001F0A5
:102BF0001F010B43C5F8A0303146FFF74FFF10F11E
:102C0000160FA4D0C5F89870D5F89C209DF8083010
:102C10000BF1FF3B62F304038DF80830D5F8A030C8
:102C20009DF808205B0863F34712D6E900310B4496
:102C3000009323F01F0301305B44A3EB0A03C0B2EF
:102C400023F01F0307288DF80820039303D90246B9
:102C50004521064879E76946FFF706FFB2E700BF5E
:102C600000ED00E0E4A70000BCA7000091A7000071
:102C70000522044BC3F89420BFF34F8FBFF36F8F2F
:102C8000704700BF00ED00E0BFF35F8F0022024BF2
:102C9000C3F89420704700BF00ED00E038B50E4D3A
:102CA0002C68082C15D80020FFF7EEFF0B4B0C4AC0
:102CB000C3F8C020844205D10A4B00201C70FFF7E6
:102CC000D7FF38BD696801EB0011FFF7CDFE013079
:102CD000F0E74FF0FF30F4E7F497000000ED00E07C
:102CE000AAFF44007C36002010B5034C2278FFF781
:102CF000FDFE207010BD00BF7C3600202DE9F74F8F
:102D0000294D8A4606464FF00008AB46274FD0456E
:102D10001BDAD6F80490B9F1000F3FD031680846AD
:102D2000019104F034FA0199044609EB01000138DD
:102D300004F02DFA84424FF014021D4B08D06FF0BE
:102D4000150302FB08F84BF8083003B0BDE8F08F1C
:102D500014F1160F2C60F8D01978A142F5DD02FBB2
:102D600008B0C7F89840C7F89840D7F89C4000F1E1
:102D70000801007B64F304000871D7F8A0000C7907
:102D8000400860F347140C71D7F89C1021F01F0124
:102D90006960D7F8A01021F01F01296108F101082E
:102DA00014350C36B3E700BF3418002000ED00E006
:102DB0007C360020014B1860704700BF30000020B7
:102DC00008B5094B1A786AB901210D20197005213F
:102DD000FFF73CFB0D20FFF71BFB4FF00042034BBE
:102DE000C3F80423002008BD7D36002000D0005029
:102DF0002A4BF0B544682A48134083423FD00DD88F
:102E0000062B15D005D89BB1022B3AD06FF01500D8
:102E100034E0B3F5801FF9D1012309E02148834252
:102E200031D0B3F5A00F30D0B3F5800FEED102232F
:102E3000D0064CBF0326C2F3401682F48075970576
:102E4000C2F34020C5F3002506D512F4006F676871
:102E50001DD001228A40BA60277A134A134C01F030
:102E60001F01012F08BF144640EA4502002042EA34
:102E7000032343EA8603803144F82130F0BD072361
:102E8000D6E70423D4E70523D2E70323D0E752058E
:102E900042BF01228A40FA60DEE700BF0600F00070
:102EA00006001000020040000028845000258450D5
:102EB00010B5094B094C00F01F024009012808BF5A
:102EC000234603EB8203D3F8002222F4403242EA85
:102ED0000142C3F8002210BD002584500028845010
:102EE000F7B50026CDE90066284DD5F87C415CB1E8
:102EF000274804F05CFA0090264804F058FA019044
:102F0000C5F87C61D5F87C3100220126944622491F
:102F10001E4DD5F8043306FA02F0184216D00B689D
:102F2000A3B102F5A27355F8233002AFC3F34030CA
:102F300007EB800050F8087CC3F3042306FA03F380
:102F40003B43C1F800C040F8083C0B680132082A36
:102F500001F10401DDD1009A22B1104B0C495868EF
:102F600004F0EEF9019A22B10D4B0A49586804F0B9
:102F7000E7F944B1064804F0F4F9064803B0BDE8A7
:102F8000F04004F0EEB903B0F0BD00BF00D0005037
:102F9000300100204001002000D1005048180020DE
:102FA00064180020F7B51446426801F01F05127A34
:102FB000B4F5A03F0E46C76845EA421510D16349F3
:102FC000DFF88CC16809012808BF614605F01F02BF
:102FD000803251F82220D00707D56FF022009AE006
:102FE000B4F5005FF96800F098800121FA68B140FB
:102FF0001143F960012100207A69B140B4F5A03F86
:103000000CBF0A438A437A61BA69B3F5C02F0CBF7B
:103010000A438A43BA613A69B3F5802F0CBF114362
:1030200022EA01014B4A3961D2F80433DBB200F5E0
:10303000A27152F82110C1F305218D4272D123FAF9
:1030400000F1C9076ED5830003F1A04303F5504397
:10305000D3F8101521F00101C3F8101501238340A6
:10306000C2F80833C0B201F0A3F828460021FFF7E8
:103070001FFFF868F04010F001004CD07869F04074
:1030800010F0010455D0BB690DF10700F340DB07D8
:1030900057BF3969032621FA06F606F001065CBF20
:1030A000C6F10206F6B201F0A3F82B4B98423DD1CF
:1030B00000209DF807202D02930003F1A04303F5A3
:1030C0005043D3F8101505F47C5521F44F3121F409
:1030D0004071C3F81015D3F810150D4345EA0646A4
:1030E000C3F81065930003F1A04303F55143186042
:1030F0009DF807101B688B0003F1A04303F55043B4
:10310000D3F8102542F00102C3F810250123114A1B
:103110008B40C2F8043303B0F0BD0122B24021EA73
:10312000020166E70130082881D19EE76FF01200A6
:10313000F1E739692846F14001F00101C1F10301CD
:10314000C9B2FFF7B5FE2046E5E700BF0025845071
:103150000028845000D000500000AD0B00F17440F6
:1031600000F5A6000A289ABF024B18566FF00F0010
:10317000704700BF25AA000000487047689800000B
:10318000024B0B6001231360704700BF589800008A
:10319000054B994206D14FF0FF324FF0FF3310300C
:1031A00002F090BE704700BF0000AD0B2DE9F04F5C
:1031B00081460E461C46174685B07AB1002B00F0BA
:1031C00093800029426803DB5268CB1893420AD9E6
:1031D000234632464521454803F08CFC6FF015002C
:1031E00005B0BDE8F08F754205F00305C06804F036
:1031F0000EF9A54228BF25467B4203F0030307F0E2
:10320000030B58BFC3F1000BCBF1000B0BF0030B0A
:10321000A34528BFA346631BA4EB0B0424F00304BF
:1032200023F00308A045C8BFA04603F0030AC8BFA7
:10323000A3EB040AB8F1000F18D007EB0B037219C7
:1032400041461846019301F0B1F904460146D9F808
:103250000C00FFF79DFF264A944239D15D4505D009
:10326000019B42461946781903F0B7FFB5B1321FEA
:1032700004212A4402A801F099F904460146D9F82C
:103280000C00FFF785FF1A4B9C4221D1C5F10401C8
:1032900002AB2A463846194403F0B7FFBAF1000FD3
:1032A00020D00821721942440DEB010001F07EF993
:1032B00004460146D9F80C00FFF76AFF0C4B9C420C
:1032C00006D108EB0500524602A9384403F09DFFE1
:1032D000D9F80C0004F099F8204605B0BDE8F04F8D
:1032E000FFF73CBF024CF3E7184679E729A8000036
:1032F0000000AD0B2DE9F34107460E461D469046F2
:10330000C2B1BBB1042B01D99A0713D1B30711D1B4
:10331000F8687A6890F82030002B46D1002E03DB45
:103320005268731993420AD92B46324645212048E8
:1033300003F0E0FB6FF0150002B0BDE8F08104F08F
:1033400066F8032D26D8042132460DEB010001F06A
:103350002DF904460146F868FFF71AFF154B9C4209
:103360000FD12A46414601A803F04FFF04213246FF
:103370000DEB010001F002F904460146F868FFF781
:1033800007FFF86804F041F8204602B0BDE8F041BC
:10339000FFF7E4BE08F06043B3F1005F03D13246AB
:1033A00029464046E6E7044CEBE76FF00C00C3E724
:1033B00077A800000000AD0B0A00AD0B2DE9F84F17
:1033C0000746FC68084694F8204092467B68002C2B
:1033D00074D1002904DB5B688C189C420E4608D926
:1033E000024653464521374803F084FB6FF015042D
:1033F00029E0354803F07EFBBAF1000FF6D046EA2B
:103400000A03C3F30B03002BF0D1F868D7F804804C
:1034100003F0FDFFDFF8B490D8F80430534515D120
:1034200001F0ECF8D346054600242946F868FFF77A
:10343000AFFE274B9D4230D15E44AAEB0B0ACCB3C2
:10344000F86803F0E2FF2046BDE8F88FBAF5803F48
:1034500009D3B4B254B93146012001F0BFF84FF49A
:10346000803B0546E1E7BAF5805F0AD3C6F30B045B
:103470003CB93146204601F0B1F84FF4805B054677
:10348000D3E74FF0000B534632464521484603F040
:1034900031FB5D466FF01504C7E753460D483246D1
:1034A000452103F027FB2846FFF758FE0446002875
:1034B000B2D0C5E7BAF1000FAED1C1E76FF00C048E
:1034C000C1E700BFC6A8000015A9000034A900008C
:1034D0000000AD0B57A90000F7B54C68054617462C
:1034E000ACB1D4E90043886898B1D0E9006088B1F4
:1034F00083B1984207D10133092B0A780DD957219E
:10350000164803F0F7FA6FF0150003B0F0BD23463C
:10351000E9E7064601330344EEE78DF80130012365
:103520008DF802308DF803300023E8688DF8043000
:103530008DF800208DF8057003F069FF21463246B2
:10354000684600F0DBFF0446E86803F05EFF2046B3
:1035500003B0BDE8F040FFF701BE00BF7AA900004C
:103560001FB500294FF0000214BF04240624C368CD
:10357000CDE9012283F8201001A903928DF80440BF
:10358000FFF7AAFF20B1034803F0B4FA6FF004007C
:1035900004B010BDA2A900002DE9F0434FF0502364
:1035A000002491B080462246C3F8B84501212B2063
:1035B000FEF74CFF484A494B4949CDE90C234FF4EB
:1035C0003063D8F80C200BA80B940E94ADF83C3067
:1035D000D8F8047000F018FFFFF7C0FD044648B9A2
:1035E000404603F01AFF041E08DA224645213D48F2
:1035F00003F080FA204611B0BDE8F0839DF8373023
:10360000E4B2023B012B20D99DF83660033E012E27
:103610008CBF00260126C4F380139E4206AD0DF137
:10362000200914D1032400229F2340460BA9CDE991
:103630000B22089509948DF82C30CDF83490FFF7C3
:103640004BFF10B36FF01204D4E70126E3E70DF14E
:10365000170301220693002384F0400449464046A4
:10366000CDE907238DF81740C9F808308DF82020E0
:103670000995FFF731FF041E21D1404603F0CDFE2E
:10368000041E1DDBE307F8D4CCE722462946384662
:1036900003F092FD04460028ACD0BB78452103938B
:1036A0007B789DF8182002933B780F4801939DF892
:1036B0001A3000939DF8193003F01CFAC2E799DA2A
:1036C0000A490B4A2346002E18BF0A4609484521DD
:1036D00003F010FA8EE700BF11120D0E0F10040355
:1036E000FF730000BAA90000E5A90000BD9F00001B
:1036F000B4A90000CFA90000024B0B6001231360A6
:10370000704700BF8018002000487047A098000054
:1037100070B50D461946284616461C4603F09AFE1B
:1037200040B9094823462A46452103F0E3F96FF0E2
:10373000150070BD34B122462946304603F065FDC0
:103740000020F6E72046F4E730AA000010B5012279
:103750000648114605F0ABFD04F073F9044C2060F7
:1037600004F06CF96060002010BD00BF88180020D4
:1037700080180020F8B50D46144604F05FF9224683
:10378000294606461B4803F0B5F92146284603F0B2
:1037900061FE2F4648B3B5FBF6F306FB135323B97E
:1037A000B4FBF6F006FB104040B123462A46452103
:1037B000114803F09FF96FF0150015E0A64213D8E9
:1037C0004FF0FF324FF0FF330C4802F07BFB04F068
:1037D00035F90546384600F059FD641B2F44F9D1F0
:1037E000064802F04FFB2046F8BD23462A464521F5
:1037F0000348DEE752AA000077AA000088180020DC
:1038000030AA0000F8B50E461946304617461C4649
:1038100003F020FE40B9234632464521174803F005
:1038200069F96FF01500F8BD44EA060515F00305C7
:1038300004D02346324645211148F0E7DCB14FF071
:10384000FF324FF0FF330F4802F03CFB24F003043B
:10385000AC4205EB060009D10B4AD2F80034DB0775
:10386000FBD5084802F00EFB0020DCE7795900F098
:103870002BFD0435ECE72046D5E700BF30AA000059
:103880009BAA00008818002000900350036803F0F2
:103890001F020260034A04485B09012B08BF10465F
:1038A000704700BF0028845000258450F0B54B7944
:1038B000012B2BD0032B26D110278B79032B22D160
:1038C000CD7925B1012D1ED143681B79DBB10A7971
:1038D000012A1DD0022A1FD0AAB914460B684668D7
:1038E000B3F5164F36686ED033D8B3F5165F6DD08A
:1038F0001CD8B3F5966F6BD010D8B3F5967F6AD00D
:10390000B3F5167F6AD06FF022005BE00027D4E7A2
:103910004FF480740E22E1E70024FBE7B3F5166F45
:103920005FD0B3F5965FEED1384B3EE0B3F5E14F93
:103930005AD007D8B3F5615F58D0B3F5964FE2D1AE
:10394000334B32E047F6122C6345DCD14FF40003D1
:103950002BE0B3F5613F4BD013D8B3F5963F4AD077
:1039600009D84DF6C02C634547D0B3F5614FCAD195
:103970004FF46B0319E0B3F5E13FC4D14FF0EB73A3
:1039800013E0B3F5612F3BD009D8DFF888C0634559
:1039900039D0B3F5E12FB6D14FF0E86305E0DFF899
:1039A00078C06345AFD14FF08053C6F82435C36863
:1039B0002C433A432243043303C9C6F86C2583E8F9
:1039C00003000020F0BD4FF41D03EEE7134BECE7BE
:1039D0004FF49E23E9E74FF4A033E6E74FF41C339E
:1039E000E3E74FF41D23E0E70D4BDEE70D4BDCE78B
:1039F0004FF06C73D9E70C4BD7E74FF46503D4E76E
:103A00004FF07063D1E74FF08063CEE700B0130052
:103A100000A04E0090D0030040420F00005027004D
:103A200000C0750000F03A0000903A012DE9F04125
:103A300006468846C76805F046FCB8B9284B1B788F
:103A400083F001037268156893B14FF02003EFF320
:103A5000118483F31188BFF36F8F706803F0E1FD69
:103A600038BB84F31188BFF36F8FEEE70123E9E7DA
:103A70006424706803F0D5FD70B9012003F015FFD0
:103A8000013CF6D10021212002F0DCF9F0E784F3BB
:103A90001188BFF36F8FF5E74FF02003EFF3118428
:103AA00083F31188BFF36F8F706803F0BAFD0028AD
:103AB000EDD00123002207F8148FC5F84475C5F82E
:103AC0004835C5F82021D5F82011C5F85821D5F87A
:103AD0005821AB6084F31188BFF36F8FBDE8F0818C
:103AE0009E3600202DE9F3470546002201210820DB
:103AF000FEF7ACFC0820FEF78BFC002114276B6856
:103B0000EE681C684FF00108C4F8001501A8356084
:103B10000197FFF7BBFE019B4FF0030908FA03F37F
:103B2000836001A80197FFF7B1FE4FF0160A019BD1
:103B3000803340F8239001A8CDF804A0FFF7A6FE3B
:103B4000019B803340F82310C4F80C751527C4F886
:103B500014A501A80197FFF799FE019B803340F857
:103B60002310132101A80191FFF790FE019B08FA91
:103B700003F3836001A80191FFF788FE019B803366
:103B800040F82390C4F80815E968C4F81075284671
:103B90000431FFF78BFE074678B96B689B79E3B178
:103BA00006EB0A0000F0E8FA1C4B984209D04521C8
:103BB0001B4802F09FFF6FF00407384602B0BDE8D3
:103BC000F087B37D43F00042C4F8A021C4F88C20F4
:103BD000144A08FA03F3C2F804350823C4F8003580
:103BE0000023C4F81031D4F8103106F11503C4F8DD
:103BF00034350123C4F8383523606B689B791BB9D1
:103C00004FF48073C4F8043300231436C4F84465B9
:103C1000C4F848350123A360E360CEE70000AD0B94
:103C2000C8AA00000070015040EA0103C3F30D036D
:103C300030B58BB940F21515094C890BC0F38730AC
:103C4000994201D1002030BDC218D2B202F5C07233
:103C500044F822500133F3E76FF01500F3E700BF9B
:103C6000003000500348452108B502F043FF002012
:103C7000FEF79EFEFCAA000010B50E4C6168B1F183
:103C8000805F16D3A369A2680B48D21AB2F5805F91
:103C900028BF4FF4805219446261206103F0B5FAE5
:103CA000D4E9053119440548A16102F023FF01233D
:103CB000A38310BD00E00720000407201EAB000016
:103CC000064B1868064B984205D0064B984214BF25
:103CD0000220012070470020704700BF00E007204D
:103CE000B6B3B4B55DCE03F10A461021264B70B5CC
:103CF000C3F840144FF0502401230146C4F8143691
:103D000038B332B303F13643204DA3F14B13A3F57F
:103D100098430026C5E900304FF408431C48AA60C8
:103D2000EB60AE6102F0E6FEFFF7A6FFC4F8146692
:103D3000184802F0DFFE184E304605F0CAFAFFF7C9
:103D4000BFFF0446C8B96B7F002BF5D0FFF794FF87
:103D5000F2E76FF01501114802F0CCFE6FF0150488
:103D6000204670BD4FF05023012249210C48C3F872
:103D7000142602F0BFFE0024F2E70228F2D109481F
:103D800002F0B8FEECE700BF0030005000E0072072
:103D90002EAB000051AB000040420F0068AB0000AA
:103DA000A3AB000088AB000008B54921044802F02D
:103DB000A1FE4FF48A72034BC3F8FC2708BD00BF75
:103DC000C0AB000000300050816808B5044A1023E1
:103DD000103903F0C6F8003818BF012008BD00BF35
:103DE000FC98000030B50C46816887B0102302AA09
:103DF0001039054603F098F8002802DA012007B0D0
:103E000030BD1022284602A903F0ABFC68B303239F
:103E10002370A968012328460DF10702283903F011
:103E200083F80028EADB9DF80730284603F00F02EC
:103E30001B096270237101220DF1070103F091FC4F
:103E400010B96378042B03D9012363700023237115
:103E5000AA682846203AA11C03F0D7FC0028CDD13F
:103E60002846E11C03F0FAFCC9E71022044902A825
:103E700003F0A2F9002814BF02230123C8E700BF02
:103E8000FC9800002DE9F04385B06946032003F05B
:103E9000E9FC18B1FF2005B0BDE8F083012002A9BC
:103EA00003F0E0FC02460028F4D19DF800509DF894
:103EB00008609DF803709DF80B809DF802901E4CE1
:103EC0002946207803F08DFC00B33146607803F07A
:103ED00088FCD8B1A378042B01D0BB4216D1E3787B
:103EE000042B01D0434511D12379042B0CD16379E4
:103EF000022B16D1114A1248492102F0FBFD6079CC
:103F0000831E022BC7D9C5E74B45F0D00132032AE7
:103F100004F10604D4D10B48492102F0EBFD012045
:103F2000B9E7032B05D0084A0849042B18BF0A46F5
:103F3000E1E7074ADFE700BF2CAC0000E8AB000078
:103F400004AC000017AC0000E1AB0000F2AB0000D5
:103F5000EDAB00004FF47F03D3F83021072A07D1DF
:103F6000D3F83431023B032B02D8024AD05C7047AD
:103F7000002070473EAC00004FF05023D3F8582586
:103F8000034B02F00302D340024A1360704700BFA4
:103F90000020A1078400002008B5FFF7DBFF58B11F
:103FA0003A4BD3F8202A3AB90D21C3F8201A01213F
:103FB000C3F81C19C3F81C290022D30003F57F03A2
:103FC000D3F80013013107D0D3F800130132D3F82E
:103FD0000433202A0B60F0D1FFF7BCFF00284DD13D
:103FE000FFF7B8FF40B12A4B2A4AC3F830254FF0FB
:103FF00050230122C3F858254FF47F03D3F8303102
:10400000072B02BF0022244BC3F84C25FFF7A2FF69
:1040100050B14FF05023D3F80024D10742BF002203
:10402000C3F81421C3F818214FF47F03D3F83031BB
:10403000072B09D14FF05023D3F80024D20744BFF7
:104040006FF00102C3F80024FFF784FF18B1652266
:104050000E4BC3F80C27114AD2F88C3043F440635E
:10406000C2F88C300E4A0F4B1168C3F84415D26960
:10407000C3F84C25BDE80840FFF77EBF2922034B5B
:10408000C3F80C270322C3F83C27A9E700400050DF
:10409000009003504400EFBE0020035000ED00E00C
:1040A0000080FF0000600050044B1A7922B9012201
:1040B00018601A710248704702487047981800202B
:1040C0000000AD0B0C00AD0B4FF05023D3F80021D6
:1040D00010B552B10020C3F80001D3F8002101222D
:1040E000C3F80823234B1B6898474FF05023D3F89D
:1040F00004218AB10022C3F80421D3F80421D3F8A3
:104100001824D3F8181402F00302012A4FF0020118
:1041100028D1C3F818159A604FF05023D3F8202106
:1041200062B10022C3F82021D3F820214FF480721D
:10413000C3F808230F4B04201B6898474FF0502307
:10414000D3F82421AAB1BDE810400022C3F82421ED
:10415000D3F824214FF40072C3F80823054B05203F
:104160001B681847C3F80813024B01201B689847C7
:10417000D2E710BD9818002070B50A4C2168CE43D4
:104180000ED00023DAB226FA02F5ED0703F101039F
:10419000F8D5012393400B4302700348236070BDA0
:1041A0000248FCE7A01800200000AD0B0200AD0B98
:1041B000012303FA00F0C3B293B14FF02003EFF3F1
:1041C000118183F31188BFF36F8F064AD36D23EA01
:1041D0000000D06581F31188BFF36F8F02487047EC
:1041E00002487047A41800200000AD0B0400AD0B7E
:1041F0002DE9F041FF22002401260546DFF854E0B6
:104200001548DFF85880E3B24FF02001EFF3118C2E
:1042100081F31188BFF36F8F22FA03F1C9070AD522
:10422000DEF85C1006FA03F7394201BF4046394315
:10423000CEF85C102B708CF31188BFF36F8F404564
:1042400005D006FA03F39A4304F10104DBD1BDE87B
:10425000F08100BFA41800200200AD0B0000AD0BE0
:104260000022034BC3F88425C3F80425704700BF20
:1042700000900350044AD2F80034DB07FBD50160FC
:10428000BFF35F8F704700BF0090035008B5C0F3C5
:104290000B0383B90222094BC3F88425C3F8042514
:1042A0004FF0FF320260D3F80024D207FBD5FFF7AE
:1042B000D7FF034808BD0348FCE700BF0090035048
:1042C0000000AD0B0A00AD0B012208B5054BC3F889
:1042D0008425C3F80425FFF7CDFFBDE80840FFF7AC
:1042E000BFBF00BF0090035038B56424064DD5F819
:1042F000003133B90A2003F0D8FA013CF7D1034862
:1043000038BD0348FCE700BF00B002500700AD0B0A
:104310000000AD0B0F4B10B55A7902F0FF04B2B993
:104320000D491A68C1F800411AB101245C71C1F845
:104330000443012300F1A04000F52C30036022B9B2
:10434000054AD2F80031002BFBD0044800E00448B5
:1043500010BD00BF0419002000B002500000AD0BDA
:104360000B00AD0B0E4B0238D3F83C26D3F8383691
:10437000072813D8DFE800F0110F0D0B0A08060418
:10438000100EC871100C8871100A48710A711A0E4B
:10439000CA701A0C8A701A0A4A700B70704700BFF4
:1043A00000B00250023807281FD8DFE800F02927A4
:1043B000251123211F04CB791B068A7943EA024386
:1043C0004A7943EA02230A7913430E4AC2F83C367B
:1043D000CB781B068A7843EA02434A7843EA0223F1
:1043E0000A781343074AC2F8383670470023E4E7D7
:1043F0000023E5E70023E6E70023EBE70023ECE7F3
:104400000023EDE700B00250F8B5384E3779002FA1
:1044100068D190F804E0BEF1FF0F65D090F805C0B8
:10442000BCF1FF0F60D08479FF2C5DD0C379FF2BE6
:104430005AD02F4DC5F824E5C5F828C5C5F8304534
:10444000C5F83435037AFF2B08BF4FF0FF33C5F8AA
:104450003835437AFF2B08BF4FF0FF33C5F83C35A2
:104460000368C5F84035037B90F80BC0847A9B0144
:1044700043EACC032343447B002C14BF8024002454
:104480002343C5F84435D5F80036847B90F810E016
:1044900090F811C0C07B23F07F43002814BF4FF079
:1044A0008070002023F0FF032343012443EA4E637E
:1044B00043EA0C730343C5F8003677713160B2608C
:1044C000C5F8084311B12B20FDF7A2FF0022084BCD
:1044D0003471C3F80045C3F800211C60BDE8F84002
:1044E000FFF702BF0348F8BD0348FCE704190020AA
:1044F00000B002500500AD0B0400AD0B70B51446C2
:10450000194A0546527902F0FF0052BB174EC6F811
:10451000000111B16878FFF745FF0123C6F80833A1
:10452000AB786A781B0343EA02232A781343EA78BC
:1045300043EA42332A7943EA82336A7943EAC2334F
:10454000C6F83436FFF7D0FE094B98420AD0002354
:10455000C6F800311CB121466878FFF703FF054813
:1045600000E0054870BD00BF0419002000B00250F3
:104570000700AD0B0000AD0B0B00AD0B00F060436E
:10458000B3F1005F0BD1830709D1064BC3F81025A7
:10459000C3F814050820C3F81815FFF7BBBE02487E
:1045A000704700BF00B002500A00AD0B00F060433E
:1045B000B3F1005F0BD1830709D1064BC3F8042583
:1045C000C3F808050420C3F80C15FFF7A3BE024882
:1045D000704700BF00B002500A00AD0B8B0707D137
:1045E000044BC3F81C15C3F820050C20FFF792BE3E
:1045F0000148704700B002500A00AD0B0022044B86
:104600000C20C3F81C250222C3F82025FFF782BE28
:1046100000B00250064AD2F800313BB10020054BF1
:1046200058719968C2F800011A681047704700BFB6
:1046300000B002500419002001680E4A034691425E
:1046400015D1C169A2F11022A2F1EF1291420ED14F
:104650008268012A0BD8C26812B101698A4206D069
:10466000586928B19B691B1A58425841704701206C
:10467000704700BF55AA00FF0D4B70B59E68A6B1EC
:104680003046FFF7D9FF044678B9F3686BB935694E
:104690000DB9204670BD2846FFF7CEFF28B9EB685C
:1046A000B34202D12E462D69F2E70124F1E700BFA3
:1046B000101900202DE9F843404F3C68D4B1BC6884
:1046C000C4B100284DD000294BD001FB00F5B5FB4B
:1046D000F0F0884245D1281D43D8A9070DD025F018
:1046E00003060436FC6803E06368B3423BD2A46966
:1046F000002CF9D12046BDE8F8832E46F2E7F86099
:1047000044E006F1200C04EB0C0320395960002131
:10471000DFF8ACE0C3E902142169196144F80CE048
:10472000DFF8A0C0C3F81CC001B1CB60C3E905200D
:10473000AAB193619A6902B15361236100234FF0DA
:104740000109C4E905333B69C4E90169DB072DD5DB
:10475000FFF792FF50B31C4B48461B6825E0FB60F7
:10476000E8E70024C6E7A3681BB1174B01201B68CC
:104770009847D4E90520616804F12008891B2329A2
:10478000BFD80123A360002AB9D09061A36903B107
:104790005A610023C4E905333B69DA0706D5FFF700
:1047A0006BFF18B10120084B1B6898472A4600216F
:1047B0004046444602F054FD9CE700BF101900201B
:1047C00055AA00FF669911EE8C0000202DE9F041FA
:1047D000054600287CD03F4F3B68002B78D0BA6854
:1047E000002A75D0834203D87A681344984203D3D1
:1047F000394B01201B689847A5F120042046FFF79C
:104800001BFF18B1344B01201B68984755F8183C22
:10481000012B03D0304B01201B689847002355F82B
:10482000146C45F8183CAEB1B26892B955F81C3C0E
:1048300003F1200273681344736055F8103C336130
:1048400003B1DE6020462022002102F009FD23464C
:1048500034461E462069002832D08368002B2FD1B1
:10486000636842682033134463600369D4E9052117
:104870002361DAB901BB426981696261A161EAB170
:104880009461A26902B1546103B1DC60202200216D
:1048900002F0E6FC3B699B071AD5FFF7EDFEB8B1C5
:1048A000BDE8F0410C4B01201B6818479161A169DC
:1048B0000029E0D04A61DEE7F960F8E7FC60E0E754
:1048C000002EE7D1FB68A36103B15C61FC60E1E706
:1048D000BDE8F081101900208C00002038B50D468D
:1048E000142200210446124802F0BAFC1149124871
:1048F00000F032F8232D1AD914F003031FBF043D32
:10490000ED18C3F10403E4182A460021204602F002
:10491000A7FC074B094AC3E900459C602260A2F14D
:104920001022203DA2F1EF126560E261DC6038BD2B
:1049300010190020CD470000B546000055AA00FF21
:10494000014B1B68184700BF88000020014B1B6803
:10495000184700BF90000020024B1860024B002057
:104960001960704788000020900000200A4619B1A5
:10497000024B00211B681847704700BF94000020BD
:10498000F8B500F108064768044630460D4603F0C6
:10499000ACFB874216D16368B3F5807F12D8002143
:1049A000304603F018FD00280CDD0021304603F0EE
:1049B0006FFB38B145B9002104F1140003F00BFD81
:1049C00000281EDC1B481EE004F12C0600213046A6
:1049D00003F001FD0028F5DD0021304603F058FB0F
:1049E0000028EFD004F138060021304603F0F3FC34
:1049F0000028E7DD0021304603F04AFB0028DAD129
:104A0000E0E70DB90020F8BD002104F1440003F0F7
:104A1000E2FC0028D6DD002104F1500003F0DBFCAD
:104A20000028CFDD002104F15C0003F0D4FC002855
:104A3000E8DCC7E780BFFFFF70B500210446FFF741
:104A40009FFF0546B8B904F10806304603F031FB74
:104A50007F2810D914342946204603F019FB50B1A1
:104A6000204603F026FB012805D93146204603F0F5
:104A700071FC002800DB014D284670BD00BEFFFF21
:104A8000F0B50C4687B0002105461646FFF778FFC3
:104A900080BB03A803F076FA21466A6803A803F0F6
:104AA0002AFB0446D0B905F10804214603A803F007
:104AB00051FC00281BDA05F1680303A9009308469E
:104AC000234605F114026F6803F0D8FF044628B9A5
:104AD0003A46314603A803F046FB044603A803F018
:104AE00057FA0CB1A4F58544204607B0F0BD6FF02D
:104AF0000304F3E7004CF7E780BFFFFF0023C0E9A2
:104B00000033C1B9194A1A4BDFF868C0C0E9022363
:104B1000194B1A4AC0E904C3194BC0E90623194BC3
:104B2000036203F17453A3F52303A3F69243436294
:104B3000816600207047144B144ADFF854C0C0E966
:104B4000022303F1794303F5740303F50163036161
:104B5000104BC0E905C303F1D14303F5C01303F5BE
:104B60001E63C3610C4B03620C4BE0E767E6096A06
:104B700085AE67BB72F36E3C3AF54FA57F520E517E
:104B80008C68059BABD9831F07D57C36D89E05C1A1
:104B900039590EF7310BC0FFA78FF964A44FFABE45
:104BA0002DE9F04F00F10803D1B0059308AB009355
:104BB00000F128030693009A059B53F8040B42F872
:104BC000040B06989842F8D10DF140094A4601F1CC
:104BD00040004B780C781B0443EA0463CC78043122
:104BE000234311F8024C884243EA042342F8043B71
:104BF000EFD19D48CA468646009B0099D3F81CC059
:104C0000D3F81080D3E9056BD3E90072C9689B68BB
:104C10000190DEF80000DAF800404FEAF82585EA56
:104C2000B815204485EA786505448BEA060000EA59
:104C3000080080EA0B00054447EA02044FEA773097
:104C4000AC4480EAB70007EA02051C4080EAB7508E
:104C50002C430444DEF80450DAF8040061440544AF
:104C6000AB4488EA06050D40A44485EA06040BEB34
:104C700004054FEAF12B8BEAB11B8BEA716BAB4455
:104C80004CEA07004FEA7C350CEA070485EABC05CC
:104C90001040204385EABC55DEF808400544DAF8A8
:104CA00008005B440444264481EA08041C405D4437
:104CB00084EA080B06EB0B044FEAF32686EAB316E8
:104CC00086EA736626444CEA05004FEA75340CEA1E
:104CD000050B84EAB504384040EA0B0084EAB55479
:104CE000044434443244DEF80C00DAF80C6081EA03
:104CF000030B30440BEA020B4FEAF2268BEA010B5E
:104D0000404486EAB216584486EA7266064407EBC7
:104D100006084FEA743045EA040705EA040B80EA06
:104D2000B40007EA0C0747EA0B0780EAB45038449E
:104D30003044DAF81070DEF8106083EA020B3E446B
:104D400031440BEA080B4FEAF8268BEA030B86EA9C
:104D5000B816594486EA78660E4444EA00074FEADA
:104D6000703104EA000B81EAB0012F4047EA0B07DB
:104D700081EAB05139443144B444DAF81470DEF8B1
:104D8000146082EA080B3E4433440BEA0C0B4FEAF2
:104D9000FC268BEA020B86EABC165B4486EA7C663C
:104DA0001E4405EB060B4FEA713340EA010500EAA9
:104DB0000107254083EAB1033D4383EAB1532B4405
:104DC0003344DEF81850DAF8186088EA0C073544E6
:104DD0002A4407EA0B074FEAFB2587EA080785EA1A
:104DE000BB153A4485EA7B65154466194FEA733270
:104DF00041EA0304044001EA030782EAB3023C43A8
:104E000082EAB35222442A44DEF81C40DAF81C50ED
:104E10000EF1200E6719B8448CEA0B07374087EA79
:104E20000C0747444FEAF62888EAB61888EA7668FD
:104E3000474400EB070843EA02044FEA723080EA75
:104E4000B2000C4003EA020580EAB2502C4304444D
:104E50000648274470450AF1200A7FF4DAAE09F1CA
:104E6000C000079004E000BF0C9900004C990000BE
:104E7000D9F83800D9F804504FEAF04E8EEA704E57
:104E8000D9F800408EEA902ED9F824004FEAB54AAE
:104E900004448AEAF51AA6448AEAD50A4FEAF824B5
:104EA0000EEB0A0084EAB814049084EA78608BEA76
:104EB000060404EA080484EA0B040444019888EA1E
:104EC000060E006C09F120092044049C204484440F
:104ED0006144029147EA02004FEA7731C9F8204065
:104EE00081EAB70107EA0204184081EAB75120437A
:104EF0000844D9F81C1084444FEAF14080EA71401C
:104F000080EA9120D9F8081059F8184C294408442F
:104F10004FEAB44181EAF41181EAD40101440298D4
:104F2000C9F824100EEA000E01988EEA060E406CB5
:104F300058440844864402984FEAF02585EAB015A3
:104F400085EA706505EB0E0003EB000B4FEA7C353C
:104F500047EA0C0307EA0C0E85EABC05134043EA56
:104F60000E0385EABC551D44049B05444FEAF34EED
:104F70008EEA734E8EEA932ED9F80C3059F8140C41
:104F80002344029C9E4488EA040A019C4FEAB043F1
:104F9000A46C83EAF01383EAD0037344344404EB33
:104FA000030E0AEA0B0A4FEAFB248AEA080A84EA9B
:104FB000BB1484EA7B64F24404EB0A0E72444CEAAC
:104FC00005064FEA7534039284EAB5040CEA05023B
:104FD0003E4084EAB5541643264406EB0E044FEADD
:104FE000F14686EA714686EA9121D9F8106059F8AF
:104FF000102C064431444FEAB24686EAF21686EA9D
:10500000D2060E440299C9F8283081EA0B0E0399A2
:105010000EEA010E02998EEA010E0199C86CC9F8D8
:105020002C60404481198E44039945EA04084FEAF4
:10503000F12080EAB11080EA716000EB0E014FEAC6
:10504000743007EB010A80EAB40005EA040708EAB5
:105050000C0880EAB45048EA0708804408EB0100D5
:105060004FEAF34181EA734181EA9323D9F814109E
:1050700059F80C7C0A4413444FEAB74282EAF7120B
:1050800082EAD7021A44039B02998BEA030E019B22
:105090000EEA0A0E1B6D8EEA0B0E13440B444FEA08
:1050A000FA2181EABA119E4481EA7A6101EB0E038A
:1050B00044EA000E4FEA703104EA000881EAB001C8
:1050C0000EEA050E4EEA080E81EAB0517144194409
:1050D0009C444FEAF64383EA764359F808EC83EAA6
:1050E0009626D9F81830C9F830201F444FEABE433D
:1050F00083EAFE1383EADE0337441F44039BC9F8A7
:10510000347083EA0A0808EA0C0888EA0308019B5D
:105110005B6D3B445B4498444FEAFC2383EABC1339
:1051200083EA7C6303EB080605EB060B4FEA713359
:1051300040EA010500EA0108254083EAB10345EA97
:10514000080583EAB1532B4433444FEAF24686EA1A
:10515000724659F8048C86EA9226D9F81C209644A7
:105160004FEAB84282EAF81282EAD802764416443C
:10517000019A8AEA0C0E956D039A354415440EEA9D
:105180000B0E4FEAFB228EEA0A0E82EABB1275442E
:1051900082EA7B621544C9F838604FEA73326619B7
:1051A00041EA0304044001EA030E82EAB30244EA3E
:1051B0000E0482EAB35222444FEAF74484EA774469
:1051C0002A4484EA9727D9F80050049C8CEA0B0EF5
:1051D000A0444FEAB54484EAF51484EAD505019C5D
:1051E0004744E46D3D442C440EEA060E4FEAF62790
:1051F0008EEA0C0E544487EAB617744487EA766741
:10520000274400EB070843EA02044FEA7230C9F86A
:105210003C5080EAB2000C4003EA020580EAB2503A
:105220002C430444019827442030019007984845B6
:105230007FF41EAECDE90D6BCDE90872CDE90A31E0
:10524000CDF83CC0CDF83080059B00991B6851F823
:10525000042B1344059A009142F8043B069B0592E7
:105260009342F1D1002051B0BDE8F08FF8B5104B5A
:10527000104F53F82050013053F82060AE4200D850
:10528000F8BDD5E900342046984770B16CB10123D0
:10529000E41B094A2411610952F8210004F01F049B
:1052A00003FA04F4044342F821400835E6E700BF5E
:1052B0000C9A00000001002080010020084BC01A59
:1052C0000011084B420953F82220012300F01F006F
:1052D00003FA00F010420CBF18460020704700BFD0
:1052E000000100208001002070B505460F4C104ED3
:1052F000B44204D10D4CB4420AD1002414E020463B
:10530000FFF7DCFF10B12368AB420DD01034EFE79C
:105310002046FFF7D3FF08B91034ECE72846216890
:1053200001F03EFF0028F7D1204670BD00010020AB
:1053300080010020F7B505460E464FF02003EFF33D
:10534000118783F31188BFF36F8F00F095FD002262
:10535000042D98BF184B044694BF53F82530174BC3
:10536000009245212A46164801F0C4FB3EB1F3697C
:10537000C3F308031BB14521124801F0BBFB34B154
:10538000204603F0AAFF034608B1027802B90E4B8B
:10539000224645210D4801F0ADFB31462846FEF777
:1053A00061FC87F31188BFF36F8F204603B0BDE81F
:1053B000F040FDF71BBB00BF249A000042AC000088
:1053C00058AC000085AC000050AC0000ABAC000055
:1053D0000248034A0021121A01F042BFD8010020FE
:1053E000A0360020012208B5094B02201A70FFF7F1
:1053F0003DFF00F02FFE0320FFF738FF00F0BAFD5D
:10540000FBF736F8034A137B23F00103137308BD3F
:105410009E360020580200202DE98048DFF8CC900D
:10542000A7B089F308880024E023314D4FF0010B29
:1054300085F82230EC772C766C76AC766B6A2D4E44
:1054400043F4E0236B62FDF79DFAFDF749F84FF056
:10545000FF33AB62EB6240F20113274DADF824300D
:1054600006ABAB602046CDE92044FFF7FFFE0120EC
:10547000FFF7FCFEDFF884A000F050FC204B6E62CA
:105480004FF420521F49059330465346CDE9034B54
:10549000CDE90144009400F03DFD737B804623F08C
:1054A00004033046737303F085FE0F23164F4FF449
:1054B000A072CDE902431549154B3846CDE904B435
:1054C000CDE9005400F026FD7B7B524623F0040317
:1054D0007B7305F11C0341463046C5E90733EF6095
:1054E0002C76C5F80490FCF7E3FF00BFE0670020CE
:1054F00000ED00E05802002024190020E5530000D0
:1055000012AD0000A0360020D8010020A05E0020CF
:105510006793000070B50E4B0E4CA34201D30020E0
:1055200070BDD3E9030141EA000212F003020BD17E
:105530009D685A61AA4201D11C33EEE75E690132CF
:105540000E6059610144F5E76FF01500E8E700BF10
:10555000840100208401002037B50C464FF020055F
:10556000EFF3118185F31188BFF36F8F45695DB14A
:1055700025602B684361836901338361002081F3D7
:105580001188BFF36F8F11E052EA030C03D16FF063
:105590000B002560F3E7CDE900230246044800F044
:1055A00069FB18B9034B9B685B69236003B030BD8E
:1055B0009F36002024190020F8B504460D464FF010
:1055C0002003EFF3118683F31188BFF36F8F4769D0
:1055D0006FB903F047FE50B12A68C767426103F014
:1055E000E9FD3146BDE8F840074800F003B92B68F3
:1055F00062691A602B686361A369013BA36186F34A
:105600001188BFF36F8FF8BD9F3600202DE9F3415D
:10561000044617461E464FF02003EFF3118883F32C
:105620001188BFF36F8FC3682F4A6BB18068916890
:10563000884219D057EA060318D188F31188BFF3BE
:105640006F8F6FF00F000CE0916891F90E1001332D
:10565000E36093682161A36088F31188BFF36F8FC3
:10566000002002B0BDE8F0812169F0E790F90E302A
:1056700091F90E109942A8BF194621EAE1718B42B7
:105680002BDD03F060FD054622464146CDE900765C
:10569000164800F0EFFA0028E3D04FF02003EFF3B4
:1056A000118683F31188BFF36F8F23682169A342AA
:1056B00007D033B193F90E309942A8BF194621EAB9
:1056C000E171A06803F03FFD00B945B131460748DC
:1056D00000F090F86FF00A00C3E70025D4E786F3E6
:1056E0001188BFF36F8FF5E7241900209F36002043
:1056F00038B583680446002B32D01C4A9268934226
:1057000031D1DA7B013ADA73C368012B05D0013B52
:10571000C36000F0D3F8002038BD4FF02003EFF352
:10572000118583F31188BFF36F8F0169806803F0DF
:105730000AFD204603F096FDA06058B190F90E20B6
:1057400022610022C26703F035FD2946084800F0B7
:1057500051F8DEE7E06085F31188BFF36F8FD8E77B
:105760006FF01500D8E74FF0FF30D5E7241900207F
:105770009F36002010B5084C23685BB1FCF704FD90
:1057800003462068054A03440021BDE810405361E8
:1057900003F0CBBD10BD00BF5C1900202419002010
:1057A000F8B504460D464FF02003EFF3118783F35D
:1057B0001188BFF36F8F00214FF4004640F2E730AD
:1057C000094B4FF47A7259610023E4FB0601FAF7A2
:1057D000C1FC064B1860064B1D60FFF7CBFF87F33B
:1057E0001188BFF36F8FF8BD241900205C190020C9
:1057F0005819002049B9EFF3058030B9054B5A6AB2
:105800009B689A4201D0FCF7B5BD81F31188BFF3C4
:105810006F8F7047241900204FF02003EFF31181A0
:1058200083F31188BFF36F8F044B9A68D37B013BDE
:10583000D37381F31188BFF36F8F70472419002051
:10584000094B03F12802824205D19B688B4202D1A9
:105850004B7BDB0606D1D1E9003213605A6000238E
:10586000C1E90033704700BF2419002038B5124D3C
:1058700001462B69AA680BB1EC680CE005F1280021
:1058800003F092FC0446537B980644BF43F00803A0
:105890005373002CF0D049B9537BDB0606D1A369C2
:1058A00023B9D3897F2B01D96A6238BD944201D0D4
:1058B000FFF760FF6C62F8E72419002010B54FF085
:1058C0002003EFF3118483F31188BFF36F8F084B2C
:1058D00000209A68D37B0133D373FFF7C7FF84F3AB
:1058E0001188BFF36F8FBDE8104003F047BC00BFC5
:1058F00024190020F0B490F90D30417B002B28DBF7
:10590000CB0626D1836923BB134A02F12805D2E9CD
:105910000A34AB4217D0B3B190F90E6093F90E7010
:10592000B7420BDD5A68C0E900321060586061F080
:105930007F014173F0BC0020FFF798BFA34202D063
:105940001B68002BEAD1C0E90054D36A1860D0620A
:10595000EDE7F0BC704700BF2419002010B54FF0F0
:105960002002EFF3118482F31188BFF36F8F427B23
:10597000510704D484F31188BFF36F8F10BD22F058
:1059800004024273FFF7B6FF2146BDE8104001480C
:10599000FFF730BF9F36002070B590F90D300146FB
:1059A000002B02DA1648FFF74BFF164A02F12804D3
:1059B000D2E90A30A3421CD0DBB191F90E5093F921
:1059C0000E60AE4210DD5868C1E9003001605960D8
:1059D0004B7B906863F07F034B73431A58425841E6
:1059E000BDE87040FFF742BF834202D01B68002B26
:1059F000E5D1C1E90040D36A1960D162E8E700BF90
:105A00004C19002024190020014638B54FF020031E
:105A1000EFF3118483F31188BFF36F8F154B164A90
:105A200098681568A84206D1FFF7A4FE84F3118890
:105A3000BFF36F8F38BD00251560104A1268BAB1E8
:105A4000C2897F2A14D8427BD20611D10C4A90F920
:105A50000E50126895420BDB0A4A904208D05A69F0
:105A60008A4202DCFFF798FFDEE7521A5A61DDE74F
:105A70000022FBE724190020541900205C190020A3
:105A800058190020D801002070B50446183003F0E2
:105A900026FC4FF02003EFF3118683F31188BFF348
:105AA0006F8F94F90D30002B07DA21460E48FFF76F
:105AB000C7FE637B03F07F0363730C4D637BA868B1
:105AC00043F010036373031B58425841FFF7CEFEA7
:105AD00086F31188BFF36F8FAB68A34203D1BDE893
