:020000040000FA
:10000000188C002069500000EBF30000A5500000A0
:10001000A5500000A5500000A5500000A55000000C
:10002000000000000000000000000000D54D0000AE
:10003000A550000000000000654D0000ED460000E6
:1000400029500000295000002950000029500000CC
:1000500029500000295000002950000029500000BC
:1000600029500000295000002950000029500000AC
:10007000295000002950000029500000295000009C
:10008000295000002950000029500000295000008C
:10009000295000002950000029500000295000007C
:1000A000295000002950000029500000295000006C
:1000B000295000002950000029500000295000005C
:1000C000295000002950000029500000295000004C
:1000D000295000002950000029500000295000003C
:1000E000295000002950000029500000295000002C
:1000F000295000002950000029500000295000001C
:10010000295000002950000029500000295000000B
:1001100029500000295000002950000029500000FB
:1001200029500000295000002950000029500000EB
:1001300029500000295000002950000029500000DB
:1001400029500000295000002950000029500000CB
:100150002950000053B94AB9002908BF00281CBF24
:100160004FF0FF314FF0FF3000F080B9ADF1080CD7
:100170006DE904CE00F006F8DDF804E0DDE90223C5
:1001800004B070472DE9F04F099E0D4604460F4616
:10019000002B47D18A4294465FD9B2FA82F343B129
:1001A000C3F120019F4002FA03FC9C4020FA01F1B8
:1001B0000F434FEA1C451FFA8CFE220CB7FBF5F1EA
:1001C00005FB117701FB0EF042EA0742904208D985
:1001D0001CEB020201F1FF3702D2904200F234819F
:1001E0003946121AA4B2B2FBF5F005FB102200FB4F
:1001F0000EFE44EA0244A64508D91CEB040400F1B3
:10020000FF3202D2A64500F21981104640EA0140B1
:10021000A4EB0E0400211EB1DC400023C6E900431C
:10022000BDE8F08F8B4208D9002E00F0FB80002142
:10023000C6E900050846BDE8F08FB3FA83F100294E
:100240004BD1AB42C0F0F180824240F2EE800846D2
:10025000002EE5D0C6E90047E2E702B9FFDEB2FAB8
:1002600082F3002B40F09D808D1A4FEA124E97B218
:100270000121B5FBFEF20EFB1250250C45EA0045AC
:1002800007FB02F0A8420FD91CEB050502F1FF386D
:100290002CBF4FF001094FF00009A84203D9B9F172
:1002A000000F00F0CE8042462D1AA4B2B5FBFEF03E
:1002B0000EFB105500FB07F744EA0544A74208D996
:1002C0001CEB040400F1FF3502D2A74200F2B38018
:1002D0002846E41B40EA02409DE7C1F120078B401D
:1002E00005FA01F422FA07FCFD408A404CEA030CAF
:1002F00020FA07F34FEA1C491C431FFA8CFE00FA50
:1003000001F3200CB5FBF9F809FB185540EA054547
:1003100008FB0EF0A8420FD91CEB050508F1FF3AC7
:100320002CBF4FF0010B4FF0000BA84203D9BBF1DB
:10033000000F00F08C80D0462D1AA4B2B5FBF9F066
:1003400009FB105500FB0EFE44EA0545AE4507D9F2
:100350001CEB050500F1FF3401D2AE457ED82046E6
:1003600040EA0840A5EB0E05A0FB029845454C4627
:10037000C64602D306D14B4504D20138B9EB02047C
:1003800068EB0C0E002E6FD01A1B65EB0E0522FADF
:1003900001F305FA07F7CD4000211F43C6E90075B8
:1003A0003EE702FA03FCC3F1200001FA03F24FEA30
:1003B0001C4EC14024FA00F51FFA8CF79C401543EF
:1003C000B1FBFEF02A0C0EFB101142EA014200FBC9
:1003D00007F191420ED91CEB020200F1FF382CBF4D
:1003E0004FF001094FF00009914202D9B9F1000F15
:1003F00031D04046521AADB2B2FBFEF10EFB1122D3
:1004000045EA024501FB07F2AA4207D91CEB0505A4
:1004100001F1FF3801D2AA4223D84146AD1A41EA80
:10042000004126E731463046FAE6841A65EB0303BD
:1004300001201F460CE7644402384AE7644402384E
:10044000E4E6023A65442FE702396244C9E6A8F1BE
:100450000208654470E702386244CBE7023865441D
:100460007EE702396544D9E73146D9E6704700BFD7
:10047000244B2DE9F0411C68234D63682E781B68DE
:10048000E768D9000ED4214940F2EA33204A2148D6
:100490000DF0B1FE20480DF0AEFE40F2EA311C48EE
:1004A0000EF04FF93B68DA00636848BF86F001063A
:1004B0001B68DB000ED415494FF47073144A1548BD
:1004C0000DF099FE14480DF096FE4FF4707110482F
:1004D0000EF037F996B1A368DB684FF080512046E3
:1004E00098472B784FF4803283F001032B700B492F
:1004F0000023BDE8F0410A480CF0CCBBA3681B699F
:10050000EBE700BF88120020A80400203E11010084
:10051000141101007C11010099110100F80700205D
:100520008011002010B501EA0004E1070CD5174B3B
:1005300017491848C91AC908890141F003010EF08A
:1005400030F915480BF0E4FFA2070FD50F4B104907
:100550001248C91AC908890141F003010EF021F9B6
:100560000F480BF0D5FF0F480BF0D2FF63070BD5F8
:10057000BDE810400649054B0B48C91AC908890156
:1005800041F003010EF00DB910BD00BFA80B010032
:10059000280C0100AB11010090070020B8110100E8
:1005A000A807002078070020C511010070B52F4B67
:1005B0002F4C304AE41AE408A40144F003032E4906
:1005C0002E480EF00FF94FF080522D4BC3F8242225
:1005D0002C480AF003F82C4B05461860002844D03C
:1005E0004368C6681B68DB000ED428494FF41173BA
:1005F000274A28480DF0FFFD27480DF0FCFD4FF479
:10060000117123480EF09DF8AB681C2140F2016285
:1006100028461B689847011E21D1336843F0805358
:1006200033601E4807F0DEFC014610B11C480DF097
:10063000E2FD1C4D3022002128460EF09CFF1A4B93
:1006400029466B604FF42472002318480CF022FBFB
:1006500044F002011648BDE870400EF0A2B8E0DA9E
:10066000BDE8704013480DF0C6BD70BDA80B010079
:10067000280C0100D2110100DE110100E711010078
:10068000002584502A120100881200203E1101002A
:10069000141101007C1101009911010025050000D1
:1006A0004B120100F80700207104000080110020A7
:1006B000691201003112010001F4C043B3F5C04FCB
:1006C0002DE9F041D0E9018605460C46C7685BD1AB
:1006D00035494FF4F573354A35480DF08CFD3548F2
:1006E0000DF089FD4FF4F57130480EF02AF804F44E
:1006F000E823B3F5C82F0ED12F4940F2F1132B4A4E
:100700002B480DF078FD2D480DF075FD40F2F111EC
:1007100026480EF016F804F4C823B3F5804F0ED126
:1007200027494FF4FC73214A21480DF064FD254808
:100730000DF061FD4FF4FC711C480EF002F8D8F882
:10074000003059060ED420494FF4FF73174A184859
:100750000DF051FD1D480DF04EFD4FF4FF71134893
:100760000DF0EFFF220404D53B685B0648BF84F41C
:10077000C024B6692846B44604F4C02304F4B03259
:100780000621BDE8F0416047002BB0D110494FF47D
:10079000F773064A06480DF02EFD0E480DF02BFDAE
:1007A0004FF4F771A0E700BF80120100141101009F
:1007B0007C110100C112010042130100C3130100AA
:1007C00017140100611401003E110100991101008C
:1007D000ED1201001713010010B5094A094CA41AC3
:1007E00004F0C0F8E408A40144F0030401462246E2
:1007F00005480DF0E3FFBDE8104004480BF088BE4B
:10080000A80B0100100C0100A614010060070020D5
:100810002DE9F0412D4809F0E1FE2D4C2D4B2E4ED7
:10082000E41AE40805463060A40130B944F001013F
:100830002A48BDE8F0410DF0B4BF4368C7681B68A3
:100840005B060ED426494FF41173264A26480DF054
:10085000D2FC26480DF0CFFC4FF4117121480DF069
:1008600070FFAB6806214FF4887228461B689847D2
:10087000014678B93B68306823F040033B604FF491
:10088000B821FFF719FF014660B10622184844F06D
:10089000010303E00622174844F00103BDE8F041DC
:1008A0000DF0A0BF1449154B30684B6040238B609E
:1008B0008368DB690BB10122984744F003020621EB
:1008C000BDE8F0410E480DF079BF00BF2A120100CB
:1008D000100C0100A80B010098120020C7140100A1
:1008E0003E110100141101007C1101009911010059
:1008F00008150100E21401008C120020D907000045
:100900003B1501002DE9F04F344B354C3548E41AC6
:10091000E408A4018BB044F003010DF042FF32481B
:1009200009F05CFE314E306038B9314844F00101C5
:100930000BB0BDE8F04F0DF034BFFFF769FFDFF8F3
:10094000B480DFF8B4904FF0FF324FF0FF334046F1
:100950000BF022FE484644F003010DF022FF002573
:100960000227DFF898A00DF10603CDE902373068C1
:10097000ADF806508DF81070836802A9D3F804B062
:1009800001225023D847014678B905AB02931023C2
:100990000393032330688DF81030836802A9D3F8DD
:1009A00004B001225023D84701464FF000038DF8D0
:1009B000243029B1124844F001020DF0FFFEC2E7D5
:1009C00010350A4650469DF8141044F00303ADB2AA
:1009D0000DF008FFB5F5A07FC5D1B4E7A80B010065
:1009E000100C010062150100C61501009C120020C8
:1009F000CC15010060070020EB1501001C1601005A
:100A0000FE1501002DE9F0473D4B3E4C3E48E41AEF
:100A1000E408A40192B044F003010DF0C2FE3B488B
:100A200009F0DCFD3A4D286038B93A4844F001013C
:100A300012B0BDE8F0470DF0B4BE4FF0FF324FF0FA
:100A4000FF3335480BF0A8FDDFF8D080344FDFF8D6
:100A5000D49044F00306314640460DF0A2FE002338
:100A6000CDE90C334FF480730B97ADF83030484626
:100A700009F0B4FD089050B92B4844F001010DF085
:100A800090FE002141F69A100BF004FDE1E74FF4CF
:100A90008673ADF8283008AB0D93244B02AA186872
:100AA00099889B7900908DF806308DF80E300723D9
:100AB000CDE90F32119301230EAA0290CDE9053240
:100AC0002868ADF80410ADF80C10CDF838D00492B9
:100AD000079383680BA9D3F800A004AA06ABD047FC
:100AE000014628B1124844F001020DF067FEC8E744
:100AF00006993346D1E900120E480DF0A8FEC0E772
:100B0000A80B0100780C01003D1601008A160100B7
:100B1000A012002090160100A8070020A8160100CE
:100B200000127A00BA160100C11601000D1701006B
:100B3000DB160100F916010070B50B780C46052B89
:100B400000F28A80DFE803F003892E687B50474B70
:100B5000474D4868ED1AED08AD018968061F45F05C
:100B6000030244480DF02AFE30460FF096FE0022A4
:100B7000002341480AF010FA014600286CD03F4B90
:100B8000B1F804211868836804315C684FF0FF33C2
:100B9000A047002860D03A4845F00201BDE8704007
:100BA0000DF0FFBD4FF4847104200DF033F8D4E94B
:100BB00001130546E268194404300EF0B1FCE36805
:100BC00029463048A5F804310FF0CCFC284A274BC1
:100BD000B5F80411D21AD20892012B4842F0030250
:100BE000BDE870400DF0EABD204B214C2748E41AC7
:100BF000E408A40144F003010DF0D3FD1F4B186875
:100C000083682349DD68FF223223A847014618B3D1
:100C1000204844F00102E3E7184B1F4918680968AF
:100C20008368FF221B6998470146A8B1104A0F4B01
:100C30001A48D21AD208920142F00202D0E70B4BB6
:100C40000B491748C91AC908890141F003010DF081
:100C5000A8FD6268104B1A6070BD0549034B11482E
:100C6000C91AC908890141F0030197E7A80B0100DF
:100C7000900C01002D170100DC070020A4120020B9
:100C80003D170100C00700204F1701005E1701004B
:100C9000904E00206F1701003002002089170100DC
:100CA0009D170100B2170100F8B507460D46042054
:100CB0004FF484710CF0AEFF044668B9184B194923
:100CC0001948C91AC908890141F002010DF069FDEE
:100CD0006FF00B052846F8BD061D2A4639463046FA
:100CE0000EF01EFC114BA4F8045118688368AAB2D8
:100CF0005F6831464FF0FF33B84705460028E9D01A
:100D0000074B08490A48C91AC908890141F002017C
:100D10000DF047FD214607480FF024FCDAE700BF3D
:100D2000A80B0100900C0100C2170100A4120020C2
:100D3000ED170100DC0700202DE9F843264B274C76
:100D40002748E41AE408A40144F003010DF029FD4A
:100D5000244809F043FC244D286060B183680022D8
:100D60001B682249984730B928688368FF22DD68EC
:100D70001F493223A8471F4FDFF87C801F4E4FF0DA
:100D8000FF324FF0FF3338460AF006F9054600F00F
:100D9000C9F905F1040958B1B5F80411484607F03E
:100DA0008DFA014620B1404644F002020DF006FDE6
:100DB000B5F804114846FFF777FF3168B5F804210C
:100DC0000F48114444F0030331600DF00BFD284639
:100DD0000FF063FDD3E700BFA80B0100900C0100EA
:100DE000111801002B180100A4120020390B00007B
:100DF000904E0020C007002032180100A8120020E9
:100E00004D18010000222DE9F34103243349344BEE
:100E1000344E4A745A7432784C605C6052BB324A29
:100E2000324C10682278CAB18368314A9B6898476F
:100E30000146E1B12F4A304B3048D21AD208920114
:100E400042F002020DF0BAFC4FF4202200232C499C
:100E50002C4802B0BDE8F0410BF01CBF8268194677
:100E60009568234AA847012301462370E1E701233F
:100E70003370E9E700220023012123480CF05EFDD6
:100E80001C4D1D4B0146ED1AEA089201C5F3C90538
:100E900028B11E4842F002010DF083FCD4E74FF464
:100EA0006167DFF86C803070B8F9003042F00306FB
:100EB00013FB07F21748ADF80060120B0DF0ABFC06
:100EC000B8F9023065F38F1413FB07F201211148C2
:100ED000ADF80040120B0DF09EFCB5E75802002063
:100EE0006C0200208E500020AC1200208F50002099
:100EF00048020020C80B0100A80B01008418010063
:100F0000880B002080110020340200209A18010074
:100F10008C4E0020AF180100032273B5234B2449E7
:100F20005A604A600022234C4A745A74224A10685C
:100F300022789AB183685B68984701461F4A204B24
:100F40009B1ADA08C3F3C905920179B11D4842F032
:100F5000020202B0BDE870400DF030BC8268194654
:100F600052689047012301462370E7E74FF461641C
:100F7000154E42F00302B6F90030ADF8002013FB25
:100F800004F0020B11480DF046FC4FF00301B6F9D6
:100F9000023065F38F1113FB04F2ADF800100B481B
:100FA0000121120B0DF037FC02B070BD6C02002065
:100FB000580200208F500020AC120020A80B010026
:100FC000C80B0100CB1801008C4E0020DB1801007B
:100FD00073B5304B304C3148E41AE408A40144F0B6
:100FE00003010DF0DEFB2E4809F0F8FA2D4E3060BB
:100FF00098B92D4844F001010DF0D3FB2B4D44F07E
:101000000304214628460DF0CCFBFFF785FF0021A5
:101010004FF420200BF03EFAF3E700250422CDE93F
:1010200000558DF8012044F20A02ADF80220092291
:101030008DF80520836869461B68984730B12946BA
:1010400044F001021A480DF0B9FBD7E7BDF80430AF
:10105000306803F0E00343F4007343F00103ADF89C
:101060000430836869461B689847014618B101211E
:1010700044F00102E6E70F4D302228460EF07BFADD
:101080000D4B4FF4A4726B60294600230B480BF004
:1010900001FEB3E7A80B0100C80B0100F118010025
:1010A00008190100AC1200200E19010048190100B6
:1010B00024190100880B0020050E0000801100207B
:1010C00070B505460E46124B124C1348E41AE4085C
:1010D000A40144F0030421460DF063FB234632468D
:1010E00029460E480DF0B3FB31462846FFF7DCFDDC
:1010F0002B78552B0BD16B78012B08D1AB78012BBA
:1011000005D1EB78064AB3FA83F35B09137070BD1F
:10111000A80B0100580C01006C1901008F19010087
:10112000D1500020014B1878704700BFD1500020EB
:1011300008B5094807F086F8011E0BDA074B084A84
:101140000848D21AD208920142F00102BDE80840D4
:101150000DF034BB08BD00BFC1100000A80B01009A
:10116000580C01009719010010B5134A134C13785D
:101170002046591C1170124A0C2104F05DFC00231A
:101180000C212046E37207F099F80E4B0E4A0146F7
:101190009B1ADB089B0130B1BDE810400B4843F0BF
:1011A00001020DF00BBB2146BDE810400C2208489F
:1011B00043F003030DF04BBBD050002090500020B3
:1011C000AE190100580C0100A80B0100B91901006B
:1011D000D519010070B50E4B0E4C0F48E41AE40807
:1011E000A40144F003010DF0DCFAFFF7A1FF0B4E60
:1011F0000B4D4FF0FF324FF0FF3330460BF0CCF980
:10120000284644F003010DF0CCFAFFF7ADFFF0E7FC
:10121000A80B0100580C0100E719010090070020FD
:10122000FC1901002DE9F3479846234E234B0D4648
:10123000F61A8146174601F0DBFBF608B60146F0C8
:10124000030A01462A461E4853460DF0CBFA48468B
:101250001C4901AA0DF022FFA0B1019C94B9042DF4
:1012600004D06FF0150002B0BDE8F087164E2A4694
:1012700031464046B8475246316814480DF09EFA50
:101280002046F0E74846124901AA0DF007FF78B161
:10129000019C6CB9082DE4D12A4640460D49B84757
:1012A0002A460C490C4846F003030DF0D0FAE7E754
:1012B0006FF00100D7E700BFF00B0100A80B0100A1
:1012C000211A01006E1C0100E01200203E1A0100EC
:1012D000291C0100D2500020661A010000234FF49F
:1012E0007C2130B587B000933B4C3C4B3C4DE41A1D
:1012F000E408A4013B4844F0030229600DF05EFAC3
:10130000394809F06BF9296803AA0EF0A9FA10B15F
:1013100036480CF070FF049B3349AB8103233048FF
:10132000EB8102F0E3F910B131480CF064FF0823BF
:1013300001212B4801AA0DF087FE002826DD082296
:101340002C4844F0030301A90DF081FA00236A46FA
:1013500000930221042322480DF076FE002805DDCB
:101360000099254844F003020DF028FA44F00301E7
:1013700022480DF016FA009B6A46013300930221C1
:101380000423174802F01EFB07B030BD44F00302EF
:1013900001211B480DF012FAFF238DF80430FE23C3
:1013A0008DF80530FD238DF80630FC238DF80730CD
:1013B000FB238DF80830FA238DF80930F9238DF8D6
:1013C0000A30F82301218DF80B3001AA08230448C4
:1013D00002F0F8FABAE700BFF00B0100A80B010019
:1013E000B01200207D1A0100921A0100A51A010016
:1013F000BD1A0100D01A01000E1B0100301B0100B4
:10140000E21A010070B502F03DFE2E4C2E4B014653
:10141000E41AE408A40130B12C4844F00102BDE80C
:1014200070400DF0CBB92A4D2A4844F003010DF06D
:10143000B8F9284602F0C4FC024618B129682648CB
:101440000CF0D9FE254D44F00306314624480DF03A
:10145000A8F90DF020FE2B68FBB9314621480DF0AC
:10146000A0F93023204908220B7031234B7032231E
:101470008B703323CB7034230B7135234B713623A0
:101480008B7137231948CB7102F02AFC014620B139
:10149000174844F001020DF091F9164844F0030199
:1014A0000DF07FF92B680D490133042212482B609F
:1014B00002F016FC014618B1104844F00102AEE7F4
:1014C00070BD00BFF00B0100A80B0100531B010011
:1014D00080020020821B0100A61B0100E0120020F8
:1014E000D51B0100081C0100D2500020231C010064
:1014F0002D1C0100401C0100681C0100771C01002C
:1015000008B50A490A4B0B48C91AC908890141F0B4
:1015100003010DF046F9FFF7E1FEFFF773FF00212D
:101520004FF400400AF0B6FFF9E700BFF00B0100EE
:10153000A80B01008D1C010030B50A4C0A449142F1
:1015400000D130BD11F8013B58400309E35C83EA48
:101550000013DDB2C3F30313E05C80EA0510C0B2F0
:10156000EDE700BFE71C0100436870B503F003031B
:10157000022B04460E46816010D0032B04D0012BB1
:101580000FD10025284601E0056800200023636094
:1015900010B131460CF0E2FA284670BD0025006813
:1015A000F4E74523054A064906480CF024FE452188
:1015B00002480DF0C6F80025E7E700BFF71C010060
:1015C0008D4B01007C1101000B6801330B60014B56
:1015D0001B68184798020020014B1860704700BF35
:1015E0009802002007B50B460021024601910348EE
:1015F00001A900F077FC03B05DF804FBC9150000F9
:1016000030B5002585B0CDE90101044601A90548A2
:10161000039500F067FCDDE902309842B8BF25541D
:1016200005B030BDD1E100002DE9F74FB0F81C90B6
:10163000044619F0080F009222D001290CBF49F08E
:10164000100949F02009A0F81C90143420460BF032
:1016500063F868B9A7239B4A9B499C480CF0CBFDD3
:1016600021469B480CF0C7FDA72196480DF069F86C
:10167000009B83F31188BFF36F8F03B0BDE8F08F39
:10168000944FDFF8488209F00709022906D1204665
:101690000CF0CBFD0028D8D0012864D1D4F818B0C4
:1016A000A38BBBF1000F19DA0026256823F007038E
:1016B000C4E9006643F00103A383A38B03F0070290
:1016C0004A45019203D0A268002A40F0138115B95F
:1016D000002E00F059814FF0000A0DE103F00702DF
:1016E000511F012920D8002123F00703062A25686D
:1016F0009BB2C4E900110AD13DB12946E28B0968C9
:10170000013292B20029FAD1E28343F0020320466B
:10171000A3830CF08AFD06460028CED0A38B43F0AD
:101720002003A3830026C8E7042A0DD123F0070372
:101730009AB22046A2830CF078FD054688B142F0AB
:1017400020020025A283EDE740F219133A464046F5
:1017500061490CF050FD40F2191138460CF0F1FFD0
:1017600000252E46A9E7032834D1B9F1000F0BD08C
:1017700040465A494FF4AA733A460CF03CFD4FF4E8
:10178000AA7138460CF0DDFF23685BB94046544926
:1017900040F255133A460CF02EFD40F255113846F2
:1017A0000CF0CFFF23691E685EB940464D494FF4E7
:1017B000AC733A460CF01FFD4FF4AC7138460CF098
:1017C000C0FFA38B23F0070343F006030025A38388
:1017D000AB4672E7042831D1B9F1020F0BD0404675
:1017E000414940F25B133A460CF005FD40F25B11B3
:1017F00038460CF0A6FFE38B5BB140463B494FF403
:10180000AE733A460CF0F7FC4FF4AE7138460CF06C
:1018100098FF23695E685EB94046324940F25F1323
:101820003A460CF0E8FC40F25F1138460CF089FFB4
:10183000A38B23F0070343F00403C7E7052831D146
:10184000B9F1010F0BD0404629494FF4B1733A4624
:101850000CF0D1FC4FF4B17138460CF072FF2368E4
:101860005BB940461E4940F263133A460CF0C3FC94
:1018700040F2631138460CF064FF23699E685EB93C
:10188000404618494FF4B3733A460CF0B4FC4FF499
:10189000B37138460CF055FFA38B23F0070343F0D8
:1018A000050393E7002540F269133A4640460A498A
:1018B0000CF0A1FC40F2691138460CF042FF2E46B4
:1018C00086E700BFBD1D0100E31D01007C11010082
:1018D000FA1D01001A1D01008D4B01003C1D010085
:1018E000481D01006B1D0100821D0100981D0100B3
:1018F000A71D01004FF0010A43F0080304F1140989
:101900004846A3830AF008FF68B9A7234046374A30
:1019100037490CF070FC494636480CF06CFCA721A6
:1019200032480CF00EFF009B83F31188BFF36F8FDA
:10193000BAF1000F37D1002D47D116B120462E49FC
:10194000B0474FF02003EFF3118B83F31188BFF3FF
:101950006F8F4846CDF800B00AF0D0FE68B97C23FE
:101960004046224A25490CF046FC494624480CF0E2
:1019700042FC7C211D480CF0E4FE48460AF0DAFEE9
:10198000A38B23F00803A383A38BDA0625D50121BB
:1019900023F01003A383B4F81C9009F00709002971
:1019A0007FF473AE51E6A1680029C4D0D1F800A03D
:1019B0004B6820469C46019A5B46E047BAF1000F0F
:1019C000B9D05146DAF800A0F2E729465B46204636
:1019D000019A2D680CF045FCADE713F020011EBF05
:1019E00023F020030221A383D5E700BFBD1D010022
:1019F000E31D0100FA1D0100051A00000F1E010081
:101A0000241E0100F8B504460D4600F114064FF0FF
:101A10002003EFF3118783F31188BFF36F8F3046F4
:101A20000AF06CFE68B97C230B4A0C490C480CF098
:101A3000E2FB31460B480CF0DEFB7C2106480CF043
:101A400080FE30460AF076FE3A462046A561012126
:101A5000BDE8F840FFF7E8BDBD1D01000F1E010005
:101A60007C110100241E01002DE9F04704460F46B9
:101A70000CF00DFC051E5EDB04F114094FF0200391
:101A8000EFF3118A83F31188BFF36F8F48460AF092
:101A900035FE68B97C23384A384939480CF0ABFB2D
:101AA000494638480CF0A7FB7C2133480CF049FE2E
:101AB00048460AF03FFE4FF6FF71E38BA28B8B4244
:101AC00002F0070650D0022E24D135464FF001080F
:101AD0000133E38348460AF01FFE68B9A723264A6C
:101AE000294927480CF087FB494628480CF083FB1E
:101AF000A72121480CF025FE8AF31188BFF36F8FD0
:101B0000B8F1000F17D000233246394620460CF0BA
:101B1000A8FB10E0930701D0062E0FD100233B60F5
:101B20006368F3B9C4E900773546FEB9524602212D
:101B30002046FFF779FD2846BDE8F087052E18D02E
:101B4000012E0BD012490E4840F2C513114A0CF079
:101B500052FB40F2C5110F480CF0F3FD6FF0040585
:101B600004E01F606760DFE76FF00A054FF00008D0
:101B7000B0E76FF02205F9E7BD1D01000F1E01005F
:101B80007C110100241E0100E31D0100FA1D01006B
:101B9000A71D01001A1D01002DE9F8430546174E47
:101BA000DFF85C80DFF85C904FF0FF324FF0FF33DE
:101BB000284609F0F1F904460028F5D0476867B9CE
:101BC00041461C23324648460CF015FB0E480CF0EB
:101BD00012FB1C2130460CF0B4FD04F10803D3E8DD
:101BE000EF2F22F00101C3E8E01F0028F7D1D3074F
:101BF00001D52046B8470AF003FBD5E73C1E01009B
:101C00005F1E01007C110100761E0100F8B50E4632
:101C1000002943D005680122AB682846B3F5004F80
:101C20002CBF082404240C1B641BE40821460CF080
:101C30005AFBC3070DD49A23194A1A491A480CF0C3
:101C4000DAFA314619480CF0D6FA9A2114480CF009
:101C500078FD214628460CF05CFB27183946002207
:101C600028460CF040FB3F1ABC420DD0A2230C4A80
:101C70000F490D480CF0BFFA31460E480CF0BBFA84
:101C8000A22107480CF05DFD2146284600220CF0F9
:101C900046FB2146BDE8F8400CF083BCF8BD00BF10
:101CA000911E0100B21E01007C110100C31E010043
:101CB000FB1E0100211F01002DE9F84301F1FF394E
:101CC00019EA010F80460F46144605680CD03349C7
:101CD000FC23334A33480CF08EFA33480CF08BFA6D
:101CE000FC212F480CF02DFDA868B0F5004F2CBF4B
:101CF000082304239F4205D821464046BDE8F84307
:101D00000CF091BC1CB900263046BDE8F883B0EB5E
:101D1000D40FF8D93919C91A0CF01DFB0146284611
:101D20000CF074FB80460028EDD0AB687F42B3F521
:101D3000004F2CBF0823042303EBC0062E444E445F
:101D40003E403444F31A07345B1B24F00704641B41
:101D5000B0EBD30F4FEAD3074FEAE40408D20146B1
:101D60003A4628460CF095FB414628460CF0D6FB37
:101D7000394628460CF0CDFA3844844208D2394618
:101D8000284622460CF085FB214628460CF0C6FB6F
:101D90000122394628460CF0C2FAB5E75D1F010062
:101DA000911E01007C110100781F0100B2F5802F07
:101DB000F8B507460C46164612D2042A0ED84349F7
:101DC0004FF4B673424A43480CF015FA42480CF0FF
:101DD00012FA4FF4B6713E480CF0B3FC042200E056
:101DE0000822B61AE51D344425F0070524F007043F
:101DF000641B172C4FEAD4060ED8384940F27513ED
:101E0000334A34480CF0F7F933480CF0F4F940F257
:101E100075112F480CF095FC002300223D60C5E9A8
:101E20000023002331463046AE60EB600CF09CFA94
:101E300001218400471C30460CF08DFA1B34E40865
:101E40002044B0420ED3264940F28113204A214853
:101E50000CF0D1F920480CF0CEF940F281111C4869
:101E60000CF06FFC0023194605F11002BB4228DB81
:101E70002246284600210CF06AFA371B2846012228
:101E800000210CF04CFA3A4621460CF060FA234649
:101E90000022214628460CF031FA314628460CF043
:101EA00056FA3B463146284600220CF027FA3146C6
:101EB000284601220CF033FA2146BDE8F8400CF028
:101EC0002DBB42F8041B0133D0E700BF951F010072
:101ED000911E01007C110100B61F0100CF1F0100FF
:101EE000F71F01002DE9F04F8B4692461C46002556
:101EF00091B002909AF8000008B928465FE32528BF
:101F00000AF1010707D05946029B98470028C0F202
:101F10005683013512E2182200210AA80DF02BFB8E
:101F20009AF80130252B78D0002294469646164622
:101F30001046394617F8013B2B2B00F09D8000F22C
:101F40009480202B00F09A80232B00F09A8028B1F7
:101F50009DF8300040F004008DF830002EB19DF85F
:101F6000300040F008008DF83000BEF1000F05D0C1
:101F70009DF8300040F010008DF83000BCF1000FEB
:101F800005D09DF8300040F020008DF830002AB1D7
:101F90009DF8302042F040028DF830209DF830202E
:101FA00002F04400442803D16FF386128DF83020EC
:101FB0009DF830202A2B42F080028DF830207BD112
:101FC0009DF831204B1C42F001028DF831201A7827
:101FD0002E2A0CBF012100219DF8312061F341021E
:101FE0008DF8312074D15A782A2A6AD000210A2625
:101FF0000133184610F8012BA2F13007092F40F2E7
:102000008E809DF830200E91C2F3400040EAD171DD
:1020100061F341028DF830205AE00AF102078DF891
:1020200033309DF83130D90740F1498154F8049B91
:10203000B9F1000F07DA9DF83020C9F1000942F02C
:1020400004028DF830205A0740F1428154F8048B85
:10205000B8F1000F80F241819DF831306FF34103F8
:102060008DF831304FF0FF3837E12D2B0CD0302B6D
:102070007FF46DAF01225CE701265AE74FF0010EB5
:1020800057E74FF0010C54E7012052E733460CFBB1
:102090000202303A1E4616F8010BA0F13007092F54
:1020A000F4D9994293D09DF830100D92D20F62F37B
:1020B00041018DF830108AE70B4600224FF00A0CE0
:1020C000E8E79DF83120023342F004028DF8312018
:1020D0001F4617F8012B6C2A41D025D8682A2BD02F
:1020E0006A2A46D04C2A4CD01F4617F8012B9DF87F
:1020F0003130782A8DF8332000F2D980572A4DD814
:10210000412A03D0453A022A00F2D18004229DF8E8
:10211000323062F302038DF8323001239EE006FB79
:1021200001210346303964E7742A26D07A2ADBD1AC
:1021300006229DF831300DE05A78682A9DF831204A
:1021400006D1012161F3C6028DF831209F1CCCE736
:102150001346022262F3C6038DF83130C5E75A7880
:102160006C2A9DF8312001D10421EBE713460322AC
:10217000F0E705229DF83130ECE707229DF8313079
:10218000E8E7BDF8303023F4F04323F0020343F4D2
:10219000804343F00203ADF83030A6E7A2F15801C6
:1021A000202900F2848001A050F821F07122000063
:1021B000AF220000AF220000AF220000AF220000DB
:1021C000AF220000AF220000AF220000AF220000CB
:1021D0000D210000AF22000071220000312200001A
:1021E0000D2100000D2100000D210000AF22000094
:1021F00031220000AF220000AF220000AF22000019
:10220000AF22000079220000712200009522000018
:10221000AF220000AF22000095220000AF22000094
:1022200071220000AF220000AF22000071220000E6
:1022300001209DF8321003F0780360F30201402B77
:102240008DF8321002BF9DF8301041F001018DF879
:102250003010632A31D1003B18BF01239DF8302094
:10226000C2F340010B4363F341028DF83020D8E6FE
:1022700002209DF83210DEE703219DF8322003F0A2
:102280007803A3F1400061F3020243428DF832204B
:102290004341E3E703219DF8322013F0780F61F307
:1022A000020214BF012300238DF83220D6E79DF8E7
:1022B000303043F001038DF830300023CEE79DF934
:1022C0003020002AACBF4FF0FF39DDF83490BAE679
:1022D0009B077FF5C7AEDDF838800023CDE90D33CD
:1022E0009DF832309DF8311003F00703012BC1F344
:1022F000C30138D1CB1E042B22D8DFE803F0030939
:102300000921210054F8043BDA17CDE90A3206E02E
:10231000073424F00704F4E80223CDE90A239DF8EA
:10232000303013F0030656D03B46524659460298C9
:102330000CF0F1F90028C0F242810544BA46D9E513
:1023400054F8043B01294FEAE372CDE90A3205D182
:102350009DF828300A9300230B93E0E70229DED191
:10236000BDF92830D0E7022B23D1CB1E042B13D884
:10237000DFE803F0030A0A12120000232268201D7E
:102380000A920B930446CAE7E01D20F00700F0E82C
:102390000223CDE90A23F5E754F8043B01290A9307
:1023A0004FF000030B93D3D00229B8D1BDF82830E9
:1023B000D0E7042B09D1E31D23F0070303F1080440
:1023C000D3E90023CDE90A23A9E7032B04BF54F87E
:1023D000043B0A93A3E79DF833007828AED862281F
:1023E00022D825283FF48FAD5828A7D1DDE90A016E
:1023F0000DF1260300930CAA04AB0CF046F98246BB
:10240000B8F1000F0DF126000CDB9DF83020A0EB99
:102410000A036FF3861298458DF8302002D9A8EB95
:1024200003030D9380463DE06338152886D801A24A
:1024300052F820F0B5240000192500003D230000CB
:102440003D2300003D2300003D230000192500002E
:102450003D2300003D2300003D2300003D230000FC
:102460007325000041250000452500003D230000A4
:102470003D2300008D2400003D2300004125000085
:102480003D2300003D23000041250000B8F1000F6E
:10249000DDF828A00ADB414650460CF0F2FF00268A
:1024A0000AEB0008BAF1000F0CD147E750460CF0D8
:1024B000E1FFF4E700260A9B0DF1100A8DF81030B9
:1024C0000DF11108A8EB0A0306B101339DF8322083
:1024D000D00668D5023352060D9948BF0E9A0B44B8
:1024E00048BF9B18B9F1000F76DD9DF83020A9EBAD
:1024F0000309C2F38003039353076DD4500661D5DB
:1025000046B159463046029B9847002857DB039B4B
:1025100001351E46302356E01E070FD413F0100677
:1025200018BF2026DDE90A23002BBFF65FAF524219
:1025300063EB43032D26CDE90A2357E72B26F1E76A
:10254000002653E70A9840B30DF1260300930021BB
:1025500004AB0CAA0CF099F8BDF83230824603F0B7
:10256000EF0343F4F04343F010030026ADF832309C
:1025700046E70A9B07293FF6E1AEDFE801F00C04CD
:10258000060C08080C0C1D70D8E61D80D6E6EA176C
:10259000C3E90052D2E61D60D0E6DFF8C8A00646C7
:1025A0000AF105088EE7110748BF013393E7184683
:1025B00003935946029B98470028039B04DA11B005
:1025C000BDE8F08F20234D444A46002AA5EB0901BF
:1025D00009F1FF39EBDC0D4636B159463046029B16
:1025E00098470028EBDB01359DF83230D90601D43D
:1025F0001A0706D559463020029B98470028DEDB93
:1026000001359DF83230DB0607D559469DF8330079
:10261000029B98470028D2DB01350D9E2E44731B88
:10262000002B16DC43465246594602980CF073F8CC
:102630000028C4DB0544A944A9EB0503002B7FF760
:102640007DAE59462020029B98470028B7DB013514
:10265000F2E759463020029B98470028AFDB01354E
:10266000DDE700BF202001004FF47F03D3F83021C5
:1026700010B5072A20D1D3F83431023B032B1BD8E5
:102680000E4AD35CC3B10E4B0E4C0F48E41AE4085B
:10269000A40144F0010421460CF083F821460B48C4
:1026A0000CF07FF821460A480CF07BF8404080F39C
:1026B00011884FF0040002DF002010BDF920010056
:1026C000A80B0100680C0100262001005320010026
:1026D0007A2001004FF0FF33C340DB0710B50446FA
:1026E0000BD40C490C4840F21A230C4A0BF083FD22
:1026F00040F21A2109480CF024F8094800EB840044
:10270000D0F8003223F0E04343F04053C0F80032E9
:1027100010BD00BFD22001007C1101009F200100EC
:102720000025845070B54FF02003EFF3118683F33A
:102730001188BFF36F8F01240B4D0C4B0020C3F8A1
:102740000045C5F8D046FFF7C5FF2046FFF7C2FF9A
:10275000C5F80447C5F80449C5F8004B86F311884D
:10276000BFF36F8F002070BD00400050001000507C
:1027700048B1054B1A68054BB2FBF3F2044B5043CA
:1027800043F00103184770471004002040420F0037
:10279000D00C010030B5002289B00F490F480DF070
:1027A000DCFF002200230024CDE906230E230C4D7C
:1027B000CDE903344FF480622846CDE90144094B4A
:1027C000094900940AF004F90849284609F086FFEF
:1027D000204609B030BD00BFF1270000680D002081
:1027E000A00D0020E92B0000187A00200D21010027
:1027F000014809F08DBE00BF480700202029F8B528
:1028000005460C4609D9144914485B23144A0BF0B9
:10281000F2FC5B2112480BF094FF002001270346D5
:10282000024615F8011B09B1A34200D3F8BD2529C2
:1028300002D182F00102F4E7002AF2D041F0200632
:10284000613E192EEDD8732904BF07FA03F2104335
:1028500001330022E5E700BF422101007C110100A5
:102860001521010008B500F097FA09480BF073FF35
:1028700040234822074908480DF031FE074B084A1B
:102880004FF400401A60BDE8084000F00DBD00BFE5
:10289000F0120020B89E0020F81200209C020020B8
:1028A0009BE70000F8B500250D4BD3E8EF7FC3E8A8
:1028B000E25F002AF9D10B4C0B4E361B3611B542A4
:1028C00000DBF8BD20460BF05CFF28B12368DB6815
:1028D00013B139462046984701351034EFE700BF61
:1028E000E8120020980C0100A80C0100044BD3E86A
:1028F000EF2F0132C3E8E12F0029F8D1704700BF64
:10290000E8120020044A054B9B1AB1EBD30F34BFE9
:1029100052F8310000207047A80B0100980C01000C
:1029200070B5104C0546041B241101340E46E4B268
:1029300048B90D490D48C0230D4A0BF05CFCC0217D
:102940000B480BF0FEFE01226B681C71094C1E60E7
:102950005A71237813B9084809F0DAFD012323706E
:1029600070BD00BF980C01008B2101007C1101009B
:102970005A210100DA5000204807002070B5164B9C
:10298000164CE41A902C0BD91549164840F20E2328
:10299000154A0BF030FC40F20E2113480BF0D1FE2B
:1029A000124BD3E8EF5F6A1CC3E8E12F0029F8D18E
:1029B0001DB9094E2411A54200DB70BD337B43B124
:1029C00033685B6903B19847042200213046FFF762
:1029D000A7FF01351036EEE7980C0100A80C0100A6
:1029E000A22101007C11010015210100EC12002040
:1029F000144B37B59842044602D3134B98421CD36C
:102A000000220023114801A907F0A2FF0546B8B92A
:102A10000122019BD3E8EF1FC3E8E02F0028F9D182
:102A2000019821463F2204300CF012FD7E23019CC8
:102A300084F8433084F844500434204603B030BD59
:102A4000034CFAE7C8080100D8510100F812002031
:102A5000C621010050B1064B984206D303F59053AE
:102A600098422CBF0020012070470020704700BF13
:102A7000B89E00204C4B2DE9F74F1B78044603B954
:102A800040B34FF02003EFF3118683F31188BFF3B7
:102A90006F8F46480BF06FFE054686F31188BFF333
:102AA0006F8F58B1424BD3E8EF2F013AC3E8E12FC3
:102AB0000029F8D194B128460BF06FFF24B93D4BA3
:102AC0001B680BB1FFF7EEFE38480BF052FE041EF8
:102AD00018BF0124204603B0BDE8F08F364B1B78A9
:102AE000BBB92B7ADB0714D40BF066FF814628466E
:102AF0000BF031FF01464846FFF780FE0746DFF83E
:102B0000BCA02F4BDFF8BCB0A3EB0A03DB0801939A
:102B100037B92D4E2D4F4FF00008BF1B3F1140E03D
:102B2000B7FA87F8C8F11F08414628460BF016FF90
:102B3000274B0246984202D3264B98421FD3104699
:102B4000FFF788FF0646D0B9234B9A4217D06B890E
:102B5000019AC3F38913934238BF5AF833605A4637
:102B6000AE231E491E480BF046FB41461D484B460E
:102B700032460BF040FBAE2158460BF0E2FD01233C
:102B800003FA08F827EA0807C2E730460BF0F9FD18
:102B900020B13368294630461B68984708F1010880
:102BA0001036B845F1DB86E7DA500020F01200203D
:102BB000E4120020E8120020DB500020A80B0100E6
:102BC000980C010015210100980C0100A80C0100CF
:102BD000C8080100D8510100C62101008D4B010039
:102BE0007C110100E0210100164B174A10B59B1A19
:102BF000002B0BDC1549164840F29C43154A0BF09C
:102C0000FAFA40F29C4113480BF09BFDFFF7B6FE29
:102C100009F078FC104B186030B1104B1B68092B81
:102C200002DD0F4809F074FC0D4C0020FFF722FF75
:102C30000028FAD14FF0FF324FF0FF33204609F061
:102C4000ABFCF2E7A80C0100980C01002122010066
:102C50007C1101001521010014130020E412002052
:102C600048070020274B73B51B68418104469847ED
:102C7000254DE060D5E8EF3F0133C5E8E23F002A8B
:102C8000F8D14FF02003EFF3118683F31188BFF3DF
:102C90006F8F1E4821460BF062FD86F31188BFF34B
:102CA0006F8F1B4B1B7883B14FF02003EFF3118420
:102CB00083F31188BFF36F8F0020FFF7DBFE84F3EF
:102CC0001188BFF36F8F02B070BD124A2B68126873
:102CD000002AF8D0012B0AD1002200230E48CDE9AA
:102CE00000234FF4004200230AF0B0FBEBE70A2B6D
:102CF000E9D109480DF03DFD084802B0BDE870403B
:102D000009F006BC9C020020E4120020F012002012
:102D1000DB50002014130020680D0020480700201D
:102D2000F8B50F4F3D7875B9FFF728FE0D4C0E4EE4
:102D3000361B3611B54207DB0020FFF79BFE00284B
:102D4000FAD101233B70F8BD20460BF01AFD18B1F3
:102D5000236820461B69984701351034EAE700BF15
:102D6000DB500020980C0100A80C010007B50438C6
:102D70000190D0E8EF3F5A1EC0E8E12F0029F8D1BA
:102D8000012B03D1034801A907F04EFE03B05DF803
:102D900004FB00BFF81200208023202201490248D2
:102DA0000DF09DBBB8B0002018130020002337B5EC
:102DB000094D01930120FFF75DFE0446FFF796FDE4
:102DC00000220023284601A907F0C2FD08B1002C0B
:102DD000F0D1019803B030BD18130020002307B5CF
:102DE000002201930648002301A907F0B1FD10B1AC
:102DF000FFF7DCFF0190019803B05DF804FB00BF12
:102E000018130020F0B5037A85B0DC0701901ED4BA
:102E1000457A2D091BD000242646314601980BF037
:102E20009DFD0746FFF716FE70B134B9019B294698
:102E30001869FFF7E3FC044648B124FA06F3D90702
:102E400002D53846FFF792FF0136AE42E5D3019B2B
:102E50001A7A920704D55B69084C0393039B2BB93C
:102E6000064801A907F0E0FD05B0F0BD1D68204649
:102E700003A907F0D9FD0395F0E700BF1813002060
:102E80000EB403B503AB53F8042B01460448019379
:102E9000FFF728F802B05DF804EB03B0704700BFFD
:102EA000D93000002DE9F0471D46089B1746DA0689
:102EB00004460E4605D499064CBF2A492A49FFF715
:102EC000DFFF4FF00008DFF8A490A8452ADB0025BB
:102ED000DFF89C80DFF89C90DFF890A0BD422FD2F5
:102EE00049462046725DFFF7CBFF0135102D20D1FA
:102EF00020462149FFF7C4FF0025DFF87080DFF886
:102F00007C90AF4228D9725D4946A2F120035F2B25
:102F100028BF2E222046FFF7B3FF0135102D14D114
:102F2000BDE8F08749462046FFF7AAFF08F10108EF
:102F3000CBE76A07D2D151462046FFF7A1FFCDE784
:102F400041462046FFF79CFFCFE76B07D9D14146AA
:102F50002046FFF795FFD4E741462046FFF790FF54
:102F6000DBE700BFAC4A0100AC2301006848010068
:102F70006648010041220100472201004922010068
:102F80002DE9F04F11F0020485B0904606461A462E
:102F90009DF8387001F0010901F0080506D011F024
:102FA000440F36D13249FFF76BFF0446B9F1000FE9
:102FB0000AD0304B304653F827202F4B2F49002A98
:102FC00008BF1A46FFF75CFF3DB12D4B304653F862
:102FD00027202C49FFF754FF0546B8F1000F44D0D5
:102FE000012303FA07F7284B17F0100F274F18BFDC
:102FF0001F46BDF840109DF83C00FFF783FC3946A2
:1030000002463046FFF73CFF2844204405B0BDE8A7
:10301000F08F1F4B196831B31E4B4FF4616C1B6866
:103020004FF47A7BB2FBF3F3B3FBF1F4B4FBFCF2A5
:103030000CFB124C01FB14340BFB04F4B4FBF1FA4F
:103040004FF03C0E01FB1A440BFB04F4BCFBFEF3F7
:10305000B4FBF1F1CDE901A10EFB13C100910E49C2
:10306000FFF70EFFA1E708469FE7084FC1E700BF43
:103070005A220100D80C01004C220100E72F010068
:10308000EC0C01007F2201005622010051220100B8
:1030900034130020381300206322010038B50C4699
:1030A000E107054603D5084A0849FFF7E9FEE206AD
:1030B00008D4A3062846BDE838404CBF044905495A
:1030C000FFF7DEBE38BD00BF4C220100E72F010034
:1030D000AC4A0100AC23010038B54B6805461A68BC
:1030E000CB680C469A4202D108460BF02CFE63686E
:1030F000D3E8EF2F511CC3E8E01F0028F8D1A368E4
:103100009D5463681A68E3689A4209D905490648DC
:103110007423064A0BF06FF8742104480BF011FB7E
:10312000002038BDB42201007C110100852201007D
:103130002DE9F0478B7A044613F007080E46174630
:103140008AB022D00A7A4989D243C1F38911C3F3E4
:10315000C203CDE900830291F368394602F001020F
:10316000FFF70EFF8146357AED4315F001050ED0CD
:10317000214630460BF08AFCB8F1000F39D04246A8
:1031800039462046FFF78AFF33E0C146EBE7B8F146
:10319000000F34D1E3685BB9284929484FF4D9734B
:1031A000284A0BF028F84FF4D97126480BF0C9FAD9
:1031B0000027E36806AA069330463B46A1680BF059
:1031C00051FC069A63681A603AB1A368134413F875
:1031D000015CA5F10A035D425D4120460BF0B3FDA1
:1031E000069B1F44002BE4D11DB120461649FFF772
:1031F00047FE20460AB0BDE8F0470BF0A4BD3046BC
:103200000BF0DAFB114902462046FFF739FE4FF07A
:10321000100A05AA2B46304606A9CDF814A00BF0DB
:1032200021FC059A002AAAD04B462046009706A901
:10323000FFF738FE059B1D44EBE700BFE4220100C9
:103240007C11010085220100F5220100E72F010019
:1032500042F20F7373B58B4228BF0B4605680446D4
:10326000052168460D4A0AF0D3FF064663682846E2
:1032700004225B680A490BF0FCFB6368324669462E
:1032800028465B680BF0F5FB6368172228465B68ED
:1032900004490BF0EEFB02B070BD00BFEE18010058
:1032A0002F2301001723010001230021074A10B535
:1032B000074C1360A04204D801B11360054B18609D
:1032C00010BD012140085B00F4E700BF3813002067
:1032D00040420F00341300200122034B1A70034BAD
:1032E000034A1A60704700BFDD5000204C130020D5
:1032F000DE5000200122024B02481A700BF023BD61
:10330000F5510020180D01000148FFF7A1BF00BFD3
:10331000180D010010B50C4608460BF013FB2146B2
:1033200004480E22FFF704FF2046BDE810400BF0D2
:1033300034BB00BF180D0100054B1B781BB142F2D6
:1033400010700DF073B94FF4A470002109F0A2B809
:10335000F55100202DE9F74F6B4F80463B780E4624
:1033600053B98246694D08EB0603534543D8984547
:1033700094BF3046002038E00124DFF894A1654D69
:103380001FE054B92C704FF0FF34002001F0C4FC52
:1033900050B32B78002BF4D126E0013CFFF7CCFF93
:1033A000F3E72B7813B1013C22D12C702B78DBB1E1
:1033B0003B7833B94FF0FF324FF0FF33504607F000
:1033C00093FB32464146002001F02AFC3B788146BF
:1033D00013B9504607F07CFCB9F1000FE1D001238E
:1033E0002B703B78002BD0D1304603B0BDE8F08F76
:1033F000FFF7A2FFDAE71AF8012B2B680A2A7CD123
:10340000454CA34209D8454945487D23454A0AF021
:10341000F2FE7D2143480BF094F92B680A211A1B18
:10342000012A04BF01332B600D232A68DFF8F890CE
:1034300002F8013C1170531CD9F800202B60002ABF
:10344000019230DDDFF8E4B0DBF800205ABB019FC9
:103450001B1B632FA8BF6327B3F5807F09DD3449A9
:103460002F488A232F4A0AF0C6FE8A212D480BF0E6
:1034700068F929492A6801F11700121B0CF038F885
:1034800017222C4924480CF04BF82B6817332B607B
:103490000123CBF80030019B092B1DDC20233037A2
:1034A00063752775E3744FF0FF334FF0FF32184810
:1034B00007F01AFB2A681849121B002001F0B0FB24
:1034C0000746134807F004FC8FB9D9F800300133E0
:1034D000C9F800302C6046E70A22B7FBF2F302FB82
:1034E000137730333037237567753E23DAE70023CF
:1034F0000E4AC9F800301360ECE70F498B423EBF1B
:10350000591C29601A702EE7F55100204C13002039
:10351000F4060020DD500020DE500020682301006A
:103520007C110100342301004413002048130020C3
:103530007C23010097230100DD5100202DE9F74392
:103540000E4680460821C06A0BF0B1FC074634687D
:10355000DFF84490241A346004EA0905AC4203D829
:10356000002003B0BDE8F08308236A4621464046A8
:103570000BF0F9FB0028F4D168460BF078FC40B959
:10358000BDF80230BDF8042005EA090513441D44C6
:103590003460E41BE2E700BF0000FFFF2DE9F04FBD
:1035A000082193B00446C06A0BF081FC8046636832
:1035B000E0891B0C1B0401A901930BF06DFC019B1E
:1035C000A18920461944A1EB0801082304AA02910D
:1035D0000BF0C9FB0028C0F28380E36A04AA1979C2
:1035E000002312F8010B81426CD10133082BF8D172
:1035F000204601990BF014FC72E0029BBDF81220EA
:103600001B0C1B0413440293DFF8DCA0204606AA1F
:1036100002A9DDF808900BF054FC002860D106A840
:103620000BF025FC80BB63680393204608AA03A91E
:10363000039D0BF046FC002852D1BDF82020BDF8B8
:1036400018309A4223D06268039B9A42EDD14D45CF
:103650001AD1BDF81C30BBB1BDF81A3009EA0A0610
:103660001E44A36806A8ADF81A300BF00CFCE36A00
:10367000BDF81C701D686D4205F020056FB920462D
:1036800006A90BF0CCFC58BBC145BFD1B0E708A8D8
:103690000BF0EDFB0028D6D1D9E7BD42AB4628BFE1
:1036A000BB4631465B4620460AAA0BF05CFBB8B924
:1036B0005A4620460AA90BF09FFC88B9A7EB0B07D6
:1036C0005E44DBE70298A0EB080804A80BF0CFFBF0
:1036D000002892D0204602A9FFF730FF002893D09F
:1036E00013B0BDE8F08F00BF0000FFFF2DE9F047E9
:1036F00004460D4686B000F1140630460CF012FF69
:10370000284606F06BFFA06278B9A24BA249A348F5
:10371000C91AC908890141F001010BF042F86FF0A4
:103720000505284606B0BDE8F08783681B69984701
:10373000E06260B99849974B9948C91AC90889014C
:1037400041F001010BF02DF86FF01505E9E7A06AD3
:1037500083681B6998470368013B1F2B08D98E4972
:103760008C4B9048C91AC908890141F00101E9E769
:10377000A06A216803AA0CF073F840B18649854B12
:103780008948C91AC908890141F00101DAE7A58908
:103790002DB1049BB5FBF3F203FB125545B17E49F5
:1037A0007C4B8248C91AC908890141F00101C9E767
:1037B000E389012B08D87849764B7D48C91AC90896
:1037C000890141F00101BDE7E36A009593F8049097
:1037D0004FF0FF334FF0FF32304607F085F90821F4
:1037E000E06A0BF064FBA8460746E3891FFA85FAF6
:1037F00053456FD8E389434500F0AF8053450BD163
:10380000009908234A462046C91B0BF0E4FA18B970
:103810006946E0890BF040FB009BDFF89881DA1BDA
:1038200003EA08036260A360D4E9011399420FD34D
:103830000823204601AA0BF096FA054630BB01ABDF
:1038400013F8012B914540F08B800135082DF7D1FD
:10385000D4E901318B4207D94A4620465B1A0BF066
:10386000BAFA051E12DB5AD16368DFF8488169464F
:1038700003EA0803E08900930BF00EFB4A4620465A
:10388000A38900990BF0A7FA051E4EDA304607F01F
:103890001FFA002D7FF445AF01233F4E23743D4BAB
:1038A000A289F61AF608B60146F003063346E18906
:1038B00041480AF097FF616833468AB23F48090CD5
:1038C0000AF090FFA16833468AB23D48090C0AF01D
:1038D00089FF26E7A1892B04C91B13FA81F14A4607
:1038E0000823204600910BF076FA80B16946E08902
:1038F0000BF0D2FA08F1010808234A462046009945
:103900001FFA88F80BF067FA00283FF473AF01350F
:103910006BE7BAF1000F39D06FF01C05B6E7E26A29
:10392000A36812681344A36092E7AFD02046616891
:103930000BF076FA05460028A8D16368A08903EA4F
:1039400008030344A3EB4700606000EA0800A0609E
:103950002046FFF723FE054698E76FF0200595E720
:1039600001A80BF084FA656880B9009ABDF80630AA
:10397000BDF808A002EA08021A44A2605146E06AB3
:103980000BF095FA0244AA42A260C2D0ED1B65601A
:103990004AE700BFA80B0100F80B0100D323010088
:1039A000EF23010011240100A51A01002E240100BB
:1039B000422401000000FFFF652401007C24010077
:1039C0008E2401002DE9F04F1E46037C04468946F3
:1039D000904689B07BB9614B61496248C91AC908F0
:1039E000890141F001010AF0DCFE6FF00C05284668
:1039F00009B0BDE8F08FC26A082110460BF057FAF3
:103A00008246314610460BF052FAA3890AEB4A026D
:103A10009B1AB3420746C0F09D801EB1B8F1000F5B
:103A200000F0988063680393204604AA03A9DDF898
:103A30000CB00BF046FA05460028D8D1BDF810307E
:103A40004B4505D06268039B9A42EDD1DEB9CEE7C3
:103A500004A80BF00CFA0028F4D1BDF8143086B19C
:103A6000B34210D1BDF812004FEA1B4109040144D2
:103A70003346424620460BF084F9002803DC054615
:103A8000B5E7002BB3D0A7BB04F1140A4FF0FF3207
:103A90004FF0FF33504607F027F8DFF8CCB0E3894A
:103AA0009D4254D0D4E90123F9188A4224D3ADF8B9
:103AB0001A30FF2306A88DF81E30ADF81890ADF827
:103AC0001C600BF0E0F93246414620460BF094FAB8
:103AD000034638B9204606A90BF0A1FA002814BF06
:103AE000034633460193504607F0F2F8019B1D460A
:103AF0007DE75744BFB2C7E70821E06A0BF0D7F96A
:103B00004FF6FF73ADF818300023ADF81C301318D2
:103B1000ADF81A30A38902EA0B021A44121A626045
:103B200006A80BF0B0F906A920460BF078FAE08958
:103B3000211D0BF0B1F96368204603EA0B03A36073
:103B4000FFF72CFD03460028CCD10135A7E76FF025
:103B50001B03C7E76FF0150549E700BFA80B01007D
:103B6000F80B0100BF2301000000FFFF2DE9FF4714
:103B70001E46037C04460F469046BDF8309073B94C
:103B80002B4B2C492C48C91AC908890141F0010165
:103B90000AF007FE6FF00C0004B0BDE8F0870821C2
:103BA000C06A0BF084F9A389A3EB4003B3423BD373
:103BB0004FF0000A63680193204602AA01A9019D03
:103BC0000BF07FF90028E7D1BDF80830BB4207D1E0
:103BD00002A80BF04CF918B90AF1010A1FFA8AFA87
:103BE0006268019B9A4218D0CA45E5D9BDF80C30ED
:103BF000BBB1CA4515D3BDF80A102D0CB3424FEA2C
:103C0000054528BF33464246204629440BF0ABF811
:103C10000028C1D1BDF80C00BEE7BDF80830BB429A
:103C2000E4D06FF00100B7E76FF01500B4E700BF14
:103C3000A80B0100F80B0100BF230100084B30B5B1
:103C40001C68084B01461A6800239C4201DC0020D6
:103C500030BD1046057810328D42F9D00133F4E7BB
:103C6000980D0100A0020020084B10B51B680C46FF
:103C70002BB1FFF7E3FF28B12060002010BD6FF0EB
:103C80000C00FBE76FF00100F8E700BFA002002086
:103C900030B589B00C4615460190FFF7CFFFB8B19B
:103CA0004368226802938368C068CDE90335002326
:103CB000CDE9062305930BF0CEF960B1074901AABF
:103CC0000BF0D2FD079808B9059B236009B030BD01
:103CD0006FF01500FAE76FF01200F7E75BF00000F5
:103CE000104B2DE9F0411C6805460E461746ACB155
:103CF0004FF0FF324FF0FF330B4806F0F5FE6368DC
:103D00003246D3F8088029463B462046C047044641
:103D1000054806F0DDFF2046BDE8F0816FF00104A4
:103D2000F9E700BF641300200807002000230360A8
:103D3000044B5A6812B9C3E900007047106058601C
:103D4000704700BF5C130020014B1860704700BF34
:103D500064130020002330B585B00546CDE9023359
:103D600001904FF0FF334FF0FF320B4806F0BCFEDE
:103D70000A4B1C6834B1636820461B6801A9984748
:103D80002468F7E7284600F027F90446024806F0C1
:103D90009FFF204605B030BD080700205C130020BF
:103DA0000022024BC3E90022704700BF5C130020D1
:103DB0000022024BC3E90022FFF7F2BF6813002084
:103DC000F8B50546244C254E254FB4420CD925495B
:103DD0002B233A4624480AF00EFA24480AF00BFA3C
:103DE0002B2138460AF0ADFCB44217D3204E4FF0D9
:103DF000FF324FF0FF331F4806F076FE3468A4B957
:103E00000024726805F114036C61DAB91446C6E93E
:103E10000033184806F05CFF2046F8BD216828688A
:103E20000BF038FBA0B11434CFE7143C002CE7D0E2
:103E3000216828680BF02EFB38B114F1140FDFD085
:103E40006469DCE713607360E3E76FF01004E0E798
:103E50006FF01004E0E700BFA80B0100A80B010001
:103E6000A6240100D82401007C11010000250100D6
:103E700068130020080700202DE9F74307460E4687
:103E800009B100230B600025254CDFF89880DFF88E
:103E9000989044450CD9254994234A4624480AF071
:103EA000AAF924480AF0A7F9942148460AF049FCE7
:103EB000444508D3204B1C680CB1143CC4B92846B7
:103EC00003B0BDE8F0833846216801AA0BF0E6F89C
:103ED00060B125B90EB1019B3360254606E0002292
:103EE000296820680BF0DAF80028F3D11434D0E701
:103EF0003846216801AA0BF0D1F860B125B90EB19E
:103F0000019B3360254606E00022296820680BF0FB
:103F1000C5F80028F3D114F1140FD0D06469CBE7B1
:103F2000A80B0100A80B0100A6240100D824010061
:103F30007C11010000250100681300202DE9F043E9
:103F400085B0DDF8308005460C4616461F460390C6
:103F5000B8F1000F18D0D8F8001081B103AA0BF007
:103F60009DF860B9002007E0D8F808303246009389
:103F700021463B460398C84705B0BDE8F083D8F812
:103F80000490B9F1000FEFD1284603A9FFF774FFA1
:103F90000028E7D03246D0F808803B4621460398F7
:103FA000C04706460028DDD0084B094C2846E41AD5
:103FB000FEF71EFDE408A40144F001040146234677
:103FC000324604480AF00EFCCCE700BFA80B010003
:103FD000600C01001F2501002DE9F0410646002577
:103FE000214C224FDFF88880BC420CD92149F423B0
:103FF000424621480AF0FFF820480AF0FCF8F42174
:1040000040460AF09EFBBC4207D31D4B1C680CB116
:10401000143CA4B92846BDE8F0811EB9E3684BB949
:104020001434E1E70022314620680BF037F800280D
:10403000F4D1F5E79847002D08BF0546F0E736B9FB
:10404000E36863B914F1140FE4D06469DFE7002278
:10405000314620680BF022F80028F1D1F2E79847AA
:10406000002D08BF0546EDE7A80B0100A80B0100D5
:10407000A6240100D82401007C11010000250100C4
:104080006813002010B5064C23783BB9FFF790FE6B
:1040900000F064F808B90123237010BD0020FCE78C
:1040A000F65100202DE9F04780468946048FDFF85D
:1040B000A8A0013498B0A4B200F10806651EADB204
:1040C000B5F5004F45D04A23294605AA30460AF0E7
:1040D000BBFF04F57F543F34A4B2074621460123B9
:1040E00030460DF10B020AF0AFFF002F014603DC52
:1040F000002803DC2C46E1E7002816DCB8F838304D
:10410000AB4209D142466B1E22F8383F4FF40041C2
:1041100002233046FFF756FC294630460AF090FF4E
:10412000214630460AF08CFFE4E718AB1F44002319
:10413000524607F84C3C05A8CDF8009003AB039617
:10414000ADF81040FFF7FAFE0028D3D018B0BDE854
:10415000F0870020FAE700BFE3F000007FB50123FD
:10416000694606200193FFF77FFD0446002836D1FB
:10417000062002AA01A9FFF78BFD10F1130F0446D8
:104180002DD038B10C3405D0404080F311884FF069
:10419000040002DF0399B1F5803F23D200231846C3
:1041A000009A9568084485429CB203D30133082BDA
:1041B000F8D11C460D4D53682846AB60D368EC829D
:1041C000A982EB630BF024F8044640B9084E284658
:1041D0006E60FFF7ABFD28466E60FFF7B5FD204629
:1041E00004B070BD6FF02404F9E700BF7013002025
:1041F000A4020020044608B54FF02002EFF311831B
:1042000082F31188BFF36F8F0BF089F8204601F01D
:10421000A7F9034809F0EFFF00F090FEFCE700BFAC
:104220005325010010B5044C2046FDF7D5F9204672
:1042300001F0FCFB002010BD3D4200002DE9F341E0
:1042400004460325DFF85880164E8DF807004FF01E
:10425000FF334FF0FF32404606F046FC01220DF1DD
:104260000701002000F028FD0746404606F030FD1B
:104270002FB101233370204602B0BDE8F0813378BE
:10428000002BF8D0013D08D00CF0CAF90028DED18F
:104290000021422008F0FEF8D9E73570EBE700BFB7
:1042A000F4060020F751002037B540230C460A4998
:1042B0000093411A491105462346084A08480AF066
:1042C000D6FF011E05DA2846234603B0BDE830407C
:1042D000184703B030BD00BFC0130020E1F200005A
:1042E000AC04002038B5CCB2032C054609D90949E5
:1042F00009487E23094A09F07EFF7E2107480AF01B
:1043000020FA0C23E96804FB0314D4F8880000F0B9
:10431000070038BDB92501007C1101007C25010092
:10432000F8B5CCB2032C05461746C6680BD91A4916
:104330001A4840F253131A4A09F05DFF40F2531134
:1043400017480AF0FEF94FF02003EFF3118183F3D1
:104350001188BFF36F8F0C2202FB0463D3F88830FF
:1043600013F0C00301D09F4212D10123002002FBB1
:104370000466C6F8883081F31188BFF36F8F30B9B7
:104380000C23696803FB0414636898470020F8BD98
:104390004FF0FF30EFE700BFB92501007C110100AD
:1043A0007C25010070B50D4606490446411A4911A5
:1043B00040220548FFF7B4FF2B4601462046BDE8E2
:1043C00070401847C0130020AC0400202DE9F843CA
:1043D000002201210646052000F03EFD052000F0E8
:1043E00009FD114804F034FA104B984219D104F039
:1043F00053FA00244FF00C080127DFF83490F568D9
:10440000494605EB441009F051FF002807DB08FB83
:1044100004550134042CC5F88870F0D10020BDE8A3
:10442000F8836FF00400FAE76D4400000000AD0B64
:10443000E00D010001460C2300224B43094870B5F2
:10444000C4188833D4E920561844C4F880200AF0F0
:10445000FBFE2DB132462B46BDE87040024818479E
:1044600070BD00BFC0130020AC04002008B50528B3
:1044700022D8DFE800F0031121130F0D144BD3F8FD
:10448000880010F0070021D1BDE80840FFF7D2BF37
:104490000220F9E70320F7E70120F5E70D4940F294
:1044A00066230D4A0D4809F0A6FE40F26621BDE8DC
:1044B000084009480AF045B9064940F26A23064A0D
:1044C000064809F098FE40F26A21F0E708BD00BFF7
:1044D000C01300208D4B01007C2501007C110100E0
:1044E00008B54FF02003EFF3118183F31188BFF378
:1044F0006F8F124A136843F0020013F0010310603B
:104500000CD04FF05022D2F80C34D2F80C2413F017
:10451000010303D00A480AF097FE012381F31188B2
:10452000BFF36F8F23B1BDE808400020FFF782BFC3
:104530000120BDE8084004F0D5B900BF7014002088
:10454000481400207FB500220123CDE9022304ABEB
:10455000CDE90433094A6B46CDF800D0CDF804D03C
:104560000AF0B7FE002805DB4FF4804200236846BE
:1045700008F012F807B05DF804FB00BF17F3000065
:10458000074BD3E8EF2F22F00201C3E8E01F002819
:10459000F7D1D30702D4012004F01CBA704700BF42
:1045A000701400202DE9F041012206464649D1E869
:1045B000EF3FC1E8E02F0028F9D1A3B943494448AF
:1045C0004B60CB608A60FDF74FFA00280BDA414957
:1045D000414840F22623414A09F00DFE40F22621CF
:1045E0003E480AF0AEF896B3731E012B56D8012E42
:1045F00007D14FF05023D3F81C3403F00303022BF0
:1046000025D00CF00DF8044618B9354B1B78002B5B
:1046100052D14FF02003EFF3118783F31188BFF3DA
:104620006F8F01244FF05025DFF8B880D5F818348B
:10463000D5F81824D2030CD503F00303022B01D0C4
:10464000012E06D124B387F31188BFF36F8FBDE825
:10465000F081C4B1384600F07FFCD5F81835DBB2E4
:10466000012BE3D1D5F80421002ADFD00022C5F8C0
:104670000421D5F804210222C5F818252022C8F803
:104680008021AB60D2E70021212007F003FFE4E79F
:104690004FF050230222C3F80423D8E712490E48F2
:1046A0004FF40E730D4A09F0A6FDBDE8F0414FF43A
:1046B0000E710A480AF045B84FF05023022207460F
:1046C000C3F80823AEE700BF74140020B013002025
:1046D000E0130020DD2501007C1101007C25010094
:1046E0001062002000E100E08D4B010010B5064C87
:1046F000064922460648172309F07DFD2046BDE8FD
:10470000104017210AF01DB81B2601008D4B010037
:104710007C110100044A1368C81A20F07F4003444A
:10472000136008F061BD00BF841400202DE9F0473C
:104730004FF480374FF00009860000F1500406F175
:104740005026A40006F58036A4B204F15024D6F811
:104750004035DFF86C8021F07F4504F580348740D8
:10476000D8F804A5A3EB0A0323F07F432AF07F4285
:10477000012BC6F8402502D113200BF057FF0AF198
:104780000202AB1A23F07F43B3F5000F88BF154632
:10479000C4F80090236825F07F43C8F84473C6F836
:1047A0004035D8F804359A4506D0EB1A023B23F081
:1047B0007F43B3F5000F01D8BDE8F0872B46CFE764
:1047C00000500150F8B500252F46104C2668104BBC
:1047D00005B1F8BDD3F80423D203FAD5D3F84021AC
:1047E000002AF6D0C3F84051D3F840214FF480326C
:1047F000C3F848230125D3F8401526B1002062688C
:104800002760B047E2E72660E3E700BF78140020A6
:104810000050015038B500254FF480334FF400129A
:104820000C4C0121C4F80855C4F804330A4B152078
:10483000C3F880212A4600F00FFB152000F0DAFAB9
:104840000123064AA360022023601360FFF7AAFE3B
:10485000284638BD0050015000E100E080140020DF
:10486000134AB0F1FF3F14BF03461346013B002B30
:104870001CDD9342A8BF13460E4AD2F804050E4A27
:104880001168401A10F4000F18BF002320F07F4277
:1048900001320A4813440A4A106000205060044A5A
:1048A000934294BFC9188918FFF740BF0023E3E77C
:1048B000FFFF7F00005001508414002015470000C6
:1048C0007814002038B54FF02003EFF3118583F3FF
:1048D0001188BFF36F8F1A4807F010FF68B97C2367
:1048E000184A1949194809F086FC1549184809F071
:1048F00082FC7C21134809F024FF114807F01AFFBD
:10490000144B0F48D3F80445134B1B68E41A24F0EA
:104910007F4407F001FF68B9A7230A4A0F490B48F3
:1049200009F069FC06490E4809F065FCA721054815
:1049300009F007FF85F31188BFF36F8F204638BD5C
:1049400088140020BD1D01000F1E01007C11010014
:10495000241E01000050015084140020E31D0100BA
:10496000FA1D010038B54FF02003EFF3118583F3F2
:104970001188BFF36F8F1B4807F0C0FE68B97C2316
:10498000194A1A491A4809F036FC1649194809F01B
:1049900032FC7C21144809F0D4FE124807F0CAFE0C
:1049A000154B1048D3F80445144B1B68E41A24F047
:1049B0007F441C4407F0B0FE68B9A7230A4A104997
:1049C0000B4809F018FC07490E4809F014FCA72110
:1049D000054809F0B6FE85F31188BFF36F8F2046B6
:1049E00038BD00BF88140020BD1D01000F1E01004E
:1049F0007C110100241E010000500150841400208D
:104A0000E31D0100FA1D0100014809F0CBBA00BF07
:104A1000EC0D010010B5044618B90D4B0D485B684C
:104A20009847616808290DD031F004030AD011F0CD
:104A3000020108D02146084805F0F6FF0023236054
:104A40000023636010BD142220680AF094FDF7E78C
:104A500048040020972601008C14002008B540B3BC
:104A60004368042B0BD0082B16D003B300684FF01B
:104A7000FF324FF0FF3306F037F858B115E001224E
:104A80000368D3E8EF1F002903D1C3E8E02F002813
:104A9000F7D10AD1002008BD0368074A1B7803F547
:104AA000807352F82330002BF4D00448F3E7044815
:104AB000F1E76FF4E040EEE700000350E98FFFFFFD
:104AC000EA8FFFFF08B508B34368042B07D0082B13
:104AD00013D0F3B1006806F0FBF800200CE00022D0
:104AE0000368D3E8EF1F012903D1C3E8E02F0028B2
:104AF000F7D1094808BF104608BD036800201B789D
:104B0000064A03F5807342F82300F5E76FF4E040AE
:104B1000F2E70348F0E700BFE98FFFFF0000035012
:104B2000EA8FFFFF10B5044618B9164B16485B68AC
:104B300098476368042B23D0082B21D0CBB9236876
:104B4000BBB94FF0FF324FF0FF3321460F4805F05D
:104B5000FFFE08B923681BB90A4B0D485B689847EC
:104B60001422002120680AF006FD636843F0020366
:104B7000636020680BF0D6FC636843F00103636058
:104B800010BD00BF48040020972601008C140020AF
:104B9000BD26010008B506494023142205480BF044
:104BA0009EFCBDE808400449044809F04DBA00BF26
:104BB000A81400208C140020040E0100F40D010044
:104BC000032310B5104C114AC4E90433104BA26101
:104BD000E3614FF4805322660E4A2362626600232B
:104BE00010220D49E01DA3626362E3622367E3665E
:104BF0006367A2660AF022FC204608490AF01EFC00
:104C00002023A37110BD00BFA8190020EA260100CF
:104C100008520020F8510020F3260100F726010079
:104C20002DE9F84F4FF0180B224F14460BFB007282
:104C3000936A556A0646AB42884634D8D2F820A01B
:104C4000AAEB050909F1FF32944211D84FF0180977
:104C500006FB09933B4458682246414628440AF023
:104C60005FFC09FB06762C4401207462BDE8F88FD6
:104C700013449C421BD800FB0BBBBB44DBF8040075
:104C80004A4628442C440AF04BFCB4EB0A0406D0F4
:104C90002246DBF8040008EB09010AF041FC182069
:104CA00000FB0676E0E7013B5B1BA342CED200206F
:104CB000DCE700BFA819002070B5182400FB0445EC
:104CC000144B16461D4404FB0033DC6A012C0ED045
:104CD000022C18D0E4B928460AF025FB864204D8F5
:104CE000324628460AF028FB3446204670BD284646
:104CF0000AF019FB8642344628BF0446284622465D
:104D00000AF01AFBF1E72846BDE870400AF030BB14
:104D10000024EAE7A81900201822034B02FB003305
:104D20009A6A586A801A7047A81900200A4A0B49E3
:104D300093680968C3F8D000C3F8D41008494B68D9
:104D400043F080534B60002383F31188BFF36F8FD0
:104D50009368D3F8D4007047141E0020701001002F
:104D600000ED00E001B507F00BFFBDE80140174979
:104D70008A684FF040001044EFF3098C80E8F01F80
:104D8000202080F31188BFF36F8F114F4FF0006622
:104D90008A6A8A603E60D2F8D0000023C2F8D03020
:104DA00080F3118802F1400090E8F01F8CF309882D
:104DB00002F1000004B50AF00FFBBDE8044001B5A4
:104DC0000BF03AFCBDE8014070470000141E0020C3
:104DD00004ED00E01EF0040F0CBFEFF30880EFF3CA
:104DE0000980816911F8021C0229FFD001B50AF07F
:104DF000F8FA01BD43B2002B08DB012200F01F00CE
:104E000002FA00F0024A5B0942F82300704700BF33
:104E100000E100E043B2002B0DDB012200F01F0097
:104E200002FA00F05B09044A203342F82300BFF382
:104E30004F8FBFF36F8F704700E100E0054B4209D1
:104E400053F82220012300F01F0003FA00F0104065
:104E5000704700BF00E100E070B54C1C072C054610
:104E60000E460ED95C23104A1049114809F0C3F9C7
:104E700031461048072209F0BEF95C210A4809F0C2
:104E800060FC6BB2002BACBF03F160430A4B4FEAEE
:104E90004414E4B2ABBF03F5614305F00F0583F89A
:104EA00000435C5570BD00BFFE26010034270100A1
:104EB0007C1101004F27010014ED00E042F8203C76
:104EC000009B0B4942F81C3C019B21F0010142F878
:104ED000183C029B42F8081C42F8143C4FF08073C7
:104EE00042F8043C0023203A0266C0F8D0307047F4
:104EF000D3E20000044608B50E46154600F070FBEC
:104F00000A4B9C600BF098FBD4F8AC3083F30B8811
:104F1000284686F30988002163B681F31188BFF320
:104F20006F8F0022002309F0D4F900BF141E002067
:104F3000014910220A60704710ED00E072B640404F
:104F400080F31188BFF36F8FBFF34F8F30BF62B60E
:104F5000BFF36F8F704700BF72B6494081F311886D
:104F600020BF80F3118862B6704700BF73B5064654
:104F70000C4601B3134B144D1448ED1AED08AD0166
:104F800045F00105ADF80050D1E90123096809F0A9
:104F900042FCADF80050D4E90423E1680C4809F064
:104FA0003AFC2A46E1690B4809F008FC2A46A16947
:104FB000094809F003FC2146304602B0BDE87040C4
:104FC00005F032BBA80B0100400C01008427010052
:104FD000B3270100E2270100F127010030BFFFF7EE
:104FE000FDBF00BF0E4A08B50E4B22F07F029A604B
:104FF000BFF34F8FBFF36F8FD3F8882022F4700276
:10500000C3F88820EFF3148323F0040383F3148898
:1050100005F0B2FB07F0D2FE00F0B4FA05F0D0FBC9
:105020000000000000ED00E001B572B60B4A506AC6
:1050300000281EBF002151620BF04FFA62B6EFF359
:105040000580A0F110004FEAC0000549014409C9DC
:105050009847BDE80140034908470000141E00209E
:10506000800901004555000009F073FB202080F302
:1050700011880B484FF0AA014FF400620AF07BFA46
:1050800007484FF40061401880F30988EFF314805B
:105090000221084380F31488BFF36F8FFFF7A2FF4C
:1050A000588D0020EFF30880EFF3098101B57246B7
:1050B00000F05AF901BD00BF70B5284B284C294DAE
:1050C000E41AE408A40144F001063146264809F038
:1050D00068FBAB6A9B0103D53146244809F061FBAC
:1050E000AB6ADD0104D5224844F0010109F059FB07
:1050F0001C4EB56A15F4801505D01E4844F0010118
:1051000009F04FFB0225B36A180304D51A4844F08E
:10511000010109F046FB134EB36A590304D5174841
:1051200044F0010109F03DFBB36A9A0304D5144829
:1051300044F0010109F035FB0A4EB36ADB0304D5E4
:10514000104844F0010109F02CFBB36A28466FEACD
:1051500003436FEA1343B36270BD00BFA80B0100A5
:10516000400C010000ED00E01F280100372801007D
:105170004A280100642801008E280100AC280100A3
:10518000D1280100EB2801002DE9F0412A4B2B4CDE
:105190002B4DE41AE408A40144F0010807460E462A
:1051A0002848414609F0FDFAAB6AD90403D54146C7
:1051B000254809F0F6FAAB6A1A0504D5234844F0ED
:1051C000010109F0EEFA1E4DAB6A9B0512D544F0C1
:1051D000010841461E4809F0E4FAA96BAB6A1804BD
:1051E00008D542461B4809F0E9FA1FB1AB6A23F41F
:1051F0000043AB62124DAB6A590504D5164844F022
:10520000010109F0CEFAAB6ADA050DD5134844F076
:10521000010109F0C6FA0020094A936A43F47F436A
:1052200093623070BDE8F081AB6A9B04F3D50C4803
:1052300044F00101EDE700BFA80B0100400C0100A4
:1052400000ED00E0162901002C2901003D29010094
:1052500050290100692901007E29010099290100D6
:10526000B12901002DE9F041314B324C324DE41AA5
:10527000E408A40144F0010807460E462F484146C1
:1052800009F08FFAAB6AD80603D541462C4809F0DD
:1052900088FAAB6A190704D52A4844F0010109F0DD
:1052A00080FA254DAB6A9A0712D544F001084146B1
:1052B000254809F076FA696BAB6A1B0608D54246A9
:1052C000224809F07BFA1FB1AB6A23F08003AB627E
:1052D000194DAB6AD80704D51D4844F0010109F007
:1052E00060FAAB6A990604D51A4844F0010109F046
:1052F00058FA114B9A6AD20602D49B6A9B070ED5C4
:10530000154940F24713154A154808F074FF15482F
:1053100008F071FF40F24711104809F012FA00201E
:10532000054A936A43F0FF0393623070BDE8F08151
:10533000A80B0100400C010000ED00E0E029010095
:10534000F62901003D290100292A0100412A010016
:10535000572A0100B12901008D4B0100762A010076
:105360007C110100B02A01002DE9F043604B0F468B
:105370005D6800268BB0C5F3080486F31188BFF37F
:105380006F8F02F07F43B3F17F4F0DD102F00C031A
:10539000082B1AD15749584B5848C91AC9088901CE
:1053A00041F0010109F0FDF94FF47173544A554978
:1053B000554808F020FF554808F01DFF4FF4717163
:1053C0004F4809F0BEF9002705E012075CBF074609
:1053D0000126002FE8D000238DF80730E31E092BAB
:1053E0006DD8DFE803F0055B5F3F6C6C6C6C6C6341
:1053F0004FF00009404B3F4DDFF8F480ED1AED0807
:10540000AD0145F001052946414809F0CAF9D8F82F
:105410002C408DF8079014F0020405D029463D4831
:1054200009F0BFF9002420E0D8F82C305B001CD52F
:105430002946394809F0B5F998F828302BB10120F0
:105440000DF10701FFF70EFF0EE098F829302BB1A0
:1054500001200DF10701FFF797FE05E0B8F82A30AB
:105460009BB213B1FFF728FE04469DF8073093B9AD
:105470002022394602A80AF053F8099B9EB3C3F3D1
:10548000080222B96FEA53236FEA432309932046A7
:1054900002A9FFF76BFD0BB0BDE8F08300200DF112
:1054A0000701CFE700200DF10701D4E71149124BA6
:1054B0001A48C91AC908890141F00101B0E70E4A2A
:1054C0000C4B17489B1ADB0815F4F87F4FEA83133F
:1054D000144943F0010318BF0146A4F11002124819
:1054E00009F080F99EE723F4FF7323F00103CDE771
:1054F00000ED00E0400C0100A80B0100EA2A0100C9
:10550000762A0100152B01007C110100282B0100D7
:10551000662B01007D2B01009E2B0100BD2B01009D
:10552000082C0100F32B0100212C0100044B5A69C7
:1055300042F010025A615A6942F480625A6170471F
:1055400000ED00E0044B9968986A884203D0034953
:105550004FF080520A607047141E002004ED00E0F6
:10556000BFF34F8F0549064BCA6802F4E06213434C
:10557000CB60BFF34F8F00BFFDE700BF00ED00E041
:105580000400FA05002320210348C2180133452BEB
:1055900082F80013F9D1704700E100E008B50E4B26
:1055A0009B68834207D1EFF3058393B10B4A53689D
:1055B00043F08053536006F0E1FA4FF02003EFF31D
:1055C000118083F31188BFF36F8FBDE808400AF0A4
:1055D000DDBF07F0FDFA00BF141E002000ED00E063
:1055E0001FB5094C094A23460121094800F082F9F8
:1055F00000230393074B0121E41A01A801930294AD
:1056000000F09EF904B010BD00A0072000000020AB
:10561000180E0100F807002010B50B680C7A23F073
:105620001F0204F01F031A43CB68640923F01F0311
:10563000054943EA440343F00103C1F89800C1F867
:105640009C20C1F8A03010BD00ED00E0072810B587
:105650000DD9084B084A0146D21AD20892010748D0
:1056600042F0010209F0AAF86FF0150010BDFFF733
:10567000D3FFFBE7A80B0100300C0100382C010020
:105680002DE9F04F8946144606464FF000085C4D60
:1056900085B0C84533DAD6F804A0BAF1000F51D06E
:1056A000BAF11F0F1ED91AF01F0F1BD1D6F800B088
:1056B0001BF01F0F16D1584609F0B7FE07460AEB3C
:1056C0000B00013809F0B1FE87421CD06FF01507BE
:1056D0004C4A4D4B3946D21AD20892014B4842F0FF
:1056E000010208E04146474A474B4948D21AD208CE
:1056F000920142F0010209F061F86FF015042046B2
:1057000005B0BDE8F08F17F1160FE1D0631EBB4264
:10571000DEDBC5F89870D5F89C10C5F89870D5F800
:10572000A03021F01F0143F01F0BD6E900321A44CC
:10573000994202F1FF3A1DD1D34507D13146F8B263
:1057400009F05AFE08F101080C36A2E73146C5F807
:105750009870D5F89C3022F01F0203F01F031A4303
:10576000C5F89C20E0B209F047FE10F1160FC4D036
:10577000441CE7E7013BD345E0B223F01F03C5F823
:10578000987008D1D5F8A020314602F01F021343CB
:10579000C5F8A030E7E7D5F8A01001F01F010B43D2
:1057A000C5F8A030314609F027FE10F1160FA4D03D
:1057B000C5F89870D5F89C209DF808300BF1FF3B98
:1057C00062F304038DF80830D5F8A0309DF8082066
:1057D0005B0863F347128DF80820D6E900321344C2
:1057E000009323F01F035B44A3EB0A03013023F073
:1057F0001F036946C0B20393FFF728FFB5E700BF58
:1058000000ED00E0300C0100A80B0100812C01002C
:105810005E2C01000522044BC3F89420BFF34F8F88
:10582000BFF36F8F704700BF00ED00E0BFF35F8FE5
:105830000022024BC3F89420704700BF00ED00E047
:1058400038B5224D2C68082C13D940F23B13204A5E
:105850002049214808F0CFFC082221461F4808F0C3
:10586000CAFC1B4840F23B1108F06BFF4FF0FF30C1
:1058700038BD0020FFF7DAFF194B1A4AC3F8C020E1
:1058800084421BD1184B1C70FFF7C4FF144BD3F894
:105890009030C3F30723082B0ED014494FF4B37391
:1058A0000B4A0D4808F0A7FC114808F0A4FC4FF47F
:1058B000B371074808F045FF0020D9E7696801EB9C
:1058C0000011FFF7A9FE0130DAE700BF240E010046
:1058D000A42C01008D4B01007C110100E42C01007F
:1058E00000ED00E0AAFF440008620020182D01002E
:1058F000682D010038B50D4D0C462A78FFF7C0FE23
:105900002870163011D14FF48273094A09490A48A8
:1059100008F071FC2146094808F06DFCBDE83840EC
:105920004FF48271024808F00CBF38BD08620020B5
:10593000A42C01008D4B01007C110100892D010078
:105940002DE9F74F324E894605464FF00008B34621
:10595000304FC84502DB03B0BDE8F08FD5F804A096
:10596000BAF1000F4FD029680846019109F05DFD9A
:10597000019904460AEB0100013809F056FD844202
:105980004FF01402244B18D06FF0150302FB08F8F7
:105990004BF808304FF48A73204A2149214808F017
:1059A0002AFC4946204808F026FC4FF48A711B481F
:1059B00003B0BDE8F04F08F0C4BE14F1160F346018
:1059C000E8D01978A142E5DD02FB08B0C7F898409D
:1059D000C7F89840D7F89C4000F10801007B64F3B9
:1059E00004000871D7F8A0000C79400860F3471450
:1059F0000C71D7F89C1021F01F017160D7F8A0102E
:105A000021F01F01316108F1010814360C35A0E7BF
:105A1000501A002000ED00E008620020A42C0100D4
:105A20008D4B01007C110100B52D0100014B186068
:105A3000704700BFD40200200CB41FB509B90DF1A6
:105A40000300CDE9020107AB069A02A905480193BC
:105A5000FCF748FA0022029B1A7005B05DF804EBCF
:105A600002B07047C3F500004FF08053094A002090
:105A7000C2F80432C2F8003242F8D43C42F8D83CB2
:105A80001022054BC3F840244FF05023C3F81406EE
:105A9000704700BF0028845000300050087970B56E
:105AA00000F01F04072C26D80B78092B19D8DFE843
:105AB00003F00606060606180514181605234A788C
:105AC000032A1BD0042A33D03649374B3748C91A2A
:105AD000C908890141F001010BE00623EFE7072324
