:020000040000FA
:10000000A856002081250000B9600000B12500003D
:10001000B1250000B1250000B1250000B125000088
:10002000000000000000000000000000B1230000FC
:10003000B125000000000000692300009F6000005F
:1000400059250000592500005925000059250000B8
:1000500059250000592500005925000059250000A8
:100060005925000059250000592500005925000098
:100070005925000059250000592500005925000088
:100080005925000059250000592500005925000078
:100090005925000059250000592500005925000068
:1000A0005925000059250000592500005925000058
:1000B0005925000059250000592500005925000048
:1000C0005925000059250000592500005925000038
:1000D0005925000059250000592500005925000028
:1000E0005925000059250000592500005925000018
:1000F0005925000059250000592500005925000008
:1001000059250000592500005925000059250000F7
:1001100059250000592500005925000059250000E7
:1001200059250000592500005925000059250000D7
:1001300059250000592500005925000059250000C7
:1001400059250000592500005925000059250000B7
:100150005925000053B94AB9002908BF00281CBF1F
:100160004FF0FF314FF0FF3000F080B9ADF1080CD7
:100170006DE904CE00F006F8DDF804E0DDE90223C5
:1001800004B070472DE9F04F099E0D4604460F4616
:10019000002B47D18A4294465FD9B2FA82F343B129
:1001A000C3F120019F4002FA03FC9C4020FA01F1B8
:1001B0000F434FEA1C451FFA8CFE220CB7FBF5F1EA
:1001C00005FB117701FB0EF042EA0742904208D985
:1001D0001CEB020201F1FF3702D2904200F234819F
:1001E0003946121AA4B2B2FBF5F005FB102200FB4F
:1001F0000EFE44EA0244A64508D91CEB040400F1B3
:10020000FF3202D2A64500F21981104640EA0140B1
:10021000A4EB0E0400211EB1DC400023C6E900431C
:10022000BDE8F08F8B4208D9002E00F0FB80002142
:10023000C6E900050846BDE8F08FB3FA83F100294E
:100240004BD1AB42C0F0F180824240F2EE800846D2
:10025000002EE5D0C6E90047E2E702B9FFDEB2FAB8
:1002600082F3002B40F09D808D1A4FEA124E97B218
:100270000121B5FBFEF20EFB1250250C45EA0045AC
:1002800007FB02F0A8420FD91CEB050502F1FF386D
:100290002CBF4FF001094FF00009A84203D9B9F172
:1002A000000F00F0CE8042462D1AA4B2B5FBFEF03E
:1002B0000EFB105500FB07F744EA0544A74208D996
:1002C0001CEB040400F1FF3502D2A74200F2B38018
:1002D0002846E41B40EA02409DE7C1F120078B401D
:1002E00005FA01F422FA07FCFD408A404CEA030CAF
:1002F00020FA07F34FEA1C491C431FFA8CFE00FA50
:1003000001F3200CB5FBF9F809FB185540EA054547
:1003100008FB0EF0A8420FD91CEB050508F1FF3AC7
:100320002CBF4FF0010B4FF0000BA84203D9BBF1DB
:10033000000F00F08C80D0462D1AA4B2B5FBF9F066
:1003400009FB105500FB0EFE44EA0545AE4507D9F2
:100350001CEB050500F1FF3401D2AE457ED82046E6
:1003600040EA0840A5EB0E05A0FB029845454C4627
:10037000C64602D306D14B4504D20138B9EB02047C
:1003800068EB0C0E002E6FD01A1B65EB0E0522FADF
:1003900001F305FA07F7CD4000211F43C6E90075B8
:1003A0003EE702FA03FCC3F1200001FA03F24FEA30
:1003B0001C4EC14024FA00F51FFA8CF79C401543EF
:1003C000B1FBFEF02A0C0EFB101142EA014200FBC9
:1003D00007F191420ED91CEB020200F1FF382CBF4D
:1003E0004FF001094FF00009914202D9B9F1000F15
:1003F00031D04046521AADB2B2FBFEF10EFB1122D3
:1004000045EA024501FB07F2AA4207D91CEB0505A4
:1004100001F1FF3801D2AA4223D84146AD1A41EA80
:10042000004126E731463046FAE6841A65EB0303BD
:1004300001201F460CE7644402384AE7644402384E
:10044000E4E6023A65442FE702396244C9E6A8F1BE
:100450000208654470E702386244CBE7023865441D
:100460007EE702396544D9E73146D9E6704700BFD7
:100470007FB53B4B3B4A3C48C2F80036C2F80436D5
:10048000C2F80836C2F80C36C2F81036C2F8143674
:10049000C2F81836C2F81C3602F58052C2F800368F
:1004A0004921C2F80436C2F80836C2F80C36C2F840
:1004B0001036C2F81436C2F81836C2F81C3605F0E9
:1004C000BFFA00F07FF8294800F060F828B945210C
:1004D000264A274805F0B4FAFEE701A800F06EFDB1
:1004E000244B1B68834204D04521234805F0A8FA19
:1004F000FEE74921039A214805F0A2FA4921204844
:1005000005F09EFA4FF44041002002F0EBFF20B1CD
:1005100045211C4805F094FAFEE703F0A1F869466E
:100520009DF8080000F03EF8009B039C1C44019BD2
:100530001D8966194FF02002EFF3118382F31188B1
:10054000BFF36F8F05F0ACFD01F036F8635983F30C
:1005500008887368984745210B4805F071FAFEE753
:100560003546526E00800150648800007D8800008E
:10057000908800002C020020AF880000D288000084
:1005800001890000268900005989000010B5044C3B
:10059000236813B904F05CF92060206810BD00BF27
:1005A00028020020024608B538B10548002345213D
:1005B00005F046FA6FF0150008BD0860FCE700BFC3
:1005C0007C8900004FF4C051014803F03BBC00BFE0
:1005D000841100202DE9F04FDFF8E8A1F9B038A828
:1005E000DDE9844817461D46DAF8006007F028FC6C
:1005F000002138A803F036FD3CB1B8F1000F04DD4E
:100600004246214638A807F01FFC4FF000097B89BD
:10061000B7F808809844FB689844C8454BD80DA9A2
:1006200038A807F04EFC869B23B1202218460DA95E
:1006300005F06FFD00232A46009339464FF6FF73FD
:1006400007A804F07CFF0446002840F0B5808046EF
:100650004FF0FF37DFF870910DF1160305AA06A9D8
:1006600007A804F0B8FF041EC0F2A68040F09780EF
:10067000BDF816B0BBF1100F34D1BDF81480B8F13D
:10068000200F40F0978043462846069938AA05F087
:10069000E7FB0446002840F08F80424638A90DA8A9
:1006A00005F011F80446494B1B68834240F08480F2
:1006B0004FF00108D0E7DDF80CB2A8EB09039B4529
:1006C00028BF9B4649465B462846829A05F0C8FBF0
:1006D0000446002870D15A46829938A807F0B4FB26
:1006E000D9449AE7BBF1010F36D1BDF81430202B65
:1006F00060D82846069938AA05F0B2FB04460028BF
:100700005AD19DF814B0BBF1200F03D94FF0FF343C
:100710002746A1E7D9F800302D4F0393039B9C4255
:10072000F4DA1DA807F08CFB00211DA803F09AFC49
:100730007A681DA8126857F8081B07F085FB15A9F1
:100740001DA807F0BEFB5A4638A915A805F0D0FC35
:100750000028DDD00134E1E7BBF1200F7FF47CAF4E
:10076000002F19DBD9F80030BB4215DDBDF814307D
:10077000B3F5807F1ED12846069938AA05F070FB94
:100780000446C8B9FFB25946BDF81430009738AADC
:100790000DA800F01FF806464FF0FF375CE7B8F1F0
:1007A000000F0DD0094B1B68B34201D0DAF800608E
:1007B000344601E04FF0FF34204679B0BDE8F08FB9
:1007C0000124F9E700000020B88400002C0200207A
:1007D000BC8400002DE9F04F91460022ADF54B7D21
:1007E00098466B4B07468A4627A811469DF85063EA
:1007F0001D6807F0E1FA674B8AAA53F8364003EB0D
:10080000C6035B680294196802A80C443023214691
:1008100006F0BFF868BB029B8A9A13449C4228D119
:10082000214629AA02A806F0C8F810BB0DF1B00BAA
:100830005A46214602A806F0C0F80646C8B929A8BB
:1008400006F0AEFB029B28909C4212D13346324602
:10085000CDE9006B29A927A807F06AFA48B927A8AB
:1008600003F09EFB28B929A806F09AFB8045289042
:100870000AD027A807F0ABFA27A807F0A8FA28465D
:100880000DF54B7DBDE8F08FB8F5807F02D04FF0BD
:10089000FF35F1E7BAF1200FF9D149468AAA27A816
:1008A00003F0A2FB04460028F1D19DF82733BC2BAE
:1008B000EDD10DF5A478DF26454603900CA807F08E
:1008C000BFFA00210CA803F0CDFB20220DF2073166
:1008D0000CA807F0B9FA042203A90CA807F0B4FA8F
:1008E00004A90CA807F0EDFA1F2ED4BFB1464FF0B3
:1008F00020099DF80F30404601334A4604A9A6EB73
:1009000009068DF80F3005F004FC002EC844D5DC34
:1009100028462A46DF238AAE117816F801CB013B20
:1009200081EA0C0102F8011BF6D12B7803F07F035A
:100930002B7010F8016B002EA9D10134BE2CF8D118
:1009400095F8BE30012BA2D10CA807F079FA3146F8
:100950000CA803F087FB08220F490CA807F074FAD3
:10096000394620220CA807F06FFA20220DF2072149
:100970000CA807F069FA04A90CA807F0A2FA202233
:100980000DF2073104A804F09EFE054681E700BF82
:1009900000000020BC840000A28900002DE9F04185
:1009A000022386B00D466F460026DFF86C80ADF856
:1009B000003017F8010B01A901F010F90446D8B96D
:1009C00001981023816802AA103905F049FA0446FB
:1009D00028B1019805F043FA0EE00126E9E710225C
:1009E000414602A805F084FB50B1019805F037FAA2
:1009F000002EF2D04FF0FF34204606B0BDE8F08163
:100A0000019805F046FE0423A0F108012A4601984A
:100A100005F026FA0446DCE79C8600002DE9F0414B
:100A2000384B88B0064600200D461C6804F07EFD59
:100A300006A9C0B201F0D2F8002857D1294604F027
:100A400075FD2C2407A9C0B204FB056401F0C6F8AB
:100A5000002836D04FF02C0808FB05F806EB0807F5
:100A6000396911F0100137D14FF480730193264B8F
:100A7000224600930846CDE90311069B0291FFF739
:100A8000A9FD0446214B56F8082006989A420CD13D
:100A90003A89FB68D1438B4207D81344826893425A
:100AA00003D21B4B1B68A3421DD045B382680021B3
:100AB00005F01CFA174A4521174804F0C1FF01242C
:100AC00011E0079805F041FA0746079805F0C7F9C5
:100AD000631EE21C93420DD1002DF0D030460699E2
:100AE00000F074FA2C46069805F0B9F9204608B0D3
:100AF000BDE8F08113F8011FB942EBD0AAE7074A1D
:100B0000D9E700BF00000020842D00203DB8F396F7
:100B10002C020020AA890000BC890000B4890000D2
:100B200073B50D46002104462846CDE9001104F0B6
:100B300085FE30B3164E2368B34203D1204601AA86
:100B400004F013FEE36AB34204D16A460121204651
:100B500004F00BFEDDE90032934288BF0193019B54
:100B6000AB60019A2946204600F02AFC094B1A681E
:100B7000002A03DD5721084804F062FF002002B07C
:100B800070BD05F10801FFF709FFAB680193E8E7C5
:100B90003DB8F396900A0020E48900002DE9F84F53
:100BA000884691469A460026DFF88CB0234D244CA7
:100BB0000B9B9E4201D300200FE00B9B40469F1BE6
:100BC000B7F5806F28BF4FF480671B4A3B4606EBA2
:100BD0000A0105F045F910B10120BDE8F88F0A9926
:100BE0003B465A464846711805F057F90028F3D19C
:100BF000144BC5F800463E44C5F80446C5F80846FF
:100C0000C5F80C46C5F81046C5F81446C5F8184690
:100C1000C5F81C46C3F80046C3F80446C3F80846A6
:100C2000C3F80C46C3F81046C3F81446C3F8184678
:100C3000C3F81C46BCE700BF842900200080015097
:100C40003546526E009001502DE9F04FAF4B0446EF
:100C5000602289B08A460021D3F8009005F084FA1A
:100C60000021AB4B08466362AA4B236504F05EFC8F
:100C700004F12001C0B200F0B1FF0121002004F016
:100C800055FC04F14C01C0B200F0A8FF0546204617
:100C900004F0ACFD024630B1802257219E4804F09A
:100CA000CFFE0123C9E00146204604F046FD06467A
:100CB00018B1002257219948F1E7204600F098FA30
:100CC0000028EED004A804F0B0FD0146204604F050
:100CD00015FE18B1324657219148E0E704A804F008
:100CE000ADFD80F0010104AA2046C9B204F025FD43
:100CF00006460028DDD104A804F0A0FD804660BBB4
:100D0000204604A9FFF70CFF9DF8173084F85830EF
:100D1000033B012B06D8404604F03DFE10B1FF23F3
:100D200084F858309DF81730023B022B0BD8002076
:100D300004F01FFE38B1FF2384F85830452179486C
:100D400004F07EFEFEE794F85830FF2BF6D0002129
:100D5000204604AA04F0F1FCA3E79DF81730012B0C
:100D600040F0A280E76C7049F868039605F0B4F98A
:100D7000002847D16D4804F063FED7F804B0DBF8D3
:100D800000206B4B9A4252D1BBF80860B8F1000FBB
:100D900040D05E44314672686648039204F050FECB
:100DA000002002F0CBFC821E022A034645D80190A7
:100DB00001212046FFF732FE5F4A019B12689042F4
:100DC00037D1039AB2F1807F37D9DBF80CB04921D3
:100DD0005A4804F035FE5946304602F0DFFB58BB56
:100DE0004921574804F02CFEB8F1000F34D03946A1
:100DF000204600F0EBF800283FF453AF514804F0D0
:100E00001FFE4EE77968504804F01AFEB04604F120
:100E10002C0BB4E70423384603AAF11805F020F898
:100E200050B906F180563146039A4848B6E7002685
:100E3000B6E701283FF435AF052384F8583094F81D
:100E40005830042B8DF8173039D8012B3DD854D0A9
:100E5000FF2384F8583050E0D4E91423013B52F8C2
:100E6000336002EBC3011268D1F80480B61ABB6884
:100E700032464146364804F0E3FDBB68B342FFF416
:100E800010AF08EB06029342FFF40BAFF86803F0D3
:100E9000DFFC79683144836842469B6898470028A4
:100EA0003FF4FFAE2B48AAE701212046FFF7B6FD2D
:100EB000214B1B689842BFD19DF81730BDE7052B29
:100EC000C6D1002004F067FD12E0204604A9FFF718
:100ED00027FE94F858300546DA1E012A0BD8002068
:100EE00004F059FD05460028B2D1002004F041FD70
:100EF000054610B1ACE7022BF7D094F85830FF2B21
:100F00002AD14521074804F09BFDFEE700000020A0
:100F10009002002090060020138A0000558A0000ED
:100F2000818A0000AB8A00007D880000B78A00003B
:100F30003DB8F396028B00002C0200203F8B00008E
:100F4000618B0000818B0000DA8A0000208B00009A
:100F5000A38B0000C18B0000012B06D0002120468E
:100F600004AA04F0EAFB0546C8B900212046FFF7B1
:100F700055FD8146104E3368834210D11022002166
:100F80000DEB020005F0F0F8236AD6F800905A78CD
:100F90008AF804205B68CAF80040CAF80830E06CA0
:100FA00004F05DFF206A04F05AFF002D14BF2846AC
:100FB000484609B0BDE8F08F2C02002008B5014674
:100FC0000148FFF741FE08BD300200202DE9F04F37
:100FD0000C46CB6885B00A7807464921274804F0BB
:100FE0002FFDD4E90121264804F02AFD00210846FE
:100FF00004F09CFA01210646002004F097FA3246DC
:101000000346054621781F4804F01AFD23789E42C6
:101010002FD09D422FD101262C2303FB0676F86D9D
:10102000B56A04F052FB4FF000088146DFF858B073
:10103000013D736A204603EBC502D2F804A053F8C1
:1010400035101B685246C91A039104F036FC039907
:10105000D044009107464B4642465146584604F05C
:10106000EFFCC14505F1FF35E3D8384605B0BDE8D2
:10107000F08F0026D0E70127F7E700BFE38B0000E1
:101080000E8C0000258C0000558C000073B51646B0
:101090001C4633B3436A5D686379012B15D101BBEC
:1010A0001F4B22681B689A4298BF0025002004F05D
:1010B0003DFA01A9C0B200F091FDF0B101250198FF
:1010C00004F0CDFE284602B070BD022B09D1236882
:1010D000012B08D9124A1268934202D8B1FA81F161
:1010E00049090025E2E7FCD10029DFD00129F8D128
:1010F0002179023918BF0121F3E72946202332461E
:10110000019804F0ADFE05460028D7D1002CD6D0BA
:10111000356804482D1A18BF4FF0FF35CFE700BFE0
:10112000040000203DB8F3962DE9F04F07460C4629
:1011300085B001460020164604F0CCFA051E51DBAE
:101140003846E46D04F0D3FA5FFA84F94FF0000AF0
:101150004FF0010B4FF0FF3405F1FF3809FB080891
:101160009DB9BAF1010F03DD4521204804F068FC68
:10117000631C06D07F2C2ADC40F20113013434605A
:10118000B380284605B0BDE8F08F6B1E0093414642
:10119000012338460DF10F0204F062FE031E019395
:1011A00022DB012238460DF10F0105F083FA019B85
:1011B00040B19B4501D00AF1010A9B46009DA8EB76
:1011C0000908CDE7B4F1FF3F08BF2C46F5E702233D
:1011D000803C7371631004F0010401330134336007
:1011E0003471CEE70725CCE70125CAE77C8C0000E7
:1011F00038B5826A446DA24208D0631C934205D080
:101200005721134804F01CFC002038BD802A1CD94B
:1012100057211048F6E7416A056D01EBC30105EB64
:10122000C30549686D688D4202D057210A48E9E735
:101230000133A342EFD19A4205D9426A02EBC303BC
:101240005B689942F1D10120DFE700231946F0E7FE
:101250009F8C0000D78C0000068D000000B589B07F
:10126000022004A905F059FA9DF81020012A41D066
:10127000254B2649032A18BF0B469DF81320492108
:1012800002929DF81220224801929DF811200092AE
:10129000204A04F0D5FB052006A905F03EFA9DF88A
:1012A0001820012A28D0184B1849032A18BF0B46CA
:1012B0009DF81B20492102929DF81A2014480192A2
:1012C0009DF819200092144A04F0BAFB9DF81030E2
:1012D000012B13D19DF81230032B0FD19DF818303C
:1012E000012B0BD00D48492104F0AAFB022009B0C4
:1012F0005DF804FB0A4BC0E7094BD9E709484921CF
:1013000004F09EFB0020F2E7378D00003D8D0000C9
:101310004F8D0000418D0000908D0000A08D0000D9
:10132000328D0000BF8D000070B5064618464B6830
:1013300014461D4A03F0FF2393420D4686B02ED17A
:101340000B68012B2BD104A905F0E7F99DF81020BB
:10135000012A26D0154B1649032A18BF0B469DF8C3
:101360001320492102929DF81220124801929DF803
:1013700011200092104A04F063FB9DF81030032BFB
:101380000DD121463046FFF721FE204605F0B5F984
:101390002046A96804F0C2F9204602F071F906B0AF
:1013A00070BD064BDBE700BF00010004378D000075
:1013B0003D8D00004F8D0000908D0000328D0000AB
:1013C000436A2DE9F04F0C465E6805460121002373
:1013D00089B033449342084601F10101F9D3734BBC
:1013E0001860204604F02AFAB8B1E86D04F06DF9EF
:1013F0000022AB6A013B3244904201D9013BFAE73B
:101400006A4A12689A4208D35721694804F018FBC7
:101410000123E37109B0BDE8F08F06A9022000F0B6
:10142000DDFB07A9052000F0D9FB0523214628464E
:10143000079AFFF779FF6379012B08D15B4BDFF83F
:1014400074B11F68594B1B68A7B9012323604FF083
:1014500002030127DFF85C816371544BDDF81890BB
:101460001B689F424AD9484604F0F9FC079804F0EB
:10147000F6FCCFE7226801339B1A9F423CD86B6A87
:10148000012A196853F8370003EBC70353F8083CE7
:10149000DDF81880A0EB0109A3EB010A12D1E26884
:1014A000079B022A0AD0414628460393FFF78EFD88
:1014B00022464146284604F002FA039B1946284674
:1014C000FFF784FD32464946404604F0F6F953469C
:1014D000424641462846CDE90096FFF75FFB21468C
:1014E000284604F0B8F923680133236020B1DBF803
:1014F00000300133CBF80030013FA3E723689F425F
:1015000051D36A6AFB0052F83710083B0491116806
:10151000DDF81CA00391296DC8580968A0EB010BE8
:10152000217901293DD1D158039B3246C91A484639
:10153000059104F0C2F905995B464A460091284698
:1015400051460196FFF72AFB2146284604F083F90D
:101550004FF00203237120B1D8F800300133C8F8EE
:10156000003032465946504604F0A7F9DDE903231E
:1015700049469B1A28465246CDE900B6FFF70EFBB6
:101580002146284604F067F92368013323604FF0B1
:101590000103237138B1D8F800300133C8F80030A6
:1015A00001E00229DDD0013757E700BF0400002029
:1015B000D68D0000900A00204FF0FF3301210F4A22
:1015C0005160C2F84833C2F8083302F580525160C6
:1015D0000021C2F84833C2F80833A2F55042C2F8DD
:1015E0000015C2F8083302F58052C2F80015C2F89F
:1015F00008334FF05022C2F80833704700400150C2
:101600000B6801330B60014B1B6818470800002072
:10161000014B1860704700BF0800002007B50B465B
:10162000002102460191034801A900F0E5F803B04A
:101630005DF804FB011600002DE9F84FB0F8189092
:10164000044619F0080893460DD001290CBF49F053
:10165000100949F02009A0F818908BF31188BFF306
:101660006F8FBDE8F88F09F00709022907D12046DE
:1016700004F0F3F90028F0D00128238B4ED16769DC
:10168000218B002F15DA256821F00701C4E90088B5
:1016900041F0010121830026218B01F0070ACA4590
:1016A00002D0A368002B5AD10DB9002E71D00023AF
:1016B00056E001F007035A1F012A1ED821F0070146
:1016C000062B256889B2C4E900880AD13DB12A46B3
:1016D000638B126801339BB2002AFAD1638341F015
:1016E00002012046218304F0B8F906460028D3D031
:1016F000238B43F020032383CDE7042B0CD121F06F
:10170000070189B22046218304F0A7F90546002885
:10171000C1D041F0200121830025BCE7032809D175
:10172000226923F00703166843F00603002523838C
:101730002F46B1E7042806D1226923F00703566833
:1017400043F00403F2E7052806D1226923F00703DA
:10175000966843F00503E9E700252E46E8E70123F4
:1017600041F0080121838BF31188BFF36F8FFBB920
:1017700085BB16B120461F49B0474FF02003EFF359
:10178000118B83F31188BFF36F8F238B23F0080332
:101790002383238BDA0625D5012123F0100323832D
:1017A000B4F8189009F0070900297FF45EAF54E7F8
:1017B000A1680029DCD0D1F800903B465246204673
:1017C000D1F804B0D847B9F1000FD1D04946D9F8C3
:1017D0000090F2E729463B46524620462D6804F029
:1017E00058F9C5E713F020011EBF23F020030221A2
:1017F0002383D5E7BF5A00002DE9F04F00240646A9
:1018000089464FF0FF35A0468DB01F46531E0B94FE
:1018100007934FF0000A0AE0BAF1000F11D1252812
:1018200000F041814946B0470B9B01330B93079B66
:1018300013F8010F07930028EED10B980DB0BDE807
:10184000F08F7A280AD8622812D8302854D047D886
:10185000252800F026812D2800F02C8149462520DE
:10186000B0470B9B494601330B93079B187813E154
:10187000A0F16303172BF1D801A252F823F000BFA7
:10188000931A00003B1900005D1800005D1800006D
:101890005D1800001D1900003B1900005D180000D4
:1018A0005D1800001D1900005D1800005D180000A3
:1018B0005D180000C91900005D1800005D180000E7
:1018C0006F1A00005D1800003B1900005D18000051
:1018D0005D180000C91900005D1800001D19000006
:1018E00039280FD95828B9D16C2C40F0B4804FF06A
:1018F000000B57F8042B98E0002D03DAB8F1000F25
:1019000000F0DB800A2325EAE57503FB0505B8F145
:10191000000F08BF4FF00208303D88E7682803D168
:10192000682C06D1482482E76C2802D16C2C00F088
:10193000C780002C92D1044679E77A2C07D1BA46A9
:101940005AF8042B9346D71775282ED112E06C2C29
:10195000F5D04C2C07D1073727F00707BA467F6828
:101960005AF808BBF0E7752807F1040A1AD1D7F82E
:1019700000B00027B8F1030318BF0123B8F1010F2D
:101980000CBF30222022CDE901320A230BA9CDE978
:10199000035100935A463B464946304604F0E2F96B
:1019A000574636E73A689346D717002FE2DA49469A
:1019B0002D20B0470B9BDBF1000B03F101030B93D0
:1019C00067EB4707013DD5E770288DD14FF0000B3D
:1019D00057F8043B3B493C485B451A460CBF8A46D6
:1019E00082461AF8010B4946CDE90832B047DDE9D5
:1019F00008320B9801300B909AF800000028F0D1C3
:101A000093B9A5F1050AB8F1030F7FF402AFBAF15B
:101A1000000F7FF7FEAE49462020B0470B9B0AF12E
:101A2000FF3A01330B93F2E7023DB8F1030318BF0D
:101A30000123B8F1010F0CBF30202020CDE9013087
:101A400010230BA9CDE90351009349465B4630466C
:101A500004F088F9DDE64C2C7FF449AF073727F016
:101A600007031F46D3F804B057F8082BDDE757F8F3
:101A700004ABD3465B461BF8010B20B9A3EB0A0A63
:101A8000A5EB0A0ABFE74946B0470B9B01330B930E
:101A9000F0E7494657F8040BB0470B9B01330B9313
:101AA000B7E64946F8E75446D0464FF0FF354FF0C9
:101AB000010ABCE64FF00308B9E64FF00108B6E6AC
:101AC0004C24B4E6138F0000198F000008B54FF4C2
:101AD0007F03D3F83021072A19D1D3F83431023BE0
:101AE000032B14D80B4AD35C8BB145210A4803F071
:101AF000A7FF4521094803F0A3FF4521084803F04B
:101B00009FFF404080F311884FF0040002DF002067
:101B100008BD00BFA88F00001C8F00004E8F000082
:101B20007A8F0000054B03EB8000D0F8003223F0E1
:101B3000E04343F04053C0F8003270470025845022
:101B400010B54FF02003EFF3118483F31188BFF336
:101B50006F8F01220B490C4B0020C3F80025C1F800
:101B6000D026FFF7DFFF1046FFF7DCFFC1F80427A0
:101B7000C1F80429C1F8002B84F31188BFF36F8FDB
:101B8000002010BD004000500010005048B1054B2F
:101B90001A68054BB2FBF3F2044B504343F00103C8
:101BA000184770476000002040420F00B0840000DA
:101BB000084B30B51C68084B01461A6800239C424C
:101BC00001DC002030BD1046057810328D42F9D07E
:101BD0000133F4E7388500000C000020084B10B5F5
:101BE0001B680C462BB1FFF7E3FF28B120600020F3
:101BF00010BD6FF00C00FBE76FF00100F8E700BFCD
:101C00000C00002030B589B00C4615460190FFF756
:101C1000CFFFB8B14368226802938368C068CDE9FA
:101C200003350023CDE90623059304F0F8F860B1ED
:101C3000074901AA04F07CFB079808B9059B2360BB
:101C400009B030BD6FF01500FAE76FF01200F7E74A
:101C5000235E0000044608B54FF02002EFF3118325
:101C600082F31188BFF36F8F04F01AFA204600F058
:101C70005DFE034803F0E4FE00F002FCFCE700BF59
:101C8000B98F00000A2838B50446064D03D10D214E
:101C9000286804F063F92868E1B204F05FF920468F
:101CA00038BD00BF940A002010B5074802F0D0FDEF
:101CB000064C074B1860204600F0CEFF2046FFF789
:101CC000A7FC002010BD00BFE28F0000851C0000B3
:101CD000940A0020084B70B5C31A0D4607499B10A3
:101CE000044659434022064804F057F92B46014662
:101CF0002046BDE870401847A80A0020B76DDBB643
:101D0000DC000020402373B50B4C0093041B0B46F2
:101D10000D460A49A41061430646094A094804F0E1
:101D200069F9011E05DA30462B4602B0BDE8704065
:101D3000184702B070BD00BFA80A0020B76DDBB61F
:101D400069600000DC0000202DE9F8430022012139
:101D50000646052000F05AFB052000F039FB11482B
:101D600001F0FEFD104B984219D104F0FBFC002459
:101D70004FF01C080C27DFF83490F568494608FB43
:101D8000045003F0B9FE002807DB012307FB0455CC
:101D90001C44042CAB67F0D10020BDE8F8836FF041
:101DA0000400FAE7E51D00000000AD0B808500008F
:101DB00001460C2300224B43084870B5C418783301
:101DC000D4E91C561844226704F0D4F82DB13246E9
:101DD0002B46BDE870400248184770BDA80A002095
:101DE000DC000020052811D8DFE800F0030E1010F9
:101DF0000C0A074B986F10F0070007D1FFF7D8BF08
:101E00000220FBE70320F9E70120F7E7704700BF56
:101E1000A80A002008B54FF02003EFF3118183F3E7
:101E20001188BFF36F8F124A136843F0020013F05A
:101E3000010310600CD04FF05022D2F80C34D2F8CD
:101E40000C2413F0010303D00A4804F093F8012393
:101E500081F31188BFF36F8F23B1BDE808400020E4
:101E6000FFF7A6BF0120BDE8084004F08BBC00BF0F
:101E7000480B0020200B0020074BD3E8EF2F22F067
:101E80000201C3E8E01F0028F7D1D30702D40120E4
:101E900004F0C7BC704700BF480B00202DE9F0419B
:101EA000012207463749D1E8EF3FC1E8E02F00287B
:101EB000F9D133B9344935484B60CB608A6003F0BF
:101EC0002EFE7B1E012B2FD8012F07D14FF0502360
:101ED000D3F81C3403F00303022B25D006F043F99A
:101EE000044618B92A4B1B78002B44D14FF020032D
:101EF000EFF3118683F31188BFF36F8F01244FF046
:101F00005025DFF89080D5F81834D5F81824D2037E
:101F10000CD503F00303022B01D0012F06D124B30B
:101F200086F31188BFF36F8FBDE8F081C4B13046EE
:101F300000F0B4FAD5F81835DBB2012BE3D1D5F8AF
:101F40000421002ADFD00022C5F80421D5F804219D
:101F50000222C5F818252022C8F88021AB60D2E7FC
:101F60000021212003F01CF8E4E74FF05023022267
:101F7000C3F80423D8E74FF0502302220646C3F8E3
:101F80000823BCE74C0B0020980A0020C40A00205C
:101F9000A62E002000E100E0044A1368C81A20F0D1
:101FA0007F400344136003F009B900BF5C0B0020BD
:101FB0002DE9F0474FF480374FF00009860000F11B
:101FC000500406F15026A40006F58036A4B204F1B0
:101FD0005024D6F84035DFF86C8021F07F4504F5B9
:101FE00080348740D8F804A5A3EB0A0323F07F438D
:101FF0002AF07F42012BC6F8402502D1132006F0BB
:10200000B8F80AF10202AB1A23F07F43B3F5000FD0
:1020100088BF1546C4F80090236825F07F43C8F8B0
:102020004473C6F84035D8F804359A4506D0EB1A03
:10203000023B23F07F43B3F5000F01D8BDE8F087E2
:102040002B46CFE700500150F8B500252F46104C25
:102050002668104B05B1F8BDD3F80423D203FAD596
:10206000D3F84021002AF6D0C3F84051D3F84021DC
:102070004FF48032C3F848230125D3F8401526B128
:10208000002062682760B047E2E72660E3E700BF10
:10209000500B00200050015038B500244FF480331D
:1020A0004FF400120C4D0121C5F80845C5F8043362
:1020B0000A4B1520C3F88021224600F0A7F915200D
:1020C00000F086F90123064AAB6020462B601360BE
:1020D000FFF7E4FE204638BD0050015000E100E06B
:1020E000580B0020134AB0F1FF3F14BF03461346BC
:1020F000013B002B1CDD9342A8BF13460E4AD2F8C9
:1021000004050E4A1168401A10F4000F18BF00238E
:1021100020F07F4201320A4813440A4A106000202E
:102120005060044A934294BFC9188918FFF740BF12
:102130000023E3E7FFFF7F00005001505C0B00200D
:10214000991F0000500B00204FF02002EFF3118385
:1021500082F31188BFF36F8F064AD2F80405064A4E
:102160001268801A20F07F4083F31188BFF36F8FCD
:10217000704700BF005001505C0B0020014803F085
:10218000D5B800BF8C85000010B5044618B90D4BBA
:102190000D485B689847616808290DD031F0040349
:1021A0000AD011F0020108D02146084802F064FC70
:1021B000002323600023636010BD1422206803F015
:1021C000D3FFF7E77C00002028900000600B002080
:1021D00008B540B34368042B0BD0082B16D003B3CB
:1021E00000684FF0FF324FF0FF3302F06FFC58B140
:1021F00015E001220368D3E8EF1F002903D1C3E8EB
:10220000E02F0028F7D10AD1002008BD0368074A53
:102210001B7803F5807352F82330002BF4D0044868
:10222000F3E70448F1E76FF4E040EEE70000035005
:10223000E98FFFFFEA8FFFFF08B508B34368042B5F
:1022400007D0082B13D0F3B1006802F0B1FC0020D6
:102250000CE000220368D3E8EF1F012903D1C3E893
:10226000E02F0028F7D1094808BF104608BD0368D1
:1022700000201B78064A03F5807342F82300F5E737
:102280006FF4E040F2E70348F0E700BFE98FFFFF9B
:1022900000000350EA8FFFFF10B5044618B9164B33
:1022A00016485B6898476368042B23D0082B21D01D
:1022B000CBB92368BBB94FF0FF324FF0FF33214653
:1022C0000F4802F0A9FB08B923681BB90A4B0D4857
:1022D0005B68984714220021206803F045FF63687B
:1022E00043F002036360206805F090FE636843F0EA
:1022F0000103636010BD00BF7C0000202890000037
:10230000600B00204E90000008B5064940231422BF
:10231000054805F058FEBDE808400449044803F0AC
:1023200057B800BF7C0B0020600B0020A485000084
:1023300094850000094A0A49936809689867D96733
:1023400008494B6843F080534B60002383F31188A6
:10235000BFF36F8F9368D86F704700BF3C110020A8
:10236000C087000000ED00E00F498A684FF0380098
:102370001044EFF3098C80E8F01F202080F31188CF
:10238000BFF36F8F094F4FF000660A6A8A603E60A4
:10239000906F0023936780F3118802F1380090E872
:1023A000F01F8CF3098870473C11002004ED00E019
:1023B0001EF0040F0CBFEFF30880EFF30980816972
:1023C00011F8021C0229FFD001B503F071FE01BD16
:1023D00043B2002B08DB012200F01F0002FA00F0DC
:1023E000024A5B0942F82300704700BF00E100E0A9
:1023F000054B420953F82220012300F01F0003FA85
:1024000000F01040704700BF00E100E043B2002B35
:1024100001F10101ACBF03F16043064B4FEA4111EA
:10242000C9B2ABBF03F5614300F00F0083F800139E
:102430001954704714ED00E016461D4680B50F464E
:10244000044600F0B3FA2A4638463146084B2025A8
:1024500083F3098863B64FF0000383F31188BFF359
:102460006F8FA04785F31188BFF36F8FFEE700BF22
:10247000A8560020014910220A60704710ED00E0C4
:1024800072B6404080F31188BFF36F8FBFF34F8F58
:1024900030BF62B6BFF36F8F704700BF72B649405E
:1024A00081F3118820BF80F3118862B6704700BFA6
:1024B00037B505460C46C9B18B6810480093D1E981
:1024C0000023452103F0BCFA636945210093D4E958
:1024D00003230B4803F0B4FA4521E269094803F0ED
:1024E000AFFA4521A269084803F0AAFA2146284616
:1024F00003B0BDE8304002F0D1B900BF7B900000CE
:10250000AF900000E3900000F790000030BFFFF7AD
:10251000FDBF00BF0E4A08B50E4B22F07F029A6045
:10252000BFF34F8FBFF36F8FD3F8882022F4700270
:10253000C3F88820EFF3148323F0040383F3148893
:1025400002F0FAF902F064FD00F002FA02F016FA65
:102550000000000000ED00E001B5EFF30580A0F100
:1025600010004FEAC0000449014409C99847BDE87A
:102570000140024908470000348200002929000078
:1025800003F048FC202080F3118808484FF40061D4
:10259000401880F30988EFF314800221084380F388
:1025A0001488BFF36F8FFFF7B5FF0000A856002017
:1025B000EFF30880EFF3098101B5724600F006F9E8
:1025C00001BD00BF10B5204C4521204803F038FA6A
:1025D000A36A990103D545211D4803F031FAA36A86
:1025E000DA0103D545211B4803F02AFA164CA36AE9
:1025F000DB0203D54521184803F022FAA36A180329
:1026000003D54521154803F01BFA0F4CA36A590363
:1026100003D54521124803F013FAA36A9A0303D5A0
:102620004521104803F00CFA074CA36ADB0303D5DD
:1026300045210D4803F004FAA36A00206FEA034322
:102640006FEA1343A36210BD00ED00E02A91000081
:10265000479100005F9100007E910000AD91000065
:10266000D0910000FA9100001992000070B5234C3F
:1026700006460D462248452103F0E2F9A36AD90433
:1026800003D545211F4803F0DBF9A36A1A0503D5DA
:1026900045211D4803F0D4F9184CA36A9B0510D5B9
:1026A0001A48452103F0CCF9A26BA36A180408D597
:1026B0004521174803F0C4F91EB1A36A23F400436F
:1026C000A3620E4CA36A590503D54521114803F0B6
:1026D000B7F9A36ADA050BD545210F4803F0B0F925
:1026E0000020064A936A43F47F439362287070BDCA
:1026F000A36A9B04F4D545210848EFE700ED00E00C
:1027000049920000649200007A92000092920000C8
:10271000B0920000CA920000EA9200000793000005
:1027200070B5224C06460D462148452103F088F934
:10273000A36AD80603D545211E4803F081F9A36A90
:10274000190703D545211C4803F07AF9174CA36AF1
:102750009A0710D54521194803F072F9626BA36AF4
:102760001B0608D54521164803F06AF91EB1A36A75
:1027700023F08003A3620D4CA36AD80703D545213B
:10278000104803F05DF9A36A990603D545210E4868
:1027900003F056F90020054B9A6AD20658BF9A6A90
:1027A0009A6A42F0FF029A62287070BD00ED00E064
:1027B0003B930000569300007A9200008E93000035
:1027C000AB930000C6930000079300002DE9F04191
:1027D000484B0F465E6800258AB0C6F3080485F3AF
:1027E0001188BFF36F8F02F07F43B3F17F4F07D1A2
:1027F00002F00C03082B05D145213F4803F020F9D6
:102800002F4603E0120701D4074601254FF00008C8
:10281000E31E8DF80780092B5AD8DFE803F0054E38
:102820005232595959595956324E4521334803F0BD
:1028300007F9F46A8DF8078014F0020405D04521E9
:102840002F4803F0FDF800241EE0F36A5B001BD55F
:1028500045212C4803F0F4F896F828302BB10120DC
:102860000DF10701FFF75CFF0DE096F829302BB161
:1028700001200DF10701FFF7F9FE04E0738D9BB213
:1028800013B1FFF79FFE04469DF8073093B920224D
:10289000394602A803F03DFC099B35B3C3F3080297
:1028A00022B96FEA53236FEA43230993204602A912
:1028B000FFF7FEFD0AB0BDE8F08100200DF1070131
:1028C000D0E700200DF10701D5E745210E48B8E714
:1028D0000E4916F4F87F0E4A0E4808BF0A46A4F1C6
:1028E0001003452103F0ACF8ADE723F4FF7323F0A8
:1028F0000103DAE700ED00E01894000048940000BE
:10290000649400008A940000AE940000EA930000F2
:10291000FF930000E9940000024A536943F010035A
:102920005361704700ED00E0704700BFBFF34F8F69
:102930000549064BCA6802F4E0621343CB60BFF35B
:102940004F8F00BFFDE700BF00ED00E00400FA0577
:10295000002320210348C2180133452B82F80013BD
:10296000F9D1704700E100E008B50E4B9B68834247
:1029700007D1EFF3058393B10B4A536843F08053BB
:10298000536002F005FA4FF02003EFF3118083F358
:102990001188BFF36F8FBDE8084005F03EBB02F021
:1029A00017FB00BF3C11002000ED00E00121024BAD
:1029B000024A034800F046B900E00720000000206A
:1029C000B885000010B50B680C7A23F01F0204F0E4
:1029D0001F031A43CB68640923F01F03054943EA28
:1029E000440343F00103C1F89800C1F89C20C1F8EA
:1029F000A03010BD00ED00E030B54B680C6885B02C
:102A00000A894D890094013B24F01F04234402F0FD
:102A10001F0242EA451223F01F03072804468DF8DF
:102A20000820039309D902464521064803F008F817
:102A30006FF01504204605B030BD6946FFF7C2FFB0
:102A4000F8E700BF059500002DE9F04F89461446D0
:102A500006464FF00008594D85B0C84527DAD6F82C
:102A600004A0BAF1000F45D0BAF11F0F18D91AF01F
:102A70001F0F15D1D6F800B01BF01F0F10D158460C
:102A800003F021FB07460AEB0B00013803F01BFBA8
:102A9000874210D06FF015073A464521484802E0BA
:102AA00042464521474802F0CBFF6FF0150420460F
:102AB00005B0BDE8F08F17F1160FEDD0631EBB42D5
:102AC000EADBC5F89870D5F89C10C5F89870D5F871
:102AD000A03021F01F0143F01F0BD6E900321A4449
:102AE000994202F1FF3A1DD1D34507D13146F8B2E0
:102AF000FFF782FF08F101080C36AEE73146C5F852
:102B00009870D5F89C3022F01F0203F01F031A437F
:102B1000C5F89C20E0B2FFF76FFF10F1160FC4D08C
:102B2000441CE7E7013BD345E0B223F01F03C5F89F
:102B3000987008D1D5F8A020314602F01F02134347
:102B4000C5F8A030E7E7D5F8A01001F01F010B434E
:102B5000C5F8A0303146FFF74FFF10F1160FA4D093
:102B6000C5F89870D5F89C209DF808300BF1FF3B14
:102B700062F304038DF80830D5F8A0309DF80820E2
:102B80005B0863F34712D6E900310B44009323F04E
:102B90001F0301305B44A3EB0A03C0B223F01F0301
:102BA00007288DF80820039303D9024645210648DB
:102BB00079E76946FFF706FFB2E700BF00ED00E0E6
:102BC0005895000030950000059500000522044B43
:102BD000C3F89420BFF34F8FBFF36F8F704700BFD0
:102BE00000ED00E0BFF35F8F0022024BC3F894209A
:102BF000704700BF00ED00E038B50E4D2C68082C82
:102C000015D80020FFF7EEFF0B4B0C4AC3F8C0208D
:102C1000844205D10A4B00201C70FFF7D7FF38BD56
:102C2000696801EB0011FFF7CDFE0130F0E74FF0CE
:102C3000FF30F4E7C485000000ED00E0AAFF440087
:102C4000842E002010B5034C2278FFF7FDFE207083
:102C500010BD00BF842E0020014B1860704700BFDC
:102C60003000002008B5094B1A786AB901210D20FF
:102C700019700521FFF7CAFB0D20FFF7A9FB4FF0E4
:102C80000042034BC3F80423002008BD852E00201A
:102C900000D000502A4BF0B544682A4813408342C4
:102CA0003FD00DD8062B15D005D89BB1022B3AD0BA
:102CB0006FF0150034E0B3F5801FF9D1012309E06E
:102CC0002148834231D0B3F5A00F30D0B3F5800F47
:102CD000EED10223D0064CBF0326C2F3401682F485
:102CE00080759705C2F34020C5F3002506D512F480
:102CF000006F67681DD001228A40BA60277A134AA4
:102D0000134C01F01F01012F08BF144640EA450291
:102D1000002042EA032343EA8603803144F821304D
:102D2000F0BD0723D6E70423D4E70523D2E7032326
:102D3000D0E7520542BF01228A40FA60DEE700BFB9
:102D40000600F00006001000020040000028845039
:102D50000025845010B5094B094C00F01F024009B2
:102D6000012808BF234603EB8203D3F8002222F494
:102D7000403242EA0142C3F8002210BD00258450CF
:102D800000288450F7B50026CDE90066284DD5F817
:102D90007C415CB1274803F08EFA0090264803F08E
:102DA0008AFA0190C5F87C61D5F87C3100220126B1
:102DB000944622491E4DD5F8043306FA02F0184213
:102DC00016D00B68A3B102F5A27355F8233002AFF9
:102DD000C3F3403007EB800050F8087CC3F30423B2
:102DE00006FA03F33B43C1F800C040F8083C0B6807
:102DF0000132082A01F10401DDD1009A22B1104B01
:102E00000C49586803F020FA019A22B10D4B0A4987
:102E1000586803F019FA44B1064803F026FA064848
:102E200003B0BDE8F04003F020BA03B0F0BD00BF2E
:102E300000D000500C0100201C01002000D10050E7
:102E40007C10002098100020F7B51446426801F06D
:102E50001F05127AB4F5A03F0E46C76845EA421531
:102E600010D16349DFF88CC16809012808BF6146A9
:102E700005F01F02803251F82220D00707D56FF0ED
:102E800022009AE0B4F5005FF96800F09880012113
:102E9000FA68B1401143F960012100207A69B1401C
:102EA000B4F5A03F0CBF0A438A437A61BA69B3F50F
:102EB000C02F0CBF0A438A43BA613A69B3F5802F29
:102EC0000CBF114322EA01014B4A3961D2F80433A5
:102ED000DBB200F5A27152F82110C1F305218D4239
:102EE00072D123FA00F1C9076ED5830003F1A04324
:102EF00003F55043D3F8101521F00101C3F8101564
:102F000001238340C2F80833C0B200F0ADFD28466B
:102F10000021FFF71FFFF868F04010F001004CD0CF
:102F20007869F04010F0010455D0BB690DF107003D
:102F3000F340DB0757BF3969032621FA06F606F08E
:102F400001065CBFC6F10206F6B200F0ADFD2B4BE8
:102F500098423DD100209DF807202D02930003F1F7
:102F6000A04303F55043D3F8101505F47C5521F424
:102F70004F3121F44071C3F81015D3F810150D43EB
:102F800045EA0646C3F81065930003F1A04303F534
:102F9000514318609DF807101B688B0003F1A04394
:102FA00003F55043D3F8102542F00102C3F8102571
:102FB0000123114A8B40C2F8043303B0F0BD012253
:102FC000B24021EA020166E70130082881D19EE77C
:102FD0006FF01200F1E739692846F14001F0010174
:102FE000C1F10301C9B2FFF7B5FE2046E5E700BF16
:102FF000002584500028845000D000500000AD0B04
:10300000024B0B6001231360704700BFB410002017
:103010000048704740860000F8B50E46144603F09D
:1030200068FC21460546304603F06FF93746F8B193
:10303000B6FBF5F305FB136323B9B4FBF5F005FB11
:10304000104040B12346324645210C4802F0F8FCBE
:103050006FF015000BE0A54209D803F04AFC0546C5
:10306000384600F06FFD641B2F44F9D12046F8BDAF
:103070002346324645210248E8E700BF9D950000FF
:10308000C195000010B503F037FC034C206003F03D
:1030900030FC6060002010BDB410002070B50D46FB
:1030A0001946284616461C4603F02FF940B9094830
:1030B00023462A46452102F0C3FC6FF0150070BD7F
:1030C00034B122462946304603F023F80020F6E7C3
:1030D0002046F4E7C1950000F8B50E461946304683
:1030E00017461C4603F011F940B9234632464521E4
:1030F000124802F0A5FC6FF01500F8BD44EA060581
:1031000015F0030504D02346324645210C48F0E76C
:103110008CB124F00304AC4205EB060006D1094A49
:10312000D2F80034DB07FBD50020E6E7795900F040
:1031300027FD0435EFE72046DFE700BFC19500001B
:10314000E395000000900350036803F01F02026043
:10315000034A04485B09012B08BF1046704700BFB3
:103160000028845000258450F0B54B79012B2BD0DA
:10317000032B26D110278B79032B22D1CD7925B1B2
:10318000012D1ED143681B79DBB10A79012A1DD0BC
:10319000022A1FD0AAB914460B684668B3F5164F29
:1031A00036686ED033D8B3F5165F6DD01CD8B3F542
:1031B000966F6BD010D8B3F5967F6AD0B3F5167FB3
:1031C0006AD06FF022005BE00027D4E74FF48074F0
:1031D0000E22E1E70024FBE7B3F5166F5FD0B3F5ED
:1031E000965FEED1384B3EE0B3F5E14F5AD007D8A9
:1031F000B3F5615F58D0B3F5964FE2D1334B32E06F
:1032000047F6122C6345DCD14FF400032BE0B3F5F5
:10321000613F4BD013D8B3F5963F4AD009D84DF64D
:10322000C02C634547D0B3F5614FCAD14FF46B034F
:1032300019E0B3F5E13FC4D14FF0EB7313E0B3F500
:10324000612F3BD009D8DFF888C0634539D0B3F58A
:10325000E12FB6D14FF0E86305E0DFF878C06345B1
:10326000AFD14FF08053C6F82435C3682C433A439E
:103270002243043303C9C6F86C2583E80300002009
:10328000F0BD4FF41D03EEE7134BECE74FF49E2324
:10329000E9E74FF4A033E6E74FF41C33E3E74FF4DC
:1032A0001D23E0E70D4BDEE70D4BDCE74FF06C73C1
:1032B000D9E70C4BD7E74FF46503D4E74FF07063C1
:1032C000D1E74FF08063CEE700B0130000A04E00BE
:1032D00090D0030040420F000050270000C075004E
:1032E00000F03A0000903A012DE9F0410646884688
:1032F000C76804F038FFB8B9284B1B7883F0010386
:103300007268156893B14FF02003EFF3118483F3D3
:103310001188BFF36F8F706803F0DEF838BB84F359
:103320001188BFF36F8FEEE70123E9E7642470682B
:1033300003F0D2F870B9012003F012FA013CF6D183
:103340000021212001F02CFEF0E784F31188BFF367
:103350006F8FF5E74FF02003EFF3118483F31188AB
:10336000BFF36F8F706803F0B7F80028EDD001232A
:10337000002207F8148FC5F84475C5F84835C5F81C
:103380002021D5F82011C5F85821D5F85821AB6077
:1033900084F31188BFF36F8FBDE8F081A62E002063
:1033A0002DE9F3470546002201210820FFF72EF8FA
:1033B0000820FFF70DF8002114276B68EE681C68E1
:1033C0004FF00108C4F8001501A835600197FFF718
:1033D000BBFE019B4FF0030908FA03F3836001A8C9
:1033E0000197FFF7B1FE4FF0160A019B803340F8BA
:1033F000239001A8CDF804A0FFF7A6FE019B80331F
:1034000040F82310C4F80C751527C4F814A501A8BA
:103410000197FFF799FE019B803340F82310132199
:1034200001A80191FFF790FE019B08FA03F3836066
:1034300001A80191FFF788FE019B803340F823909B
:10344000C4F80815E968C4F8107528460431FFF778
:103450008BFE074678B96B689B79E3B106EB0A00EF
:1034600000F0E6FA1C4B984209D045211B4802F0B7
:10347000E7FA6FF00407384602B0BDE8F087B37D85
:1034800043F00042C4F8A021C4F88C20144A08FA82
:1034900003F3C2F804350823C4F800350023C4F848
:1034A0001031D4F8103106F11503C4F83435012376
:1034B000C4F8383523606B689B791BB94FF480736F
:1034C000C4F8043300231436C4F84465C4F84835FE
:1034D0000123A360E360CEE70000AD0B109600006F
:1034E0000070015040EA0103C3F30D0330B58BB9FE
:1034F00040F21515094C890BC0F38730994201D170
:10350000002030BDC218D2B202F5C07244F8225079
:103510000133F3E76FF01500F3E700BF0030005010
:103520000348452108B502F08BFA0020FFF7FEF9A9
:103530004496000010B50D4C6168B1F1805F13D363
:10354000A369A2680A48D21AB2F5805F28BF4FF477
:10355000805219446261206102F0DBFDD4E9052349
:103560001344A3610123A38310BD00BF00E0072023
:1035700000040720064B1868064B984205D0064BFE
:10358000984214BF0220012070470020704700BFFE
:1035900000E00720B6B3B4B55DCE03F10A461021B2
:1035A000274B70B5C3F840144FF050240123014657
:1035B000C4F8143650B34AB303F13643214DA3F196
:1035C0004B13A3F59843C5E9003000264FF4084398
:1035D000AA60EB601C48AE6102F032FAFFF7AAFF66
:1035E0001A48C4F8146602F02BFA194804F0C1FD19
:1035F0004FF47A7004F0BDFDFFF7BCFF0446C8B974
:103600006B7F002BF4D0FFF795FFF1E76FF015010A
:10361000104802F015FA6FF01504204670BD4FF007
:103620005023012249210C48C3F8142602F008FA5D
:103630000024F2E70228F2D1084802F001FAECE790
:103640000030005000E007206696000089960000D8
:1036500040420F00A0960000DB960000C0960000DC
:1036600008B54921044802F0EBF94FF48A72034B84
:10367000C3F8FC2708BD00BFF896000000300050DA
:10368000816808B5044A1023103902F006FC00389E
:1036900018BF012008BD00BF9C86000030B50C4655
:1036A000816887B0102302AA1039054602F0D8FBC2
:1036B000002802DA012007B030BD1022284602A9F6
:1036C00002F0AAFF68B303232370A96801232846E8
:1036D0000DF10702283902F0C3FB0028EADB9DF850
:1036E0000730284603F00F021B0962702371012284
:1036F0000DF1070102F090FF10B96378042B03D994
:103700000123637000232371AA682846203AA11C74
:1037100002F0D6FF0028CDD12846E11C02F0F9FFC7
:10372000C9E71022044902A802F0E2FC002814BFF5
:1037300002230123C8E700BF9C8600002DE9F04367
:1037400085B06946022002F0E8FF18B1FF2005B0FD
:10375000BDE8F083052002A902F0DFFF0246002841
:10376000F4D19DF800509DF808609DF803709DF815
:103770000B809DF802901E4C2946207802F08CFFA9
:1037800000B33146607802F087FFD8B1A378042BEC
:1037900001D0BB4216D1E378042B01D0434511D1AF
:1037A0002379042B0CD16379022B16D1114A1248CC
:1037B000492102F045F96079831E022BC7D9C5E77C
:1037C0004B45F0D00132032A04F10604D4D10B4852
:1037D000492102F035F90120B9E7032B05D0084A49
:1037E0000849042B18BF0A46E1E7074ADFE700BF94
:1037F00064970000209700003C9700004F9700005E
:10380000199700002A970000259700004FF47F03C6
:10381000D3F83021072A07D1D3F83431023B032BE8
:1038200002D8024AD05C70470020704776970000AB
:103830004FF05023D3F85825034B02F00302D34036
:10384000024A1360704700BF0020A10760000020FB
:1038500008B5FFF7DBFF58B13A4BD3F8202A3AB945
:103860000D21C3F8201A0121C3F81C19C3F81C2923
:103870000022D30003F57F03D3F80013013107D0F2
:10388000D3F800130132D3F80433202A0B60F0D1AF
:10389000FFF7BCFF00284DD1FFF7B8FF40B12A4B1E
:1038A0002A4AC3F830254FF050230122C3F8582587
:1038B0004FF47F03D3F83031072B02BF0022244B93
:1038C000C3F84C25FFF7A2FF50B14FF05023D3F8B7
:1038D0000024D10742BF0022C3F81421C3F81821E5
:1038E0004FF47F03D3F83031072B09D14FF0502329
:1038F000D3F80024D20744BF6FF00102C3F80024BC
:10390000FFF784FF18B165220E4BC3F80C27114A4C
:10391000D2F88C3043F44063C2F88C300E4A0F4B1F
:103920001168C3F84415D269C3F84C25BDE80840B6
:10393000FFF77EBF2922034BC3F80C270322C3F8ED
:103940003C27A9E700400050009003504400EFBE20
:103950000020035000ED00E00080FF0000600050F8
:10396000044B1A7922B9012218601A710248704773
:1039700002487047BC1000200000AD0B0C00AD0BDE
:103980004FF05023D3F8002110B552B10020C3F8F6
:103990000001D3F800210122C3F80823234B1B6840
:1039A00098474FF05023D3F804218AB10022C3F87E
:1039B0000421D3F80421D3F81824D3F8181402F002
:1039C0000302012A4FF0020128D1C3F818159A60AA
:1039D0004FF05023D3F8202162B10022C3F82021F8
:1039E000D3F820214FF48072C3F808230F4B042032
:1039F0001B6898474FF05023D3F82421AAB1BDE8A3
:103A000010400022C3F82421D3F824214FF400727F
:103A1000C3F80823054B05201B681847C3F8081393
:103A2000024B01201B689847D2E710BDBC10002054
:103A300070B50A4C2168CE430ED00023DAB226FAC4
:103A400002F5ED0703F10103F8D5012393400B4381
:103A500002700348236070BD0248FCE7C4100020D8
:103A60000000AD0B0200AD0B012303FA00F0C3B25E
:103A700093B14FF02003EFF3118183F31188BFF36B
:103A80006F8F064AD36D23EA0000D06581F3118859
:103A9000BFF36F8F0248704702487047C81000207C
:103AA0000000AD0B0400AD0B2DE9F041FF22002416
:103AB00001260546DFF854E01548DFF85880E3B2E8
:103AC0004FF02001EFF3118C81F31188BFF36F8F5A
:103AD00022FA03F1C9070AD5DEF85C1006FA03F7EB
:103AE000394201BF40463943CEF85C102B708CF34D
:103AF0001188BFF36F8F404505D006FA03F39A4350
:103B000004F10104DBD1BDE8F08100BFC810002042
:103B10000200AD0B0000AD0B0022034BC3F884255F
:103B2000C3F80425704700BF00900350044AD2F840
:103B30000034DB07FBD50160BFF35F8F704700BF28
:103B40000090035008B5C0F30B0383B90222094B60
:103B5000C3F88425C3F804254FF0FF320260D3F880
:103B60000024D207FBD5FFF7D7FF034808BD034861
:103B7000FCE700BF009003500000AD0B0A00AD0B46
:103B8000012208B5054BC3F88425C3F80425FFF7C7
:103B9000CDFFBDE80840FFF7BFBF00BF0090035056
:103BA00001680E4A0346914215D1C169A2F1102263
:103BB000A2F1EF1291420ED18268012A0BD8C2689D
:103BC00012B101698A4206D0586928B19B691B1A53
:103BD0005842584170470120704700BF55AA00FF66
:103BE0000D4B70B59E68A6B13046FFF7D9FF04466D
:103BF00078B9F3686BB935690DB9204670BD2846B0
:103C0000FFF7CEFF28B9EB68B34202D12E462D69EB
:103C1000F2E70124F1E700BF281100202DE9F84365
:103C2000404F3C68D4B1BC68C4B100284DD00029D5
:103C30004BD001FB00F5B5FBF0F0884245D1281DC3
:103C400043D8A9070DD025F003060436FC6803E02D
:103C50006368B3423BD2A469002CF9D12046BDE889
:103C6000F8832E46F2E7F86044E006F1200C04EBFE
:103C70000C03203959600021DFF8ACE0C3E90214DD
:103C80002169196144F80CE0DFF8A0C0C3F81CC03A
:103C900001B1CB60C3E90520AAB193619A6902B171
:103CA0005361236100234FF00109C4E905333B69E7
:103CB000C4E90169DB072DD5FFF792FF50B31C4B18
:103CC00048461B6825E0FB60E8E70024C6E7A368D8
:103CD0001BB1174B01201B689847D4E90520616888
:103CE00004F12008891B2329BFD80123A360002ADF
:103CF000B9D09061A36903B15A610023C4E90533C7
:103D00003B69DA0706D5FFF76BFF18B10120084BB6
:103D10001B6898472A4600214046444602F024FA90
:103D20009CE700BF2811002055AA00FF669911EEFC
:103D3000680000202DE9F041054600287CD03F4F67
:103D40003B68002B78D0BA68002A75D0834203D82C
:103D50007A681344984203D3394B01201B68984773
:103D6000A5F120042046FFF71BFF18B1344B0120BA
:103D70001B68984755F8183C012B03D0304B0120A5
:103D80001B689847002355F8146C45F8183CAEB1F1
:103D9000B26892B955F81C3C03F1200273681344D1
:103DA000736055F8103C336103B1DE602046202279
:103DB000002102F0D9F9234634461E462069002826
:103DC00032D08368002B2FD16368426820331344BC
:103DD00063600369D4E905212361DAB901BB426953
:103DE00081696261A161EAB19461A26902B1546121
:103DF00003B1DC602022002102F0B6F93B699B0789
:103E00001AD5FFF7EDFEB8B1BDE8F0410C4B01202B
:103E10001B6818479161A1690029E0D04A61DEE77B
:103E2000F960F8E7FC60E0E7002EE7D1FB68A361EA
:103E300003B15C61FC60E1E7BDE8F081281100207E
:103E40006800002038B50D461422002104461248AF
:103E500002F08AF91149124800F032F8232D1AD9DC
:103E600014F003031FBF043DED18C3F10403E4186D
:103E70002A460021204602F077F9074B094AC3E998
:103E800000459C602260A2F11022203DA2F1EF12B9
:103E90006560E261DC6038BD28110020353D00001E
:103EA0001D3C000055AA00FF014B1B68184700BFCE
:103EB00064000020014B1B68184700BF6C00002005
:103EC000024B1860024B002019607047640000200C
:103ED0006C0000200A4619B1024B00211B681847EC
:103EE000704700BF70000020F8B500F10806476871
:103EF000044630460D4603F053F8874216D16368F6
:103F0000B3F5807F12D80021304603F0BFF90028B6
:103F10000CDD0021304603F016F838B145B9002118
:103F200004F1140003F0B2F900281EDC1B481EE067
:103F300004F12C060021304603F0A8F90028F5DD35
:103F40000021304602F0FFFF0028EFD004F13806D0
:103F50000021304603F09AF90028E7DD00213046C1
:103F600002F0F1FF0028DAD1E0E70DB90020F8BD3A
:103F7000002104F1440003F089F90028D6DD002176
:103F800004F1500003F082F90028CFDD002104F194
:103F90005C0003F07BF90028E8DCC7E780BFFFFF87
:103FA00070B500210446FFF79FFF0546B8B904F13C
:103FB0000806304602F0D8FF7F2810D9143429466D
:103FC000204602F0C0FF50B1204602F0CDFF01288C
:103FD00005D93146204603F018F9002800DB014DD1
:103FE000284670BD00BEFFFFF0B50C4687B000212B
:103FF00005461646FFF778FF80BB03A802F01DFFB9
:1040000021466A6803A802F0D1FF0446D0B905F141
:104010000804214603A803F0F8F800281BDA05F18C
:10402000680303A900930846234605F114026F684C
:1040300003F07FFC044628B93A46314603A802F053
:10404000EDFF044603A802F0FEFE0CB1A4F5854482
:10405000204607B0F0BD6FF00304F3E7004CF7E72C
:1040600080BFFFFF0023C0E90033C1B9194A1A4BD2
:10407000DFF868C0C0E90223194B1A4AC0E904C33B
:10408000194BC0E90623194B036203F17453A3F5DE
:104090002303A3F692434362816600207047144BCA
:1040A000144ADFF854C0C0E9022303F1794303F551
:1040B000740303F501630361104BC0E905C303F109
:1040C000D14303F5C01303F51E63C3610C4B0362B8
:1040D0000C4BE0E767E6096A85AE67BB72F36E3C9E
:1040E0003AF54FA57F520E518C68059BABD9831FC3
:1040F00007D57C36D89E05C139590EF7310BC0FF64
:10410000A78FF964A44FFABE2DE9F04F00F1080320
:10411000D1B0059308AB009300F128030693009AF1
:10412000059B53F8040B42F8040B06989842F8D10B
:104130000DF140094A4601F140004B780C781B0410
:1041400043EA0463CC780431234311F8024C8842DB
:1041500043EA042342F8043BEFD19D48CA46864611
:10416000009B0099D3F81CC0D3F81080D3E9056BED
:10417000D3E90072C9689B680190DEF80000DAF8A4
:1041800000404FEAF82585EAB815204485EA7865AD
:1041900005448BEA060000EA080080EA0B000544AB
:1041A00047EA02044FEA7730AC4480EAB70007EAF6
:1041B00002051C4080EAB7502C430444DEF804504A
:1041C000DAF8040061440544AB4488EA06050D4072
:1041D000A44485EA06040BEB04054FEAF12B8BEAB5
:1041E000B11B8BEA716BAB444CEA07004FEA7C359C
:1041F0000CEA070485EABC051040204385EABC555B
:10420000DEF808400544DAF808005B44044426441C
:1042100081EA08041C405D4484EA080B06EB0B04A9
:104220004FEAF32686EAB31686EA736626444CEA1A
:1042300005004FEA75340CEA050B84EAB5043840F2
:1042400040EA0B0084EAB554044434443244DEF8B6
:104250000C00DAF80C6081EA030B30440BEA020B25
:104260004FEAF2268BEA010B404486EAB216584424
:1042700086EA7266064407EB06084FEA743045EAA0
:10428000040705EA040B80EAB40007EA0C0747EAD2
:104290000B0780EAB45038443044DAF81070DEF886
:1042A000106083EA020B3E4431440BEA080B4FEAEC
:1042B000F8268BEA030B86EAB816594486EA786634
:1042C0000E4444EA00074FEA703104EA000B81EA29
:1042D000B0012F4047EA0B0781EAB051394431441D
:1042E000B444DAF81470DEF8146082EA080B3E4435
:1042F00033440BEA0C0B4FEAFC268BEA020B86EAEE
:10430000BC165B4486EA7C661E4405EB060B4FEA4E
:10431000713340EA010500EA0107254083EAB10351
:104320003D4383EAB1532B443344DEF81850DAF8A6
:10433000186088EA0C0735442A4407EA0B074FEA5D
:10434000FB2587EA080785EABB153A4485EA7B65C1
:10435000154466194FEA733241EA0304044001EA46
:10436000030782EAB3023C4382EAB35222442A445E
:10437000DEF81C40DAF81C500EF1200E6719B84424
:104380008CEA0B07374087EA0C0747444FEAF628C8
:1043900088EAB61888EA7668474400EB070843EADB
:1043A00002044FEA723080EAB2000C4003EA0205D0
:1043B00080EAB2502C4304440648274470450AF171
:1043C000200A7FF4DAAE09F1C000079004E000BFD4
:1043D000AC860000EC860000D9F83800D9F804500B
:1043E0004FEAF04E8EEA704ED9F800408EEA902ED9
:1043F000D9F824004FEAB54A04448AEAF51AA644DB
:104400008AEAD50A4FEAF8240EEB0A0084EAB814C7
:10441000049084EA78608BEA060404EA080484EADB
:104420000B040444019888EA060E006C09F1200987
:104430002044049C204484446144029147EA0200E1
:104440004FEA7731C9F8204081EAB70107EA020450
:10445000184081EAB75120430844D9F81C1084441D
:104460004FEAF14080EA714080EA9120D9F80810C3
:1044700059F8184C294408444FEAB44181EAF41130
:1044800081EAD40101440298C9F824100EEA000E12
:1044900001988EEA060E406C5844084486440298FF
:1044A0004FEAF02585EAB01585EA706505EB0E0048
:1044B00003EB000B4FEA7C3547EA0C0307EA0C0ECE
:1044C00085EABC05134043EA0E0385EABC551D444A
:1044D000049B05444FEAF34E8EEA734E8EEA932E08
:1044E000D9F80C3059F8140C2344029C9E4488EAF5
:1044F000040A019C4FEAB043A46C83EAF01383EAF8
:10450000D0037344344404EB030E0AEA0B0A4FEA67
:10451000FB248AEA080A84EABB1484EA7B64F24436
:1045200004EB0A0E72444CEA05064FEA7534039216
:1045300084EAB5040CEA05023E4084EAB554164309
:10454000264406EB0E044FEAF14686EA714686EAF7
:104550009121D9F8106059F8102C064431444FEAE3
:10456000B24686EAF21686EAD2060E440299C9F8E5
:10457000283081EA0B0E03990EEA010E02998EEAA9
:10458000010E0199C86CC9F82C60404481198E4411
:10459000039945EA04084FEAF12080EAB11080EA65
:1045A000716000EB0E014FEA743007EB010A80EAFC
:1045B000B40005EA040708EA0C0880EAB45048EAA7
:1045C0000708804408EB01004FEAF34181EA734198
:1045D00081EA9323D9F8141059F80C7C0A44134447
:1045E0004FEAB74282EAF71282EAD7021A44039BE3
:1045F00002998BEA030E019B0EEA0A0E1B6D8EEAEE
:104600000B0E13440B444FEAFA2181EABA119E447F
:1046100081EA7A6101EB0E0344EA000E4FEA703141
:1046200004EA000881EAB0010EEA050E4EEA080E1F
:1046300081EAB051714419449C444FEAF64383EA3D
:10464000764359F808EC83EA9626D9F81830C9F869
:1046500030201F444FEABE4383EAFE1383EADE03A1
:1046600037441F44039BC9F8347083EA0A0808EAF8
:104670000C0888EA0308019B5B6D3B445B4498444B
:104680004FEAFC2383EABC1383EA7C6303EB08064E
:1046900005EB060B4FEA713340EA010500EA010819
:1046A000254083EAB10345EA080583EAB1532B4468
:1046B00033444FEAF24686EA724659F8048C86EA99
:1046C0009226D9F81C2096444FEAB84282EAF812A2
:1046D00082EAD80276441644019A8AEA0C0E956D55
:1046E000039A354415440EEA0B0E4FEAFB228EEA7C
:1046F0000A0E82EABB12754482EA7B621544C9F84D
:1047000038604FEA7332661941EA0304044001EA53
:10471000030E82EAB30244EA0E0482EAB352224450
:104720004FEAF74484EA77442A4484EA9727D9F881
:104730000050049C8CEA0B0EA0444FEAB54484EA76
:10474000F51484EAD505019C4744E46D3D442C44AE
:104750000EEA060E4FEAF6278EEA0C0E544487EA5C
:10476000B617744487EA7667274400EB070843EAE4
:1047700002044FEA7230C9F83C5080EAB2000C40A3
:1047800003EA020580EAB2502C430444019827440E
:1047900020300190079848457FF41EAECDE90D6B9F
:1047A000CDE90872CDE90A31CDF83CC0CDF83080B2
:1047B000059B00991B6851F8042B1344059A00913E
:1047C00042F8043B069B05929342F1D1002051B080
:1047D000BDE8F08FF8B5104B104F53F82050013062
:1047E00053F82060AE4200D8F8BDD5E90034204629
:1047F000984770B16CB10123E41B094A2411610987
:1048000052F8210004F01F0403FA04F4044342F8B0
:1048100021400835E6E700BFAC870000DC0000203F
:104820004C010020084BC01A0011084B420953F8F4
:104830002220012300F01F0003FA00F010420CBFF9
:1048400018460020704700BFDC0000204C0100200B
:1048500070B505460F4C104EB44204D10D4CB44215
:104860000AD1002414E02046FFF7DCFF10B12368D2
:10487000AB420DD01034EFE72046FFF7D3FF08B965
:104880001034ECE72846216801F026FC0028F7D117
:10489000204670BDDC0000204C010020F7B5054625
:1048A0000E464FF02003EFF3118783F31188BFF317
:1048B0006F8F00F087FB0022042D98BF184B044631
:1048C00094BF53F82530174B009245212A461648CD
:1048D00001F0B6F83EB1F369C3F308031BB14521FB
:1048E000124801F0ADF834B1204603F046FC03460F
:1048F00008B1027802B90E4B224645210D4801F05D
:104900009FF831462846FEF70BFE87F31188BFF368
:104910006F8F204603B0BDE8F040FEF725B800BF1A
:10492000C48700007A97000090970000BD970000B0
:1049300088970000E39700000248034A0021121AFA
:1049400001F012BCA0010020A82E0020012208B511
:10495000084B02201A70FFF73DFF00F04DFB0320CB
:10496000FFF738FFFBF784FD034A137B23F00103B5
:10497000137308BDA62E0020A001002008B5124B1D
:1049800083F308880025E023104C84F82230E57773
:1049900025766576A576636A43F4E0236362FDF7C6
:1049A000BBFFFDF767FD4FF0FF332846A362E362CC
:1049B000FFF710FF0120FFF70DFF2B462A4629467F
:1049C0000348FDF739FD00BFA85E002000ED00E0C0
:1049D0004D49000070B50E4B0E4CA34201D3002090
:1049E00070BDD3E9030141EA000212F003020BD1CA
:1049F0009D685A61AA4201D11C33EEE75E6901321B
:104A00000E6059610144F5E76FF01500E8E700BF5B
:104A1000500100205001002037B50C464FF0200512
:104A2000EFF3118185F31188BFF36F8F45695DB195
:104A300025602B684361836901338361002081F322
:104A40001188BFF36F8F11E052EA030C03D16FF0AE
:104A50000B002560F3E7CDE900230246044800F08F
:104A60004FFA18B9034B9B685B69236003B030BDF4
:104A7000A72E00203C110020F8B504460D464FF04B
:104A80002003EFF3118683F31188BFF36F8F47691B
:104A90006FB903F043FB50B12A68C767426103F066
:104AA000E5FA3146BDE8F840074800F0BFB82B688A
:104AB00062691A602B686361A369013BA36186F395
:104AC0001188BFF36F8FF8BDA72E00202DE9F341A9
:104AD000044617461E464FF02003EFF3118883F378
:104AE0001188BFF36F8FC3682F4A6BB180689168DC
:104AF000884219D057EA060318D188F31188BFF30A
:104B00006F8F6FF00F000CE0916891F90E10013378
:104B1000E36093682161A36088F31188BFF36F8F0E
:104B2000002002B0BDE8F0812169F0E790F90E3075
:104B300091F90E109942A8BF194621EAE1718B4202
:104B40002BDD03F05BFA054622464146CDE90076AF
:104B5000164800F0D5F90028E3D04FF02003EFF31A
:104B6000118683F31188BFF36F8F23682169A342F5
:104B700007D033B193F90E309942A8BF194621EA04
:104B8000E171A06803F03AFA00B945B1314607482F
:104B900000F04CF86FF00A00C3E70025D4E786F375
:104BA0001188BFF36F8FF5E73C110020A72E00207E
:104BB00038B5836804467BB31A4A926893422ED173
:104BC000C368012B05D0013BC36003F03CFA002011
:104BD00038BD4FF02003EFF3118583F31188BFF345
:104BE0006F8F0169806803F009FA204603F096FA96
:104BF000A06058B190F90E2022610022C26703F034
:104C000035FA2946084800F011F8DEE7E06085F340
:104C10001188BFF36F8FD8E76FF01500D8E74FF01A
:104C2000FF30D5E73C110020A72E002049B9EFF353
:104C3000058030B9054B1A6A9B689A4201D0FDF78E
:104C400079BB81F31188BFF36F8F70473C1100204F
:104C5000094B03F12402824205D19B688B4202D1A9
:104C60004B7BDB0606D1D1E9003213605A6000238A
:104C7000C1E90033704700BF3C1100200F4A0146D4
:104C8000136910B50BB1D0680DE002F1240003F0F8
:104C9000E7F99468637B13F0200F1CBF43F008030F
:104CA00063730028EFD039B99368597BC90603D1E3
:104CB0008169002908BF1846106210BD3C11002010
:104CC000F0B490F90D30417B002B28DBCB0626D1C8
:104CD000836923BB134A02F12405D2E90934AB42AC
:104CE00017D0B3B190F90E6093F90E70B7420BDD97
:104CF0005A68C0E900321060586061F07F0141736A
:104D0000F0BC0020FFF7BABFA34202D01B68002B03
:104D1000EAD1C0E90054936A18609062EDE7F0BCF4
:104D2000704700BF3C11002070B50446183003F0F6
:104D300026FA4FF02003EFF3118683F31188BFF3B7
:104D40006F8F94F90D30002B07DA21460E48FFF7DC
:104D50007FFF637B03F07F0363730C4D637BA86865
:104D600043F010036373031B58425841FFF786FF5B
:104D700086F31188BFF36F8FAB68A34203D1BDE800
:104D8000704003F056B970BD601100203C11002046
:104D90002DE9F04104464FF02003EFF3118283F335
:104DA0001188BFF36F8F437B13F0280F05D082F378
:104DB0001188BFF36F8FBDE8F08143F02003437388
:104DC00082F31188BFF36F8F183003F0D8F94FF0DA
:104DD0002003EFF3118683F31188BFF36F8F637B9A
:104DE000D80616D1A269A2B9190607D521462248CC
:104DF000FFF72EFF637B03F07F0363731F4B9868FD
:104E0000021B50425041FFF739FF002704F13008E0
:104E10001DE09B07F9D52146A068FFF719FF637BCA
:104E200023F0020363730023A360EEE705F118008B
:104E300003F0A5F9A8682946FFF70AFF6B7B28460F
:104E400023F002036B73AF60EF67FFF739FF256B49
:104E5000454501D0002DE9D1637B43F0080363731E
:104E6000236E86F31188BFF36F8F002BA3D02046EB
:104E7000BDE8F041184700BF601100203C11002040
:104E800008B590F90D300146002B06DA0748FFF708
:104E9000DFFE4B7B03F07F034B73054B9868431A8F
:104EA00058425841BDE80840FFF7E8BE60110020B5
:104EB0003C1100202DE9F041064615461C464FF0F6
:104EC0002003EFF3118783F31188BFF36F8F03F093
:104ED000FDF887F31188BFF36F8FB4F1FF3F08BF70
:104EE000B5F1FF3F08D02A46234606F118000349D2
:104EF000BDE8F04100F0EAB8BDE8F0818D80000027
:104F000010B50C4605481146DDE902238068FFF71D
:104F1000D1FF2046BDE81040FDF70CBA3C1100203F
:104F2000F8B504464FF02003EFF3118783F311889F
:104F3000BFF36F8F437B4DB2DB062BD183694BBB35
:104F4000164E214606F12400FFF782FE736AA57310
:104F5000834218D0BBB1B26A93F90E10A9420DDD9D
:104F60005A68C4E9003214605C600120FFF786FED5
:104F7000012087F31188BFF36F8FF8BD934202D0F1
:104F80001B68002BE8D1B36A20606360B36A1C60C1
:104F9000B462EAE70020A573EBE700BF3C110020F4
:104FA000B1F1FF3F08BFB0F1FF3F08B506D1044B98
:104FB0009868FFF7B9FE4FF0FF3008BD0020FCE70E
:104FC0003C110020014B9868704700BF3C11002045
:104FD00008B54FF02003EFF3118483F31188BFF37A
:104FE0006F8F044B98681861FFF79EFE2046FDF70F
:104FF000A1F900BF3C110020024A0349034800F018
:105000001FBD00BFE29700004D9800005A980000B5
:1050100008B50648064A0749121A01F07AF8BDE8B1
:105020000840054A0549064801F073B80000002011
:10503000A001002084980000000000008498000077
:1050400000000020034B1B680BB9FDF77DB8002062
:10505000704700BF681100200E4B10B51C689C42C1
:1050600008BF0024FFF7EEFF03466CB1D4E9040249
:10507000C01A62EBE373012873F1000207DBB0F1A1
:10508000004F73F1000301DB6FF0004010BD002002
:10509000FCE700BF7400002030B5036868B10A4A1D
:1050A0005268904209D043B1D3E90421D0E90445C4
:1050B000121941EB0501C3E90421426813605A60EB
:1050C0000023C0E9003330BD74000020B3F1FF3F7E
:1050D00008BFB2F1FF3F2DE9F843044688465ED091
:1050E0006FF001074FF0FF39551C43F100067B1BA1
:1050F00069EB0603002B0DDBFFF7A4FF2D4BD3E973
:105100000023BF1A69EB03037D1B63EB06062D1A10
:1051100066EBE076C4F808804FF02003EFF31187C8
:1051200083F31188BFF36F8FFFF78CFF012D76F1AA
:105130000003BCBF012500261F4A2D18136846EB4B
:10514000E0769342C4E9045602D0D2F804C033B9E1
:1051500053682260636053681C60546011E0D3E9B7
:105160000406D4E90415814275EB060E19DA411ADA
:1051700066EB0505C3E904155968C4E900310C6004
:105180005C601368934206D09C4204D1FFF764FF31
:105190000021FCF7A7FF87F31188BFF36F8FBDE8ED
:1051A000F883091A65EB06056345C4E90415CFD0F9
:1051B0001B68CCE720020020740000202DE9F84392
:1051C0004FF02003EFF3118483F31188BFF36F8F47
:1051D000234EDFF89080244D3060D8F8000032680C
:1051E00040454FEAE277D5E9001E0BD050B1D0E937
:1051F000043C9A4277EB0C0916DA9B1A6CEB070C0D
:10520000C0E9043C52184EEB0707C5E9002700250A
:105210003560FFF721FF2946FCF764FF84F311880E
:10522000BFF36F8FBDE8F88359184EEBE377D31ABD
:10523000336000220023C0E90423C5E90017FFF70B
:105240002BFF84F31188BFF36F8F836898474FF06B
:105250002003EFF3118483F31188BFF36F8FBCE752
:1052600068110020740000202002002038B5064C90
:10527000064DAC4201D3002038BD2046D4E90112CE
:1052800002F093FF1434F4E7500100205001002095
:1052900010B50A4C23681BB101230020236010BD08
:1052A00000F0B2F80028F7D00138072803D8044BE3
:1052B00053F8200010BD034810BD00BF6C11002042
:1052C000D8870000FE8FFFFFBFF34F8F0549064BC5
:1052D000CA6802F4E0621343CB60BFF34F8F00BF94
:1052E000FDE700BF00ED00E00400FA054FF0FE33DB
:1052F000002130B4084A094C094D23602B6013602B
:10530000E360EB60D360A361064A074CAB6163685E
:10531000C2F8001530BC184708548450005484501B
:1053200004548450004084507C000020024BD0E99B
:105330000012C3E9001270477C00002048B14368A6
:105340002BB1BFF35F8F00230360184670470248FC
:1053500070476FF4E0407047EA8FFFFF10B50446D6
:1053600028B1636813B100232360636010BD024B52
:1053700002485B689847F4E77C000020F88700004B
:1053800010B5044630B100226368226043F0010387
:10539000636010BD0148FFF7A9FFF4E72088000013
:1053A00080B1436863B10122D0E8EF3FC0E8E12F4C
:1053B0000029F9D1012BF7D0BFF35F8F0020704790
:1053C000024870476FF4E040704700BFEA8FFFFF6C
:1053D00070B40B4B0668C268D0E90154C3E90242BD
:1053E000C3E90065D1E903020E68064BD1E9015417
:1053F000C3E90065C3E902401A6170BC704700BF91
:105400008C0000209C00002008B500F00FF828B99F
:1054100000F00EF830B9044A106008BD00F036F80C
:10542000032008BD042008BD0C5A8450002070479A
:1054300010B5114800F048F800B110BD0F4800F059
:1054400043F80028F9D10E4C204600F03DF8002822
:10545000F3D10C4B0C481C6000F036F801460028D4
:10546000EBD100F02DF8044608B1204610BD00F045
:105470003FF82046FAE700BFD4000020C800002013
:10548000D0000020D8000020CC00002008B508483B
:1054900000F024F8074800F021F8074800F01EF853
:1054A000064800F01BF8BDE8084000F00BB800BF4C
:1054B000D4000020C8000020D0000020CC00002034
:1054C00000207047704700BF08B5034B02681B6897
:1054D00010689847002008BD8C00002008B5034BD9
:1054E00002685B6810689847002008BD8C000020A7
:1054F00070B5094C094D2069AB68984718B1084B45
:1055000008485B6898470021074AEB6811602069EA
:10551000BDE87040184700BF9C0000208C000020B0
:105520007C000020448800008011002029B101295E
:1055300014BF6FF0150005207047022070472DE959
:10554000F7430E4617469946044628B94FF0FF38F0
:10555000404603B0BDE8F0830029F7D0002AF5D01B
:10556000CB680D8938461D44042329460DEB030200
:1055700000F076FC80460028E8D146F60812BDF817
:1055800004107389914223D1BDF806109942DDD1F0
:10559000042338460DEB0302294400F061FC002887
:1055A000D4D146F60713BDF804209A42CED19DF817
:1055B0002830BDF80620A3727389C4E900672B4424
:1055C000E36004351344A4F8089063612561BFE7E4
:1055D000002BE6D0BAE72DE9F7430F4690461E466A
:1055E000044620B94FF0FF3003B0BDE8F0830368F4
:1055F000002BF7D04368002BF4D04FF6FF79D4E9A5
:1056000004239A4216D223685B8923B1E36893424C
:1056100004BF043323610423216960680DEB030296
:1056200000F01EFC0028DDD1A37A256923B1E368D0
:10563000AB4201D80120D7E72189BDF806304945A2
:1056400003F1040203D0BDF804C08C450BD116B1A0
:10565000BDF80410318004353D60A8F8003023699E
:1056600013442361C0E715442561C8E72DE9F743DA
:1056700006460F4690461D4600F05EFC082804468C
:105680001ED8304600F061FCAC4238BF2C46814643
:105690002A464146E4B2684600F03BFD4946621B9B
:1056A0000DEB050000F060FD23466A4639463046A2
:1056B00000F0F3FB003818BF012003B0BDE8F08311
:1056C0004FF0FF30F9E700F013BD4FF4C0735843BB
:1056D000303070470B78022B06D0052B0CBF4FF4EF
:1056E000C0704FF0FF3070474FF4C070704710B576
:1056F000044600F021FC4FF4C072A368303B02FB6B
:10570000103010BD012307B5816801AA20398DF83A
:105710000430FFF7ABFF03B05DF804FB13B504469C
:10572000019100F0B6FF0423A0F108010DEB030284
:105730002046FFF79BFF02B010BDF8B513460F4699
:105740001646002102460546FBF7A0FC044650B968
:1057500033460121284605F12C02FBF797FC10B1D6
:10576000002F18BF04462046F8BD73B5054600203B
:105770000C461646FFF7DAFE6946C0B2FCF72EFA71
:1057800030BB2C2101FB04542189E3680098CD181B
:10579000042329460DEB030200F062FBC0B946F674
:1057A0000813BDF8042064899A4216D1BDF806306A
:1057B0009C420DD1042300980DEB0302611900F007
:1057C0004FFB28B946F60713BDF804209A4207D0CC
:1057D000009800F044FB02B070BD002CF2D0F7E757
:1057E000BDF80610214429443160F1E737B5802522
:1057F0000446426A01A902200195FCF703FA48B960
:10580000019B0520226DA36201A90195FCF7FAF91D
:10581000054608B1012505E0019B206A636500F09B
:105820008BFBE065284603B030BD0123036003F124
:10583000012343600023C0E9023370474379012B01
:1058400007D10368012B04D10079431E5842584107
:105850007047002070477FB506460D46022001A91B
:10586000FCF7BCF938BB0198FFF741FFF16D044626
:10587000284600F0AEF80444019800F05DFB0646AF
:10588000019800F062FB082201460DEB020000F0D7
:105890006BFC2B7921468DF808300198334602AA1B
:1058A00000F0FBFA041E18BF0124019800F0D7FA9B
:1058B000204604B070BD0124F7E700F017BB37B5F0
:1058C00015460C460520694600F027FFE9790129B5
:1058D00003D00022204600F034FF9DF80330012B56
:1058E00002D1204600F009FFA9682046FFF716FF05
:1058F0002046FDF7C5FE002003B030BD73B50D4650
:105900000646FBF7ABFC0446E86030B102282ED116
:1059100001A9FCF763F918B10124204602B070BD5B
:105920002A4631460198FBF7FFFB0446D8B9019897
:1059300000F0AFFE012301460DF10302019800F0D3
:105940008FFA04460028E7D1012201980DF10301E6
:1059500000F0B0FE10B101238DF803309DF8033044
:1059600003F00F03EB71019800F079FAD5E70724F3
:10597000D3E713B5022001A9FCF730F948B9019823
:10598000FFF7C0FE0446019800F069FA204602B015
:1059900010BD0124FAE71FB5022001A9FCF71EF98A
:1059A000A8B9019802A9FDF779FE044668B99DF8E7
:1059B0000B30032B03D1019800F09FFE04460198A1
:1059C00000F04DFA204604B010BD0124F7E7012491
:1059D000F8E730B543790279012B0ABF012302238E
:1059E000002501FB03F4036802F1FF3203F1FF33EA
:1059F00004FB03F318BFCD0101FB0231481930BD90
:105A0000034658B1426802F00302012A03D0032A78
:105A100004D1026812B10020986070476FF0150041
:105A200070474268034602F00302032A4FF0000267
:105A3000816014BF104600685A60704700207047AC
:105A40000FB407B504A951F8040B0191FBF7E6FD6B
:105A500003B05DF804EB04B07047038B13F0070349
:105A600005D10368002B0CBF002003207047022BD8
:105A700005D1438B002B14BF002004207047012B5D
:105A800005D10368002B0CBF0020052070470020C3
:105A900070472DE9F0410D4607461946281D9046EE
:105AA0001E46FFF7BEFF044638B13346424629463C
:105AB0003846A446BDE8F0416047BDE8F08110B427
:105AC0004FF02004EFF3118284F31188BFF36F8F3E
:105AD000416110BC0121FBF7AFBD10B50C4640B1D0
